{
  "contractName": "Hangman",
  "abi": [
    {
      "constant": true,
      "inputs": [
        {
          "name": "",
          "type": "uint256"
        }
      ],
      "name": "games",
      "outputs": [
        {
          "name": "word",
          "type": "string"
        },
        {
          "name": "wager",
          "type": "uint8"
        },
        {
          "name": "tries",
          "type": "uint8"
        },
        {
          "name": "userWord",
          "type": "string"
        },
        {
          "name": "userName",
          "type": "string"
        },
        {
          "name": "wordLength",
          "type": "uint8"
        }
      ],
      "payable": false,
      "stateMutability": "view",
      "type": "function"
    },
    {
      "constant": true,
      "inputs": [
        {
          "name": "",
          "type": "uint256"
        }
      ],
      "name": "activeGames",
      "outputs": [
        {
          "name": "word",
          "type": "string"
        },
        {
          "name": "wager",
          "type": "uint8"
        },
        {
          "name": "maxTries",
          "type": "uint8"
        },
        {
          "name": "uniqGameString",
          "type": "string"
        },
        {
          "name": "hangman",
          "type": "string"
        },
        {
          "name": "challenger",
          "type": "string"
        },
        {
          "name": "tries",
          "type": "uint8"
        },
        {
          "name": "wordLength",
          "type": "uint8"
        }
      ],
      "payable": false,
      "stateMutability": "view",
      "type": "function"
    },
    {
      "constant": true,
      "inputs": [
        {
          "name": "",
          "type": "address"
        }
      ],
      "name": "activeGamesMap",
      "outputs": [
        {
          "name": "",
          "type": "uint256"
        }
      ],
      "payable": false,
      "stateMutability": "view",
      "type": "function"
    },
    {
      "constant": true,
      "inputs": [
        {
          "name": "",
          "type": "uint256"
        }
      ],
      "name": "idToWord",
      "outputs": [
        {
          "name": "",
          "type": "string"
        }
      ],
      "payable": false,
      "stateMutability": "view",
      "type": "function"
    },
    {
      "anonymous": false,
      "inputs": [
        {
          "indexed": false,
          "name": "gameId",
          "type": "uint256"
        },
        {
          "indexed": false,
          "name": "wager",
          "type": "uint8"
        },
        {
          "indexed": false,
          "name": "tries",
          "type": "uint8"
        },
        {
          "indexed": false,
          "name": "userName",
          "type": "string"
        },
        {
          "indexed": false,
          "name": "userWord",
          "type": "string"
        },
        {
          "indexed": false,
          "name": "wordLength",
          "type": "uint8"
        }
      ],
      "name": "NewGame",
      "type": "event"
    },
    {
      "anonymous": false,
      "inputs": [
        {
          "indexed": false,
          "name": "gameId",
          "type": "uint256"
        },
        {
          "indexed": false,
          "name": "wager",
          "type": "uint8"
        },
        {
          "indexed": false,
          "name": "tries",
          "type": "uint8"
        },
        {
          "indexed": false,
          "name": "userName",
          "type": "string"
        },
        {
          "indexed": false,
          "name": "userWord",
          "type": "string"
        },
        {
          "indexed": false,
          "name": "wordLength",
          "type": "uint8"
        }
      ],
      "name": "PendingGame",
      "type": "event"
    },
    {
      "anonymous": false,
      "inputs": [
        {
          "indexed": false,
          "name": "challenger",
          "type": "string"
        },
        {
          "indexed": false,
          "name": "hangman",
          "type": "string"
        },
        {
          "indexed": false,
          "name": "gameId",
          "type": "uint256"
        },
        {
          "indexed": false,
          "name": "wager",
          "type": "uint8"
        },
        {
          "indexed": false,
          "name": "maxTries",
          "type": "uint8"
        },
        {
          "indexed": false,
          "name": "uniqGameString",
          "type": "string"
        },
        {
          "indexed": false,
          "name": "wordLength",
          "type": "uint8"
        }
      ],
      "name": "GameStarted",
      "type": "event"
    },
    {
      "anonymous": false,
      "inputs": [
        {
          "indexed": false,
          "name": "guess",
          "type": "string"
        },
        {
          "indexed": false,
          "name": "hit",
          "type": "bool"
        },
        {
          "indexed": false,
          "name": "index",
          "type": "uint32"
        }
      ],
      "name": "SolutionGuess",
      "type": "event"
    },
    {
      "anonymous": false,
      "inputs": [
        {
          "indexed": false,
          "name": "winner",
          "type": "string"
        },
        {
          "indexed": false,
          "name": "word",
          "type": "string"
        },
        {
          "indexed": false,
          "name": "loser",
          "type": "string"
        }
      ],
      "name": "GameWinner",
      "type": "event"
    },
    {
      "anonymous": false,
      "inputs": [
        {
          "indexed": false,
          "name": "challenger",
          "type": "string"
        },
        {
          "indexed": false,
          "name": "hangman",
          "type": "string"
        },
        {
          "indexed": false,
          "name": "wager",
          "type": "uint8"
        },
        {
          "indexed": false,
          "name": "maxTries",
          "type": "uint8"
        },
        {
          "indexed": false,
          "name": "uniqGameString",
          "type": "string"
        },
        {
          "indexed": false,
          "name": "wordLength",
          "type": "uint8"
        },
        {
          "indexed": false,
          "name": "tries",
          "type": "uint8"
        },
        {
          "indexed": false,
          "name": "gameId",
          "type": "uint256"
        }
      ],
      "name": "ActiveGameDetails",
      "type": "event"
    },
    {
      "anonymous": false,
      "inputs": [
        {
          "indexed": false,
          "name": "letter",
          "type": "string"
        },
        {
          "indexed": false,
          "name": "index",
          "type": "uint32"
        }
      ],
      "name": "SolutionCheck",
      "type": "event"
    },
    {
      "anonymous": false,
      "inputs": [
        {
          "indexed": false,
          "name": "letter",
          "type": "string"
        },
        {
          "indexed": false,
          "name": "index",
          "type": "uint32"
        }
      ],
      "name": "MissesCheck",
      "type": "event"
    },
    {
      "anonymous": false,
      "inputs": [
        {
          "indexed": false,
          "name": "userWord",
          "type": "string"
        }
      ],
      "name": "RemovePendingGame",
      "type": "event"
    },
    {
      "constant": false,
      "inputs": [],
      "name": "getActiveGame",
      "outputs": [],
      "payable": false,
      "stateMutability": "nonpayable",
      "type": "function"
    },
    {
      "constant": false,
      "inputs": [
        {
          "name": "_word",
          "type": "string"
        },
        {
          "name": "_wager",
          "type": "uint8"
        },
        {
          "name": "_tries",
          "type": "uint8"
        },
        {
          "name": "_userWord",
          "type": "string"
        },
        {
          "name": "_userName",
          "type": "string"
        },
        {
          "name": "_wordLength",
          "type": "uint8"
        }
      ],
      "name": "createGame",
      "outputs": [],
      "payable": false,
      "stateMutability": "nonpayable",
      "type": "function"
    },
    {
      "constant": false,
      "inputs": [],
      "name": "getPendingGames",
      "outputs": [],
      "payable": false,
      "stateMutability": "nonpayable",
      "type": "function"
    },
    {
      "constant": false,
      "inputs": [
        {
          "name": "challenger",
          "type": "string"
        },
        {
          "name": "gameId",
          "type": "uint256"
        },
        {
          "name": "uniqGameString",
          "type": "string"
        },
        {
          "name": "wordLength",
          "type": "uint8"
        }
      ],
      "name": "commenceLiveGame",
      "outputs": [],
      "payable": false,
      "stateMutability": "nonpayable",
      "type": "function"
    },
    {
      "constant": false,
      "inputs": [
        {
          "name": "guess",
          "type": "string"
        },
        {
          "name": "gameId",
          "type": "uint256"
        }
      ],
      "name": "checkGuess",
      "outputs": [],
      "payable": false,
      "stateMutability": "nonpayable",
      "type": "function"
    }
  ],
  "bytecode": "0x606060405260008060006101000a81548163ffffffff021916908363ffffffff160217905550341561003057600080fd5b613c718061003f6000396000f300606060405260043610610099576000357c0100000000000000000000000000000000000000000000000000000000900463ffffffff168063117a5b901461009e57806313e4c714146102905780632ec1c017146105185780634d83d55a1461056557806364751e1014610601578063957b5fb414610708578063d77eef1b1461071d578063e6b2bc1414610783578063ff6f4bc114610838575b600080fd5b34156100a957600080fd5b6100bf600480803590602001909190505061084d565b60405180806020018760ff1660ff1681526020018660ff1660ff16815260200180602001806020018560ff1660ff16815260200184810384528a8181546001816001161561010002031660029004815260200191508054600181600116156101000203166002900480156101745780601f1061014957610100808354040283529160200191610174565b820191906000526020600020905b81548152906001019060200180831161015757829003601f168201915b50508481038352878181546001816001161561010002031660029004815260200191508054600181600116156101000203166002900480156101f75780601f106101cc576101008083540402835291602001916101f7565b820191906000526020600020905b8154815290600101906020018083116101da57829003601f168201915b505084810382528681815460018160011615610100020316600290048152602001915080546001816001161561010002031660029004801561027a5780601f1061024f5761010080835404028352916020019161027a565b820191906000526020600020905b81548152906001019060200180831161025d57829003601f168201915b5050995050505050505050505060405180910390f35b341561029b57600080fd5b6102b160048080359060200190919050506108bc565b60405180806020018960ff1660ff1681526020018860ff1660ff1681526020018060200180602001806020018760ff1660ff1681526020018660ff1660ff16815260200185810385528d8181546001816001161561010002031660029004815260200191508054600181600116156101000203166002900480156103765780601f1061034b57610100808354040283529160200191610376565b820191906000526020600020905b81548152906001019060200180831161035957829003601f168201915b505085810384528a8181546001816001161561010002031660029004815260200191508054600181600116156101000203166002900480156103f95780601f106103ce576101008083540402835291602001916103f9565b820191906000526020600020905b8154815290600101906020018083116103dc57829003601f168201915b505085810383528981815460018160011615610100020316600290048152602001915080546001816001161561010002031660029004801561047c5780601f106104515761010080835404028352916020019161047c565b820191906000526020600020905b81548152906001019060200180831161045f57829003601f168201915b50508581038252888181546001816001161561010002031660029004815260200191508054600181600116156101000203166002900480156104ff5780601f106104d4576101008083540402835291602001916104ff565b820191906000526020600020905b8154815290600101906020018083116104e257829003601f168201915b50509c5050505050505050505050505060405180910390f35b341561052357600080fd5b61054f600480803573ffffffffffffffffffffffffffffffffffffffff16906020019091905050610943565b6040518082815260200191505060405180910390f35b341561057057600080fd5b610586600480803590602001909190505061095b565b6040518080602001828103825283818151815260200191508051906020019080838360005b838110156105c65780820151818401526020810190506105ab565b50505050905090810190601f1680156105f35780820380516001836020036101000a031916815260200191505b509250505060405180910390f35b341561060c57600080fd5b610706600480803590602001908201803590602001908080601f0160208091040260200160405190810160405280939291908181526020018383808284378201915050505050509190803560ff1690602001909190803560ff1690602001909190803590602001908201803590602001908080601f0160208091040260200160405190810160405280939291908181526020018383808284378201915050505050509190803590602001908201803590602001908080601f0160208091040260200160405190810160405280939291908181526020018383808284378201915050505050509190803560ff16906020019091905050610a0b565b005b341561071357600080fd5b61071b610e85565b005b341561072857600080fd5b610781600480803590602001908201803590602001908080601f0160208091040260200160405190810160405280939291908181526020018383808284378201915050505050509190803590602001909190505061137c565b005b341561078e57600080fd5b610836600480803590602001908201803590602001908080601f0160208091040260200160405190810160405280939291908181526020018383808284378201915050505050509190803590602001909190803590602001908201803590602001908080601f0160208091040260200160405190810160405280939291908181526020018383808284378201915050505050509190803560ff1690602001909190505061172b565b005b341561084357600080fd5b61084b611d34565b005b60018181548110151561085c57fe5b906000526020600020906005020160009150905080600001908060010160009054906101000a900460ff16908060010160019054906101000a900460ff1690806002019080600301908060040160009054906101000a900460ff16905086565b6002818154811015156108cb57fe5b906000526020600020906009020160009150905080600001908060010160009054906101000a900460ff16908060010160019054906101000a900460ff16908060020190806003019080600401908060050160009054906101000a900460ff16908060080160009054906101000a900460ff16905088565b60046020528060005260406000206000915090505481565b60036020528060005260406000206000915090508054600181600116156101000203166002900480601f016020809104026020016040519081016040528092919081815260200182805460018160011615610100020316600290048015610a035780601f106109d857610100808354040283529160200191610a03565b820191906000526020600020905b8154815290600101906020018083116109e657829003601f168201915b505050505081565b60008060016000809054906101000a900463ffffffff1663ffffffff161015610b53576001808054806001018281610a439190613819565b9160005260206000209060050201600060c0604051908101604052808d81526020018c60ff1681526020018b60ff1681526020018a81526020018981526020018860ff1681525090919091506000820151816000019080519060200190610aab92919061384b565b5060208201518160010160006101000a81548160ff021916908360ff16021790555060408201518160010160016101000a81548160ff021916908360ff1602179055506060820151816002019080519060200190610b0a92919061384b565b506080820151816003019080519060200190610b2792919061384b565b5060a08201518160040160006101000a81548160ff021916908360ff1602179055505050039150610d18565b600090505b6001805490508163ffffffff161015610d1757600060018263ffffffff16815481101515610b8257fe5b906000526020600020906005020160040160009054906101000a900460ff1660ff161415610d0a5760c0604051908101604052808981526020018860ff1681526020018760ff1681526020018681526020018581526020018460ff1681525060018263ffffffff16815481101515610bf657fe5b90600052602060002090600502016000820151816000019080519060200190610c2092919061384b565b5060208201518160010160006101000a81548160ff021916908360ff16021790555060408201518160010160016101000a81548160ff021916908360ff1602179055506060820151816002019080519060200190610c7f92919061384b565b506080820151816003019080519060200190610c9c92919061384b565b5060a08201518160040160006101000a81548160ff021916908360ff1602179055509050508063ffffffff16915060008081819054906101000a900463ffffffff16809291906001900391906101000a81548163ffffffff021916908363ffffffff16021790555050610d17565b8080600101915050610b58565b5b87600360008481526020019081526020016000209080519060200190610d3f9291906138cb565b507ffa90035500eba52653bd3e7f70d8dce39e97b59fc9918ab002887d494cd292de828888878988604051808781526020018660ff1660ff1681526020018560ff1660ff16815260200180602001806020018460ff1660ff168152602001838103835286818151815260200191508051906020019080838360005b83811015610dd5578082015181840152602081019050610dba565b50505050905090810190601f168015610e025780820380516001836020036101000a031916815260200191505b50838103825285818151815260200191508051906020019080838360005b83811015610e3b578082015181840152602081019050610e20565b50505050905090810190601f168015610e685780820380516001836020036101000a031916815260200191505b509850505050505050505060405180910390a15050505050505050565b6000610e9033611fdf565b90507f3ef5c44b687439135e7c1a88073376ba96c4f2287734027f2e4be5a46802f90d6002600460003373ffffffffffffffffffffffffffffffffffffffff1673ffffffffffffffffffffffffffffffffffffffff16815260200190815260200160002054815481101515610f0157fe5b90600052602060002090600902016004016002600460003373ffffffffffffffffffffffffffffffffffffffff1673ffffffffffffffffffffffffffffffffffffffff16815260200190815260200160002054815481101515610f6057fe5b90600052602060002090600902016003016002600460003373ffffffffffffffffffffffffffffffffffffffff1673ffffffffffffffffffffffffffffffffffffffff16815260200190815260200160002054815481101515610fbf57fe5b906000526020600020906009020160010160009054906101000a900460ff166002600460003373ffffffffffffffffffffffffffffffffffffffff1673ffffffffffffffffffffffffffffffffffffffff1681526020019081526020016000205481548110151561102c57fe5b906000526020600020906009020160010160019054906101000a900460ff166002600460003373ffffffffffffffffffffffffffffffffffffffff1673ffffffffffffffffffffffffffffffffffffffff1681526020019081526020016000205481548110151561109957fe5b90600052602060002090600902016002016002600460003373ffffffffffffffffffffffffffffffffffffffff1673ffffffffffffffffffffffffffffffffffffffff168152602001908152602001600020548154811015156110f857fe5b906000526020600020906009020160080160009054906101000a900460ff166002600460003373ffffffffffffffffffffffffffffffffffffffff1673ffffffffffffffffffffffffffffffffffffffff1681526020019081526020016000205481548110151561116557fe5b906000526020600020906009020160050160009054906101000a900460ff16886040518080602001806020018960ff1660ff1681526020018860ff1660ff168152602001806020018760ff1660ff1681526020018660ff1660ff16815260200185815260200184810384528c81815460018160011615610100020316600290048152602001915080546001816001161561010002031660029004801561124c5780601f106112215761010080835404028352916020019161124c565b820191906000526020600020905b81548152906001019060200180831161122f57829003601f168201915b505084810383528b8181546001816001161561010002031660029004815260200191508054600181600116156101000203166002900480156112cf5780601f106112a4576101008083540402835291602001916112cf565b820191906000526020600020905b8154815290600101906020018083116112b257829003601f168201915b50508481038252888181546001816001161561010002031660029004815260200191508054600181600116156101000203166002900480156113525780601f1061132757610100808354040283529160200191611352565b820191906000526020600020905b81548152906001019060200180831161133557829003601f168201915b50509b50505050505050505050505060405180910390a1611371612028565b6113796123c0565b50565b600061138661394b565b600060028481548110151561139757fe5b9060005260206000209060090201600501600081819054906101000a900460ff168092919060010191906101000a81548160ff021916908360ff16021790555050600092506002848154811015156113eb57fe5b90600052602060002090600902016000018054600181600116156101000203166002900480601f0160208091040260200160405190810160405280929190818152602001828054600181600116156101000203166002900480156114905780601f1061146557610100808354040283529160200191611490565b820191906000526020600020905b81548152906001019060200180831161147357829003601f168201915b505050505091506001855111156114b0576114ab858561258f565b611724565b60018551141561172357600090505b81518163ffffffff1610156116f3578460008151811015156114dd57fe5b9060200101517f010000000000000000000000000000000000000000000000000000000000000090047f0100000000000000000000000000000000000000000000000000000000000000027effffffffffffffffffffffffffffffffffffffffffffffffffffffffffffff1916828263ffffffff1681518110151561155e57fe5b9060200101517f010000000000000000000000000000000000000000000000000000000000000090047f0100000000000000000000000000000000000000000000000000000000000000027effffffffffffffffffffffffffffffffffffffffffffffffffffffffffffff191614156116e65760019250846002858154811015156115e557fe5b90600052602060002090600902016006018263ffffffff1681548110151561160957fe5b906000526020600020900190805190602001906116279291906138cb565b507f8696d55ed69c77973e49639ae68e35aa5413a6f73d521601bfb9a1bf27215da5856001836040518080602001841515151581526020018363ffffffff1663ffffffff168152602001828103825285818151815260200191508051906020019080838360005b838110156116a957808201518184015260208101905061168e565b50505050905090810190601f1680156116d65780820380516001836020036101000a031916815260200191505b5094505050505060405180910390a15b80806001019150506114bf565b60011515831515141561170a57611709846129ef565b5b6000151583151514156117225761172184866131cc565b5b5b5b5050505050565b61173361394b565b600061173d61395f565b61174561395f565b600060018881548110151561175657fe5b90600052602060002090600502016000018054600181600116156101000203166002900480601f0160208091040260200160405190810160405280929190818152602001828054600181600116156101000203166002900480156117fb5780601f106117d0576101008083540402835291602001916117fb565b820191906000526020600020905b8154815290600101906020018083116117de57829003601f168201915b505050505094506000935060016002805480600101828161181c9190613973565b91600052602060002090600902016000610140604051908101604052808a815260200160018e81548110151561184e57fe5b906000526020600020906005020160010160009054906101000a900460ff1660ff16815260200160018e81548110151561188457fe5b906000526020600020906005020160010160019054906101000a900460ff1660ff1681526020018c815260200160018e8154811015156118c057fe5b90600052602060002090600502016003018054600181600116156101000203166002900480601f0160208091040260200160405190810160405280929190818152602001828054600181600116156101000203166002900480156119655780601f1061193a57610100808354040283529160200191611965565b820191906000526020600020905b81548152906001019060200180831161194857829003601f168201915b505050505081526020018e81526020018960ff1681526020018881526020018781526020018b60ff16815250909190915060008201518160000190805190602001906119b292919061384b565b5060208201518160010160006101000a81548160ff021916908360ff16021790555060408201518160010160016101000a81548160ff021916908360ff1602179055506060820151816002019080519060200190611a1192919061384b565b506080820151816003019080519060200190611a2e92919061384b565b5060a0820151816004019080519060200190611a4b92919061384b565b5060c08201518160050160006101000a81548160ff021916908360ff16021790555060e0820151816006019080519060200190611a899291906139a5565b50610100820151816007019080519060200190611aa79291906139a5565b506101208201518160080160006101000a81548160ff021916908360ff16021790555050500390507f13534ab88abaf224da4728540b25ae28bafb73bf1486e8ca885b3c869738465c8960018a815481101515611b0057fe5b90600052602060002090600502016003018360018c815481101515611b2157fe5b906000526020600020906005020160010160009054906101000a900460ff1660018d815481101515611b4f57fe5b906000526020600020906005020160010160019054906101000a900460ff168c8c6040518080602001806020018881526020018760ff1660ff1681526020018660ff1660ff168152602001806020018560ff1660ff16815260200184810384528b818151815260200191508051906020019080838360005b83811015611be2578082015181840152602081019050611bc7565b50505050905090810190601f168015611c0f5780820380516001836020036101000a031916815260200191505b5084810383528a818154600181600116156101000203166002900481526020019150805460018160011615610100020316600290048015611c915780601f10611c6657610100808354040283529160200191611c91565b820191906000526020600020905b815481529060010190602001808311611c7457829003601f168201915b5050848103825286818151815260200191508051906020019080838360005b83811015611ccb578082015181840152602081019050611cb0565b50505050905090810190601f168015611cf85780820380516001836020036101000a031916815260200191505b509a505050505050505050505060405180910390a1611d178682613579565b611d2081613631565b611d2988613678565b505050505050505050565b600080600180549050111515611d4957600080fd5b600090505b600180549050811015611fdc576000600182815481101515611d6c57fe5b906000526020600020906005020160040160009054906101000a900460ff1660ff161115611fcf577f665ee6b7ac93e2c6a3d81ceb999e1cd3aaec0f5757768def4bfa9d5c119a6c5a81600183815481101515611dc557fe5b906000526020600020906005020160010160009054906101000a900460ff16600184815481101515611df357fe5b906000526020600020906005020160010160019054906101000a900460ff16600185815481101515611e2157fe5b9060005260206000209060050201600301600186815481101515611e4157fe5b9060005260206000209060050201600201600187815481101515611e6157fe5b906000526020600020906005020160040160009054906101000a900460ff16604051808781526020018660ff1660ff1681526020018560ff1660ff16815260200180602001806020018460ff1660ff168152602001838103835286818154600181600116156101000203166002900481526020019150805460018160011615610100020316600290048015611f375780601f10611f0c57610100808354040283529160200191611f37565b820191906000526020600020905b815481529060010190602001808311611f1a57829003601f168201915b5050838103825285818154600181600116156101000203166002900481526020019150805460018160011615610100020316600290048015611fba5780601f10611f8f57610100808354040283529160200191611fba565b820191906000526020600020905b815481529060010190602001808311611f9d57829003601f168201915b50509850505050505050505060405180910390a15b8080600101915050611d4e565b50565b6000600460008373ffffffffffffffffffffffffffffffffffffffff1673ffffffffffffffffffffffffffffffffffffffff168152602001908152602001600020549050919050565b61203061394b565b60006040805190810160405280600181526020017f24000000000000000000000000000000000000000000000000000000000000008152509150600090505b6002600460003373ffffffffffffffffffffffffffffffffffffffff1673ffffffffffffffffffffffffffffffffffffffff168152602001908152602001600020548154811015156120bd57fe5b9060005260206000209060090201600601805490508163ffffffff1610156123bc578160008151811015156120ee57fe5b9060200101517f010000000000000000000000000000000000000000000000000000000000000090047f0100000000000000000000000000000000000000000000000000000000000000027effffffffffffffffffffffffffffffffffffffffffffffffffffffffffffff19166002600460003373ffffffffffffffffffffffffffffffffffffffff1673ffffffffffffffffffffffffffffffffffffffff168152602001908152602001600020548154811015156121a957fe5b90600052602060002090600902016006018263ffffffff168154811015156121cd57fe5b9060005260206000209001600081546001816001161561010002031660029004811015156121f757fe5b8154600116156122165790600052602060002090602091828204019190065b9054901a7f0100000000000000000000000000000000000000000000000000000000000000027effffffffffffffffffffffffffffffffffffffffffffffffffffffffffffff19161415156123af577f79cf4eb0d6305e4d55a4c2df65998d7b62c2a406f83d5f6e14d131db42bb70ab6002600460003373ffffffffffffffffffffffffffffffffffffffff1673ffffffffffffffffffffffffffffffffffffffff168152602001908152602001600020548154811015156122d457fe5b90600052602060002090600902016006018263ffffffff168154811015156122f857fe5b90600052602060002090018260405180806020018363ffffffff1663ffffffff16815260200182810382528481815460018160011615610100020316600290048152602001915080546001816001161561010002031660029004801561239f5780601f106123745761010080835404028352916020019161239f565b820191906000526020600020905b81548152906001019060200180831161238257829003601f168201915b5050935050505060405180910390a15b808060010191505061206f565b5050565b60008090505b6002600460003373ffffffffffffffffffffffffffffffffffffffff1673ffffffffffffffffffffffffffffffffffffffff1681526020019081526020016000205481548110151561241457fe5b9060005260206000209060090201600701805490508163ffffffff16101561258c577fd230b39ddf0abb4c478d27f0f161bdd2f200ace6304f4a87d588c44a3fa35e8c6002600460003373ffffffffffffffffffffffffffffffffffffffff1673ffffffffffffffffffffffffffffffffffffffff168152602001908152602001600020548154811015156124a557fe5b90600052602060002090600902016007018263ffffffff168154811015156124c957fe5b90600052602060002090018260405180806020018363ffffffff1663ffffffff1681526020018281038252848181546001816001161561010002031660029004815260200191508054600181600116156101000203166002900480156125705780601f1061254557610100808354040283529160200191612570565b820191906000526020600020905b81548152906001019060200180831161255357829003601f168201915b5050935050505060405180910390a180806001019150506123c6565b50565b61259761394b565b6000806002848154811015156125a957fe5b90600052602060002090600902016000018054600181600116156101000203166002900480601f01602080910402602001604051908101604052809291908181526020018280546001816001161561010002031660029004801561264e5780601f106126235761010080835404028352916020019161264e565b820191906000526020600020905b81548152906001019060200180831161263157829003601f168201915b50505050509250600191508451835114156129dd57600090505b82518163ffffffff1610156127a057848163ffffffff1681518110151561268b57fe5b9060200101517f010000000000000000000000000000000000000000000000000000000000000090047f0100000000000000000000000000000000000000000000000000000000000000027effffffffffffffffffffffffffffffffffffffffffffffffffffffffffffff1916838263ffffffff1681518110151561270c57fe5b9060200101517f010000000000000000000000000000000000000000000000000000000000000090047f0100000000000000000000000000000000000000000000000000000000000000027effffffffffffffffffffffffffffffffffffffffffffffffffffffffffffff1916141515612793576000915061278e84866131cc565b6127a0565b8080600101915050612668565b6001151582151514156129d8577fffedf7f8820dde2d4b397a1fc7d384e98b9e4a78a9da7bd4352fe2340d0bf65b6002858154811015156127dd57fe5b90600052602060002090600902016004016002868154811015156127fd57fe5b906000526020600020906009020160000160028781548110151561281d57fe5b9060005260206000209060090201600301604051808060200180602001806020018481038452878181546001816001161561010002031660029004815260200191508054600181600116156101000203166002900480156128bf5780601f10612894576101008083540402835291602001916128bf565b820191906000526020600020905b8154815290600101906020018083116128a257829003601f168201915b50508481038352868181546001816001161561010002031660029004815260200191508054600181600116156101000203166002900480156129425780601f1061291757610100808354040283529160200191612942565b820191906000526020600020905b81548152906001019060200180831161292557829003601f168201915b50508481038252858181546001816001161561010002031660029004815260200191508054600181600116156101000203166002900480156129c55780601f1061299a576101008083540402835291602001916129c5565b820191906000526020600020905b8154815290600101906020018083116129a857829003601f168201915b5050965050505050505060405180910390a15b6129e8565b6129e784866131cc565b5b5050505050565b6129f761394b565b6000612a0161394b565b6000600285815481101515612a1257fe5b90600052602060002090600902016000018054600181600116156101000203166002900480601f016020809104026020016040519081016040528092919081815260200182805460018160011615610100020316600290048015612ab75780601f10612a8c57610100808354040283529160200191612ab7565b820191906000526020600020905b815481529060010190602001808311612a9a57829003601f168201915b5050505050935060019250600090505b600285815481101515612ad657fe5b9060005260206000209060090201600601805490508163ffffffff161015612ceb57600285815481101515612b0757fe5b90600052602060002090600902016006018163ffffffff16815481101515612b2b57fe5b90600052602060002090018054600181600116156101000203166002900480601f016020809104026020016040519081016040528092919081815260200182805460018160011615610100020316600290048015612bca5780601f10612b9f57610100808354040283529160200191612bca565b820191906000526020600020905b815481529060010190602001808311612bad57829003601f168201915b50505050509150838163ffffffff16815181101515612be557fe5b9060200101517f010000000000000000000000000000000000000000000000000000000000000090047f0100000000000000000000000000000000000000000000000000000000000000027effffffffffffffffffffffffffffffffffffffffffffffffffffffffffffff1916826000815181101515612c6157fe5b9060200101517f010000000000000000000000000000000000000000000000000000000000000090047f0100000000000000000000000000000000000000000000000000000000000000027effffffffffffffffffffffffffffffffffffffffffffffffffffffffffffff1916141515612cde5760009250612ceb565b8080600101915050612ac7565b600115158315151415612f23577fffedf7f8820dde2d4b397a1fc7d384e98b9e4a78a9da7bd4352fe2340d0bf65b600286815481101515612d2857fe5b9060005260206000209060090201600401600287815481101515612d4857fe5b9060005260206000209060090201600001600288815481101515612d6857fe5b906000526020600020906009020160030160405180806020018060200180602001848103845287818154600181600116156101000203166002900481526020019150805460018160011615610100020316600290048015612e0a5780601f10612ddf57610100808354040283529160200191612e0a565b820191906000526020600020905b815481529060010190602001808311612ded57829003601f168201915b5050848103835286818154600181600116156101000203166002900481526020019150805460018160011615610100020316600290048015612e8d5780601f10612e6257610100808354040283529160200191612e8d565b820191906000526020600020905b815481529060010190602001808311612e7057829003601f168201915b5050848103825285818154600181600116156101000203166002900481526020019150805460018160011615610100020316600290048015612f105780601f10612ee557610100808354040283529160200191612f10565b820191906000526020600020905b815481529060010190602001808311612ef357829003601f168201915b5050965050505050505060405180910390a15b6000151583151514156131c557600285815481101515612f3f57fe5b906000526020600020906009020160010160019054906101000a900460ff1660ff16600286815481101515612f7057fe5b906000526020600020906009020160050160009054906101000a900460ff1660ff161015156131c4577fffedf7f8820dde2d4b397a1fc7d384e98b9e4a78a9da7bd4352fe2340d0bf65b600286815481101515612fc957fe5b9060005260206000209060090201600301600287815481101515612fe957fe5b906000526020600020906009020160000160028881548110151561300957fe5b9060005260206000209060090201600401604051808060200180602001806020018481038452878181546001816001161561010002031660029004815260200191508054600181600116156101000203166002900480156130ab5780601f10613080576101008083540402835291602001916130ab565b820191906000526020600020905b81548152906001019060200180831161308e57829003601f168201915b505084810383528681815460018160011615610100020316600290048152602001915080546001816001161561010002031660029004801561312e5780601f106131035761010080835404028352916020019161312e565b820191906000526020600020905b81548152906001019060200180831161311157829003601f168201915b50508481038252858181546001816001161561010002031660029004815260200191508054600181600116156101000203166002900480156131b15780601f10613186576101008083540402835291602001916131b1565b820191906000526020600020905b81548152906001019060200180831161319457829003601f168201915b5050965050505050505060405180910390a15b5b5050505050565b6002828154811015156131db57fe5b906000526020600020906009020160050160009054906101000a900460ff1660ff1660028381548110151561320c57fe5b906000526020600020906009020160010160019054906101000a900460ff1660ff16111561334a577f8696d55ed69c77973e49639ae68e35aa5413a6f73d521601bfb9a1bf27215da5816000806040518080602001841515151581526020018363ffffffff168152602001828103825285818151815260200191508051906020019080838360005b838110156132af578082015181840152602081019050613294565b50505050905090810190601f1680156132dc5780820380516001836020036101000a031916815260200191505b5094505050505060405180910390a16002828154811015156132fa57fe5b9060005260206000209060090201600701805480600101828161331d9190613a05565b9160005260206000209001600083909190915090805190602001906133439291906138cb565b5050613575565b7fffedf7f8820dde2d4b397a1fc7d384e98b9e4a78a9da7bd4352fe2340d0bf65b60028381548110151561337a57fe5b906000526020600020906009020160030160028481548110151561339a57fe5b90600052602060002090600902016000016002858154811015156133ba57fe5b90600052602060002090600902016004016040518080602001806020018060200184810384528781815460018160011615610100020316600290048152602001915080546001816001161561010002031660029004801561345c5780601f106134315761010080835404028352916020019161345c565b820191906000526020600020905b81548152906001019060200180831161343f57829003601f168201915b50508481038352868181546001816001161561010002031660029004815260200191508054600181600116156101000203166002900480156134df5780601f106134b4576101008083540402835291602001916134df565b820191906000526020600020905b8154815290600101906020018083116134c257829003601f168201915b50508481038252858181546001816001161561010002031660029004815260200191508054600181600116156101000203166002900480156135625780601f1061353757610100808354040283529160200191613562565b820191906000526020600020905b81548152906001019060200180831161354557829003601f168201915b5050965050505050505060405180910390a15b5050565b60008090505b8260ff168163ffffffff16101561362c5760028281548110151561359f57fe5b906000526020600020906009020160060180548060010182816135c29190613a05565b916000526020600020900160006040805190810160405280600181526020017f24000000000000000000000000000000000000000000000000000000000000008152509091909150908051906020019061361d9291906138cb565b5050808060010191505061357f565b505050565b80600460003373ffffffffffffffffffffffffffffffffffffffff1673ffffffffffffffffffffffffffffffffffffffff1681526020019081526020016000208190555050565b7f3c292ea39929efc9883230ce64b1d2bc9218bb71cb8a754ff1cb2dae6aad08466001828154811015156136a857fe5b906000526020600020906005020160020160405180806020018281038252838181546001816001161561010002031660029004815260200191508054600181600116156101000203166002900480156137425780601f1061371757610100808354040283529160200191613742565b820191906000526020600020905b81548152906001019060200180831161372557829003601f168201915b50509250505060405180910390a160018181548110151561375f57fe5b90600052602060002090600502016000808201600061377e9190613a31565b6001820160006101000a81549060ff02191690556001820160016101000a81549060ff02191690556002820160006137b69190613a31565b6003820160006137c69190613a31565b6004820160006101000a81549060ff0219169055505060008081819054906101000a900463ffffffff168092919060010191906101000a81548163ffffffff021916908363ffffffff1602179055505050565b815481835581811511613846576005028160050283600052602060002091820191016138459190613a79565b5b505050565b828054600181600116156101000203166002900490600052602060002090601f016020900481019282601f1061388c57805160ff19168380011785556138ba565b828001600101855582156138ba579182015b828111156138b957825182559160200191906001019061389e565b5b5090506138c79190613b04565b5090565b828054600181600116156101000203166002900490600052602060002090601f016020900481019282601f1061390c57805160ff191683800117855561393a565b8280016001018555821561393a579182015b8281111561393957825182559160200191906001019061391e565b5b5090506139479190613b04565b5090565b602060405190810160405280600081525090565b602060405190810160405280600081525090565b8154818355818115116139a05760090281600902836000526020600020918201910161399f9190613b29565b5b505050565b8280548282559060005260206000209081019282156139f4579160200282015b828111156139f35782518290805190602001906139e392919061384b565b50916020019190600101906139c5565b5b509050613a019190613bf8565b5090565b815481835581811511613a2c57818360005260206000209182019101613a2b9190613bf8565b5b505050565b50805460018160011615610100020316600290046000825580601f10613a575750613a76565b601f016020900490600052602060002090810190613a759190613b04565b5b50565b613b0191905b80821115613afd5760008082016000613a989190613a31565b6001820160006101000a81549060ff02191690556001820160016101000a81549060ff0219169055600282016000613ad09190613a31565b600382016000613ae09190613a31565b6004820160006101000a81549060ff021916905550600501613a7f565b5090565b90565b613b2691905b80821115613b22576000816000905550600101613b0a565b5090565b90565b613bf591905b80821115613bf15760008082016000613b489190613a31565b6001820160006101000a81549060ff02191690556001820160016101000a81549060ff0219169055600282016000613b809190613a31565b600382016000613b909190613a31565b600482016000613ba09190613a31565b6005820160006101000a81549060ff0219169055600682016000613bc49190613c24565b600782016000613bd49190613c24565b6008820160006101000a81549060ff021916905550600901613b2f565b5090565b90565b613c2191905b80821115613c1d5760008181613c149190613a31565b50600101613bfe565b5090565b90565b5080546000825590600052602060002090810190613c429190613bf8565b505600a165627a7a72305820d84234d4560d9b73e4586dc787845875de8544ec24c6f52182d71cfbf4e473640029",
  "source": "pragma solidity ^0.4.19;\n\ncontract Hangman {\n\n  event NewGame(uint gameId, uint8 wager, uint8 tries, string userName, string userWord, uint8 wordLength);\n  event PendingGame(uint gameId, uint8 wager, uint8 tries, string userName, string userWord, uint8 wordLength);\n  event GameStarted(string challenger, string hangman, uint gameId, uint8 wager, uint8 maxTries, string uniqGameString, uint8 wordLength);\n  event SolutionGuess(string guess, bool hit, uint32 index);\n  event GameWinner(string winner, string word, string loser);\n  event ActiveGameDetails(string challenger, string hangman, uint8 wager, uint8 maxTries, string uniqGameString, uint8 wordLength, uint8 tries, uint gameId);\n  event SolutionCheck(string letter, uint32 index);\n  event MissesCheck(string letter, uint32 index);\n  event RemovePendingGame(string userWord);\n\n  uint32 gamesArrayGaps = 0;\n\n  struct Game {\n    string word;\n    uint8 wager;\n    uint8 tries;\n    string userWord;\n    string userName;\n    uint8 wordLength;\n  }\n\n  struct ActiveGame {\n    string word;\n    uint8 wager;\n    uint8 maxTries;\n    string uniqGameString;\n    string hangman;\n    string challenger;\n    uint8 tries;\n    string[] hits;\n    string[] misses;\n    uint8 wordLength;\n  }\n\n  Game[] public games;\n  ActiveGame[] public activeGames;\n  mapping(uint => string) public idToWord;\n  mapping(address => uint) public activeGamesMap;\n\n  function checkSendHits() private {\n    string memory holder = '$';\n    for (uint32 i = 0; i < activeGames[activeGamesMap[msg.sender]].hits.length; i++) {\n      if (bytes(activeGames[activeGamesMap[msg.sender]].hits[i])[0] != bytes(holder)[0]) {\n        SolutionCheck(activeGames[activeGamesMap[msg.sender]].hits[i], i);\n      }\n    }\n  }\n\n  function checkSendMisses() private {\n    for (uint32 i = 0; i < activeGames[activeGamesMap[msg.sender]].misses.length; i++) {\n      MissesCheck(activeGames[activeGamesMap[msg.sender]].misses[i], i);\n    }\n  }\n\n  function getMapIndex(address challenger) private view returns(uint) {\n    return activeGamesMap[challenger];\n  }\n\n  function getActiveGame() public {\n    uint gameId = getMapIndex(msg.sender);\n    ActiveGameDetails(activeGames[activeGamesMap[msg.sender]].challenger,\n      activeGames[activeGamesMap[msg.sender]].hangman,\n      activeGames[activeGamesMap[msg.sender]].wager,\n      activeGames[activeGamesMap[msg.sender]].maxTries,\n      activeGames[activeGamesMap[msg.sender]].uniqGameString,\n      activeGames[activeGamesMap[msg.sender]].wordLength,\n      activeGames[activeGamesMap[msg.sender]].tries,\n      gameId\n    );\n    checkSendHits();\n    checkSendMisses();\n  }\n\n  function createGame(string _word, uint8 _wager, uint8 _tries, string _userWord, string _userName, uint8 _wordLength) public {\n    uint id;\n    if (gamesArrayGaps < 1) {\n      id = games.push(Game(_word, _wager, _tries, _userWord, _userName, _wordLength)) - 1;\n    } else {\n      for (uint32 i = 0; i < games.length; i++) {\n        if (games[i].wordLength == 0) {\n          games[i] = Game(_word, _wager, _tries, _userWord, _userName, _wordLength);\n          id = i;\n          gamesArrayGaps--;\n          break;\n        }\n      }\n    }\n    idToWord[id] = _word;\n    NewGame(id, _wager, _tries, _userName, _userWord, _wordLength);\n  }\n\n  function getPendingGames() public {\n    require(games.length > 0);\n    for(uint i = 0; i < games.length; i++) {\n      if (games[i].wordLength > 0) {\n        PendingGame(i, games[i].wager, games[i].tries, games[i].userName, games[i].userWord, games[i].wordLength);\n      }\n    }\n  }\n\n  function mapLiveGameToAddress(uint gameIndex) private {\n    activeGamesMap[msg.sender] = gameIndex;\n  }\n\n  function initSolutionArray(uint8 wordLength, uint gameIndex) private {\n    for (uint32 i = 0; i < wordLength; i++) {\n      activeGames[gameIndex].hits.push('$');\n    }\n  }\n\n  function removeGameFromPending(uint gameId) private {\n    RemovePendingGame(games[gameId].userWord);\n    delete games[gameId];\n    gamesArrayGaps++;\n  }\n\n  function commenceLiveGame(string challenger, uint gameId, string uniqGameString, uint8 wordLength) public {\n    string memory gameWord = games[gameId].word;\n    uint8 tries = 0;\n    string[] memory hits;\n    string[] memory misses;\n    uint id = activeGames.push(ActiveGame(gameWord, games[gameId].wager, games[gameId].tries, uniqGameString, games[gameId].userName, challenger, tries, hits, misses, wordLength)) - 1;\n    GameStarted(challenger, games[gameId].userName, id, games[gameId].wager, games[gameId].tries, uniqGameString, wordLength);\n    initSolutionArray(wordLength, id);\n    mapLiveGameToAddress(id);\n    removeGameFromPending(gameId);\n  }\n\n  function checkSolved(uint gameId) private {\n    string memory gameWord = activeGames[gameId].word;\n    bool isSolution = true;\n    string memory letter;\n    for (uint32 i = 0; i < activeGames[gameId].hits.length; i++) {\n      letter = activeGames[gameId].hits[i];\n      if (bytes(letter)[0] != bytes(gameWord)[i]) {\n        isSolution = false;\n        break;\n      }\n    }\n    if (isSolution == true) {\n      GameWinner(activeGames[gameId].challenger, activeGames[gameId].word, activeGames[gameId].hangman);\n    }\n    if (isSolution == false) {\n      if (activeGames[gameId].tries >= activeGames[gameId].maxTries) {\n        GameWinner(activeGames[gameId].hangman, activeGames[gameId].word, activeGames[gameId].challenger);\n      }\n    }\n  }\n\n  function checkHanged(uint gameId, string guess) private {\n    if (activeGames[gameId].maxTries > activeGames[gameId].tries) {\n      SolutionGuess(guess, false, 0);\n      activeGames[gameId].misses.push(guess);\n    } else {\n      GameWinner(activeGames[gameId].hangman, activeGames[gameId].word, activeGames[gameId].challenger);\n    }\n  }\n\n  function checkWordGuess(string guess, uint gameId) private {\n    string memory gameWord = activeGames[gameId].word;\n    bool isSolved = true;\n    if (bytes(gameWord).length == bytes(guess).length) {\n      for (uint32 i = 0; i < bytes(gameWord).length; i++) {\n        if (bytes(gameWord)[i] != bytes(guess)[i]) {\n          isSolved = false;\n          checkHanged(gameId, guess);\n          break;\n        }\n      }\n      if (isSolved == true) {\n        GameWinner(activeGames[gameId].challenger, activeGames[gameId].word, activeGames[gameId].hangman);\n      }\n    } else {\n      checkHanged(gameId, guess);\n    }\n  }\n\n  function checkGuess(string guess, uint gameId) public {\n    activeGames[gameId].tries++;\n    bool isHit = false;\n    string memory gameWord = activeGames[gameId].word;\n    if (bytes(guess).length > 1) {\n      checkWordGuess(guess, gameId);\n    } else if (bytes(guess).length == 1) {\n      for (uint32 i = 0; i < bytes(gameWord).length; i++) {\n        if (bytes(gameWord)[i] == bytes(guess)[0]) {\n          isHit = true;\n          activeGames[gameId].hits[i] = guess;\n          SolutionGuess(guess, true, i);\n        }\n      }\n      if (isHit == true) {\n        checkSolved(gameId);\n      }\n      if (isHit == false) {\n        checkHanged(gameId, guess);\n      }\n    }\n  }\n }\n",
  "sourcePath": "/Users/tysondaugherty/Desktop/funApps/ether/etherHang/contracts/Hangman.sol",
  "compiler": {
    "name": "solc",
    "version": "0.4.19+commit.c4cbbb05.Emscripten.clang"
  },
  "schemaVersion": "1.0.1",
  "updatedAt": "2018-03-01T22:45:56.844Z"
}