{
  "contractName": "HangmanOracle",
  "abi": [
    {
      "constant": true,
      "inputs": [
        {
          "name": "",
          "type": "uint256"
        }
      ],
      "name": "validWords",
      "outputs": [
        {
          "name": "",
          "type": "bool"
        }
      ],
      "payable": false,
      "stateMutability": "view",
      "type": "function"
    },
    {
      "constant": true,
      "inputs": [],
      "name": "owner",
      "outputs": [
        {
          "name": "",
          "type": "address"
        }
      ],
      "payable": false,
      "stateMutability": "view",
      "type": "function"
    },
    {
      "inputs": [],
      "payable": false,
      "stateMutability": "nonpayable",
      "type": "constructor"
    },
    {
      "anonymous": false,
      "inputs": [
        {
          "indexed": false,
          "name": "word",
          "type": "string"
        },
        {
          "indexed": false,
          "name": "isValid",
          "type": "bool"
        }
      ],
      "name": "ValidWord",
      "type": "event"
    },
    {
      "anonymous": false,
      "inputs": [
        {
          "indexed": false,
          "name": "word",
          "type": "string"
        }
      ],
      "name": "checkWordViaApis",
      "type": "event"
    },
    {
      "constant": false,
      "inputs": [
        {
          "name": "hangWord",
          "type": "string"
        }
      ],
      "name": "checkWordValidity",
      "outputs": [],
      "payable": false,
      "stateMutability": "nonpayable",
      "type": "function"
    },
    {
      "constant": false,
      "inputs": [
        {
          "name": "hangWord",
          "type": "string"
        },
        {
          "name": "isValid",
          "type": "bool"
        }
      ],
      "name": "saveWordValidity",
      "outputs": [],
      "payable": false,
      "stateMutability": "nonpayable",
      "type": "function"
    }
  ],
  "bytecode": "0x6060604052341561000f57600080fd5b336000806101000a81548173ffffffffffffffffffffffffffffffffffffffff021916908373ffffffffffffffffffffffffffffffffffffffff16021790555061040f8061005e6000396000f300606060405260043610610062576000357c0100000000000000000000000000000000000000000000000000000000900463ffffffff1680631a040538146100675780637747ecb9146100cf5780638da5cb5b1461010a578063a6bc11bc1461015f575b600080fd5b341561007257600080fd5b6100cd600480803590602001908201803590602001908080601f0160208091040260200160405190810160405280939291908181526020018383808284378201915050505050509190803515159060200190919050506101bc565b005b34156100da57600080fd5b6100f060048080359060200190919050506102ff565b604051808215151515815260200191505060405180910390f35b341561011557600080fd5b61011d61031f565b604051808273ffffffffffffffffffffffffffffffffffffffff1673ffffffffffffffffffffffffffffffffffffffff16815260200191505060405180910390f35b341561016a57600080fd5b6101ba600480803590602001908201803590602001908080601f01602080910402602001604051908101604052809392919081815260200183838082843782019150505050505091905050610344565b005b6000826040518082805190602001908083835b6020831015156101f457805182526020820191506020810190506020830392506101cf565b6001836020036101000a0380198251168184511680821785525050505050509050019150506040518091039020600190049050816001600083815260200190815260200160002060006101000a81548160ff0219169083151502179055507fd1b7ef97b22fef12cb93bf2e629f8547322733b0ba6dd9564825b26235816de28383604051808060200183151515158152602001828103825284818151815260200191508051906020019080838360005b838110156102bf5780820151818401526020810190506102a4565b50505050905090810190601f1680156102ec5780820380516001836020036101000a031916815260200191505b50935050505060405180910390a1505050565b60016020528060005260406000206000915054906101000a900460ff1681565b6000809054906101000a900473ffffffffffffffffffffffffffffffffffffffff1681565b7ff16645e443f0799b6869c7e65f794f9e7af08d74c339985c4960f11aa4e68213816040518080602001828103825283818151815260200191508051906020019080838360005b838110156103a657808201518184015260208101905061038b565b50505050905090810190601f1680156103d35780820380516001836020036101000a031916815260200191505b509250505060405180910390a1505600a165627a7a723058205f9305232f1da88a82fe54452fbc66eca263e3b6a526d271057382f6295bcdad0029",
  "source": "pragma solidity ^0.4.19;\n\ncontract HangmanOracle {\n\n  address public owner;\n\n  mapping(uint => bool) public validWords;\n\n  event ValidWord(string word, bool isValid);\n  event checkWordViaApis(string word);\n\n  function HangmanOracle() public {\n    owner = msg.sender;\n  }\n\n  function checkWordValidity(string hangWord) public {\n    checkWordViaApis(hangWord);\n    //ValidWord(hangWord, false);\n  }\n\n  function saveWordValidity(string hangWord, bool isValid) public {\n    uint wordHash = uint(keccak256(hangWord));\n    validWords[wordHash] = isValid;\n    ValidWord(hangWord, isValid);\n  }\n}\n",
  "sourcePath": "/Users/tysondaugherty/Desktop/funApps/ether/etherHang/contracts/HangmanOracle.sol",
  "compiler": {
    "name": "solc",
    "version": "0.4.19+commit.c4cbbb05.Emscripten.clang"
  },
  "schemaVersion": "1.0.1",
  "updatedAt": "2018-03-08T21:39:25.555Z"
}