{
  "contractName": "Hangman",
  "abi": [
    {
      "constant": true,
      "inputs": [
        {
          "name": "",
          "type": "uint256"
        }
      ],
      "name": "games",
      "outputs": [
        {
          "name": "word",
          "type": "string"
        },
        {
          "name": "wager",
          "type": "uint256"
        },
        {
          "name": "tries",
          "type": "uint8"
        },
        {
          "name": "userWord",
          "type": "string"
        },
        {
          "name": "userName",
          "type": "string"
        },
        {
          "name": "wordLength",
          "type": "uint8"
        }
      ],
      "payable": false,
      "stateMutability": "view",
      "type": "function"
    },
    {
      "constant": true,
      "inputs": [
        {
          "name": "",
          "type": "uint256"
        }
      ],
      "name": "activeGames",
      "outputs": [
        {
          "name": "word",
          "type": "string"
        },
        {
          "name": "wager",
          "type": "uint256"
        },
        {
          "name": "maxTries",
          "type": "uint8"
        },
        {
          "name": "uniqGameString",
          "type": "string"
        },
        {
          "name": "hangman",
          "type": "string"
        },
        {
          "name": "challenger",
          "type": "string"
        },
        {
          "name": "tries",
          "type": "uint8"
        },
        {
          "name": "wordLength",
          "type": "uint8"
        }
      ],
      "payable": false,
      "stateMutability": "view",
      "type": "function"
    },
    {
      "constant": true,
      "inputs": [
        {
          "name": "",
          "type": "address"
        }
      ],
      "name": "activeGamesMap",
      "outputs": [
        {
          "name": "",
          "type": "uint256"
        }
      ],
      "payable": false,
      "stateMutability": "view",
      "type": "function"
    },
    {
      "constant": true,
      "inputs": [
        {
          "name": "",
          "type": "uint256"
        }
      ],
      "name": "idToWord",
      "outputs": [
        {
          "name": "",
          "type": "string"
        }
      ],
      "payable": false,
      "stateMutability": "view",
      "type": "function"
    },
    {
      "payable": true,
      "stateMutability": "payable",
      "type": "fallback"
    },
    {
      "anonymous": false,
      "inputs": [
        {
          "indexed": false,
          "name": "gameId",
          "type": "uint256"
        },
        {
          "indexed": false,
          "name": "wager",
          "type": "uint256"
        },
        {
          "indexed": false,
          "name": "tries",
          "type": "uint8"
        },
        {
          "indexed": false,
          "name": "userName",
          "type": "string"
        },
        {
          "indexed": false,
          "name": "userWord",
          "type": "string"
        },
        {
          "indexed": false,
          "name": "wordLength",
          "type": "uint8"
        }
      ],
      "name": "NewGame",
      "type": "event"
    },
    {
      "anonymous": false,
      "inputs": [
        {
          "indexed": false,
          "name": "gameId",
          "type": "uint256"
        },
        {
          "indexed": false,
          "name": "wager",
          "type": "uint256"
        },
        {
          "indexed": false,
          "name": "tries",
          "type": "uint8"
        },
        {
          "indexed": false,
          "name": "userName",
          "type": "string"
        },
        {
          "indexed": false,
          "name": "userWord",
          "type": "string"
        },
        {
          "indexed": false,
          "name": "wordLength",
          "type": "uint8"
        }
      ],
      "name": "PendingGame",
      "type": "event"
    },
    {
      "anonymous": false,
      "inputs": [
        {
          "indexed": false,
          "name": "challenger",
          "type": "string"
        },
        {
          "indexed": false,
          "name": "hangman",
          "type": "string"
        },
        {
          "indexed": false,
          "name": "gameId",
          "type": "uint256"
        },
        {
          "indexed": false,
          "name": "wager",
          "type": "uint256"
        },
        {
          "indexed": false,
          "name": "maxTries",
          "type": "uint8"
        },
        {
          "indexed": false,
          "name": "uniqGameString",
          "type": "string"
        },
        {
          "indexed": false,
          "name": "wordLength",
          "type": "uint8"
        }
      ],
      "name": "GameStarted",
      "type": "event"
    },
    {
      "anonymous": false,
      "inputs": [
        {
          "indexed": false,
          "name": "guess",
          "type": "string"
        },
        {
          "indexed": false,
          "name": "hit",
          "type": "bool"
        },
        {
          "indexed": false,
          "name": "index",
          "type": "uint32"
        }
      ],
      "name": "SolutionGuess",
      "type": "event"
    },
    {
      "anonymous": false,
      "inputs": [
        {
          "indexed": false,
          "name": "winner",
          "type": "string"
        },
        {
          "indexed": false,
          "name": "word",
          "type": "string"
        },
        {
          "indexed": false,
          "name": "loser",
          "type": "string"
        }
      ],
      "name": "GameWinner",
      "type": "event"
    },
    {
      "anonymous": false,
      "inputs": [
        {
          "indexed": false,
          "name": "challenger",
          "type": "string"
        },
        {
          "indexed": false,
          "name": "hangman",
          "type": "string"
        },
        {
          "indexed": false,
          "name": "wager",
          "type": "uint256"
        },
        {
          "indexed": false,
          "name": "maxTries",
          "type": "uint8"
        },
        {
          "indexed": false,
          "name": "uniqGameString",
          "type": "string"
        },
        {
          "indexed": false,
          "name": "wordLength",
          "type": "uint8"
        },
        {
          "indexed": false,
          "name": "tries",
          "type": "uint8"
        },
        {
          "indexed": false,
          "name": "gameId",
          "type": "uint256"
        }
      ],
      "name": "ActiveGameDetails",
      "type": "event"
    },
    {
      "anonymous": false,
      "inputs": [
        {
          "indexed": false,
          "name": "letter",
          "type": "string"
        },
        {
          "indexed": false,
          "name": "index",
          "type": "uint32"
        }
      ],
      "name": "SolutionCheck",
      "type": "event"
    },
    {
      "anonymous": false,
      "inputs": [
        {
          "indexed": false,
          "name": "letter",
          "type": "string"
        },
        {
          "indexed": false,
          "name": "index",
          "type": "uint32"
        }
      ],
      "name": "MissesCheck",
      "type": "event"
    },
    {
      "anonymous": false,
      "inputs": [
        {
          "indexed": false,
          "name": "userWord",
          "type": "string"
        }
      ],
      "name": "RemovePendingGame",
      "type": "event"
    },
    {
      "anonymous": false,
      "inputs": [
        {
          "indexed": false,
          "name": "contractAddress",
          "type": "address"
        },
        {
          "indexed": false,
          "name": "wager",
          "type": "uint256"
        },
        {
          "indexed": false,
          "name": "success",
          "type": "bool"
        }
      ],
      "name": "FundTransfer",
      "type": "event"
    },
    {
      "constant": false,
      "inputs": [],
      "name": "getActiveGame",
      "outputs": [],
      "payable": false,
      "stateMutability": "nonpayable",
      "type": "function"
    },
    {
      "constant": false,
      "inputs": [],
      "name": "holdFunds",
      "outputs": [
        {
          "name": "success",
          "type": "bool"
        }
      ],
      "payable": true,
      "stateMutability": "payable",
      "type": "function"
    },
    {
      "constant": false,
      "inputs": [
        {
          "name": "_word",
          "type": "string"
        },
        {
          "name": "_wager",
          "type": "uint256"
        },
        {
          "name": "_tries",
          "type": "uint8"
        },
        {
          "name": "_userWord",
          "type": "string"
        },
        {
          "name": "_userName",
          "type": "string"
        },
        {
          "name": "_wordLength",
          "type": "uint8"
        }
      ],
      "name": "createGame",
      "outputs": [],
      "payable": true,
      "stateMutability": "payable",
      "type": "function"
    },
    {
      "constant": false,
      "inputs": [],
      "name": "getPendingGames",
      "outputs": [],
      "payable": false,
      "stateMutability": "nonpayable",
      "type": "function"
    },
    {
      "constant": false,
      "inputs": [
        {
          "name": "challenger",
          "type": "string"
        },
        {
          "name": "gameId",
          "type": "uint256"
        },
        {
          "name": "uniqGameString",
          "type": "string"
        },
        {
          "name": "wordLength",
          "type": "uint8"
        }
      ],
      "name": "commenceLiveGame",
      "outputs": [],
      "payable": false,
      "stateMutability": "nonpayable",
      "type": "function"
    },
    {
      "constant": false,
      "inputs": [
        {
          "name": "guess",
          "type": "string"
        },
        {
          "name": "gameId",
          "type": "uint256"
        }
      ],
      "name": "checkGuess",
      "outputs": [],
      "payable": false,
      "stateMutability": "nonpayable",
      "type": "function"
    }
  ],
  "bytecode": "0x606060405260008060006101000a81548163ffffffff021916908363ffffffff160217905550341561003057600080fd5b613cc48061003f6000396000f3006060604052600436106100a4576000357c0100000000000000000000000000000000000000000000000000000000900463ffffffff16806303ba9f25146100a6578063117a5b901461019f57806313e4c7141461038b5780632ec1c0171461060d5780634d83d55a1461065a578063957b5fb4146106f6578063cadc38db1461070b578063d77eef1b1461072d578063e6b2bc1414610793578063ff6f4bc114610848575b005b61019d600480803590602001908201803590602001908080601f0160208091040260200160405190810160405280939291908181526020018383808284378201915050505050509190803590602001909190803560ff1690602001909190803590602001908201803590602001908080601f0160208091040260200160405190810160405280939291908181526020018383808284378201915050505050509190803590602001908201803590602001908080601f0160208091040260200160405190810160405280939291908181526020018383808284378201915050505050509190803560ff1690602001909190505061085d565b005b34156101aa57600080fd5b6101c0600480803590602001909190505061092b565b60405180806020018781526020018660ff1660ff16815260200180602001806020018560ff1660ff16815260200184810384528a81815460018160011615610100020316600290048152602001915080546001816001161561010002031660029004801561026f5780601f106102445761010080835404028352916020019161026f565b820191906000526020600020905b81548152906001019060200180831161025257829003601f168201915b50508481038352878181546001816001161561010002031660029004815260200191508054600181600116156101000203166002900480156102f25780601f106102c7576101008083540402835291602001916102f2565b820191906000526020600020905b8154815290600101906020018083116102d557829003601f168201915b50508481038252868181546001816001161561010002031660029004815260200191508054600181600116156101000203166002900480156103755780601f1061034a57610100808354040283529160200191610375565b820191906000526020600020905b81548152906001019060200180831161035857829003601f168201915b5050995050505050505050505060405180910390f35b341561039657600080fd5b6103ac600480803590602001909190505061098d565b60405180806020018981526020018860ff1660ff1681526020018060200180602001806020018760ff1660ff1681526020018660ff1660ff16815260200185810385528d81815460018160011615610100020316600290048152602001915080546001816001161561010002031660029004801561046b5780601f106104405761010080835404028352916020019161046b565b820191906000526020600020905b81548152906001019060200180831161044e57829003601f168201915b505085810384528a8181546001816001161561010002031660029004815260200191508054600181600116156101000203166002900480156104ee5780601f106104c3576101008083540402835291602001916104ee565b820191906000526020600020905b8154815290600101906020018083116104d157829003601f168201915b50508581038352898181546001816001161561010002031660029004815260200191508054600181600116156101000203166002900480156105715780601f1061054657610100808354040283529160200191610571565b820191906000526020600020905b81548152906001019060200180831161055457829003601f168201915b50508581038252888181546001816001161561010002031660029004815260200191508054600181600116156101000203166002900480156105f45780601f106105c9576101008083540402835291602001916105f4565b820191906000526020600020905b8154815290600101906020018083116105d757829003601f168201915b50509c5050505050505050505050505060405180910390f35b341561061857600080fd5b610644600480803573ffffffffffffffffffffffffffffffffffffffff16906020019091905050610a07565b6040518082815260200191505060405180910390f35b341561066557600080fd5b61067b6004808035906020019091905050610a1f565b6040518080602001828103825283818151815260200191508051906020019080838360005b838110156106bb5780820151818401526020810190506106a0565b50505050905090810190601f1680156106e85780820380516001836020036101000a031916815260200191505b509250505060405180910390f35b341561070157600080fd5b610709610acf565b005b610713610fb3565b604051808215151515815260200191505060405180910390f35b341561073857600080fd5b610791600480803590602001908201803590602001908080601f01602080910402602001604051908101604052809392919081815260200183838082843782019150505050505091908035906020019091905050611000565b005b341561079e57600080fd5b610846600480803590602001908201803590602001908080601f0160208091040260200160405190810160405280939291908181526020018383808284378201915050505050509190803590602001909190803590602001908201803590602001908080601f0160208091040260200160405190810160405280939291908181526020018383808284378201915050505050509190803560ff169060200190919050506113af565b005b341561085357600080fd5b61085b61197e565b005b3073ffffffffffffffffffffffffffffffffffffffff166108fc349081150290604051600060405180830381858888f19350505050156108aa576108a5868686868686611c16565b610923565b7fe842aea7a5f1b01049d752008c53c52890b1a6daf660cf39e8eec506112bbdf630346000604051808473ffffffffffffffffffffffffffffffffffffffff1673ffffffffffffffffffffffffffffffffffffffff16815260200183815260200182151515158152602001935050505060405180910390a15b505050505050565b60018181548110151561093a57fe5b906000526020600020906006020160009150905080600001908060010154908060020160009054906101000a900460ff1690806003019080600401908060050160009054906101000a900460ff16905086565b60028181548110151561099c57fe5b90600052602060002090600a020160009150905080600001908060010154908060020160009054906101000a900460ff16908060030190806004019080600501908060060160009054906101000a900460ff16908060090160009054906101000a900460ff16905088565b60046020528060005260406000206000915090505481565b60036020528060005260406000206000915090508054600181600116156101000203166002900480601f016020809104026020016040519081016040528092919081815260200182805460018160011615610100020316600290048015610ac75780601f10610a9c57610100808354040283529160200191610ac7565b820191906000526020600020905b815481529060010190602001808311610aaa57829003601f168201915b505050505081565b6000610ada33612056565b90507fdcc734248b9e9bcfcbd1187acf9d439e66a0c2b499a0f417d9826384973aad0a6002600460003373ffffffffffffffffffffffffffffffffffffffff1673ffffffffffffffffffffffffffffffffffffffff16815260200190815260200160002054815481101515610b4b57fe5b90600052602060002090600a02016005016002600460003373ffffffffffffffffffffffffffffffffffffffff1673ffffffffffffffffffffffffffffffffffffffff16815260200190815260200160002054815481101515610baa57fe5b90600052602060002090600a02016004016002600460003373ffffffffffffffffffffffffffffffffffffffff1673ffffffffffffffffffffffffffffffffffffffff16815260200190815260200160002054815481101515610c0957fe5b90600052602060002090600a0201600101546002600460003373ffffffffffffffffffffffffffffffffffffffff1673ffffffffffffffffffffffffffffffffffffffff16815260200190815260200160002054815481101515610c6957fe5b90600052602060002090600a020160020160009054906101000a900460ff166002600460003373ffffffffffffffffffffffffffffffffffffffff1673ffffffffffffffffffffffffffffffffffffffff16815260200190815260200160002054815481101515610cd657fe5b90600052602060002090600a02016003016002600460003373ffffffffffffffffffffffffffffffffffffffff1673ffffffffffffffffffffffffffffffffffffffff16815260200190815260200160002054815481101515610d3557fe5b90600052602060002090600a020160090160009054906101000a900460ff166002600460003373ffffffffffffffffffffffffffffffffffffffff1673ffffffffffffffffffffffffffffffffffffffff16815260200190815260200160002054815481101515610da257fe5b90600052602060002090600a020160060160009054906101000a900460ff16886040518080602001806020018981526020018860ff1660ff168152602001806020018760ff1660ff1681526020018660ff1660ff16815260200185815260200184810384528c818154600181600116156101000203166002900481526020019150805460018160011615610100020316600290048015610e835780601f10610e5857610100808354040283529160200191610e83565b820191906000526020600020905b815481529060010190602001808311610e6657829003601f168201915b505084810383528b818154600181600116156101000203166002900481526020019150805460018160011615610100020316600290048015610f065780601f10610edb57610100808354040283529160200191610f06565b820191906000526020600020905b815481529060010190602001808311610ee957829003601f168201915b5050848103825288818154600181600116156101000203166002900481526020019150805460018160011615610100020316600290048015610f895780601f10610f5e57610100808354040283529160200191610f89565b820191906000526020600020905b815481529060010190602001808311610f6c57829003601f168201915b50509b50505050505050505050505060405180910390a1610fa861209f565b610fb0612437565b50565b60003073ffffffffffffffffffffffffffffffffffffffff166108fc349081150290604051600060405180830381858888f1935050505015610ff85760019050610ffd565b600090505b90565b600061100a613884565b600060028481548110151561101b57fe5b90600052602060002090600a0201600601600081819054906101000a900460ff168092919060010191906101000a81548160ff021916908360ff160217905550506000925060028481548110151561106f57fe5b90600052602060002090600a02016000018054600181600116156101000203166002900480601f0160208091040260200160405190810160405280929190818152602001828054600181600116156101000203166002900480156111145780601f106110e957610100808354040283529160200191611114565b820191906000526020600020905b8154815290600101906020018083116110f757829003601f168201915b505050505091506001855111156111345761112f8585612606565b6113a8565b6001855114156113a757600090505b81518163ffffffff1610156113775784600081518110151561116157fe5b9060200101517f010000000000000000000000000000000000000000000000000000000000000090047f0100000000000000000000000000000000000000000000000000000000000000027effffffffffffffffffffffffffffffffffffffffffffffffffffffffffffff1916828263ffffffff168151811015156111e257fe5b9060200101517f010000000000000000000000000000000000000000000000000000000000000090047f0100000000000000000000000000000000000000000000000000000000000000027effffffffffffffffffffffffffffffffffffffffffffffffffffffffffffff1916141561136a57600192508460028581548110151561126957fe5b90600052602060002090600a02016007018263ffffffff1681548110151561128d57fe5b906000526020600020900190805190602001906112ab929190613898565b507f8696d55ed69c77973e49639ae68e35aa5413a6f73d521601bfb9a1bf27215da5856001836040518080602001841515151581526020018363ffffffff1663ffffffff168152602001828103825285818151815260200191508051906020019080838360005b8381101561132d578082015181840152602081019050611312565b50505050905090810190601f16801561135a5780820380516001836020036101000a031916815260200191505b5094505050505060405180910390a15b8080600101915050611143565b60011515831515141561138e5761138d84612a66565b5b6000151583151514156113a6576113a58486613243565b5b5b5b5050505050565b6113b7613884565b60006113c1613918565b6113c9613918565b60006001888154811015156113da57fe5b90600052602060002090600602016000018054600181600116156101000203166002900480601f01602080910402602001604051908101604052809291908181526020018280546001816001161561010002031660029004801561147f5780601f106114545761010080835404028352916020019161147f565b820191906000526020600020905b81548152906001019060200180831161146257829003601f168201915b50505050509450600093506001600280548060010182816114a0919061392c565b91600052602060002090600a02016000610140604051908101604052808a815260200160018e8154811015156114d257fe5b906000526020600020906006020160010154815260200160018e8154811015156114f857fe5b906000526020600020906006020160020160009054906101000a900460ff1660ff1681526020018c815260200160018e81548110151561153457fe5b90600052602060002090600602016004018054600181600116156101000203166002900480601f0160208091040260200160405190810160405280929190818152602001828054600181600116156101000203166002900480156115d95780601f106115ae576101008083540402835291602001916115d9565b820191906000526020600020905b8154815290600101906020018083116115bc57829003601f168201915b505050505081526020018e81526020018960ff1681526020018881526020018781526020018b60ff168152509091909150600082015181600001908051906020019061162692919061395e565b506020820151816001015560408201518160020160006101000a81548160ff021916908360ff160217905550606082015181600301908051906020019061166e92919061395e565b50608082015181600401908051906020019061168b92919061395e565b5060a08201518160050190805190602001906116a892919061395e565b5060c08201518160060160006101000a81548160ff021916908360ff16021790555060e08201518160070190805190602001906116e69291906139de565b506101008201518160080190805190602001906117049291906139de565b506101208201518160090160006101000a81548160ff021916908360ff16021790555050500390507f746ffb8547cf17810666c7e53b35fce56fdadb9c4b4d5882ce3746334fdfe6528960018a81548110151561175d57fe5b90600052602060002090600602016004018360018c81548110151561177e57fe5b90600052602060002090600602016001015460018d81548110151561179f57fe5b906000526020600020906006020160020160009054906101000a900460ff168c8c6040518080602001806020018881526020018781526020018660ff1660ff168152602001806020018560ff1660ff16815260200184810384528b818151815260200191508051906020019080838360005b8381101561182c578082015181840152602081019050611811565b50505050905090810190601f1680156118595780820380516001836020036101000a031916815260200191505b5084810383528a8181546001816001161561010002031660029004815260200191508054600181600116156101000203166002900480156118db5780601f106118b0576101008083540402835291602001916118db565b820191906000526020600020905b8154815290600101906020018083116118be57829003601f168201915b5050848103825286818151815260200191508051906020019080838360005b838110156119155780820151818401526020810190506118fa565b50505050905090810190601f1680156119425780820380516001836020036101000a031916815260200191505b509a505050505050505050505060405180910390a161196186826135f0565b61196a816136a8565b611973886136ef565b505050505050505050565b60008060018054905011151561199357600080fd5b600090505b600180549050811015611c135760006001828154811015156119b657fe5b906000526020600020906006020160050160009054906101000a900460ff1660ff161115611c06577f4a18a97d2aadb1a09921f044c7b69c6eaa3f25354f4c85dbbd4b04dd0aca9cb681600183815481101515611a0f57fe5b906000526020600020906006020160010154600184815481101515611a3057fe5b906000526020600020906006020160020160009054906101000a900460ff16600185815481101515611a5e57fe5b9060005260206000209060060201600401600186815481101515611a7e57fe5b9060005260206000209060060201600301600187815481101515611a9e57fe5b906000526020600020906006020160050160009054906101000a900460ff16604051808781526020018681526020018560ff1660ff16815260200180602001806020018460ff1660ff168152602001838103835286818154600181600116156101000203166002900481526020019150805460018160011615610100020316600290048015611b6e5780601f10611b4357610100808354040283529160200191611b6e565b820191906000526020600020905b815481529060010190602001808311611b5157829003601f168201915b5050838103825285818154600181600116156101000203166002900481526020019150805460018160011615610100020316600290048015611bf15780601f10611bc657610100808354040283529160200191611bf1565b820191906000526020600020905b815481529060010190602001808311611bd457829003601f168201915b50509850505050505050505060405180910390a15b8080600101915050611998565b50565b60008060016000809054906101000a900463ffffffff1663ffffffff161015611d44576001808054806001018281611c4e9190613a3e565b9160005260206000209060060201600060c0604051908101604052808d81526020018c81526020018b60ff1681526020018a81526020018981526020018860ff1681525090919091506000820151816000019080519060200190611cb392919061395e565b506020820151816001015560408201518160020160006101000a81548160ff021916908360ff1602179055506060820151816003019080519060200190611cfb92919061395e565b506080820151816004019080519060200190611d1892919061395e565b5060a08201518160050160006101000a81548160ff021916908360ff1602179055505050039150611eef565b600090505b6001805490508163ffffffff161015611eee57600060018263ffffffff16815481101515611d7357fe5b906000526020600020906006020160050160009054906101000a900460ff1660ff161415611ee15760c0604051908101604052808981526020018881526020018760ff1681526020018681526020018581526020018460ff1681525060018263ffffffff16815481101515611de457fe5b90600052602060002090600602016000820151816000019080519060200190611e0e92919061395e565b506020820151816001015560408201518160020160006101000a81548160ff021916908360ff1602179055506060820151816003019080519060200190611e5692919061395e565b506080820151816004019080519060200190611e7392919061395e565b5060a08201518160050160006101000a81548160ff021916908360ff1602179055509050508063ffffffff16915060008081819054906101000a900463ffffffff16809291906001900391906101000a81548163ffffffff021916908363ffffffff16021790555050611eee565b8080600101915050611d49565b5b87600360008481526020019081526020016000209080519060200190611f16929190613898565b507f8c9e64e9e1f765e64747f8c270dd5afeb69e372f71575657d5d1b260ee9ccf51828888878988604051808781526020018681526020018560ff1660ff16815260200180602001806020018460ff1660ff168152602001838103835286818151815260200191508051906020019080838360005b83811015611fa6578082015181840152602081019050611f8b565b50505050905090810190601f168015611fd35780820380516001836020036101000a031916815260200191505b50838103825285818151815260200191508051906020019080838360005b8381101561200c578082015181840152602081019050611ff1565b50505050905090810190601f1680156120395780820380516001836020036101000a031916815260200191505b509850505050505050505060405180910390a15050505050505050565b6000600460008373ffffffffffffffffffffffffffffffffffffffff1673ffffffffffffffffffffffffffffffffffffffff168152602001908152602001600020549050919050565b6120a7613884565b60006040805190810160405280600181526020017f24000000000000000000000000000000000000000000000000000000000000008152509150600090505b6002600460003373ffffffffffffffffffffffffffffffffffffffff1673ffffffffffffffffffffffffffffffffffffffff1681526020019081526020016000205481548110151561213457fe5b90600052602060002090600a0201600701805490508163ffffffff1610156124335781600081518110151561216557fe5b9060200101517f010000000000000000000000000000000000000000000000000000000000000090047f0100000000000000000000000000000000000000000000000000000000000000027effffffffffffffffffffffffffffffffffffffffffffffffffffffffffffff19166002600460003373ffffffffffffffffffffffffffffffffffffffff1673ffffffffffffffffffffffffffffffffffffffff1681526020019081526020016000205481548110151561222057fe5b90600052602060002090600a02016007018263ffffffff1681548110151561224457fe5b90600052602060002090016000815460018160011615610100020316600290048110151561226e57fe5b81546001161561228d5790600052602060002090602091828204019190065b9054901a7f0100000000000000000000000000000000000000000000000000000000000000027effffffffffffffffffffffffffffffffffffffffffffffffffffffffffffff1916141515612426577f79cf4eb0d6305e4d55a4c2df65998d7b62c2a406f83d5f6e14d131db42bb70ab6002600460003373ffffffffffffffffffffffffffffffffffffffff1673ffffffffffffffffffffffffffffffffffffffff1681526020019081526020016000205481548110151561234b57fe5b90600052602060002090600a02016007018263ffffffff1681548110151561236f57fe5b90600052602060002090018260405180806020018363ffffffff1663ffffffff1681526020018281038252848181546001816001161561010002031660029004815260200191508054600181600116156101000203166002900480156124165780601f106123eb57610100808354040283529160200191612416565b820191906000526020600020905b8154815290600101906020018083116123f957829003601f168201915b5050935050505060405180910390a15b80806001019150506120e6565b5050565b60008090505b6002600460003373ffffffffffffffffffffffffffffffffffffffff1673ffffffffffffffffffffffffffffffffffffffff1681526020019081526020016000205481548110151561248b57fe5b90600052602060002090600a0201600801805490508163ffffffff161015612603577fd230b39ddf0abb4c478d27f0f161bdd2f200ace6304f4a87d588c44a3fa35e8c6002600460003373ffffffffffffffffffffffffffffffffffffffff1673ffffffffffffffffffffffffffffffffffffffff1681526020019081526020016000205481548110151561251c57fe5b90600052602060002090600a02016008018263ffffffff1681548110151561254057fe5b90600052602060002090018260405180806020018363ffffffff1663ffffffff1681526020018281038252848181546001816001161561010002031660029004815260200191508054600181600116156101000203166002900480156125e75780601f106125bc576101008083540402835291602001916125e7565b820191906000526020600020905b8154815290600101906020018083116125ca57829003601f168201915b5050935050505060405180910390a1808060010191505061243d565b50565b61260e613884565b60008060028481548110151561262057fe5b90600052602060002090600a02016000018054600181600116156101000203166002900480601f0160208091040260200160405190810160405280929190818152602001828054600181600116156101000203166002900480156126c55780601f1061269a576101008083540402835291602001916126c5565b820191906000526020600020905b8154815290600101906020018083116126a857829003601f168201915b5050505050925060019150845183511415612a5457600090505b82518163ffffffff16101561281757848163ffffffff1681518110151561270257fe5b9060200101517f010000000000000000000000000000000000000000000000000000000000000090047f0100000000000000000000000000000000000000000000000000000000000000027effffffffffffffffffffffffffffffffffffffffffffffffffffffffffffff1916838263ffffffff1681518110151561278357fe5b9060200101517f010000000000000000000000000000000000000000000000000000000000000090047f0100000000000000000000000000000000000000000000000000000000000000027effffffffffffffffffffffffffffffffffffffffffffffffffffffffffffff191614151561280a57600091506128058486613243565b612817565b80806001019150506126df565b600115158215151415612a4f577fffedf7f8820dde2d4b397a1fc7d384e98b9e4a78a9da7bd4352fe2340d0bf65b60028581548110151561285457fe5b90600052602060002090600a020160050160028681548110151561287457fe5b90600052602060002090600a020160000160028781548110151561289457fe5b90600052602060002090600a0201600401604051808060200180602001806020018481038452878181546001816001161561010002031660029004815260200191508054600181600116156101000203166002900480156129365780601f1061290b57610100808354040283529160200191612936565b820191906000526020600020905b81548152906001019060200180831161291957829003601f168201915b50508481038352868181546001816001161561010002031660029004815260200191508054600181600116156101000203166002900480156129b95780601f1061298e576101008083540402835291602001916129b9565b820191906000526020600020905b81548152906001019060200180831161299c57829003601f168201915b5050848103825285818154600181600116156101000203166002900481526020019150805460018160011615610100020316600290048015612a3c5780601f10612a1157610100808354040283529160200191612a3c565b820191906000526020600020905b815481529060010190602001808311612a1f57829003601f168201915b5050965050505050505060405180910390a15b612a5f565b612a5e8486613243565b5b5050505050565b612a6e613884565b6000612a78613884565b6000600285815481101515612a8957fe5b90600052602060002090600a02016000018054600181600116156101000203166002900480601f016020809104026020016040519081016040528092919081815260200182805460018160011615610100020316600290048015612b2e5780601f10612b0357610100808354040283529160200191612b2e565b820191906000526020600020905b815481529060010190602001808311612b1157829003601f168201915b5050505050935060019250600090505b600285815481101515612b4d57fe5b90600052602060002090600a0201600701805490508163ffffffff161015612d6257600285815481101515612b7e57fe5b90600052602060002090600a02016007018163ffffffff16815481101515612ba257fe5b90600052602060002090018054600181600116156101000203166002900480601f016020809104026020016040519081016040528092919081815260200182805460018160011615610100020316600290048015612c415780601f10612c1657610100808354040283529160200191612c41565b820191906000526020600020905b815481529060010190602001808311612c2457829003601f168201915b50505050509150838163ffffffff16815181101515612c5c57fe5b9060200101517f010000000000000000000000000000000000000000000000000000000000000090047f0100000000000000000000000000000000000000000000000000000000000000027effffffffffffffffffffffffffffffffffffffffffffffffffffffffffffff1916826000815181101515612cd857fe5b9060200101517f010000000000000000000000000000000000000000000000000000000000000090047f0100000000000000000000000000000000000000000000000000000000000000027effffffffffffffffffffffffffffffffffffffffffffffffffffffffffffff1916141515612d555760009250612d62565b8080600101915050612b3e565b600115158315151415612f9a577fffedf7f8820dde2d4b397a1fc7d384e98b9e4a78a9da7bd4352fe2340d0bf65b600286815481101515612d9f57fe5b90600052602060002090600a0201600501600287815481101515612dbf57fe5b90600052602060002090600a0201600001600288815481101515612ddf57fe5b90600052602060002090600a020160040160405180806020018060200180602001848103845287818154600181600116156101000203166002900481526020019150805460018160011615610100020316600290048015612e815780601f10612e5657610100808354040283529160200191612e81565b820191906000526020600020905b815481529060010190602001808311612e6457829003601f168201915b5050848103835286818154600181600116156101000203166002900481526020019150805460018160011615610100020316600290048015612f045780601f10612ed957610100808354040283529160200191612f04565b820191906000526020600020905b815481529060010190602001808311612ee757829003601f168201915b5050848103825285818154600181600116156101000203166002900481526020019150805460018160011615610100020316600290048015612f875780601f10612f5c57610100808354040283529160200191612f87565b820191906000526020600020905b815481529060010190602001808311612f6a57829003601f168201915b5050965050505050505060405180910390a15b60001515831515141561323c57600285815481101515612fb657fe5b90600052602060002090600a020160020160009054906101000a900460ff1660ff16600286815481101515612fe757fe5b90600052602060002090600a020160060160009054906101000a900460ff1660ff1610151561323b577fffedf7f8820dde2d4b397a1fc7d384e98b9e4a78a9da7bd4352fe2340d0bf65b60028681548110151561304057fe5b90600052602060002090600a020160040160028781548110151561306057fe5b90600052602060002090600a020160000160028881548110151561308057fe5b90600052602060002090600a0201600501604051808060200180602001806020018481038452878181546001816001161561010002031660029004815260200191508054600181600116156101000203166002900480156131225780601f106130f757610100808354040283529160200191613122565b820191906000526020600020905b81548152906001019060200180831161310557829003601f168201915b50508481038352868181546001816001161561010002031660029004815260200191508054600181600116156101000203166002900480156131a55780601f1061317a576101008083540402835291602001916131a5565b820191906000526020600020905b81548152906001019060200180831161318857829003601f168201915b50508481038252858181546001816001161561010002031660029004815260200191508054600181600116156101000203166002900480156132285780601f106131fd57610100808354040283529160200191613228565b820191906000526020600020905b81548152906001019060200180831161320b57829003601f168201915b5050965050505050505060405180910390a15b5b5050505050565b60028281548110151561325257fe5b90600052602060002090600a020160060160009054906101000a900460ff1660ff1660028381548110151561328357fe5b90600052602060002090600a020160020160009054906101000a900460ff1660ff1611156133c1577f8696d55ed69c77973e49639ae68e35aa5413a6f73d521601bfb9a1bf27215da5816000806040518080602001841515151581526020018363ffffffff168152602001828103825285818151815260200191508051906020019080838360005b8381101561332657808201518184015260208101905061330b565b50505050905090810190601f1680156133535780820380516001836020036101000a031916815260200191505b5094505050505060405180910390a160028281548110151561337157fe5b90600052602060002090600a020160080180548060010182816133949190613a70565b9160005260206000209001600083909190915090805190602001906133ba929190613898565b50506135ec565b7fffedf7f8820dde2d4b397a1fc7d384e98b9e4a78a9da7bd4352fe2340d0bf65b6002838154811015156133f157fe5b90600052602060002090600a020160040160028481548110151561341157fe5b90600052602060002090600a020160000160028581548110151561343157fe5b90600052602060002090600a0201600501604051808060200180602001806020018481038452878181546001816001161561010002031660029004815260200191508054600181600116156101000203166002900480156134d35780601f106134a8576101008083540402835291602001916134d3565b820191906000526020600020905b8154815290600101906020018083116134b657829003601f168201915b50508481038352868181546001816001161561010002031660029004815260200191508054600181600116156101000203166002900480156135565780601f1061352b57610100808354040283529160200191613556565b820191906000526020600020905b81548152906001019060200180831161353957829003601f168201915b50508481038252858181546001816001161561010002031660029004815260200191508054600181600116156101000203166002900480156135d95780601f106135ae576101008083540402835291602001916135d9565b820191906000526020600020905b8154815290600101906020018083116135bc57829003601f168201915b5050965050505050505060405180910390a15b5050565b60008090505b8260ff168163ffffffff1610156136a35760028281548110151561361657fe5b90600052602060002090600a020160070180548060010182816136399190613a70565b916000526020600020900160006040805190810160405280600181526020017f240000000000000000000000000000000000000000000000000000000000000081525090919091509080519060200190613694929190613898565b505080806001019150506135f6565b505050565b80600460003373ffffffffffffffffffffffffffffffffffffffff1673ffffffffffffffffffffffffffffffffffffffff1681526020019081526020016000208190555050565b7f3c292ea39929efc9883230ce64b1d2bc9218bb71cb8a754ff1cb2dae6aad084660018281548110151561371f57fe5b906000526020600020906006020160030160405180806020018281038252838181546001816001161561010002031660029004815260200191508054600181600116156101000203166002900480156137b95780601f1061378e576101008083540402835291602001916137b9565b820191906000526020600020905b81548152906001019060200180831161379c57829003601f168201915b50509250505060405180910390a16001818154811015156137d657fe5b9060005260206000209060060201600080820160006137f59190613a9c565b60018201600090556002820160006101000a81549060ff02191690556003820160006138219190613a9c565b6004820160006138319190613a9c565b6005820160006101000a81549060ff0219169055505060008081819054906101000a900463ffffffff168092919060010191906101000a81548163ffffffff021916908363ffffffff1602179055505050565b602060405190810160405280600081525090565b828054600181600116156101000203166002900490600052602060002090601f016020900481019282601f106138d957805160ff1916838001178555613907565b82800160010185558215613907579182015b828111156139065782518255916020019190600101906138eb565b5b5090506139149190613ae4565b5090565b602060405190810160405280600081525090565b81548183558181151161395957600a0281600a0283600052602060002091820191016139589190613b09565b5b505050565b828054600181600116156101000203166002900490600052602060002090601f016020900481019282601f1061399f57805160ff19168380011785556139cd565b828001600101855582156139cd579182015b828111156139cc5782518255916020019190600101906139b1565b5b5090506139da9190613ae4565b5090565b828054828255906000526020600020908101928215613a2d579160200282015b82811115613a2c578251829080519060200190613a1c92919061395e565b50916020019190600101906139fe565b5b509050613a3a9190613bcc565b5090565b815481835581811511613a6b57600602816006028360005260206000209182019101613a6a9190613bf8565b5b505050565b815481835581811511613a9757818360005260206000209182019101613a969190613bcc565b5b505050565b50805460018160011615610100020316600290046000825580601f10613ac25750613ae1565b601f016020900490600052602060002090810190613ae09190613ae4565b5b50565b613b0691905b80821115613b02576000816000905550600101613aea565b5090565b90565b613bc991905b80821115613bc55760008082016000613b289190613a9c565b60018201600090556002820160006101000a81549060ff0219169055600382016000613b549190613a9c565b600482016000613b649190613a9c565b600582016000613b749190613a9c565b6006820160006101000a81549060ff0219169055600782016000613b989190613c77565b600882016000613ba89190613c77565b6009820160006101000a81549060ff021916905550600a01613b0f565b5090565b90565b613bf591905b80821115613bf15760008181613be89190613a9c565b50600101613bd2565b5090565b90565b613c7491905b80821115613c705760008082016000613c179190613a9c565b60018201600090556002820160006101000a81549060ff0219169055600382016000613c439190613a9c565b600482016000613c539190613a9c565b6005820160006101000a81549060ff021916905550600601613bfe565b5090565b90565b5080546000825590600052602060002090810190613c959190613bcc565b505600a165627a7a723058207f90593899942b216538123e3a0daa34c9e4e2e8f0117c675990e278cc64f1ce0029",
  "source": "pragma solidity ^0.4.19;\n\ncontract Hangman {\n\n  event NewGame(uint gameId, uint wager, uint8 tries, string userName, string userWord, uint8 wordLength);\n  event PendingGame(uint gameId, uint wager, uint8 tries, string userName, string userWord, uint8 wordLength);\n  event GameStarted(string challenger, string hangman, uint gameId, uint wager, uint8 maxTries, string uniqGameString, uint8 wordLength);\n  event SolutionGuess(string guess, bool hit, uint32 index);\n  event GameWinner(string winner, string word, string loser);\n  event ActiveGameDetails(string challenger, string hangman, uint wager, uint8 maxTries, string uniqGameString, uint8 wordLength, uint8 tries, uint gameId);\n  event SolutionCheck(string letter, uint32 index);\n  event MissesCheck(string letter, uint32 index);\n  event RemovePendingGame(string userWord);\n  event FundTransfer(address contractAddress, uint wager, bool success);\n\n  uint32 gamesArrayGaps = 0;\n\n  struct Game {\n    string word;\n    uint wager;\n    uint8 tries;\n    string userWord;\n    string userName;\n    uint8 wordLength;\n  }\n\n  struct ActiveGame {\n    string word;\n    uint wager;\n    uint8 maxTries;\n    string uniqGameString;\n    string hangman;\n    string challenger;\n    uint8 tries;\n    string[] hits;\n    string[] misses;\n    uint8 wordLength;\n  }\n\n  Game[] public games;\n  ActiveGame[] public activeGames;\n  mapping(uint => string) public idToWord;\n  mapping(address => uint) public activeGamesMap;\n\n  function checkSendHits() private {\n    string memory holder = '$';\n    for (uint32 i = 0; i < activeGames[activeGamesMap[msg.sender]].hits.length; i++) {\n      if (bytes(activeGames[activeGamesMap[msg.sender]].hits[i])[0] != bytes(holder)[0]) {\n        SolutionCheck(activeGames[activeGamesMap[msg.sender]].hits[i], i);\n      }\n    }\n  }\n\n  function checkSendMisses() private {\n    for (uint32 i = 0; i < activeGames[activeGamesMap[msg.sender]].misses.length; i++) {\n      MissesCheck(activeGames[activeGamesMap[msg.sender]].misses[i], i);\n    }\n  }\n\n  function getMapIndex(address challenger) private view returns(uint) {\n    return activeGamesMap[challenger];\n  }\n\n  function getActiveGame() public {\n    uint gameId = getMapIndex(msg.sender);\n    ActiveGameDetails(activeGames[activeGamesMap[msg.sender]].challenger,\n      activeGames[activeGamesMap[msg.sender]].hangman,\n      activeGames[activeGamesMap[msg.sender]].wager,\n      activeGames[activeGamesMap[msg.sender]].maxTries,\n      activeGames[activeGamesMap[msg.sender]].uniqGameString,\n      activeGames[activeGamesMap[msg.sender]].wordLength,\n      activeGames[activeGamesMap[msg.sender]].tries,\n      gameId\n    );\n    checkSendHits();\n    checkSendMisses();\n  }\n\n  function () payable public {\n    //FundTransfer(this, msg.value, true);\n  }\n\n  function holdFunds () public payable returns(bool success) {\n    if (this.send(msg.value)) {\n      return true;\n    } else {\n      return false;\n    }\n  }\n\n  function reallyCreateGame(string _word, uint _wager, uint8 _tries, string _userWord, string _userName, uint8 _wordLength) private {\n    uint id;\n    if (gamesArrayGaps < 1) {\n      id = games.push(Game(_word, _wager, _tries, _userWord, _userName, _wordLength)) - 1;\n    } else {\n      for (uint32 i = 0; i < games.length; i++) {\n        if (games[i].wordLength == 0) {\n          games[i] = Game(_word, _wager, _tries, _userWord, _userName, _wordLength);\n          id = i;\n          gamesArrayGaps--;\n          break;\n        }\n      }\n    }\n    idToWord[id] = _word;\n    NewGame(id, _wager, _tries, _userName, _userWord, _wordLength);\n  }\n\n  function createGame(string _word, uint _wager, uint8 _tries, string _userWord, string _userName, uint8 _wordLength) public payable {\n    if (this.send(msg.value)) {\n      reallyCreateGame(_word, _wager, _tries, _userWord, _userName, _wordLength);\n    } else {\n      FundTransfer(this, msg.value, false);\n    }\n    /* uint id;\n    if (gamesArrayGaps < 1) {\n      id = games.push(Game(_word, _wager, _tries, _userWord, _userName, _wordLength)) - 1;\n    } else {\n      for (uint32 i = 0; i < games.length; i++) {\n        if (games[i].wordLength == 0) {\n          games[i] = Game(_word, _wager, _tries, _userWord, _userName, _wordLength);\n          id = i;\n          gamesArrayGaps--;\n          break;\n        }\n      }\n    }\n    idToWord[id] = _word;\n    NewGame(id, _wager, _tries, _userName, _userWord, _wordLength); */\n  }\n\n  function getPendingGames() public {\n    require(games.length > 0);\n    for(uint i = 0; i < games.length; i++) {\n      if (games[i].wordLength > 0) {\n        PendingGame(i, games[i].wager, games[i].tries, games[i].userName, games[i].userWord, games[i].wordLength);\n      }\n    }\n  }\n\n  function mapLiveGameToAddress(uint gameIndex) private {\n    activeGamesMap[msg.sender] = gameIndex;\n  }\n\n  function initSolutionArray(uint8 wordLength, uint gameIndex) private {\n    for (uint32 i = 0; i < wordLength; i++) {\n      activeGames[gameIndex].hits.push('$');\n    }\n  }\n\n  function removeGameFromPending(uint gameId) private {\n    RemovePendingGame(games[gameId].userWord);\n    delete games[gameId];\n    gamesArrayGaps++;\n  }\n\n  function commenceLiveGame(string challenger, uint gameId, string uniqGameString, uint8 wordLength) public {\n    string memory gameWord = games[gameId].word;\n    uint8 tries = 0;\n    string[] memory hits;\n    string[] memory misses;\n    uint id = activeGames.push(ActiveGame(gameWord, games[gameId].wager, games[gameId].tries, uniqGameString, games[gameId].userName, challenger, tries, hits, misses, wordLength)) - 1;\n    GameStarted(challenger, games[gameId].userName, id, games[gameId].wager, games[gameId].tries, uniqGameString, wordLength);\n    initSolutionArray(wordLength, id);\n    mapLiveGameToAddress(id);\n    removeGameFromPending(gameId);\n  }\n\n  function checkSolved(uint gameId) private {\n    string memory gameWord = activeGames[gameId].word;\n    bool isSolution = true;\n    string memory letter;\n    for (uint32 i = 0; i < activeGames[gameId].hits.length; i++) {\n      letter = activeGames[gameId].hits[i];\n      if (bytes(letter)[0] != bytes(gameWord)[i]) {\n        isSolution = false;\n        break;\n      }\n    }\n    if (isSolution == true) {\n      GameWinner(activeGames[gameId].challenger, activeGames[gameId].word, activeGames[gameId].hangman);\n    }\n    if (isSolution == false) {\n      if (activeGames[gameId].tries >= activeGames[gameId].maxTries) {\n        GameWinner(activeGames[gameId].hangman, activeGames[gameId].word, activeGames[gameId].challenger);\n      }\n    }\n  }\n\n  function checkHanged(uint gameId, string guess) private {\n    if (activeGames[gameId].maxTries > activeGames[gameId].tries) {\n      SolutionGuess(guess, false, 0);\n      activeGames[gameId].misses.push(guess);\n    } else {\n      GameWinner(activeGames[gameId].hangman, activeGames[gameId].word, activeGames[gameId].challenger);\n    }\n  }\n\n  function checkWordGuess(string guess, uint gameId) private {\n    string memory gameWord = activeGames[gameId].word;\n    bool isSolved = true;\n    if (bytes(gameWord).length == bytes(guess).length) {\n      for (uint32 i = 0; i < bytes(gameWord).length; i++) {\n        if (bytes(gameWord)[i] != bytes(guess)[i]) {\n          isSolved = false;\n          checkHanged(gameId, guess);\n          break;\n        }\n      }\n      if (isSolved == true) {\n        GameWinner(activeGames[gameId].challenger, activeGames[gameId].word, activeGames[gameId].hangman);\n      }\n    } else {\n      checkHanged(gameId, guess);\n    }\n  }\n\n  function checkGuess(string guess, uint gameId) public {\n    activeGames[gameId].tries++;\n    bool isHit = false;\n    string memory gameWord = activeGames[gameId].word;\n    if (bytes(guess).length > 1) {\n      checkWordGuess(guess, gameId);\n    } else if (bytes(guess).length == 1) {\n      for (uint32 i = 0; i < bytes(gameWord).length; i++) {\n        if (bytes(gameWord)[i] == bytes(guess)[0]) {\n          isHit = true;\n          activeGames[gameId].hits[i] = guess;\n          SolutionGuess(guess, true, i);\n        }\n      }\n      if (isHit == true) {\n        checkSolved(gameId);\n      }\n      if (isHit == false) {\n        checkHanged(gameId, guess);\n      }\n    }\n  }\n }\n",
  "sourcePath": "/Users/tysondaugherty/Desktop/funApps/ether/etherHang/contracts/Hangman.sol",
  "compiler": {
    "name": "solc",
    "version": "0.4.19+commit.c4cbbb05.Emscripten.clang"
  },
  "schemaVersion": "1.0.1",
  "updatedAt": "2018-03-06T00:13:17.227Z"
}