{
  "contractName": "Hangman",
  "abi": [
    {
      "constant": true,
      "inputs": [
        {
          "name": "",
          "type": "uint256"
        }
      ],
      "name": "games",
      "outputs": [
        {
          "name": "word",
          "type": "string"
        },
        {
          "name": "wager",
          "type": "uint8"
        },
        {
          "name": "tries",
          "type": "uint8"
        },
        {
          "name": "userWord",
          "type": "string"
        },
        {
          "name": "userName",
          "type": "string"
        },
        {
          "name": "wordLength",
          "type": "uint8"
        }
      ],
      "payable": false,
      "stateMutability": "view",
      "type": "function"
    },
    {
      "constant": true,
      "inputs": [
        {
          "name": "",
          "type": "uint256"
        }
      ],
      "name": "activeGames",
      "outputs": [
        {
          "name": "word",
          "type": "string"
        },
        {
          "name": "wager",
          "type": "uint8"
        },
        {
          "name": "maxTries",
          "type": "uint8"
        },
        {
          "name": "uniqGameString",
          "type": "string"
        },
        {
          "name": "hangman",
          "type": "string"
        },
        {
          "name": "challenger",
          "type": "string"
        },
        {
          "name": "tries",
          "type": "uint8"
        },
        {
          "name": "wordLength",
          "type": "uint8"
        }
      ],
      "payable": false,
      "stateMutability": "view",
      "type": "function"
    },
    {
      "constant": true,
      "inputs": [
        {
          "name": "",
          "type": "address"
        }
      ],
      "name": "activeGamesMap",
      "outputs": [
        {
          "name": "",
          "type": "uint256"
        }
      ],
      "payable": false,
      "stateMutability": "view",
      "type": "function"
    },
    {
      "constant": true,
      "inputs": [
        {
          "name": "",
          "type": "uint256"
        }
      ],
      "name": "idToWord",
      "outputs": [
        {
          "name": "",
          "type": "string"
        }
      ],
      "payable": false,
      "stateMutability": "view",
      "type": "function"
    },
    {
      "anonymous": false,
      "inputs": [
        {
          "indexed": false,
          "name": "gameId",
          "type": "uint256"
        },
        {
          "indexed": false,
          "name": "wager",
          "type": "uint8"
        },
        {
          "indexed": false,
          "name": "tries",
          "type": "uint8"
        },
        {
          "indexed": false,
          "name": "userName",
          "type": "string"
        },
        {
          "indexed": false,
          "name": "userWord",
          "type": "string"
        },
        {
          "indexed": false,
          "name": "wordLength",
          "type": "uint8"
        }
      ],
      "name": "NewGame",
      "type": "event"
    },
    {
      "anonymous": false,
      "inputs": [
        {
          "indexed": false,
          "name": "gameId",
          "type": "uint256"
        },
        {
          "indexed": false,
          "name": "wager",
          "type": "uint8"
        },
        {
          "indexed": false,
          "name": "tries",
          "type": "uint8"
        },
        {
          "indexed": false,
          "name": "userName",
          "type": "string"
        },
        {
          "indexed": false,
          "name": "userWord",
          "type": "string"
        },
        {
          "indexed": false,
          "name": "wordLength",
          "type": "uint8"
        }
      ],
      "name": "PendingGame",
      "type": "event"
    },
    {
      "anonymous": false,
      "inputs": [
        {
          "indexed": false,
          "name": "challenger",
          "type": "string"
        },
        {
          "indexed": false,
          "name": "hangman",
          "type": "string"
        },
        {
          "indexed": false,
          "name": "gameId",
          "type": "uint256"
        },
        {
          "indexed": false,
          "name": "wager",
          "type": "uint8"
        },
        {
          "indexed": false,
          "name": "maxTries",
          "type": "uint8"
        },
        {
          "indexed": false,
          "name": "uniqGameString",
          "type": "string"
        },
        {
          "indexed": false,
          "name": "wordLength",
          "type": "uint8"
        }
      ],
      "name": "GameStarted",
      "type": "event"
    },
    {
      "anonymous": false,
      "inputs": [
        {
          "indexed": false,
          "name": "guess",
          "type": "string"
        },
        {
          "indexed": false,
          "name": "hit",
          "type": "bool"
        },
        {
          "indexed": false,
          "name": "index",
          "type": "uint32"
        }
      ],
      "name": "SolutionGuess",
      "type": "event"
    },
    {
      "anonymous": false,
      "inputs": [
        {
          "indexed": false,
          "name": "winner",
          "type": "string"
        }
      ],
      "name": "GameWinner",
      "type": "event"
    },
    {
      "anonymous": false,
      "inputs": [
        {
          "indexed": false,
          "name": "challenger",
          "type": "string"
        },
        {
          "indexed": false,
          "name": "hangman",
          "type": "string"
        },
        {
          "indexed": false,
          "name": "wager",
          "type": "uint8"
        },
        {
          "indexed": false,
          "name": "maxTries",
          "type": "uint8"
        },
        {
          "indexed": false,
          "name": "uniqGameString",
          "type": "string"
        },
        {
          "indexed": false,
          "name": "wordLength",
          "type": "uint8"
        },
        {
          "indexed": false,
          "name": "tries",
          "type": "uint8"
        },
        {
          "indexed": false,
          "name": "gameId",
          "type": "uint256"
        }
      ],
      "name": "ActiveGameDetails",
      "type": "event"
    },
    {
      "anonymous": false,
      "inputs": [
        {
          "indexed": false,
          "name": "letter",
          "type": "string"
        },
        {
          "indexed": false,
          "name": "index",
          "type": "uint32"
        }
      ],
      "name": "SolutionCheck",
      "type": "event"
    },
    {
      "anonymous": false,
      "inputs": [
        {
          "indexed": false,
          "name": "letter",
          "type": "string"
        },
        {
          "indexed": false,
          "name": "index",
          "type": "uint32"
        }
      ],
      "name": "MissesCheck",
      "type": "event"
    },
    {
      "anonymous": false,
      "inputs": [
        {
          "indexed": false,
          "name": "userWord",
          "type": "string"
        }
      ],
      "name": "RemovePendingGame",
      "type": "event"
    },
    {
      "constant": false,
      "inputs": [],
      "name": "getActiveGame",
      "outputs": [],
      "payable": false,
      "stateMutability": "nonpayable",
      "type": "function"
    },
    {
      "constant": false,
      "inputs": [
        {
          "name": "_word",
          "type": "string"
        },
        {
          "name": "_wager",
          "type": "uint8"
        },
        {
          "name": "_tries",
          "type": "uint8"
        },
        {
          "name": "_userWord",
          "type": "string"
        },
        {
          "name": "_userName",
          "type": "string"
        },
        {
          "name": "_wordLength",
          "type": "uint8"
        }
      ],
      "name": "createGame",
      "outputs": [],
      "payable": false,
      "stateMutability": "nonpayable",
      "type": "function"
    },
    {
      "constant": false,
      "inputs": [],
      "name": "getPendingGames",
      "outputs": [],
      "payable": false,
      "stateMutability": "nonpayable",
      "type": "function"
    },
    {
      "constant": false,
      "inputs": [
        {
          "name": "challenger",
          "type": "string"
        },
        {
          "name": "gameId",
          "type": "uint256"
        },
        {
          "name": "uniqGameString",
          "type": "string"
        },
        {
          "name": "wordLength",
          "type": "uint8"
        }
      ],
      "name": "commenceLiveGame",
      "outputs": [],
      "payable": false,
      "stateMutability": "nonpayable",
      "type": "function"
    },
    {
      "constant": false,
      "inputs": [
        {
          "name": "guess",
          "type": "string"
        },
        {
          "name": "gameId",
          "type": "uint256"
        }
      ],
      "name": "checkGuess",
      "outputs": [],
      "payable": false,
      "stateMutability": "nonpayable",
      "type": "function"
    }
  ],
  "bytecode": "0x606060405260008060006101000a81548163ffffffff021916908363ffffffff160217905550341561003057600080fd5b6133f68061003f6000396000f300606060405260043610610099576000357c0100000000000000000000000000000000000000000000000000000000900463ffffffff168063117a5b901461009e57806313e4c714146102905780632ec1c017146105185780634d83d55a1461056557806364751e1014610601578063957b5fb414610708578063d77eef1b1461071d578063e6b2bc1414610783578063ff6f4bc114610838575b600080fd5b34156100a957600080fd5b6100bf600480803590602001909190505061084d565b60405180806020018760ff1660ff1681526020018660ff1660ff16815260200180602001806020018560ff1660ff16815260200184810384528a8181546001816001161561010002031660029004815260200191508054600181600116156101000203166002900480156101745780601f1061014957610100808354040283529160200191610174565b820191906000526020600020905b81548152906001019060200180831161015757829003601f168201915b50508481038352878181546001816001161561010002031660029004815260200191508054600181600116156101000203166002900480156101f75780601f106101cc576101008083540402835291602001916101f7565b820191906000526020600020905b8154815290600101906020018083116101da57829003601f168201915b505084810382528681815460018160011615610100020316600290048152602001915080546001816001161561010002031660029004801561027a5780601f1061024f5761010080835404028352916020019161027a565b820191906000526020600020905b81548152906001019060200180831161025d57829003601f168201915b5050995050505050505050505060405180910390f35b341561029b57600080fd5b6102b160048080359060200190919050506108bc565b60405180806020018960ff1660ff1681526020018860ff1660ff1681526020018060200180602001806020018760ff1660ff1681526020018660ff1660ff16815260200185810385528d8181546001816001161561010002031660029004815260200191508054600181600116156101000203166002900480156103765780601f1061034b57610100808354040283529160200191610376565b820191906000526020600020905b81548152906001019060200180831161035957829003601f168201915b505085810384528a8181546001816001161561010002031660029004815260200191508054600181600116156101000203166002900480156103f95780601f106103ce576101008083540402835291602001916103f9565b820191906000526020600020905b8154815290600101906020018083116103dc57829003601f168201915b505085810383528981815460018160011615610100020316600290048152602001915080546001816001161561010002031660029004801561047c5780601f106104515761010080835404028352916020019161047c565b820191906000526020600020905b81548152906001019060200180831161045f57829003601f168201915b50508581038252888181546001816001161561010002031660029004815260200191508054600181600116156101000203166002900480156104ff5780601f106104d4576101008083540402835291602001916104ff565b820191906000526020600020905b8154815290600101906020018083116104e257829003601f168201915b50509c5050505050505050505050505060405180910390f35b341561052357600080fd5b61054f600480803573ffffffffffffffffffffffffffffffffffffffff16906020019091905050610943565b6040518082815260200191505060405180910390f35b341561057057600080fd5b610586600480803590602001909190505061095b565b6040518080602001828103825283818151815260200191508051906020019080838360005b838110156105c65780820151818401526020810190506105ab565b50505050905090810190601f1680156105f35780820380516001836020036101000a031916815260200191505b509250505060405180910390f35b341561060c57600080fd5b610706600480803590602001908201803590602001908080601f0160208091040260200160405190810160405280939291908181526020018383808284378201915050505050509190803560ff1690602001909190803560ff1690602001909190803590602001908201803590602001908080601f0160208091040260200160405190810160405280939291908181526020018383808284378201915050505050509190803590602001908201803590602001908080601f0160208091040260200160405190810160405280939291908181526020018383808284378201915050505050509190803560ff16906020019091905050610a0b565b005b341561071357600080fd5b61071b610e85565b005b341561072857600080fd5b610781600480803590602001908201803590602001908080601f0160208091040260200160405190810160405280939291908181526020018383808284378201915050505050509190803590602001909190505061137c565b005b341561078e57600080fd5b610836600480803590602001908201803590602001908080601f0160208091040260200160405190810160405280939291908181526020018383808284378201915050505050509190803590602001909190803590602001908201803590602001908080601f0160208091040260200160405190810160405280939291908181526020018383808284378201915050505050509190803560ff16906020019091905050611706565b005b341561084357600080fd5b61084b611d0f565b005b60018181548110151561085c57fe5b906000526020600020906005020160009150905080600001908060010160009054906101000a900460ff16908060010160019054906101000a900460ff1690806002019080600301908060040160009054906101000a900460ff16905086565b6002818154811015156108cb57fe5b906000526020600020906009020160009150905080600001908060010160009054906101000a900460ff16908060010160019054906101000a900460ff16908060020190806003019080600401908060050160009054906101000a900460ff16908060080160009054906101000a900460ff16905088565b60046020528060005260406000206000915090505481565b60036020528060005260406000206000915090508054600181600116156101000203166002900480601f016020809104026020016040519081016040528092919081815260200182805460018160011615610100020316600290048015610a035780601f106109d857610100808354040283529160200191610a03565b820191906000526020600020905b8154815290600101906020018083116109e657829003601f168201915b505050505081565b60008060016000809054906101000a900463ffffffff1663ffffffff161015610b53576001808054806001018281610a439190612f9e565b9160005260206000209060050201600060c0604051908101604052808d81526020018c60ff1681526020018b60ff1681526020018a81526020018981526020018860ff1681525090919091506000820151816000019080519060200190610aab929190612fd0565b5060208201518160010160006101000a81548160ff021916908360ff16021790555060408201518160010160016101000a81548160ff021916908360ff1602179055506060820151816002019080519060200190610b0a929190612fd0565b506080820151816003019080519060200190610b27929190612fd0565b5060a08201518160040160006101000a81548160ff021916908360ff1602179055505050039150610d18565b600090505b6001805490508163ffffffff161015610d1757600060018263ffffffff16815481101515610b8257fe5b906000526020600020906005020160040160009054906101000a900460ff1660ff161415610d0a5760c0604051908101604052808981526020018860ff1681526020018760ff1681526020018681526020018581526020018460ff1681525060018263ffffffff16815481101515610bf657fe5b90600052602060002090600502016000820151816000019080519060200190610c20929190612fd0565b5060208201518160010160006101000a81548160ff021916908360ff16021790555060408201518160010160016101000a81548160ff021916908360ff1602179055506060820151816002019080519060200190610c7f929190612fd0565b506080820151816003019080519060200190610c9c929190612fd0565b5060a08201518160040160006101000a81548160ff021916908360ff1602179055509050508063ffffffff16915060008081819054906101000a900463ffffffff16809291906001900391906101000a81548163ffffffff021916908363ffffffff16021790555050610d17565b8080600101915050610b58565b5b87600360008481526020019081526020016000209080519060200190610d3f929190613050565b507ffa90035500eba52653bd3e7f70d8dce39e97b59fc9918ab002887d494cd292de828888878988604051808781526020018660ff1660ff1681526020018560ff1660ff16815260200180602001806020018460ff1660ff168152602001838103835286818151815260200191508051906020019080838360005b83811015610dd5578082015181840152602081019050610dba565b50505050905090810190601f168015610e025780820380516001836020036101000a031916815260200191505b50838103825285818151815260200191508051906020019080838360005b83811015610e3b578082015181840152602081019050610e20565b50505050905090810190601f168015610e685780820380516001836020036101000a031916815260200191505b509850505050505050505060405180910390a15050505050505050565b6000610e9033611fba565b90507f3ef5c44b687439135e7c1a88073376ba96c4f2287734027f2e4be5a46802f90d6002600460003373ffffffffffffffffffffffffffffffffffffffff1673ffffffffffffffffffffffffffffffffffffffff16815260200190815260200160002054815481101515610f0157fe5b90600052602060002090600902016004016002600460003373ffffffffffffffffffffffffffffffffffffffff1673ffffffffffffffffffffffffffffffffffffffff16815260200190815260200160002054815481101515610f6057fe5b90600052602060002090600902016003016002600460003373ffffffffffffffffffffffffffffffffffffffff1673ffffffffffffffffffffffffffffffffffffffff16815260200190815260200160002054815481101515610fbf57fe5b906000526020600020906009020160010160009054906101000a900460ff166002600460003373ffffffffffffffffffffffffffffffffffffffff1673ffffffffffffffffffffffffffffffffffffffff1681526020019081526020016000205481548110151561102c57fe5b906000526020600020906009020160010160019054906101000a900460ff166002600460003373ffffffffffffffffffffffffffffffffffffffff1673ffffffffffffffffffffffffffffffffffffffff1681526020019081526020016000205481548110151561109957fe5b90600052602060002090600902016002016002600460003373ffffffffffffffffffffffffffffffffffffffff1673ffffffffffffffffffffffffffffffffffffffff168152602001908152602001600020548154811015156110f857fe5b906000526020600020906009020160080160009054906101000a900460ff166002600460003373ffffffffffffffffffffffffffffffffffffffff1673ffffffffffffffffffffffffffffffffffffffff1681526020019081526020016000205481548110151561116557fe5b906000526020600020906009020160050160009054906101000a900460ff16886040518080602001806020018960ff1660ff1681526020018860ff1660ff168152602001806020018760ff1660ff1681526020018660ff1660ff16815260200185815260200184810384528c81815460018160011615610100020316600290048152602001915080546001816001161561010002031660029004801561124c5780601f106112215761010080835404028352916020019161124c565b820191906000526020600020905b81548152906001019060200180831161122f57829003601f168201915b505084810383528b8181546001816001161561010002031660029004815260200191508054600181600116156101000203166002900480156112cf5780601f106112a4576101008083540402835291602001916112cf565b820191906000526020600020905b8154815290600101906020018083116112b257829003601f168201915b50508481038252888181546001816001161561010002031660029004815260200191508054600181600116156101000203166002900480156113525780601f1061132757610100808354040283529160200191611352565b820191906000526020600020905b81548152906001019060200180831161133557829003601f168201915b50509b50505050505050505050505060405180910390a1611371612003565b61137961239b565b50565b60006113866130d0565b600060028481548110151561139757fe5b9060005260206000209060090201600501600081819054906101000a900460ff168092919060010191906101000a81548160ff021916908360ff16021790555050600092506002848154811015156113eb57fe5b90600052602060002090600902016000018054600181600116156101000203166002900480601f0160208091040260200160405190810160405280929190818152602001828054600181600116156101000203166002900480156114905780601f1061146557610100808354040283529160200191611490565b820191906000526020600020905b81548152906001019060200180831161147357829003601f168201915b50505050509150600090505b81518163ffffffff1610156116d0578460008151811015156114ba57fe5b9060200101517f010000000000000000000000000000000000000000000000000000000000000090047f0100000000000000000000000000000000000000000000000000000000000000027effffffffffffffffffffffffffffffffffffffffffffffffffffffffffffff1916828263ffffffff1681518110151561153b57fe5b9060200101517f010000000000000000000000000000000000000000000000000000000000000090047f0100000000000000000000000000000000000000000000000000000000000000027effffffffffffffffffffffffffffffffffffffffffffffffffffffffffffff191614156116c35760019250846002858154811015156115c257fe5b90600052602060002090600902016006018263ffffffff168154811015156115e657fe5b90600052602060002090019080519060200190611604929190613050565b507f8696d55ed69c77973e49639ae68e35aa5413a6f73d521601bfb9a1bf27215da5856001836040518080602001841515151581526020018363ffffffff1663ffffffff168152602001828103825285818151815260200191508051906020019080838360005b8381101561168657808201518184015260208101905061166b565b50505050905090810190601f1680156116b35780820380516001836020036101000a031916815260200191505b5094505050505060405180910390a15b808060010191505061149c565b6001151583151514156116e7576116e68461256a565b5b6000151583151514156116ff576116fe8486612aa3565b5b5050505050565b61170e6130d0565b60006117186130e4565b6117206130e4565b600060018881548110151561173157fe5b90600052602060002090600502016000018054600181600116156101000203166002900480601f0160208091040260200160405190810160405280929190818152602001828054600181600116156101000203166002900480156117d65780601f106117ab576101008083540402835291602001916117d6565b820191906000526020600020905b8154815290600101906020018083116117b957829003601f168201915b50505050509450600093506001600280548060010182816117f791906130f8565b91600052602060002090600902016000610140604051908101604052808a815260200160018e81548110151561182957fe5b906000526020600020906005020160010160009054906101000a900460ff1660ff16815260200160018e81548110151561185f57fe5b906000526020600020906005020160010160019054906101000a900460ff1660ff1681526020018c815260200160018e81548110151561189b57fe5b90600052602060002090600502016003018054600181600116156101000203166002900480601f0160208091040260200160405190810160405280929190818152602001828054600181600116156101000203166002900480156119405780601f1061191557610100808354040283529160200191611940565b820191906000526020600020905b81548152906001019060200180831161192357829003601f168201915b505050505081526020018e81526020018960ff1681526020018881526020018781526020018b60ff168152509091909150600082015181600001908051906020019061198d929190612fd0565b5060208201518160010160006101000a81548160ff021916908360ff16021790555060408201518160010160016101000a81548160ff021916908360ff16021790555060608201518160020190805190602001906119ec929190612fd0565b506080820151816003019080519060200190611a09929190612fd0565b5060a0820151816004019080519060200190611a26929190612fd0565b5060c08201518160050160006101000a81548160ff021916908360ff16021790555060e0820151816006019080519060200190611a6492919061312a565b50610100820151816007019080519060200190611a8292919061312a565b506101208201518160080160006101000a81548160ff021916908360ff16021790555050500390507f13534ab88abaf224da4728540b25ae28bafb73bf1486e8ca885b3c869738465c8960018a815481101515611adb57fe5b90600052602060002090600502016003018360018c815481101515611afc57fe5b906000526020600020906005020160010160009054906101000a900460ff1660018d815481101515611b2a57fe5b906000526020600020906005020160010160019054906101000a900460ff168c8c6040518080602001806020018881526020018760ff1660ff1681526020018660ff1660ff168152602001806020018560ff1660ff16815260200184810384528b818151815260200191508051906020019080838360005b83811015611bbd578082015181840152602081019050611ba2565b50505050905090810190601f168015611bea5780820380516001836020036101000a031916815260200191505b5084810383528a818154600181600116156101000203166002900481526020019150805460018160011615610100020316600290048015611c6c5780601f10611c4157610100808354040283529160200191611c6c565b820191906000526020600020905b815481529060010190602001808311611c4f57829003601f168201915b5050848103825286818151815260200191508051906020019080838360005b83811015611ca6578082015181840152602081019050611c8b565b50505050905090810190601f168015611cd35780820380516001836020036101000a031916815260200191505b509a505050505050505050505060405180910390a1611cf28682612cfe565b611cfb81612db6565b611d0488612dfd565b505050505050505050565b600080600180549050111515611d2457600080fd5b600090505b600180549050811015611fb7576000600182815481101515611d4757fe5b906000526020600020906005020160040160009054906101000a900460ff1660ff161115611faa577f665ee6b7ac93e2c6a3d81ceb999e1cd3aaec0f5757768def4bfa9d5c119a6c5a81600183815481101515611da057fe5b906000526020600020906005020160010160009054906101000a900460ff16600184815481101515611dce57fe5b906000526020600020906005020160010160019054906101000a900460ff16600185815481101515611dfc57fe5b9060005260206000209060050201600301600186815481101515611e1c57fe5b9060005260206000209060050201600201600187815481101515611e3c57fe5b906000526020600020906005020160040160009054906101000a900460ff16604051808781526020018660ff1660ff1681526020018560ff1660ff16815260200180602001806020018460ff1660ff168152602001838103835286818154600181600116156101000203166002900481526020019150805460018160011615610100020316600290048015611f125780601f10611ee757610100808354040283529160200191611f12565b820191906000526020600020905b815481529060010190602001808311611ef557829003601f168201915b5050838103825285818154600181600116156101000203166002900481526020019150805460018160011615610100020316600290048015611f955780601f10611f6a57610100808354040283529160200191611f95565b820191906000526020600020905b815481529060010190602001808311611f7857829003601f168201915b50509850505050505050505060405180910390a15b8080600101915050611d29565b50565b6000600460008373ffffffffffffffffffffffffffffffffffffffff1673ffffffffffffffffffffffffffffffffffffffff168152602001908152602001600020549050919050565b61200b6130d0565b60006040805190810160405280600181526020017f24000000000000000000000000000000000000000000000000000000000000008152509150600090505b6002600460003373ffffffffffffffffffffffffffffffffffffffff1673ffffffffffffffffffffffffffffffffffffffff1681526020019081526020016000205481548110151561209857fe5b9060005260206000209060090201600601805490508163ffffffff161015612397578160008151811015156120c957fe5b9060200101517f010000000000000000000000000000000000000000000000000000000000000090047f0100000000000000000000000000000000000000000000000000000000000000027effffffffffffffffffffffffffffffffffffffffffffffffffffffffffffff19166002600460003373ffffffffffffffffffffffffffffffffffffffff1673ffffffffffffffffffffffffffffffffffffffff1681526020019081526020016000205481548110151561218457fe5b90600052602060002090600902016006018263ffffffff168154811015156121a857fe5b9060005260206000209001600081546001816001161561010002031660029004811015156121d257fe5b8154600116156121f15790600052602060002090602091828204019190065b9054901a7f0100000000000000000000000000000000000000000000000000000000000000027effffffffffffffffffffffffffffffffffffffffffffffffffffffffffffff191614151561238a577f79cf4eb0d6305e4d55a4c2df65998d7b62c2a406f83d5f6e14d131db42bb70ab6002600460003373ffffffffffffffffffffffffffffffffffffffff1673ffffffffffffffffffffffffffffffffffffffff168152602001908152602001600020548154811015156122af57fe5b90600052602060002090600902016006018263ffffffff168154811015156122d357fe5b90600052602060002090018260405180806020018363ffffffff1663ffffffff16815260200182810382528481815460018160011615610100020316600290048152602001915080546001816001161561010002031660029004801561237a5780601f1061234f5761010080835404028352916020019161237a565b820191906000526020600020905b81548152906001019060200180831161235d57829003601f168201915b5050935050505060405180910390a15b808060010191505061204a565b5050565b60008090505b6002600460003373ffffffffffffffffffffffffffffffffffffffff1673ffffffffffffffffffffffffffffffffffffffff168152602001908152602001600020548154811015156123ef57fe5b9060005260206000209060090201600701805490508163ffffffff161015612567577fd230b39ddf0abb4c478d27f0f161bdd2f200ace6304f4a87d588c44a3fa35e8c6002600460003373ffffffffffffffffffffffffffffffffffffffff1673ffffffffffffffffffffffffffffffffffffffff1681526020019081526020016000205481548110151561248057fe5b90600052602060002090600902016007018263ffffffff168154811015156124a457fe5b90600052602060002090018260405180806020018363ffffffff1663ffffffff16815260200182810382528481815460018160011615610100020316600290048152602001915080546001816001161561010002031660029004801561254b5780601f106125205761010080835404028352916020019161254b565b820191906000526020600020905b81548152906001019060200180831161252e57829003601f168201915b5050935050505060405180910390a180806001019150506123a1565b50565b6125726130d0565b600061257c6130d0565b600060028581548110151561258d57fe5b90600052602060002090600902016000018054600181600116156101000203166002900480601f0160208091040260200160405190810160405280929190818152602001828054600181600116156101000203166002900480156126325780601f1061260757610100808354040283529160200191612632565b820191906000526020600020905b81548152906001019060200180831161261557829003601f168201915b5050505050935060019250600090505b60028581548110151561265157fe5b9060005260206000209060090201600601805490508163ffffffff1610156128665760028581548110151561268257fe5b90600052602060002090600902016006018163ffffffff168154811015156126a657fe5b90600052602060002090018054600181600116156101000203166002900480601f0160208091040260200160405190810160405280929190818152602001828054600181600116156101000203166002900480156127455780601f1061271a57610100808354040283529160200191612745565b820191906000526020600020905b81548152906001019060200180831161272857829003601f168201915b50505050509150838163ffffffff1681518110151561276057fe5b9060200101517f010000000000000000000000000000000000000000000000000000000000000090047f0100000000000000000000000000000000000000000000000000000000000000027effffffffffffffffffffffffffffffffffffffffffffffffffffffffffffff19168260008151811015156127dc57fe5b9060200101517f010000000000000000000000000000000000000000000000000000000000000090047f0100000000000000000000000000000000000000000000000000000000000000027effffffffffffffffffffffffffffffffffffffffffffffffffffffffffffff19161415156128595760009250612866565b8080600101915050612642565b60011515831515141561294c577fb609981dd10c4309ee2f55e2fd9b631438fb9d9de43270f098b64571e58352db6002868154811015156128a357fe5b9060005260206000209060090201600401604051808060200182810382528381815460018160011615610100020316600290048152602001915080546001816001161561010002031660029004801561293d5780601f106129125761010080835404028352916020019161293d565b820191906000526020600020905b81548152906001019060200180831161292057829003601f168201915b50509250505060405180910390a15b600015158315151415612a9c5760028581548110151561296857fe5b906000526020600020906009020160010160019054906101000a900460ff1660ff1660028681548110151561299957fe5b906000526020600020906009020160050160009054906101000a900460ff1660ff16101515612a9b577fb609981dd10c4309ee2f55e2fd9b631438fb9d9de43270f098b64571e58352db6002868154811015156129f257fe5b90600052602060002090600902016003016040518080602001828103825283818154600181600116156101000203166002900481526020019150805460018160011615610100020316600290048015612a8c5780601f10612a6157610100808354040283529160200191612a8c565b820191906000526020600020905b815481529060010190602001808311612a6f57829003601f168201915b50509250505060405180910390a15b5b5050505050565b600282815481101515612ab257fe5b906000526020600020906009020160050160009054906101000a900460ff1660ff16600283815481101515612ae357fe5b906000526020600020906009020160010160019054906101000a900460ff1660ff161115612c21577f8696d55ed69c77973e49639ae68e35aa5413a6f73d521601bfb9a1bf27215da5816000806040518080602001841515151581526020018363ffffffff168152602001828103825285818151815260200191508051906020019080838360005b83811015612b86578082015181840152602081019050612b6b565b50505050905090810190601f168015612bb35780820380516001836020036101000a031916815260200191505b5094505050505060405180910390a1600282815481101515612bd157fe5b90600052602060002090600902016007018054806001018281612bf4919061318a565b916000526020600020900160008390919091509080519060200190612c1a929190613050565b5050612cfa565b7fb609981dd10c4309ee2f55e2fd9b631438fb9d9de43270f098b64571e58352db600283815481101515612c5157fe5b90600052602060002090600902016003016040518080602001828103825283818154600181600116156101000203166002900481526020019150805460018160011615610100020316600290048015612ceb5780601f10612cc057610100808354040283529160200191612ceb565b820191906000526020600020905b815481529060010190602001808311612cce57829003601f168201915b50509250505060405180910390a15b5050565b60008090505b8260ff168163ffffffff161015612db157600282815481101515612d2457fe5b90600052602060002090600902016006018054806001018281612d47919061318a565b916000526020600020900160006040805190810160405280600181526020017f240000000000000000000000000000000000000000000000000000000000000081525090919091509080519060200190612da2929190613050565b50508080600101915050612d04565b505050565b80600460003373ffffffffffffffffffffffffffffffffffffffff1673ffffffffffffffffffffffffffffffffffffffff1681526020019081526020016000208190555050565b7f3c292ea39929efc9883230ce64b1d2bc9218bb71cb8a754ff1cb2dae6aad0846600182815481101515612e2d57fe5b90600052602060002090600502016002016040518080602001828103825283818154600181600116156101000203166002900481526020019150805460018160011615610100020316600290048015612ec75780601f10612e9c57610100808354040283529160200191612ec7565b820191906000526020600020905b815481529060010190602001808311612eaa57829003601f168201915b50509250505060405180910390a1600181815481101515612ee457fe5b906000526020600020906005020160008082016000612f0391906131b6565b6001820160006101000a81549060ff02191690556001820160016101000a81549060ff0219169055600282016000612f3b91906131b6565b600382016000612f4b91906131b6565b6004820160006101000a81549060ff0219169055505060008081819054906101000a900463ffffffff168092919060010191906101000a81548163ffffffff021916908363ffffffff1602179055505050565b815481835581811511612fcb57600502816005028360005260206000209182019101612fca91906131fe565b5b505050565b828054600181600116156101000203166002900490600052602060002090601f016020900481019282601f1061301157805160ff191683800117855561303f565b8280016001018555821561303f579182015b8281111561303e578251825591602001919060010190613023565b5b50905061304c9190613289565b5090565b828054600181600116156101000203166002900490600052602060002090601f016020900481019282601f1061309157805160ff19168380011785556130bf565b828001600101855582156130bf579182015b828111156130be5782518255916020019190600101906130a3565b5b5090506130cc9190613289565b5090565b602060405190810160405280600081525090565b602060405190810160405280600081525090565b8154818355818115116131255760090281600902836000526020600020918201910161312491906132ae565b5b505050565b828054828255906000526020600020908101928215613179579160200282015b82811115613178578251829080519060200190613168929190612fd0565b509160200191906001019061314a565b5b509050613186919061337d565b5090565b8154818355818115116131b1578183600052602060002091820191016131b0919061337d565b5b505050565b50805460018160011615610100020316600290046000825580601f106131dc57506131fb565b601f0160209004906000526020600020908101906131fa9190613289565b5b50565b61328691905b80821115613282576000808201600061321d91906131b6565b6001820160006101000a81549060ff02191690556001820160016101000a81549060ff021916905560028201600061325591906131b6565b60038201600061326591906131b6565b6004820160006101000a81549060ff021916905550600501613204565b5090565b90565b6132ab91905b808211156132a757600081600090555060010161328f565b5090565b90565b61337a91905b8082111561337657600080820160006132cd91906131b6565b6001820160006101000a81549060ff02191690556001820160016101000a81549060ff021916905560028201600061330591906131b6565b60038201600061331591906131b6565b60048201600061332591906131b6565b6005820160006101000a81549060ff021916905560068201600061334991906133a9565b60078201600061335991906133a9565b6008820160006101000a81549060ff0219169055506009016132b4565b5090565b90565b6133a691905b808211156133a2576000818161339991906131b6565b50600101613383565b5090565b90565b50805460008255906000526020600020908101906133c7919061337d565b505600a165627a7a72305820c36075ed09535c80941393957eff86eadeebb7f94b535ebeb8f7f7624acb5d450029",
  "source": "pragma solidity ^0.4.19;\n\ncontract Hangman {\n\n  event NewGame(uint gameId, uint8 wager, uint8 tries, string userName, string userWord, uint8 wordLength);\n  event PendingGame(uint gameId, uint8 wager, uint8 tries, string userName, string userWord, uint8 wordLength);\n  event GameStarted(string challenger, string hangman, uint gameId, uint8 wager, uint8 maxTries, string uniqGameString, uint8 wordLength);\n  event SolutionGuess(string guess, bool hit, uint32 index);\n  event GameWinner(string winner);\n  event ActiveGameDetails(string challenger, string hangman, uint8 wager, uint8 maxTries, string uniqGameString, uint8 wordLength, uint8 tries, uint gameId);\n  event SolutionCheck(string letter, uint32 index);\n  event MissesCheck(string letter, uint32 index);\n  event RemovePendingGame(string userWord);\n\n  uint32 gamesArrayGaps = 0;\n\n  struct Game {\n    string word;\n    uint8 wager;\n    uint8 tries;\n    string userWord;\n    string userName;\n    uint8 wordLength;\n  }\n\n  struct ActiveGame {\n    string word;\n    uint8 wager;\n    uint8 maxTries;\n    string uniqGameString;\n    string hangman;\n    string challenger;\n    uint8 tries;\n    string[] hits;\n    string[] misses;\n    uint8 wordLength;\n  }\n\n  Game[] public games;\n  ActiveGame[] public activeGames;\n  mapping(uint => string) public idToWord;\n  mapping(address => uint) public activeGamesMap;\n\n  function checkSendHits() private {\n    string memory holder = '$';\n    for (uint32 i = 0; i < activeGames[activeGamesMap[msg.sender]].hits.length; i++) {\n      if (bytes(activeGames[activeGamesMap[msg.sender]].hits[i])[0] != bytes(holder)[0]) {\n        SolutionCheck(activeGames[activeGamesMap[msg.sender]].hits[i], i);\n      }\n    }\n  }\n\n  function checkSendMisses() private {\n    for (uint32 i = 0; i < activeGames[activeGamesMap[msg.sender]].misses.length; i++) {\n      MissesCheck(activeGames[activeGamesMap[msg.sender]].misses[i], i);\n    }\n  }\n\n  function getMapIndex(address challenger) private view returns(uint) {\n    return activeGamesMap[challenger];\n  }\n\n  function getActiveGame() public {\n    uint gameId = getMapIndex(msg.sender);\n    ActiveGameDetails(activeGames[activeGamesMap[msg.sender]].challenger,\n      activeGames[activeGamesMap[msg.sender]].hangman,\n      activeGames[activeGamesMap[msg.sender]].wager,\n      activeGames[activeGamesMap[msg.sender]].maxTries,\n      activeGames[activeGamesMap[msg.sender]].uniqGameString,\n      activeGames[activeGamesMap[msg.sender]].wordLength,\n      activeGames[activeGamesMap[msg.sender]].tries,\n      gameId\n    );\n    checkSendHits();\n    checkSendMisses();\n  }\n\n  function createGame(string _word, uint8 _wager, uint8 _tries, string _userWord, string _userName, uint8 _wordLength) public {\n    uint id;\n    if (gamesArrayGaps < 1) {\n      id = games.push(Game(_word, _wager, _tries, _userWord, _userName, _wordLength)) - 1;\n    } else {\n      for (uint32 i = 0; i < games.length; i++) {\n        if (games[i].wordLength == 0) {\n          games[i] = Game(_word, _wager, _tries, _userWord, _userName, _wordLength);\n          id = i;\n          gamesArrayGaps--;\n          break;\n        }\n      }\n    }\n    idToWord[id] = _word;\n    NewGame(id, _wager, _tries, _userName, _userWord, _wordLength);\n  }\n\n  function getPendingGames() public {\n    require(games.length > 0);\n    for(uint i = 0; i < games.length; i++) {\n      if (games[i].wordLength > 0) {\n        PendingGame(i, games[i].wager, games[i].tries, games[i].userName, games[i].userWord, games[i].wordLength);\n      }\n    }\n  }\n\n  function mapLiveGameToAddress(uint gameIndex) private {\n    activeGamesMap[msg.sender] = gameIndex;\n  }\n\n  function initSolutionArray(uint8 wordLength, uint gameIndex) private {\n    for (uint32 i = 0; i < wordLength; i++) {\n      activeGames[gameIndex].hits.push('$');\n    }\n  }\n\n  function removeGameFromPending(uint gameId) private {\n    RemovePendingGame(games[gameId].userWord);\n    delete games[gameId];\n    gamesArrayGaps++;\n  }\n\n  function commenceLiveGame(string challenger, uint gameId, string uniqGameString, uint8 wordLength) public {\n    string memory gameWord = games[gameId].word;\n    uint8 tries = 0;\n    string[] memory hits;\n    string[] memory misses;\n    uint id = activeGames.push(ActiveGame(gameWord, games[gameId].wager, games[gameId].tries, uniqGameString, games[gameId].userName, challenger, tries, hits, misses, wordLength)) - 1;\n    GameStarted(challenger, games[gameId].userName, id, games[gameId].wager, games[gameId].tries, uniqGameString, wordLength);\n    initSolutionArray(wordLength, id);\n    mapLiveGameToAddress(id);\n    removeGameFromPending(gameId);\n  }\n\n  function checkSolved(uint gameId) private {\n    string memory gameWord = activeGames[gameId].word;\n    bool isSolution = true;\n    string memory letter;\n    for (uint32 i = 0; i < activeGames[gameId].hits.length; i++) {\n      letter = activeGames[gameId].hits[i];\n      if (bytes(letter)[0] != bytes(gameWord)[i]) {\n        isSolution = false;\n        break;\n      }\n    }\n    if (isSolution == true) {\n      GameWinner(activeGames[gameId].challenger);\n    }\n    if (isSolution == false) {\n      if (activeGames[gameId].tries >= activeGames[gameId].maxTries) {\n        GameWinner(activeGames[gameId].hangman);\n      }\n    }\n  }\n\n  function checkHanged(uint gameId, string guess) private {\n    if (activeGames[gameId].maxTries > activeGames[gameId].tries) {\n      SolutionGuess(guess, false, 0);\n      activeGames[gameId].misses.push(guess);\n    } else {\n      GameWinner(activeGames[gameId].hangman);\n    }\n  }\n\n  function checkGuess(string guess, uint gameId) public {\n    activeGames[gameId].tries++;\n    bool isHit = false;\n    string memory gameWord = activeGames[gameId].word;\n    for (uint32 i = 0; i < bytes(gameWord).length; i++) {\n      if (bytes(gameWord)[i] == bytes(guess)[0]) {\n        isHit = true;\n        activeGames[gameId].hits[i] = guess;\n        SolutionGuess(guess, true, i);\n      }\n    }\n    if (isHit == true) {\n      checkSolved(gameId);\n    }\n    if (isHit == false) {\n      checkHanged(gameId, guess);\n    }\n  }\n }\n",
  "sourcePath": "/Users/tysondaugherty/Desktop/funApps/ether/etherHang/contracts/Hangman.sol",
  "compiler": {
    "name": "solc",
    "version": "0.4.19+commit.c4cbbb05.Emscripten.clang"
  },
  "schemaVersion": "1.0.1",
  "updatedAt": "2018-03-01T21:23:34.380Z"
}