{
  "contractName": "Hangman",
  "abi": [
    {
      "constant": true,
      "inputs": [
        {
          "name": "",
          "type": "uint256"
        }
      ],
      "name": "games",
      "outputs": [
        {
          "name": "word",
          "type": "string"
        },
        {
          "name": "wager",
          "type": "uint8"
        },
        {
          "name": "tries",
          "type": "uint8"
        },
        {
          "name": "userWord",
          "type": "string"
        },
        {
          "name": "userName",
          "type": "string"
        },
        {
          "name": "wordLength",
          "type": "uint8"
        }
      ],
      "payable": false,
      "stateMutability": "view",
      "type": "function"
    },
    {
      "constant": true,
      "inputs": [
        {
          "name": "",
          "type": "uint256"
        }
      ],
      "name": "activeGames",
      "outputs": [
        {
          "name": "word",
          "type": "string"
        },
        {
          "name": "wager",
          "type": "uint8"
        },
        {
          "name": "maxTries",
          "type": "uint8"
        },
        {
          "name": "uniqGameString",
          "type": "string"
        },
        {
          "name": "hangman",
          "type": "string"
        },
        {
          "name": "challenger",
          "type": "string"
        },
        {
          "name": "tries",
          "type": "uint8"
        },
        {
          "name": "wordLength",
          "type": "uint8"
        }
      ],
      "payable": false,
      "stateMutability": "view",
      "type": "function"
    },
    {
      "constant": true,
      "inputs": [
        {
          "name": "",
          "type": "uint256"
        }
      ],
      "name": "idToWord",
      "outputs": [
        {
          "name": "",
          "type": "string"
        }
      ],
      "payable": false,
      "stateMutability": "view",
      "type": "function"
    },
    {
      "anonymous": false,
      "inputs": [
        {
          "indexed": false,
          "name": "gameId",
          "type": "uint256"
        },
        {
          "indexed": false,
          "name": "wager",
          "type": "uint8"
        },
        {
          "indexed": false,
          "name": "tries",
          "type": "uint8"
        },
        {
          "indexed": false,
          "name": "userName",
          "type": "string"
        },
        {
          "indexed": false,
          "name": "userWord",
          "type": "string"
        },
        {
          "indexed": false,
          "name": "wordLength",
          "type": "uint8"
        }
      ],
      "name": "NewGame",
      "type": "event"
    },
    {
      "anonymous": false,
      "inputs": [
        {
          "indexed": false,
          "name": "gameId",
          "type": "uint256"
        },
        {
          "indexed": false,
          "name": "wager",
          "type": "uint8"
        },
        {
          "indexed": false,
          "name": "tries",
          "type": "uint8"
        },
        {
          "indexed": false,
          "name": "userName",
          "type": "string"
        },
        {
          "indexed": false,
          "name": "userWord",
          "type": "string"
        },
        {
          "indexed": false,
          "name": "wordLength",
          "type": "uint8"
        }
      ],
      "name": "PendingGame",
      "type": "event"
    },
    {
      "anonymous": false,
      "inputs": [
        {
          "indexed": false,
          "name": "challenger",
          "type": "string"
        },
        {
          "indexed": false,
          "name": "hangman",
          "type": "string"
        },
        {
          "indexed": false,
          "name": "gameId",
          "type": "uint256"
        },
        {
          "indexed": false,
          "name": "wager",
          "type": "uint8"
        },
        {
          "indexed": false,
          "name": "tries",
          "type": "uint8"
        },
        {
          "indexed": false,
          "name": "uniqGameString",
          "type": "string"
        },
        {
          "indexed": false,
          "name": "wordLength",
          "type": "uint8"
        }
      ],
      "name": "GameStarted",
      "type": "event"
    },
    {
      "constant": false,
      "inputs": [
        {
          "name": "_word",
          "type": "string"
        },
        {
          "name": "_wager",
          "type": "uint8"
        },
        {
          "name": "_tries",
          "type": "uint8"
        },
        {
          "name": "_userWord",
          "type": "string"
        },
        {
          "name": "_userName",
          "type": "string"
        },
        {
          "name": "_wordLength",
          "type": "uint8"
        }
      ],
      "name": "createGame",
      "outputs": [],
      "payable": false,
      "stateMutability": "nonpayable",
      "type": "function"
    },
    {
      "constant": false,
      "inputs": [],
      "name": "getPendingGames",
      "outputs": [],
      "payable": false,
      "stateMutability": "nonpayable",
      "type": "function"
    },
    {
      "constant": false,
      "inputs": [
        {
          "name": "challenger",
          "type": "string"
        },
        {
          "name": "gameId",
          "type": "uint256"
        },
        {
          "name": "uniqGameString",
          "type": "string"
        },
        {
          "name": "wordLength",
          "type": "uint8"
        }
      ],
      "name": "commenceLiveGame",
      "outputs": [],
      "payable": false,
      "stateMutability": "nonpayable",
      "type": "function"
    }
  ],
  "bytecode": "0x6060604052341561000f57600080fd5b6117f48061001e6000396000f300606060405260043610610078576000357c0100000000000000000000000000000000000000000000000000000000900463ffffffff168063117a5b901461007d57806313e4c7141461026f5780634d83d55a146104f757806364751e1014610593578063e6b2bc141461069a578063ff6f4bc11461074f575b600080fd5b341561008857600080fd5b61009e6004808035906020019091905050610764565b60405180806020018760ff1660ff1681526020018660ff1660ff16815260200180602001806020018560ff1660ff16815260200184810384528a8181546001816001161561010002031660029004815260200191508054600181600116156101000203166002900480156101535780601f1061012857610100808354040283529160200191610153565b820191906000526020600020905b81548152906001019060200180831161013657829003601f168201915b50508481038352878181546001816001161561010002031660029004815260200191508054600181600116156101000203166002900480156101d65780601f106101ab576101008083540402835291602001916101d6565b820191906000526020600020905b8154815290600101906020018083116101b957829003601f168201915b50508481038252868181546001816001161561010002031660029004815260200191508054600181600116156101000203166002900480156102595780601f1061022e57610100808354040283529160200191610259565b820191906000526020600020905b81548152906001019060200180831161023c57829003601f168201915b5050995050505050505050505060405180910390f35b341561027a57600080fd5b61029060048080359060200190919050506107d3565b60405180806020018960ff1660ff1681526020018860ff1660ff1681526020018060200180602001806020018760ff1660ff1681526020018660ff1660ff16815260200185810385528d8181546001816001161561010002031660029004815260200191508054600181600116156101000203166002900480156103555780601f1061032a57610100808354040283529160200191610355565b820191906000526020600020905b81548152906001019060200180831161033857829003601f168201915b505085810384528a8181546001816001161561010002031660029004815260200191508054600181600116156101000203166002900480156103d85780601f106103ad576101008083540402835291602001916103d8565b820191906000526020600020905b8154815290600101906020018083116103bb57829003601f168201915b505085810383528981815460018160011615610100020316600290048152602001915080546001816001161561010002031660029004801561045b5780601f106104305761010080835404028352916020019161045b565b820191906000526020600020905b81548152906001019060200180831161043e57829003601f168201915b50508581038252888181546001816001161561010002031660029004815260200191508054600181600116156101000203166002900480156104de5780601f106104b3576101008083540402835291602001916104de565b820191906000526020600020905b8154815290600101906020018083116104c157829003601f168201915b50509c5050505050505050505050505060405180910390f35b341561050257600080fd5b610518600480803590602001909190505061085a565b6040518080602001828103825283818151815260200191508051906020019080838360005b8381101561055857808201518184015260208101905061053d565b50505050905090810190601f1680156105855780820380516001836020036101000a031916815260200191505b509250505060405180910390f35b341561059e57600080fd5b610698600480803590602001908201803590602001908080601f0160208091040260200160405190810160405280939291908181526020018383808284378201915050505050509190803560ff1690602001909190803560ff1690602001909190803590602001908201803590602001908080601f0160208091040260200160405190810160405280939291908181526020018383808284378201915050505050509190803590602001908201803590602001908080601f0160208091040260200160405190810160405280939291908181526020018383808284378201915050505050509190803560ff1690602001909190505061090a565b005b34156106a557600080fd5b61074d600480803590602001908201803590602001908080601f0160208091040260200160405190810160405280939291908181526020018383808284378201915050505050509190803590602001909190803590602001908201803590602001908080601f0160208091040260200160405190810160405280939291908181526020018383808284378201915050505050509190803560ff16906020019091905050610b99565b005b341561075a57600080fd5b610762611157565b005b60008181548110151561077357fe5b906000526020600020906005020160009150905080600001908060010160009054906101000a900460ff16908060010160019054906101000a900460ff1690806002019080600301908060040160009054906101000a900460ff16905086565b6001818154811015156107e257fe5b906000526020600020906009020160009150905080600001908060010160009054906101000a900460ff16908060010160019054906101000a900460ff16908060020190806003019080600401908060050160009054906101000a900460ff16908060080160009054906101000a900460ff16905088565b60026020528060005260406000206000915090508054600181600116156101000203166002900480601f0160208091040260200160405190810160405280929190818152602001828054600181600116156101000203166002900480156109025780601f106108d757610100808354040283529160200191610902565b820191906000526020600020905b8154815290600101906020018083116108e557829003601f168201915b505050505081565b600060016000805480600101828161092291906113c8565b9160005260206000209060050201600060c0604051908101604052808c81526020018b60ff1681526020018a60ff1681526020018981526020018881526020018760ff168152509091909150600082015181600001908051906020019061098a9291906113fa565b5060208201518160010160006101000a81548160ff021916908360ff16021790555060408201518160010160016101000a81548160ff021916908360ff16021790555060608201518160020190805190602001906109e99291906113fa565b506080820151816003019080519060200190610a069291906113fa565b5060a08201518160040160006101000a81548160ff021916908360ff160217905550505003905086600260008381526020019081526020016000209080519060200190610a5492919061147a565b507ffa90035500eba52653bd3e7f70d8dce39e97b59fc9918ab002887d494cd292de818787868887604051808781526020018660ff1660ff1681526020018560ff1660ff16815260200180602001806020018460ff1660ff168152602001838103835286818151815260200191508051906020019080838360005b83811015610aea578082015181840152602081019050610acf565b50505050905090810190601f168015610b175780820380516001836020036101000a031916815260200191505b50838103825285818151815260200191508051906020019080838360005b83811015610b50578082015181840152602081019050610b35565b50505050905090810190601f168015610b7d5780820380516001836020036101000a031916815260200191505b509850505050505050505060405180910390a150505050505050565b610ba16114fa565b6000610bab61150e565b610bb361150e565b60008088815481101515610bc357fe5b90600052602060002090600502016000018054600181600116156101000203166002900480601f016020809104026020016040519081016040528092919081815260200182805460018160011615610100020316600290048015610c685780601f10610c3d57610100808354040283529160200191610c68565b820191906000526020600020905b815481529060010190602001808311610c4b57829003601f168201915b50505050509450600093506001808054806001018281610c889190611522565b91600052602060002090600902016000610140604051908101604052808a815260200160008e815481101515610cba57fe5b906000526020600020906005020160010160009054906101000a900460ff1660ff16815260200160008e815481101515610cf057fe5b906000526020600020906005020160010160019054906101000a900460ff1660ff1681526020018c815260200160008e815481101515610d2c57fe5b90600052602060002090600502016003018054600181600116156101000203166002900480601f016020809104026020016040519081016040528092919081815260200182805460018160011615610100020316600290048015610dd15780601f10610da657610100808354040283529160200191610dd1565b820191906000526020600020905b815481529060010190602001808311610db457829003601f168201915b505050505081526020018e81526020018960ff1681526020018881526020018781526020018b60ff1681525090919091506000820151816000019080519060200190610e1e9291906113fa565b5060208201518160010160006101000a81548160ff021916908360ff16021790555060408201518160010160016101000a81548160ff021916908360ff1602179055506060820151816002019080519060200190610e7d9291906113fa565b506080820151816003019080519060200190610e9a9291906113fa565b5060a0820151816004019080519060200190610eb79291906113fa565b5060c08201518160050160006101000a81548160ff021916908360ff16021790555060e0820151816006019080519060200190610ef5929190611554565b50610100820151816007019080519060200190610f13929190611554565b506101208201518160080160006101000a81548160ff021916908360ff16021790555050500390507f13534ab88abaf224da4728540b25ae28bafb73bf1486e8ca885b3c869738465c8960008a815481101515610f6c57fe5b90600052602060002090600502016003018360008c815481101515610f8d57fe5b906000526020600020906005020160010160009054906101000a900460ff16888c8c6040518080602001806020018881526020018760ff1660ff1681526020018660ff1660ff168152602001806020018560ff1660ff16815260200184810384528b818151815260200191508051906020019080838360005b83811015611021578082015181840152602081019050611006565b50505050905090810190601f16801561104e5780820380516001836020036101000a031916815260200191505b5084810383528a8181546001816001161561010002031660029004815260200191508054600181600116156101000203166002900480156110d05780601f106110a5576101008083540402835291602001916110d0565b820191906000526020600020905b8154815290600101906020018083116110b357829003601f168201915b5050848103825286818151815260200191508051906020019080838360005b8381101561110a5780820151818401526020810190506110ef565b50505050905090810190601f1680156111375780820380516001836020036101000a031916815260200191505b509a505050505050505050505060405180910390a1505050505050505050565b60008060008054905011151561116c57600080fd5b600090505b6000805490508110156113c5577f665ee6b7ac93e2c6a3d81ceb999e1cd3aaec0f5757768def4bfa9d5c119a6c5a816000838154811015156111af57fe5b906000526020600020906005020160010160009054906101000a900460ff166000848154811015156111dd57fe5b906000526020600020906005020160010160019054906101000a900460ff1660008581548110151561120b57fe5b906000526020600020906005020160030160008681548110151561122b57fe5b906000526020600020906005020160020160008781548110151561124b57fe5b906000526020600020906005020160040160009054906101000a900460ff16604051808781526020018660ff1660ff1681526020018560ff1660ff16815260200180602001806020018460ff1660ff1681526020018381038352868181546001816001161561010002031660029004815260200191508054600181600116156101000203166002900480156113215780601f106112f657610100808354040283529160200191611321565b820191906000526020600020905b81548152906001019060200180831161130457829003601f168201915b50508381038252858181546001816001161561010002031660029004815260200191508054600181600116156101000203166002900480156113a45780601f10611379576101008083540402835291602001916113a4565b820191906000526020600020905b81548152906001019060200180831161138757829003601f168201915b50509850505050505050505060405180910390a18080600101915050611171565b50565b8154818355818115116113f5576005028160050283600052602060002091820191016113f491906115b4565b5b505050565b828054600181600116156101000203166002900490600052602060002090601f016020900481019282601f1061143b57805160ff1916838001178555611469565b82800160010185558215611469579182015b8281111561146857825182559160200191906001019061144d565b5b509050611476919061163f565b5090565b828054600181600116156101000203166002900490600052602060002090601f016020900481019282601f106114bb57805160ff19168380011785556114e9565b828001600101855582156114e9579182015b828111156114e85782518255916020019190600101906114cd565b5b5090506114f6919061163f565b5090565b602060405190810160405280600081525090565b602060405190810160405280600081525090565b81548183558181151161154f5760090281600902836000526020600020918201910161154e9190611664565b5b505050565b8280548282559060005260206000209081019282156115a3579160200282015b828111156115a25782518290805190602001906115929291906113fa565b5091602001919060010190611574565b5b5090506115b09190611733565b5090565b61163c91905b8082111561163857600080820160006115d3919061175f565b6001820160006101000a81549060ff02191690556001820160016101000a81549060ff021916905560028201600061160b919061175f565b60038201600061161b919061175f565b6004820160006101000a81549060ff0219169055506005016115ba565b5090565b90565b61166191905b8082111561165d576000816000905550600101611645565b5090565b90565b61173091905b8082111561172c5760008082016000611683919061175f565b6001820160006101000a81549060ff02191690556001820160016101000a81549060ff02191690556002820160006116bb919061175f565b6003820160006116cb919061175f565b6004820160006116db919061175f565b6005820160006101000a81549060ff02191690556006820160006116ff91906117a7565b60078201600061170f91906117a7565b6008820160006101000a81549060ff02191690555060090161166a565b5090565b90565b61175c91905b80821115611758576000818161174f919061175f565b50600101611739565b5090565b90565b50805460018160011615610100020316600290046000825580601f1061178557506117a4565b601f0160209004906000526020600020908101906117a3919061163f565b5b50565b50805460008255906000526020600020908101906117c59190611733565b505600a165627a7a723058205bcf2611b6f13ac5cf09c8d6ac161e13af21dccfbc2ccad5726521653d72acb80029",
  "source": "pragma solidity ^0.4.19;\n\ncontract Hangman {\n\n  event NewGame(uint gameId, uint8 wager, uint8 tries, string userName, string userWord, uint8 wordLength);\n  event PendingGame(uint gameId, uint8 wager, uint8 tries, string userName, string userWord, uint8 wordLength);\n  event GameStarted(string challenger, string hangman, uint gameId, uint8 wager, uint8 tries, string uniqGameString, uint8 wordLength);\n\n  struct Game {\n    string word;\n    uint8 wager;\n    uint8 tries;\n    string userWord;\n    string userName;\n    uint8 wordLength;\n  }\n\n  struct ActiveGame {\n    string word;\n    uint8 wager;\n    uint8 maxTries;\n    string uniqGameString;\n    string hangman;\n    string challenger;\n    uint8 tries;\n    string[] hits;\n    string[] misses;\n    uint8 wordLength;\n  }\n\n  Game[] public games;\n  ActiveGame[] public activeGames;\n  mapping(uint => string) public idToWord;\n\n  function createGame(string _word, uint8 _wager, uint8 _tries, string _userWord, string _userName, uint8 _wordLength) public {\n    uint id = games.push(Game(_word, _wager, _tries, _userWord, _userName, _wordLength)) - 1;\n    idToWord[id] = _word;\n    NewGame(id, _wager, _tries, _userName, _userWord, _wordLength);\n  }\n\n  function getPendingGames() public {\n    require(games.length > 0);\n    for(uint i = 0; i < games.length; i++) {\n      PendingGame(i, games[i].wager, games[i].tries, games[i].userName, games[i].userWord, games[i].wordLength);\n    }\n  }\n\n  function commenceLiveGame(string challenger, uint gameId, string uniqGameString, uint8 wordLength) public {\n    string memory gameWord = games[gameId].word;\n    //string memory gameWord = idToWord[gameId];\n    uint8 tries = 0;\n    string[] memory hits;\n    string[] memory misses;\n    uint id = activeGames.push(ActiveGame(gameWord, games[gameId].wager, games[gameId].tries, uniqGameString, games[gameId].userName, challenger, tries, hits, misses, wordLength)) - 1;\n    GameStarted(challenger, games[gameId].userName, id, games[gameId].wager, tries, uniqGameString, wordLength);\n  }\n }\n",
  "sourcePath": "/Users/tysondaugherty/Desktop/funApps/ether/etherHang/contracts/Hangman.sol",
  "compiler": {
    "name": "solc",
    "version": "0.4.19+commit.c4cbbb05.Emscripten.clang"
  },
  "schemaVersion": "1.0.1",
  "updatedAt": "2018-02-26T19:04:53.391Z"
}