{
  "contractName": "Hangman",
  "abi": [
    {
      "constant": true,
      "inputs": [
        {
          "name": "",
          "type": "uint256"
        }
      ],
      "name": "games",
      "outputs": [
        {
          "name": "word",
          "type": "string"
        },
        {
          "name": "wager",
          "type": "uint256"
        },
        {
          "name": "tries",
          "type": "uint8"
        },
        {
          "name": "userWord",
          "type": "string"
        },
        {
          "name": "userName",
          "type": "string"
        },
        {
          "name": "wordLength",
          "type": "uint8"
        },
        {
          "name": "hangmanAddress",
          "type": "address"
        }
      ],
      "payable": false,
      "stateMutability": "view",
      "type": "function"
    },
    {
      "constant": true,
      "inputs": [
        {
          "name": "",
          "type": "uint256"
        }
      ],
      "name": "activeGames",
      "outputs": [
        {
          "name": "word",
          "type": "string"
        },
        {
          "name": "wager",
          "type": "uint256"
        },
        {
          "name": "maxTries",
          "type": "uint8"
        },
        {
          "name": "uniqGameString",
          "type": "string"
        },
        {
          "name": "hangman",
          "type": "string"
        },
        {
          "name": "challenger",
          "type": "string"
        },
        {
          "name": "tries",
          "type": "uint8"
        },
        {
          "name": "wordLength",
          "type": "uint8"
        },
        {
          "name": "hangmanAddress",
          "type": "address"
        },
        {
          "name": "challengerAddress",
          "type": "address"
        }
      ],
      "payable": false,
      "stateMutability": "view",
      "type": "function"
    },
    {
      "constant": true,
      "inputs": [
        {
          "name": "",
          "type": "address"
        }
      ],
      "name": "activeGamesMap",
      "outputs": [
        {
          "name": "",
          "type": "uint256"
        }
      ],
      "payable": false,
      "stateMutability": "view",
      "type": "function"
    },
    {
      "constant": true,
      "inputs": [
        {
          "name": "",
          "type": "uint256"
        }
      ],
      "name": "idToWord",
      "outputs": [
        {
          "name": "",
          "type": "string"
        }
      ],
      "payable": false,
      "stateMutability": "view",
      "type": "function"
    },
    {
      "constant": false,
      "inputs": [
        {
          "name": "winnerAddress",
          "type": "address"
        },
        {
          "name": "challenger",
          "type": "string"
        },
        {
          "name": "payout",
          "type": "uint256"
        }
      ],
      "name": "payWinner",
      "outputs": [],
      "payable": true,
      "stateMutability": "payable",
      "type": "function"
    },
    {
      "constant": false,
      "inputs": [],
      "name": "getActiveGame",
      "outputs": [],
      "payable": false,
      "stateMutability": "nonpayable",
      "type": "function"
    },
    {
      "constant": false,
      "inputs": [
        {
          "name": "challenger",
          "type": "string"
        },
        {
          "name": "gameId",
          "type": "uint256"
        },
        {
          "name": "uniqGameString",
          "type": "string"
        },
        {
          "name": "wordLength",
          "type": "uint8"
        }
      ],
      "name": "reallyCommenceLiveGame",
      "outputs": [],
      "payable": false,
      "stateMutability": "nonpayable",
      "type": "function"
    },
    {
      "constant": false,
      "inputs": [
        {
          "name": "guess",
          "type": "string"
        },
        {
          "name": "gameId",
          "type": "uint256"
        }
      ],
      "name": "checkGuess",
      "outputs": [],
      "payable": false,
      "stateMutability": "nonpayable",
      "type": "function"
    },
    {
      "payable": true,
      "stateMutability": "payable",
      "type": "fallback"
    },
    {
      "anonymous": false,
      "inputs": [
        {
          "indexed": false,
          "name": "contractAddress",
          "type": "address"
        },
        {
          "indexed": false,
          "name": "wager",
          "type": "uint256"
        },
        {
          "indexed": false,
          "name": "success",
          "type": "bool"
        }
      ],
      "name": "FundTransfer",
      "type": "event"
    },
    {
      "anonymous": false,
      "inputs": [
        {
          "indexed": false,
          "name": "challenger",
          "type": "string"
        },
        {
          "indexed": false,
          "name": "hangman",
          "type": "string"
        },
        {
          "indexed": false,
          "name": "wager",
          "type": "uint256"
        },
        {
          "indexed": false,
          "name": "maxTries",
          "type": "uint8"
        },
        {
          "indexed": false,
          "name": "uniqGameString",
          "type": "string"
        },
        {
          "indexed": false,
          "name": "wordLength",
          "type": "uint8"
        },
        {
          "indexed": false,
          "name": "tries",
          "type": "uint8"
        },
        {
          "indexed": false,
          "name": "gameId",
          "type": "uint256"
        }
      ],
      "name": "ActiveGameDetails",
      "type": "event"
    },
    {
      "anonymous": false,
      "inputs": [
        {
          "indexed": false,
          "name": "letter",
          "type": "string"
        },
        {
          "indexed": false,
          "name": "index",
          "type": "uint32"
        }
      ],
      "name": "SolutionCheck",
      "type": "event"
    },
    {
      "anonymous": false,
      "inputs": [
        {
          "indexed": false,
          "name": "letter",
          "type": "string"
        },
        {
          "indexed": false,
          "name": "index",
          "type": "uint32"
        }
      ],
      "name": "MissesCheck",
      "type": "event"
    },
    {
      "anonymous": false,
      "inputs": [
        {
          "indexed": false,
          "name": "challenger",
          "type": "string"
        },
        {
          "indexed": false,
          "name": "hangman",
          "type": "string"
        },
        {
          "indexed": false,
          "name": "gameId",
          "type": "uint256"
        },
        {
          "indexed": false,
          "name": "wager",
          "type": "uint256"
        },
        {
          "indexed": false,
          "name": "maxTries",
          "type": "uint8"
        },
        {
          "indexed": false,
          "name": "uniqGameString",
          "type": "string"
        },
        {
          "indexed": false,
          "name": "wordLength",
          "type": "uint8"
        }
      ],
      "name": "GameStarted",
      "type": "event"
    },
    {
      "anonymous": false,
      "inputs": [
        {
          "indexed": false,
          "name": "guess",
          "type": "string"
        },
        {
          "indexed": false,
          "name": "hit",
          "type": "bool"
        },
        {
          "indexed": false,
          "name": "index",
          "type": "uint32"
        },
        {
          "indexed": false,
          "name": "tries",
          "type": "uint8"
        }
      ],
      "name": "SolutionGuess",
      "type": "event"
    },
    {
      "anonymous": false,
      "inputs": [
        {
          "indexed": false,
          "name": "winner",
          "type": "string"
        },
        {
          "indexed": false,
          "name": "word",
          "type": "string"
        },
        {
          "indexed": false,
          "name": "loser",
          "type": "string"
        }
      ],
      "name": "GameWinner",
      "type": "event"
    },
    {
      "anonymous": false,
      "inputs": [
        {
          "indexed": false,
          "name": "winner",
          "type": "string"
        },
        {
          "indexed": false,
          "name": "paid",
          "type": "bool"
        },
        {
          "indexed": false,
          "name": "payout",
          "type": "uint256"
        }
      ],
      "name": "WinnerPaid",
      "type": "event"
    },
    {
      "anonymous": false,
      "inputs": [
        {
          "indexed": false,
          "name": "contractAddress",
          "type": "address"
        },
        {
          "indexed": false,
          "name": "wager",
          "type": "uint256"
        },
        {
          "indexed": false,
          "name": "success",
          "type": "bool"
        }
      ],
      "name": "FundsTransfer",
      "type": "event"
    },
    {
      "anonymous": false,
      "inputs": [
        {
          "indexed": false,
          "name": "gameId",
          "type": "uint256"
        },
        {
          "indexed": false,
          "name": "wager",
          "type": "uint256"
        },
        {
          "indexed": false,
          "name": "tries",
          "type": "uint8"
        },
        {
          "indexed": false,
          "name": "userName",
          "type": "string"
        },
        {
          "indexed": false,
          "name": "userWord",
          "type": "string"
        },
        {
          "indexed": false,
          "name": "wordLength",
          "type": "uint8"
        }
      ],
      "name": "NewGame",
      "type": "event"
    },
    {
      "anonymous": false,
      "inputs": [
        {
          "indexed": false,
          "name": "gameId",
          "type": "uint256"
        },
        {
          "indexed": false,
          "name": "wager",
          "type": "uint256"
        },
        {
          "indexed": false,
          "name": "tries",
          "type": "uint8"
        },
        {
          "indexed": false,
          "name": "userName",
          "type": "string"
        },
        {
          "indexed": false,
          "name": "userWord",
          "type": "string"
        },
        {
          "indexed": false,
          "name": "wordLength",
          "type": "uint8"
        }
      ],
      "name": "PendingGames",
      "type": "event"
    },
    {
      "anonymous": false,
      "inputs": [
        {
          "indexed": false,
          "name": "userWord",
          "type": "string"
        }
      ],
      "name": "RemovePendingGame",
      "type": "event"
    },
    {
      "constant": false,
      "inputs": [
        {
          "name": "_word",
          "type": "string"
        },
        {
          "name": "_wager",
          "type": "uint256"
        },
        {
          "name": "_tries",
          "type": "uint8"
        },
        {
          "name": "_userWord",
          "type": "string"
        },
        {
          "name": "_userName",
          "type": "string"
        },
        {
          "name": "_wordLength",
          "type": "uint8"
        }
      ],
      "name": "createGame",
      "outputs": [],
      "payable": true,
      "stateMutability": "payable",
      "type": "function"
    },
    {
      "constant": false,
      "inputs": [
        {
          "name": "challenger",
          "type": "string"
        },
        {
          "name": "gameId",
          "type": "uint256"
        },
        {
          "name": "uniqGameString",
          "type": "string"
        },
        {
          "name": "wordLength",
          "type": "uint8"
        }
      ],
      "name": "commenceLiveGame",
      "outputs": [],
      "payable": true,
      "stateMutability": "payable",
      "type": "function"
    },
    {
      "constant": false,
      "inputs": [],
      "name": "getPendingGames",
      "outputs": [],
      "payable": false,
      "stateMutability": "nonpayable",
      "type": "function"
    }
  ],
  "bytecode": "0x606060405260008060006101000a81548163ffffffff021916908363ffffffff160217905550341561003057600080fd5b6145068061003f6000396000f3006060604052600436106100af576000357c0100000000000000000000000000000000000000000000000000000000900463ffffffff16806303ba9f25146100b1578063117a5b90146101aa57806313e4c714146103c95780632ec1c017146106b15780634d83d55a146106fe57806371c0b5331461079a578063957b5fb414610814578063d69d504414610829578063d77eef1b146108de578063e6b2bc1414610944578063ff6f4bc1146109ee575b005b6101a8600480803590602001908201803590602001908080601f0160208091040260200160405190810160405280939291908181526020018383808284378201915050505050509190803590602001909190803560ff1690602001909190803590602001908201803590602001908080601f0160208091040260200160405190810160405280939291908181526020018383808284378201915050505050509190803590602001908201803590602001908080601f0160208091040260200160405190810160405280939291908181526020018383808284378201915050505050509190803560ff16906020019091905050610a03565b005b34156101b557600080fd5b6101cb6004808035906020019091905050610ad1565b60405180806020018881526020018760ff1660ff16815260200180602001806020018660ff1660ff1681526020018573ffffffffffffffffffffffffffffffffffffffff1673ffffffffffffffffffffffffffffffffffffffff16815260200184810384528b8181546001816001161561010002031660029004815260200191508054600181600116156101000203166002900480156102ac5780601f10610281576101008083540402835291602001916102ac565b820191906000526020600020905b81548152906001019060200180831161028f57829003601f168201915b505084810383528881815460018160011615610100020316600290048152602001915080546001816001161561010002031660029004801561032f5780601f106103045761010080835404028352916020019161032f565b820191906000526020600020905b81548152906001019060200180831161031257829003601f168201915b50508481038252878181546001816001161561010002031660029004815260200191508054600181600116156101000203166002900480156103b25780601f10610387576101008083540402835291602001916103b2565b820191906000526020600020905b81548152906001019060200180831161039557829003601f168201915b50509a505050505050505050505060405180910390f35b34156103d457600080fd5b6103ea6004808035906020019091905050610b59565b60405180806020018b81526020018a60ff1660ff1681526020018060200180602001806020018960ff1660ff1681526020018860ff1660ff1681526020018773ffffffffffffffffffffffffffffffffffffffff1673ffffffffffffffffffffffffffffffffffffffff1681526020018673ffffffffffffffffffffffffffffffffffffffff1673ffffffffffffffffffffffffffffffffffffffff16815260200185810385528f81815460018160011615610100020316600290048152602001915080546001816001161561010002031660029004801561050d5780601f106104e25761010080835404028352916020019161050d565b820191906000526020600020905b8154815290600101906020018083116104f057829003601f168201915b505085810384528c8181546001816001161561010002031660029004815260200191508054600181600116156101000203166002900480156105905780601f1061056557610100808354040283529160200191610590565b820191906000526020600020905b81548152906001019060200180831161057357829003601f168201915b505085810383528b8181546001816001161561010002031660029004815260200191508054600181600116156101000203166002900480156106135780601f106105e857610100808354040283529160200191610613565b820191906000526020600020905b8154815290600101906020018083116105f657829003601f168201915b505085810382528a8181546001816001161561010002031660029004815260200191508054600181600116156101000203166002900480156106965780601f1061066b57610100808354040283529160200191610696565b820191906000526020600020905b81548152906001019060200180831161067957829003601f168201915b50509e50505050505050505050505050505060405180910390f35b34156106bc57600080fd5b6106e8600480803573ffffffffffffffffffffffffffffffffffffffff16906020019091905050610c1f565b6040518082815260200191505060405180910390f35b341561070957600080fd5b61071f6004808035906020019091905050610c37565b6040518080602001828103825283818151815260200191508051906020019080838360005b8381101561075f578082015181840152602081019050610744565b50505050905090810190601f16801561078c5780820380516001836020036101000a031916815260200191505b509250505060405180910390f35b610812600480803573ffffffffffffffffffffffffffffffffffffffff1690602001909190803590602001908201803590602001908080601f01602080910402602001604051908101604052809392919081815260200183838082843782019150505050505091908035906020019091905050610ce7565b005b341561081f57600080fd5b610827610e55565b005b341561083457600080fd5b6108dc600480803590602001908201803590602001908080601f0160208091040260200160405190810160405280939291908181526020018383808284378201915050505050509190803590602001909190803590602001908201803590602001908080601f0160208091040260200160405190810160405280939291908181526020018383808284378201915050505050509190803560ff16906020019091905050611339565b005b34156108e957600080fd5b610942600480803590602001908201803590602001908080601f01602080910402602001604051908101604052809392919081815260200183838082843782019150505050505091908035906020019091905050611a10565b005b6109ec600480803590602001908201803590602001908080601f0160208091040260200160405190810160405280939291908181526020018383808284378201915050505050509190803590602001909190803590602001908201803590602001908080601f0160208091040260200160405190810160405280939291908181526020018383808284378201915050505050509190803560ff16906020019091905050611dfa565b005b34156109f957600080fd5b610a01611ec4565b005b3073ffffffffffffffffffffffffffffffffffffffff166108fc349081150290604051600060405180830381858888f1935050505015610a5057610a4b86868686868661215c565b610ac9565b7fe842aea7a5f1b01049d752008c53c52890b1a6daf660cf39e8eec506112bbdf630346000604051808473ffffffffffffffffffffffffffffffffffffffff1673ffffffffffffffffffffffffffffffffffffffff16815260200183815260200182151515158152602001935050505060405180910390a15b505050505050565b600181815481101515610ae057fe5b906000526020600020906006020160009150905080600001908060010154908060020160009054906101000a900460ff1690806003019080600401908060050160009054906101000a900460ff16908060050160019054906101000a900473ffffffffffffffffffffffffffffffffffffffff16905087565b600381815481101515610b6857fe5b90600052602060002090600b020160009150905080600001908060010154908060020160009054906101000a900460ff16908060030190806004019080600501908060060160009054906101000a900460ff16908060090160009054906101000a900460ff16908060090160019054906101000a900473ffffffffffffffffffffffffffffffffffffffff169080600a0160009054906101000a900473ffffffffffffffffffffffffffffffffffffffff1690508a565b60046020528060005260406000206000915090505481565b60026020528060005260406000206000915090508054600181600116156101000203166002900480601f016020809104026020016040519081016040528092919081815260200182805460018160011615610100020316600290048015610cdf5780601f10610cb457610100808354040283529160200191610cdf565b820191906000526020600020905b815481529060010190602001808311610cc257829003601f168201915b505050505081565b8273ffffffffffffffffffffffffffffffffffffffff166108fc829081150290604051600060405180830381858888f1935050505015610dd7577fd2155776beca0cf500265d023e4dbdcbdfbc261d7816a37e0ff286a91b399c4d82600183604051808060200184151515158152602001838152602001828103825285818151815260200191508051906020019080838360005b83811015610d96578082015181840152602081019050610d7b565b50505050905090810190601f168015610dc35780820380516001836020036101000a031916815260200191505b5094505050505060405180910390a1610e50565b7f482885da707789d232c780ec53cafca403da1301d08c9ae6f64bd0225b4bab7330346000604051808473ffffffffffffffffffffffffffffffffffffffff1673ffffffffffffffffffffffffffffffffffffffff16815260200183815260200182151515158152602001935050505060405180910390a15b505050565b6000610e6033612662565b90507fdcc734248b9e9bcfcbd1187acf9d439e66a0c2b499a0f417d9826384973aad0a6003600460003373ffffffffffffffffffffffffffffffffffffffff1673ffffffffffffffffffffffffffffffffffffffff16815260200190815260200160002054815481101515610ed157fe5b90600052602060002090600b02016005016003600460003373ffffffffffffffffffffffffffffffffffffffff1673ffffffffffffffffffffffffffffffffffffffff16815260200190815260200160002054815481101515610f3057fe5b90600052602060002090600b02016004016003600460003373ffffffffffffffffffffffffffffffffffffffff1673ffffffffffffffffffffffffffffffffffffffff16815260200190815260200160002054815481101515610f8f57fe5b90600052602060002090600b0201600101546003600460003373ffffffffffffffffffffffffffffffffffffffff1673ffffffffffffffffffffffffffffffffffffffff16815260200190815260200160002054815481101515610fef57fe5b90600052602060002090600b020160020160009054906101000a900460ff166003600460003373ffffffffffffffffffffffffffffffffffffffff1673ffffffffffffffffffffffffffffffffffffffff1681526020019081526020016000205481548110151561105c57fe5b90600052602060002090600b02016003016003600460003373ffffffffffffffffffffffffffffffffffffffff1673ffffffffffffffffffffffffffffffffffffffff168152602001908152602001600020548154811015156110bb57fe5b90600052602060002090600b020160090160009054906101000a900460ff166003600460003373ffffffffffffffffffffffffffffffffffffffff1673ffffffffffffffffffffffffffffffffffffffff1681526020019081526020016000205481548110151561112857fe5b90600052602060002090600b020160060160009054906101000a900460ff16886040518080602001806020018981526020018860ff1660ff168152602001806020018760ff1660ff1681526020018660ff1660ff16815260200185815260200184810384528c8181546001816001161561010002031660029004815260200191508054600181600116156101000203166002900480156112095780601f106111de57610100808354040283529160200191611209565b820191906000526020600020905b8154815290600101906020018083116111ec57829003601f168201915b505084810383528b81815460018160011615610100020316600290048152602001915080546001816001161561010002031660029004801561128c5780601f106112615761010080835404028352916020019161128c565b820191906000526020600020905b81548152906001019060200180831161126f57829003601f168201915b505084810382528881815460018160011615610100020316600290048152602001915080546001816001161561010002031660029004801561130f5780601f106112e45761010080835404028352916020019161130f565b820191906000526020600020905b8154815290600101906020018083116112f257829003601f168201915b50509b50505050505050505050505060405180910390a161132e6126ab565b611336612a43565b50565b611341614051565b600061134b614065565b611353614065565b600060018881548110151561136457fe5b90600052602060002090600602016000018054600181600116156101000203166002900480601f0160208091040260200160405190810160405280929190818152602001828054600181600116156101000203166002900480156114095780601f106113de57610100808354040283529160200191611409565b820191906000526020600020905b8154815290600101906020018083116113ec57829003601f168201915b505050505094506000935060016003805480600101828161142a9190614079565b91600052602060002090600b02016000610180604051908101604052808a815260200160018e81548110151561145c57fe5b906000526020600020906006020160010154815260200160018e81548110151561148257fe5b906000526020600020906006020160020160009054906101000a900460ff1660ff1681526020018c815260200160018e8154811015156114be57fe5b90600052602060002090600602016004018054600181600116156101000203166002900480601f0160208091040260200160405190810160405280929190818152602001828054600181600116156101000203166002900480156115635780601f1061153857610100808354040283529160200191611563565b820191906000526020600020905b81548152906001019060200180831161154657829003601f168201915b505050505081526020018e81526020018960ff1681526020018881526020018781526020018b60ff16815260200160018e8154811015156115a057fe5b906000526020600020906006020160050160019054906101000a900473ffffffffffffffffffffffffffffffffffffffff1673ffffffffffffffffffffffffffffffffffffffff1681526020013373ffffffffffffffffffffffffffffffffffffffff16815250909190915060008201518160000190805190602001906116289291906140ab565b506020820151816001015560408201518160020160006101000a81548160ff021916908360ff16021790555060608201518160030190805190602001906116709291906140ab565b50608082015181600401908051906020019061168d9291906140ab565b5060a08201518160050190805190602001906116aa9291906140ab565b5060c08201518160060160006101000a81548160ff021916908360ff16021790555060e08201518160070190805190602001906116e892919061412b565b5061010082015181600801908051906020019061170692919061412b565b506101208201518160090160006101000a81548160ff021916908360ff1602179055506101408201518160090160016101000a81548173ffffffffffffffffffffffffffffffffffffffff021916908373ffffffffffffffffffffffffffffffffffffffff16021790555061016082015181600a0160006101000a81548173ffffffffffffffffffffffffffffffffffffffff021916908373ffffffffffffffffffffffffffffffffffffffff16021790555050500390507f746ffb8547cf17810666c7e53b35fce56fdadb9c4b4d5882ce3746334fdfe6528960018a8154811015156117ef57fe5b90600052602060002090600602016004018360018c81548110151561181057fe5b90600052602060002090600602016001015460018d81548110151561183157fe5b906000526020600020906006020160020160009054906101000a900460ff168c8c6040518080602001806020018881526020018781526020018660ff1660ff168152602001806020018560ff1660ff16815260200184810384528b818151815260200191508051906020019080838360005b838110156118be5780820151818401526020810190506118a3565b50505050905090810190601f1680156118eb5780820380516001836020036101000a031916815260200191505b5084810383528a81815460018160011615610100020316600290048152602001915080546001816001161561010002031660029004801561196d5780601f106119425761010080835404028352916020019161196d565b820191906000526020600020905b81548152906001019060200180831161195057829003601f168201915b5050848103825286818151815260200191508051906020019080838360005b838110156119a757808201518184015260208101905061198c565b50505050905090810190601f1680156119d45780820380516001836020036101000a031916815260200191505b509a505050505050505050505060405180910390a16119f38682612c12565b6119fc81612cca565b611a0588612d11565b505050505050505050565b6000611a1a614051565b6000600384815481101515611a2b57fe5b90600052602060002090600b0201600601600081819054906101000a900460ff168092919060010191906101000a81548160ff021916908360ff1602179055505060009250600384815481101515611a7f57fe5b90600052602060002090600b02016000018054600181600116156101000203166002900480601f016020809104026020016040519081016040528092919081815260200182805460018160011615610100020316600290048015611b245780601f10611af957610100808354040283529160200191611b24565b820191906000526020600020905b815481529060010190602001808311611b0757829003601f168201915b50505050509150600185511115611b4457611b3f8585612ecd565b611df3565b600185511415611df257600090505b81518163ffffffff161015611dc257846000815181101515611b7157fe5b9060200101517f010000000000000000000000000000000000000000000000000000000000000090047f0100000000000000000000000000000000000000000000000000000000000000027effffffffffffffffffffffffffffffffffffffffffffffffffffffffffffff1916828263ffffffff16815181101515611bf257fe5b9060200101517f010000000000000000000000000000000000000000000000000000000000000090047f0100000000000000000000000000000000000000000000000000000000000000027effffffffffffffffffffffffffffffffffffffffffffffffffffffffffffff19161415611db5576001925084600385815481101515611c7957fe5b90600052602060002090600b02016007018263ffffffff16815481101515611c9d57fe5b90600052602060002090019080519060200190611cbb92919061418b565b507f0174af177ef003e33d855a98d075068cfba2f53c781348a9c6e4bb185a6245ee85600183600388815481101515611cf057fe5b90600052602060002090600b020160060160009054906101000a900460ff166040518080602001851515151581526020018463ffffffff1663ffffffff1681526020018360ff1660ff168152602001828103825286818151815260200191508051906020019080838360005b83811015611d77578082015181840152602081019050611d5c565b50505050905090810190601f168015611da45780820380516001836020036101000a031916815260200191505b509550505050505060405180910390a15b8080600101915050611b53565b600115158315151415611dd957611dd88461348c565b5b600015158315151415611df157611df08486613c69565b5b5b5b5050505050565b3073ffffffffffffffffffffffffffffffffffffffff166108fc349081150290604051600060405180830381858888f1935050505015611e4557611e4084848484611339565b611ebe565b7fe842aea7a5f1b01049d752008c53c52890b1a6daf660cf39e8eec506112bbdf630346000604051808473ffffffffffffffffffffffffffffffffffffffff1673ffffffffffffffffffffffffffffffffffffffff16815260200183815260200182151515158152602001935050505060405180910390a15b50505050565b600080600180549050111515611ed957600080fd5b600090505b600180549050811015612159576000600182815481101515611efc57fe5b906000526020600020906006020160050160009054906101000a900460ff1660ff16111561214c577f9cbf83e013851580a003e19a3d4865911117cc61084c3de99cc6cca3c30badc281600183815481101515611f5557fe5b906000526020600020906006020160010154600184815481101515611f7657fe5b906000526020600020906006020160020160009054906101000a900460ff16600185815481101515611fa457fe5b9060005260206000209060060201600401600186815481101515611fc457fe5b9060005260206000209060060201600301600187815481101515611fe457fe5b906000526020600020906006020160050160009054906101000a900460ff16604051808781526020018681526020018560ff1660ff16815260200180602001806020018460ff1660ff1681526020018381038352868181546001816001161561010002031660029004815260200191508054600181600116156101000203166002900480156120b45780601f10612089576101008083540402835291602001916120b4565b820191906000526020600020905b81548152906001019060200180831161209757829003601f168201915b50508381038252858181546001816001161561010002031660029004815260200191508054600181600116156101000203166002900480156121375780601f1061210c57610100808354040283529160200191612137565b820191906000526020600020905b81548152906001019060200180831161211a57829003601f168201915b50509850505050505050505060405180910390a15b8080600101915050611ede565b50565b60008060016000809054906101000a900463ffffffff1663ffffffff1610156122ed576001808054806001018281612194919061420b565b9160005260206000209060060201600060e0604051908101604052808d81526020018c81526020018b60ff1681526020018a81526020018981526020018860ff1681526020013373ffffffffffffffffffffffffffffffffffffffff16815250909190915060008201518160000190805190602001906122159291906140ab565b506020820151816001015560408201518160020160006101000a81548160ff021916908360ff160217905550606082015181600301908051906020019061225d9291906140ab565b50608082015181600401908051906020019061227a9291906140ab565b5060a08201518160050160006101000a81548160ff021916908360ff16021790555060c08201518160050160016101000a81548173ffffffffffffffffffffffffffffffffffffffff021916908373ffffffffffffffffffffffffffffffffffffffff16021790555050500391506124fb565b600090505b6001805490508163ffffffff1610156124fa57600060018263ffffffff1681548110151561231c57fe5b906000526020600020906006020160050160009054906101000a900460ff1660ff1614156124ed5760e0604051908101604052808981526020018881526020018760ff1681526020018681526020018581526020018460ff1681526020013373ffffffffffffffffffffffffffffffffffffffff1681525060018263ffffffff168154811015156123a957fe5b906000526020600020906006020160008201518160000190805190602001906123d39291906140ab565b506020820151816001015560408201518160020160006101000a81548160ff021916908360ff160217905550606082015181600301908051906020019061241b9291906140ab565b5060808201518160040190805190602001906124389291906140ab565b5060a08201518160050160006101000a81548160ff021916908360ff16021790555060c08201518160050160016101000a81548173ffffffffffffffffffffffffffffffffffffffff021916908373ffffffffffffffffffffffffffffffffffffffff1602179055509050508063ffffffff16915060008081819054906101000a900463ffffffff16809291906001900391906101000a81548163ffffffff021916908363ffffffff160217905550506124fa565b80806001019150506122f2565b5b8760026000848152602001908152602001600020908051906020019061252292919061418b565b507f8c9e64e9e1f765e64747f8c270dd5afeb69e372f71575657d5d1b260ee9ccf51828888878988604051808781526020018681526020018560ff1660ff16815260200180602001806020018460ff1660ff168152602001838103835286818151815260200191508051906020019080838360005b838110156125b2578082015181840152602081019050612597565b50505050905090810190601f1680156125df5780820380516001836020036101000a031916815260200191505b50838103825285818151815260200191508051906020019080838360005b838110156126185780820151818401526020810190506125fd565b50505050905090810190601f1680156126455780820380516001836020036101000a031916815260200191505b509850505050505050505060405180910390a15050505050505050565b6000600460008373ffffffffffffffffffffffffffffffffffffffff1673ffffffffffffffffffffffffffffffffffffffff168152602001908152602001600020549050919050565b6126b3614051565b60006040805190810160405280600181526020017f24000000000000000000000000000000000000000000000000000000000000008152509150600090505b6003600460003373ffffffffffffffffffffffffffffffffffffffff1673ffffffffffffffffffffffffffffffffffffffff1681526020019081526020016000205481548110151561274057fe5b90600052602060002090600b0201600701805490508163ffffffff161015612a3f5781600081518110151561277157fe5b9060200101517f010000000000000000000000000000000000000000000000000000000000000090047f0100000000000000000000000000000000000000000000000000000000000000027effffffffffffffffffffffffffffffffffffffffffffffffffffffffffffff19166003600460003373ffffffffffffffffffffffffffffffffffffffff1673ffffffffffffffffffffffffffffffffffffffff1681526020019081526020016000205481548110151561282c57fe5b90600052602060002090600b02016007018263ffffffff1681548110151561285057fe5b90600052602060002090016000815460018160011615610100020316600290048110151561287a57fe5b8154600116156128995790600052602060002090602091828204019190065b9054901a7f0100000000000000000000000000000000000000000000000000000000000000027effffffffffffffffffffffffffffffffffffffffffffffffffffffffffffff1916141515612a32577f79cf4eb0d6305e4d55a4c2df65998d7b62c2a406f83d5f6e14d131db42bb70ab6003600460003373ffffffffffffffffffffffffffffffffffffffff1673ffffffffffffffffffffffffffffffffffffffff1681526020019081526020016000205481548110151561295757fe5b90600052602060002090600b02016007018263ffffffff1681548110151561297b57fe5b90600052602060002090018260405180806020018363ffffffff1663ffffffff168152602001828103825284818154600181600116156101000203166002900481526020019150805460018160011615610100020316600290048015612a225780601f106129f757610100808354040283529160200191612a22565b820191906000526020600020905b815481529060010190602001808311612a0557829003601f168201915b5050935050505060405180910390a15b80806001019150506126f2565b5050565b60008090505b6003600460003373ffffffffffffffffffffffffffffffffffffffff1673ffffffffffffffffffffffffffffffffffffffff16815260200190815260200160002054815481101515612a9757fe5b90600052602060002090600b0201600801805490508163ffffffff161015612c0f577fd230b39ddf0abb4c478d27f0f161bdd2f200ace6304f4a87d588c44a3fa35e8c6003600460003373ffffffffffffffffffffffffffffffffffffffff1673ffffffffffffffffffffffffffffffffffffffff16815260200190815260200160002054815481101515612b2857fe5b90600052602060002090600b02016008018263ffffffff16815481101515612b4c57fe5b90600052602060002090018260405180806020018363ffffffff1663ffffffff168152602001828103825284818154600181600116156101000203166002900481526020019150805460018160011615610100020316600290048015612bf35780601f10612bc857610100808354040283529160200191612bf3565b820191906000526020600020905b815481529060010190602001808311612bd657829003601f168201915b5050935050505060405180910390a18080600101915050612a49565b50565b60008090505b8260ff168163ffffffff161015612cc557600382815481101515612c3857fe5b90600052602060002090600b02016007018054806001018281612c5b919061423d565b916000526020600020900160006040805190810160405280600181526020017f240000000000000000000000000000000000000000000000000000000000000081525090919091509080519060200190612cb692919061418b565b50508080600101915050612c18565b505050565b80600460003373ffffffffffffffffffffffffffffffffffffffff1673ffffffffffffffffffffffffffffffffffffffff1681526020019081526020016000208190555050565b7f3c292ea39929efc9883230ce64b1d2bc9218bb71cb8a754ff1cb2dae6aad0846600182815481101515612d4157fe5b90600052602060002090600602016003016040518080602001828103825283818154600181600116156101000203166002900481526020019150805460018160011615610100020316600290048015612ddb5780601f10612db057610100808354040283529160200191612ddb565b820191906000526020600020905b815481529060010190602001808311612dbe57829003601f168201915b50509250505060405180910390a1600181815481101515612df857fe5b906000526020600020906006020160008082016000612e179190614269565b60018201600090556002820160006101000a81549060ff0219169055600382016000612e439190614269565b600482016000612e539190614269565b6005820160006101000a81549060ff02191690556005820160016101000a81549073ffffffffffffffffffffffffffffffffffffffff0219169055505060008081819054906101000a900463ffffffff168092919060010191906101000a81548163ffffffff021916908363ffffffff1602179055505050565b612ed5614051565b600080600080600386815481101515612eea57fe5b90600052602060002090600b02016000018054600181600116156101000203166002900480601f016020809104026020016040519081016040528092919081815260200182805460018160011615610100020316600290048015612f8f5780601f10612f6457610100808354040283529160200191612f8f565b820191906000526020600020905b815481529060010190602001808311612f7257829003601f168201915b505050505094506001935086518551141561347857600092505b84518363ffffffff1610156130e157868363ffffffff16815181101515612fcc57fe5b9060200101517f010000000000000000000000000000000000000000000000000000000000000090047f0100000000000000000000000000000000000000000000000000000000000000027effffffffffffffffffffffffffffffffffffffffffffffffffffffffffffff1916858463ffffffff1681518110151561304d57fe5b9060200101517f010000000000000000000000000000000000000000000000000000000000000090047f0100000000000000000000000000000000000000000000000000000000000000027effffffffffffffffffffffffffffffffffffffffffffffffffffffffffffff19161415156130d457600093506130cf8688613c69565b6130e1565b8280600101935050612fa9565b600115158415151415613473576003868154811015156130fd57fe5b90600052602060002090600b02016001015460038781548110151561311e57fe5b90600052602060002090600b020160010154019150606160648381151561314157fe5b0402905061324860038781548110151561315757fe5b90600052602060002090600b0201600a0160009054906101000a900473ffffffffffffffffffffffffffffffffffffffff1660038881548110151561319857fe5b90600052602060002090600b02016005018054600181600116156101000203166002900480601f01602080910402602001604051908101604052809291908181526020018280546001816001161561010002031660029004801561323d5780601f106132125761010080835404028352916020019161323d565b820191906000526020600020905b81548152906001019060200180831161322057829003601f168201915b505050505083610ce7565b7fffedf7f8820dde2d4b397a1fc7d384e98b9e4a78a9da7bd4352fe2340d0bf65b60038781548110151561327857fe5b90600052602060002090600b020160050160038881548110151561329857fe5b90600052602060002090600b02016000016003898154811015156132b857fe5b90600052602060002090600b02016004016040518080602001806020018060200184810384528781815460018160011615610100020316600290048152602001915080546001816001161561010002031660029004801561335a5780601f1061332f5761010080835404028352916020019161335a565b820191906000526020600020905b81548152906001019060200180831161333d57829003601f168201915b50508481038352868181546001816001161561010002031660029004815260200191508054600181600116156101000203166002900480156133dd5780601f106133b2576101008083540402835291602001916133dd565b820191906000526020600020905b8154815290600101906020018083116133c057829003601f168201915b50508481038252858181546001816001161561010002031660029004815260200191508054600181600116156101000203166002900480156134605780601f1061343557610100808354040283529160200191613460565b820191906000526020600020905b81548152906001019060200180831161344357829003601f168201915b5050965050505050505060405180910390a15b613483565b6134828688613c69565b5b50505050505050565b613494614051565b600061349e614051565b60006003858154811015156134af57fe5b90600052602060002090600b02016000018054600181600116156101000203166002900480601f0160208091040260200160405190810160405280929190818152602001828054600181600116156101000203166002900480156135545780601f1061352957610100808354040283529160200191613554565b820191906000526020600020905b81548152906001019060200180831161353757829003601f168201915b5050505050935060019250600090505b60038581548110151561357357fe5b90600052602060002090600b0201600701805490508163ffffffff161015613788576003858154811015156135a457fe5b90600052602060002090600b02016007018163ffffffff168154811015156135c857fe5b90600052602060002090018054600181600116156101000203166002900480601f0160208091040260200160405190810160405280929190818152602001828054600181600116156101000203166002900480156136675780601f1061363c57610100808354040283529160200191613667565b820191906000526020600020905b81548152906001019060200180831161364a57829003601f168201915b50505050509150838163ffffffff1681518110151561368257fe5b9060200101517f010000000000000000000000000000000000000000000000000000000000000090047f0100000000000000000000000000000000000000000000000000000000000000027effffffffffffffffffffffffffffffffffffffffffffffffffffffffffffff19168260008151811015156136fe57fe5b9060200101517f010000000000000000000000000000000000000000000000000000000000000090047f0100000000000000000000000000000000000000000000000000000000000000027effffffffffffffffffffffffffffffffffffffffffffffffffffffffffffff191614151561377b5760009250613788565b8080600101915050613564565b6001151583151514156139c0577fffedf7f8820dde2d4b397a1fc7d384e98b9e4a78a9da7bd4352fe2340d0bf65b6003868154811015156137c557fe5b90600052602060002090600b02016005016003878154811015156137e557fe5b90600052602060002090600b020160000160038881548110151561380557fe5b90600052602060002090600b0201600401604051808060200180602001806020018481038452878181546001816001161561010002031660029004815260200191508054600181600116156101000203166002900480156138a75780601f1061387c576101008083540402835291602001916138a7565b820191906000526020600020905b81548152906001019060200180831161388a57829003601f168201915b505084810383528681815460018160011615610100020316600290048152602001915080546001816001161561010002031660029004801561392a5780601f106138ff5761010080835404028352916020019161392a565b820191906000526020600020905b81548152906001019060200180831161390d57829003601f168201915b50508481038252858181546001816001161561010002031660029004815260200191508054600181600116156101000203166002900480156139ad5780601f10613982576101008083540402835291602001916139ad565b820191906000526020600020905b81548152906001019060200180831161399057829003601f168201915b5050965050505050505060405180910390a15b600015158315151415613c62576003858154811015156139dc57fe5b90600052602060002090600b020160020160009054906101000a900460ff1660ff16600386815481101515613a0d57fe5b90600052602060002090600b020160060160009054906101000a900460ff1660ff16101515613c61577fffedf7f8820dde2d4b397a1fc7d384e98b9e4a78a9da7bd4352fe2340d0bf65b600386815481101515613a6657fe5b90600052602060002090600b0201600401600387815481101515613a8657fe5b90600052602060002090600b0201600001600388815481101515613aa657fe5b90600052602060002090600b020160050160405180806020018060200180602001848103845287818154600181600116156101000203166002900481526020019150805460018160011615610100020316600290048015613b485780601f10613b1d57610100808354040283529160200191613b48565b820191906000526020600020905b815481529060010190602001808311613b2b57829003601f168201915b5050848103835286818154600181600116156101000203166002900481526020019150805460018160011615610100020316600290048015613bcb5780601f10613ba057610100808354040283529160200191613bcb565b820191906000526020600020905b815481529060010190602001808311613bae57829003601f168201915b5050848103825285818154600181600116156101000203166002900481526020019150805460018160011615610100020316600290048015613c4e5780601f10613c2357610100808354040283529160200191613c4e565b820191906000526020600020905b815481529060010190602001808311613c3157829003601f168201915b5050965050505050505060405180910390a15b5b5050505050565b600382815481101515613c7857fe5b90600052602060002090600b020160060160009054906101000a900460ff1660ff16600383815481101515613ca957fe5b90600052602060002090600b020160020160009054906101000a900460ff1660ff161115613e22577f0174af177ef003e33d855a98d075068cfba2f53c781348a9c6e4bb185a6245ee81600080600386815481101515613d0557fe5b90600052602060002090600b020160060160009054906101000a900460ff166040518080602001851515151581526020018463ffffffff1681526020018360ff1660ff168152602001828103825286818151815260200191508051906020019080838360005b83811015613d86578082015181840152602081019050613d6b565b50505050905090810190601f168015613db35780820380516001836020036101000a031916815260200191505b509550505050505060405180910390a1600382815481101515613dd257fe5b90600052602060002090600b02016008018054806001018281613df5919061423d565b916000526020600020900160008390919091509080519060200190613e1b92919061418b565b505061404d565b7fffedf7f8820dde2d4b397a1fc7d384e98b9e4a78a9da7bd4352fe2340d0bf65b600383815481101515613e5257fe5b90600052602060002090600b0201600401600384815481101515613e7257fe5b90600052602060002090600b0201600001600385815481101515613e9257fe5b90600052602060002090600b020160050160405180806020018060200180602001848103845287818154600181600116156101000203166002900481526020019150805460018160011615610100020316600290048015613f345780601f10613f0957610100808354040283529160200191613f34565b820191906000526020600020905b815481529060010190602001808311613f1757829003601f168201915b5050848103835286818154600181600116156101000203166002900481526020019150805460018160011615610100020316600290048015613fb75780601f10613f8c57610100808354040283529160200191613fb7565b820191906000526020600020905b815481529060010190602001808311613f9a57829003601f168201915b505084810382528581815460018160011615610100020316600290048152602001915080546001816001161561010002031660029004801561403a5780601f1061400f5761010080835404028352916020019161403a565b820191906000526020600020905b81548152906001019060200180831161401d57829003601f168201915b5050965050505050505060405180910390a15b5050565b602060405190810160405280600081525090565b602060405190810160405280600081525090565b8154818355818115116140a657600b0281600b0283600052602060002091820191016140a591906142b1565b5b505050565b828054600181600116156101000203166002900490600052602060002090601f016020900481019282601f106140ec57805160ff191683800117855561411a565b8280016001018555821561411a579182015b828111156141195782518255916020019190600101906140fe565b5b50905061412791906143c2565b5090565b82805482825590600052602060002090810192821561417a579160200282015b828111156141795782518290805190602001906141699291906140ab565b509160200191906001019061414b565b5b50905061418791906143e7565b5090565b828054600181600116156101000203166002900490600052602060002090601f016020900481019282601f106141cc57805160ff19168380011785556141fa565b828001600101855582156141fa579182015b828111156141f95782518255916020019190600101906141de565b5b50905061420791906143c2565b5090565b815481835581811511614238576006028160060283600052602060002091820191016142379190614413565b5b505050565b8154818355818115116142645781836000526020600020918201910161426391906143e7565b5b505050565b50805460018160011615610100020316600290046000825580601f1061428f57506142ae565b601f0160209004906000526020600020908101906142ad91906143c2565b5b50565b6143bf91905b808211156143bb57600080820160006142d09190614269565b60018201600090556002820160006101000a81549060ff02191690556003820160006142fc9190614269565b60048201600061430c9190614269565b60058201600061431c9190614269565b6006820160006101000a81549060ff021916905560078201600061434091906144b9565b60088201600061435091906144b9565b6009820160006101000a81549060ff02191690556009820160016101000a81549073ffffffffffffffffffffffffffffffffffffffff0219169055600a820160006101000a81549073ffffffffffffffffffffffffffffffffffffffff021916905550600b016142b7565b5090565b90565b6143e491905b808211156143e05760008160009055506001016143c8565b5090565b90565b61441091905b8082111561440c57600081816144039190614269565b506001016143ed565b5090565b90565b6144b691905b808211156144b257600080820160006144329190614269565b60018201600090556002820160006101000a81549060ff021916905560038201600061445e9190614269565b60048201600061446e9190614269565b6005820160006101000a81549060ff02191690556005820160016101000a81549073ffffffffffffffffffffffffffffffffffffffff021916905550600601614419565b5090565b90565b50805460008255906000526020600020908101906144d791906143e7565b505600a165627a7a72305820fd7a3d8728ea01550fb01a3326f7fc08a1a0f659b4fb62dba30d661e908e56b20029",
  "source": "pragma solidity ^0.4.19;\n\nimport './LiveGame.sol';\n\ncontract Hangman is LiveGame {\n\n  event FundTransfer(address contractAddress, uint wager, bool success);\n\n  function createGame(string _word, uint _wager, uint8 _tries, string _userWord, string _userName, uint8 _wordLength) public payable {\n    if (this.send(msg.value)) {\n      reallyCreateGame(_word, _wager, _tries, _userWord, _userName, _wordLength);\n    } else {\n      FundTransfer(this, msg.value, false);\n    }\n  }\n\n  function commenceLiveGame(string challenger, uint gameId, string uniqGameString, uint8 wordLength) public payable {\n    if (this.send(msg.value)) {\n      reallyCommenceLiveGame(challenger, gameId, uniqGameString, wordLength);\n    } else {\n      FundTransfer(this, msg.value, false);\n    }\n  }\n\n  function getPendingGames() public {\n    require(games.length > 0);\n    for(uint i = 0; i < games.length; i++) {\n      if (games[i].wordLength > 0) {\n        PendingGames(i, games[i].wager, games[i].tries, games[i].userName, games[i].userWord, games[i].wordLength);\n      }\n    }\n  }\n }\n",
  "sourcePath": "/Users/tysondaugherty/Desktop/funApps/ether/etherHang/contracts/Hangman.sol",
  "compiler": {
    "name": "solc",
    "version": "0.4.19+commit.c4cbbb05.Emscripten.clang"
  },
  "schemaVersion": "1.0.1",
  "updatedAt": "2018-03-08T21:39:25.558Z"
}