{
  "contractName": "Hangman",
  "abi": [
    {
      "constant": true,
      "inputs": [
        {
          "name": "",
          "type": "uint256"
        }
      ],
      "name": "games",
      "outputs": [
        {
          "name": "word",
          "type": "string"
        },
        {
          "name": "wager",
          "type": "uint8"
        },
        {
          "name": "tries",
          "type": "uint8"
        },
        {
          "name": "id",
          "type": "uint256"
        },
        {
          "name": "userWord",
          "type": "string"
        },
        {
          "name": "userName",
          "type": "string"
        }
      ],
      "payable": false,
      "stateMutability": "view",
      "type": "function"
    },
    {
      "anonymous": false,
      "inputs": [
        {
          "indexed": false,
          "name": "gameId",
          "type": "uint256"
        },
        {
          "indexed": false,
          "name": "word",
          "type": "string"
        },
        {
          "indexed": false,
          "name": "wager",
          "type": "uint256"
        },
        {
          "indexed": false,
          "name": "tries",
          "type": "uint256"
        },
        {
          "indexed": false,
          "name": "userWord",
          "type": "string"
        },
        {
          "indexed": false,
          "name": "userName",
          "type": "string"
        }
      ],
      "name": "NewGame",
      "type": "event"
    },
    {
      "anonymous": false,
      "inputs": [
        {
          "indexed": false,
          "name": "gameId",
          "type": "uint256"
        },
        {
          "indexed": false,
          "name": "word",
          "type": "string"
        },
        {
          "indexed": false,
          "name": "wager",
          "type": "uint256"
        },
        {
          "indexed": false,
          "name": "tries",
          "type": "uint256"
        },
        {
          "indexed": false,
          "name": "userWord",
          "type": "string"
        },
        {
          "indexed": false,
          "name": "userName",
          "type": "string"
        }
      ],
      "name": "PendingGame",
      "type": "event"
    },
    {
      "constant": false,
      "inputs": [
        {
          "name": "_word",
          "type": "string"
        },
        {
          "name": "_wager",
          "type": "uint8"
        },
        {
          "name": "_tries",
          "type": "uint8"
        },
        {
          "name": "_userWord",
          "type": "string"
        },
        {
          "name": "_userName",
          "type": "string"
        }
      ],
      "name": "createGame",
      "outputs": [],
      "payable": false,
      "stateMutability": "nonpayable",
      "type": "function"
    },
    {
      "constant": false,
      "inputs": [],
      "name": "getPendingGames",
      "outputs": [],
      "payable": false,
      "stateMutability": "nonpayable",
      "type": "function"
    }
  ],
  "bytecode": "0x6060604052341561000f57600080fd5b610ba48061001e6000396000f300606060405260043610610057576000357c0100000000000000000000000000000000000000000000000000000000900463ffffffff168063117a5b901461005c578063c6d9b24014610248578063ff6f4bc114610343575b600080fd5b341561006757600080fd5b61007d6004808035906020019091905050610358565b60405180806020018760ff1660ff1681526020018660ff1660ff168152602001858152602001806020018060200184810384528a81815460018160011615610100020316600290048152602001915080546001816001161561010002031660029004801561012c5780601f106101015761010080835404028352916020019161012c565b820191906000526020600020905b81548152906001019060200180831161010f57829003601f168201915b50508481038352868181546001816001161561010002031660029004815260200191508054600181600116156101000203166002900480156101af5780601f10610184576101008083540402835291602001916101af565b820191906000526020600020905b81548152906001019060200180831161019257829003601f168201915b50508481038252858181546001816001161561010002031660029004815260200191508054600181600116156101000203166002900480156102325780601f1061020757610100808354040283529160200191610232565b820191906000526020600020905b81548152906001019060200180831161021557829003601f168201915b5050995050505050505050505060405180910390f35b341561025357600080fd5b610341600480803590602001908201803590602001908080601f0160208091040260200160405190810160405280939291908181526020018383808284378201915050505050509190803560ff1690602001909190803560ff1690602001909190803590602001908201803590602001908080601f0160208091040260200160405190810160405280939291908181526020018383808284378201915050505050509190803590602001908201803590602001908080601f016020809104026020016040519081016040528093929190818152602001838380828437820191505050505050919050506103ba565b005b341561034e57600080fd5b61035661066c565b005b60008181548110151561036757fe5b906000526020600020906005020160009150905080600001908060010160009054906101000a900460ff16908060010160019054906101000a900460ff1690806002015490806003019080600401905086565b6000806103c684610965565b91506001600080548060010182816103de91906109da565b9160005260206000209060050201600060c0604051908101604052808c81526020018b60ff1681526020018a60ff1681526020018781526020018981526020018881525090919091506000820151816000019080519060200190610443929190610a0c565b5060208201518160010160006101000a81548160ff021916908360ff16021790555060408201518160010160016101000a81548160ff021916908360ff1602179055506060820151816002015560808201518160030190805190602001906104ac929190610a0c565b5060a08201518160040190805190602001906104c9929190610a0c565b5050500390507faef03596197d4e8ae196f437ed952eff7e900a198af13c369d51fcfb9c67ee6381888888888860405180878152602001806020018660ff1681526020018560ff1681526020018060200180602001848103845289818151815260200191508051906020019080838360005b8381101561055657808201518184015260208101905061053b565b50505050905090810190601f1680156105835780820380516001836020036101000a031916815260200191505b50848103835286818151815260200191508051906020019080838360005b838110156105bc5780820151818401526020810190506105a1565b50505050905090810190601f1680156105e95780820380516001836020036101000a031916815260200191505b50848103825285818151815260200191508051906020019080838360005b83811015610622578082015181840152602081019050610607565b50505050905090810190601f16801561064f5780820380516001836020036101000a031916815260200191505b50995050505050505050505060405180910390a150505050505050565b60008060008054905011151561068157600080fd5b600090505b600080549050811015610962577fa48bf39201a2a0c459871798185ace84b7f68548bcfcd8fb617a242eb09edede6000828154811015156106c357fe5b9060005260206000209060050201600201546000838154811015156106e457fe5b906000526020600020906005020160000160008481548110151561070457fe5b906000526020600020906005020160010160009054906101000a900460ff1660008581548110151561073257fe5b906000526020600020906005020160010160019054906101000a900460ff1660008681548110151561076057fe5b906000526020600020906005020160030160008781548110151561078057fe5b906000526020600020906005020160040160405180878152602001806020018660ff1681526020018560ff168152602001806020018060200184810384528981815460018160011615610100020316600290048152602001915080546001816001161561010002031660029004801561083a5780601f1061080f5761010080835404028352916020019161083a565b820191906000526020600020905b81548152906001019060200180831161081d57829003601f168201915b50508481038352868181546001816001161561010002031660029004815260200191508054600181600116156101000203166002900480156108bd5780601f10610892576101008083540402835291602001916108bd565b820191906000526020600020905b8154815290600101906020018083116108a057829003601f168201915b50508481038252858181546001816001161561010002031660029004815260200191508054600181600116156101000203166002900480156109405780601f1061091557610100808354040283529160200191610940565b820191906000526020600020905b81548152906001019060200180831161092357829003601f168201915b5050995050505050505050505060405180910390a18080600101915050610686565b50565b600080826040518082805190602001908083835b60208310151561099e5780518252602082019150602081019050602083039250610979565b6001836020036101000a038019825116818451168082178552505050505050905001915050604051809103902060019004905080915050919050565b815481835581811511610a0757600502816005028360005260206000209182019101610a069190610a8c565b5b505050565b828054600181600116156101000203166002900490600052602060002090601f016020900481019282601f10610a4d57805160ff1916838001178555610a7b565b82800160010185558215610a7b579182015b82811115610a7a578251825591602001919060010190610a5f565b5b509050610a889190610b0b565b5090565b610b0891905b80821115610b045760008082016000610aab9190610b30565b6001820160006101000a81549060ff02191690556001820160016101000a81549060ff02191690556002820160009055600382016000610aeb9190610b30565b600482016000610afb9190610b30565b50600501610a92565b5090565b90565b610b2d91905b80821115610b29576000816000905550600101610b11565b5090565b90565b50805460018160011615610100020316600290046000825580601f10610b565750610b75565b601f016020900490600052602060002090810190610b749190610b0b565b5b505600a165627a7a72305820bd5b1423b6cb12f21d0f859520a3328601afda0e55fb9bf962126b6a11253b5a0029",
  "source": "pragma solidity ^0.4.19;\n\ncontract Hangman {\n\n  event NewGame(uint gameId, string word, uint wager, uint tries, string userWord, string userName);\n  event PendingGame(uint gameId, string word, uint wager, uint tries, string userWord, string userName);\n\n  struct Game {\n    string word;\n    uint8 wager;\n    uint8 tries;\n    uint id;\n    string userWord;\n    string userName;\n  }\n\n  Game[] public games;\n\n  function createGame(string _word, uint8 _wager, uint8 _tries, string _userWord, string _userName) public {\n    uint randId = _generateRandomId(_userWord);\n    uint id = games.push(Game(_word, _wager, _tries, randId, _userWord, _userName)) - 1;\n    NewGame(id, _word, _wager, _tries, _userWord, _userName);\n  }\n\n  function _generateRandomId(string word) private pure returns (uint) {\n    uint rand = uint(keccak256(word));\n    return rand;\n  }\n\n  function getPendingGames() public {\n    require(games.length > 0);\n    for (uint i = 0; i < games.length; i++) {\n      PendingGame(games[i].id, games[i].word, games[i].wager, games[i].tries, games[i].userWord, games[i].userName);\n    }\n  }\n }\n",
  "sourcePath": "/Users/tysondaugherty/Desktop/funApps/ether/etherHang/contracts/Hangman.sol",
  "compiler": {
    "name": "solc",
    "version": "0.4.19+commit.c4cbbb05.Emscripten.clang"
  },
  "schemaVersion": "1.0.1",
  "updatedAt": "2018-02-23T03:05:05.532Z"
}