{
  "contractName": "Hangman",
  "abi": [
    {
      "constant": true,
      "inputs": [
        {
          "name": "",
          "type": "uint256"
        }
      ],
      "name": "games",
      "outputs": [
        {
          "name": "word",
          "type": "string"
        },
        {
          "name": "wager",
          "type": "uint8"
        },
        {
          "name": "tries",
          "type": "uint8"
        },
        {
          "name": "userWord",
          "type": "string"
        },
        {
          "name": "userName",
          "type": "string"
        },
        {
          "name": "wordLength",
          "type": "uint8"
        }
      ],
      "payable": false,
      "stateMutability": "view",
      "type": "function"
    },
    {
      "constant": true,
      "inputs": [
        {
          "name": "",
          "type": "uint256"
        }
      ],
      "name": "activeGames",
      "outputs": [
        {
          "name": "word",
          "type": "string"
        },
        {
          "name": "wager",
          "type": "uint8"
        },
        {
          "name": "maxTries",
          "type": "uint8"
        },
        {
          "name": "uniqGameString",
          "type": "string"
        },
        {
          "name": "hangman",
          "type": "string"
        },
        {
          "name": "challenger",
          "type": "string"
        },
        {
          "name": "tries",
          "type": "uint8"
        },
        {
          "name": "wordLength",
          "type": "uint8"
        }
      ],
      "payable": false,
      "stateMutability": "view",
      "type": "function"
    },
    {
      "constant": true,
      "inputs": [
        {
          "name": "",
          "type": "uint256"
        }
      ],
      "name": "idToWord",
      "outputs": [
        {
          "name": "",
          "type": "string"
        }
      ],
      "payable": false,
      "stateMutability": "view",
      "type": "function"
    },
    {
      "anonymous": false,
      "inputs": [
        {
          "indexed": false,
          "name": "gameId",
          "type": "uint256"
        },
        {
          "indexed": false,
          "name": "wager",
          "type": "uint8"
        },
        {
          "indexed": false,
          "name": "tries",
          "type": "uint8"
        },
        {
          "indexed": false,
          "name": "userName",
          "type": "string"
        },
        {
          "indexed": false,
          "name": "userWord",
          "type": "string"
        },
        {
          "indexed": false,
          "name": "wordLength",
          "type": "uint8"
        }
      ],
      "name": "NewGame",
      "type": "event"
    },
    {
      "anonymous": false,
      "inputs": [
        {
          "indexed": false,
          "name": "gameId",
          "type": "uint256"
        },
        {
          "indexed": false,
          "name": "wager",
          "type": "uint8"
        },
        {
          "indexed": false,
          "name": "tries",
          "type": "uint8"
        },
        {
          "indexed": false,
          "name": "userName",
          "type": "string"
        },
        {
          "indexed": false,
          "name": "userWord",
          "type": "string"
        },
        {
          "indexed": false,
          "name": "wordLength",
          "type": "uint8"
        }
      ],
      "name": "PendingGame",
      "type": "event"
    },
    {
      "anonymous": false,
      "inputs": [
        {
          "indexed": false,
          "name": "challenger",
          "type": "string"
        },
        {
          "indexed": false,
          "name": "hangman",
          "type": "string"
        },
        {
          "indexed": false,
          "name": "gameId",
          "type": "uint256"
        },
        {
          "indexed": false,
          "name": "wager",
          "type": "uint8"
        },
        {
          "indexed": false,
          "name": "maxTries",
          "type": "uint8"
        },
        {
          "indexed": false,
          "name": "uniqGameString",
          "type": "string"
        },
        {
          "indexed": false,
          "name": "wordLength",
          "type": "uint8"
        }
      ],
      "name": "GameStarted",
      "type": "event"
    },
    {
      "anonymous": false,
      "inputs": [
        {
          "indexed": false,
          "name": "guess",
          "type": "string"
        },
        {
          "indexed": false,
          "name": "hit",
          "type": "bool"
        },
        {
          "indexed": false,
          "name": "index",
          "type": "uint32"
        }
      ],
      "name": "SolutionGuess",
      "type": "event"
    },
    {
      "anonymous": false,
      "inputs": [
        {
          "indexed": false,
          "name": "winner",
          "type": "string"
        }
      ],
      "name": "GameWinner",
      "type": "event"
    },
    {
      "constant": false,
      "inputs": [
        {
          "name": "_word",
          "type": "string"
        },
        {
          "name": "_wager",
          "type": "uint8"
        },
        {
          "name": "_tries",
          "type": "uint8"
        },
        {
          "name": "_userWord",
          "type": "string"
        },
        {
          "name": "_userName",
          "type": "string"
        },
        {
          "name": "_wordLength",
          "type": "uint8"
        }
      ],
      "name": "createGame",
      "outputs": [],
      "payable": false,
      "stateMutability": "nonpayable",
      "type": "function"
    },
    {
      "constant": false,
      "inputs": [],
      "name": "getPendingGames",
      "outputs": [],
      "payable": false,
      "stateMutability": "nonpayable",
      "type": "function"
    },
    {
      "constant": false,
      "inputs": [
        {
          "name": "challenger",
          "type": "string"
        },
        {
          "name": "gameId",
          "type": "uint256"
        },
        {
          "name": "uniqGameString",
          "type": "string"
        },
        {
          "name": "wordLength",
          "type": "uint8"
        }
      ],
      "name": "commenceLiveGame",
      "outputs": [],
      "payable": false,
      "stateMutability": "nonpayable",
      "type": "function"
    },
    {
      "constant": false,
      "inputs": [
        {
          "name": "guess",
          "type": "string"
        },
        {
          "name": "gameId",
          "type": "uint256"
        }
      ],
      "name": "checkGuess",
      "outputs": [],
      "payable": false,
      "stateMutability": "nonpayable",
      "type": "function"
    }
  ],
  "bytecode": "0x6060604052341561000f57600080fd5b6124378061001e6000396000f300606060405260043610610083576000357c0100000000000000000000000000000000000000000000000000000000900463ffffffff168063117a5b901461008857806313e4c7141461027a5780634d83d55a1461050257806364751e101461059e578063d77eef1b146106a5578063e6b2bc141461070b578063ff6f4bc1146107c0575b600080fd5b341561009357600080fd5b6100a960048080359060200190919050506107d5565b60405180806020018760ff1660ff1681526020018660ff1660ff16815260200180602001806020018560ff1660ff16815260200184810384528a81815460018160011615610100020316600290048152602001915080546001816001161561010002031660029004801561015e5780601f106101335761010080835404028352916020019161015e565b820191906000526020600020905b81548152906001019060200180831161014157829003601f168201915b50508481038352878181546001816001161561010002031660029004815260200191508054600181600116156101000203166002900480156101e15780601f106101b6576101008083540402835291602001916101e1565b820191906000526020600020905b8154815290600101906020018083116101c457829003601f168201915b50508481038252868181546001816001161561010002031660029004815260200191508054600181600116156101000203166002900480156102645780601f1061023957610100808354040283529160200191610264565b820191906000526020600020905b81548152906001019060200180831161024757829003601f168201915b5050995050505050505050505060405180910390f35b341561028557600080fd5b61029b6004808035906020019091905050610844565b60405180806020018960ff1660ff1681526020018860ff1660ff1681526020018060200180602001806020018760ff1660ff1681526020018660ff1660ff16815260200185810385528d8181546001816001161561010002031660029004815260200191508054600181600116156101000203166002900480156103605780601f1061033557610100808354040283529160200191610360565b820191906000526020600020905b81548152906001019060200180831161034357829003601f168201915b505085810384528a8181546001816001161561010002031660029004815260200191508054600181600116156101000203166002900480156103e35780601f106103b8576101008083540402835291602001916103e3565b820191906000526020600020905b8154815290600101906020018083116103c657829003601f168201915b50508581038352898181546001816001161561010002031660029004815260200191508054600181600116156101000203166002900480156104665780601f1061043b57610100808354040283529160200191610466565b820191906000526020600020905b81548152906001019060200180831161044957829003601f168201915b50508581038252888181546001816001161561010002031660029004815260200191508054600181600116156101000203166002900480156104e95780601f106104be576101008083540402835291602001916104e9565b820191906000526020600020905b8154815290600101906020018083116104cc57829003601f168201915b50509c5050505050505050505050505060405180910390f35b341561050d57600080fd5b61052360048080359060200190919050506108cb565b6040518080602001828103825283818151815260200191508051906020019080838360005b83811015610563578082015181840152602081019050610548565b50505050905090810190601f1680156105905780820380516001836020036101000a031916815260200191505b509250505060405180910390f35b34156105a957600080fd5b6106a3600480803590602001908201803590602001908080601f0160208091040260200160405190810160405280939291908181526020018383808284378201915050505050509190803560ff1690602001909190803560ff1690602001909190803590602001908201803590602001908080601f0160208091040260200160405190810160405280939291908181526020018383808284378201915050505050509190803590602001908201803590602001908080601f0160208091040260200160405190810160405280939291908181526020018383808284378201915050505050509190803560ff1690602001909190505061097b565b005b34156106b057600080fd5b610709600480803590602001908201803590602001908080601f01602080910402602001604051908101604052809392919081815260200183838082843782019150505050505091908035906020019091905050610c0a565b005b341561071657600080fd5b6107be600480803590602001908201803590602001908080601f0160208091040260200160405190810160405280939291908181526020018383808284378201915050505050509190803590602001909190803590602001908201803590602001908080601f0160208091040260200160405190810160405280939291908181526020018383808284378201915050505050509190803560ff16906020019091905050610f94565b005b34156107cb57600080fd5b6107d3611634565b005b6000818154811015156107e457fe5b906000526020600020906005020160009150905080600001908060010160009054906101000a900460ff16908060010160019054906101000a900460ff1690806002019080600301908060040160009054906101000a900460ff16905086565b60018181548110151561085357fe5b906000526020600020906009020160009150905080600001908060010160009054906101000a900460ff16908060010160019054906101000a900460ff16908060020190806003019080600401908060050160009054906101000a900460ff16908060080160009054906101000a900460ff16905088565b60026020528060005260406000206000915090508054600181600116156101000203166002900480601f0160208091040260200160405190810160405280929190818152602001828054600181600116156101000203166002900480156109735780601f1061094857610100808354040283529160200191610973565b820191906000526020600020905b81548152906001019060200180831161095657829003601f168201915b505050505081565b60006001600080548060010182816109939190611fdf565b9160005260206000209060050201600060c0604051908101604052808c81526020018b60ff1681526020018a60ff1681526020018981526020018881526020018760ff16815250909190915060008201518160000190805190602001906109fb929190612011565b5060208201518160010160006101000a81548160ff021916908360ff16021790555060408201518160010160016101000a81548160ff021916908360ff1602179055506060820151816002019080519060200190610a5a929190612011565b506080820151816003019080519060200190610a77929190612011565b5060a08201518160040160006101000a81548160ff021916908360ff160217905550505003905086600260008381526020019081526020016000209080519060200190610ac5929190612091565b507ffa90035500eba52653bd3e7f70d8dce39e97b59fc9918ab002887d494cd292de818787868887604051808781526020018660ff1660ff1681526020018560ff1660ff16815260200180602001806020018460ff1660ff168152602001838103835286818151815260200191508051906020019080838360005b83811015610b5b578082015181840152602081019050610b40565b50505050905090810190601f168015610b885780820380516001836020036101000a031916815260200191505b50838103825285818151815260200191508051906020019080838360005b83811015610bc1578082015181840152602081019050610ba6565b50505050905090810190601f168015610bee5780820380516001836020036101000a031916815260200191505b509850505050505050505060405180910390a150505050505050565b6000610c14612111565b6000600184815481101515610c2557fe5b9060005260206000209060090201600501600081819054906101000a900460ff168092919060010191906101000a81548160ff021916908360ff1602179055505060009250600184815481101515610c7957fe5b90600052602060002090600902016000018054600181600116156101000203166002900480601f016020809104026020016040519081016040528092919081815260200182805460018160011615610100020316600290048015610d1e5780601f10610cf357610100808354040283529160200191610d1e565b820191906000526020600020905b815481529060010190602001808311610d0157829003601f168201915b50505050509150600090505b81518163ffffffff161015610f5e57846000815181101515610d4857fe5b9060200101517f010000000000000000000000000000000000000000000000000000000000000090047f0100000000000000000000000000000000000000000000000000000000000000027effffffffffffffffffffffffffffffffffffffffffffffffffffffffffffff1916828263ffffffff16815181101515610dc957fe5b9060200101517f010000000000000000000000000000000000000000000000000000000000000090047f0100000000000000000000000000000000000000000000000000000000000000027effffffffffffffffffffffffffffffffffffffffffffffffffffffffffffff19161415610f51576001925084600185815481101515610e5057fe5b90600052602060002090600902016006018263ffffffff16815481101515610e7457fe5b90600052602060002090019080519060200190610e92929190612091565b507f8696d55ed69c77973e49639ae68e35aa5413a6f73d521601bfb9a1bf27215da5856001836040518080602001841515151581526020018363ffffffff1663ffffffff168152602001828103825285818151815260200191508051906020019080838360005b83811015610f14578082015181840152602081019050610ef9565b50505050905090810190601f168015610f415780820380516001836020036101000a031916815260200191505b5094505050505060405180910390a15b8080600101915050610d2a565b600115158315151415610f7557610f74846118a5565b5b600015158315151415610f8d57610f8c8486611dde565b5b5050505050565b610f9c612111565b6000610fa6612125565b610fae612125565b600080600089815481101515610fc057fe5b90600052602060002090600502016000018054600181600116156101000203166002900480601f0160208091040260200160405190810160405280929190818152602001828054600181600116156101000203166002900480156110655780601f1061103a57610100808354040283529160200191611065565b820191906000526020600020905b81548152906001019060200180831161104857829003601f168201915b505050505095506000945060018080548060010182816110859190612139565b91600052602060002090600902016000610140604051908101604052808b815260200160008f8154811015156110b757fe5b906000526020600020906005020160010160009054906101000a900460ff1660ff16815260200160008f8154811015156110ed57fe5b906000526020600020906005020160010160019054906101000a900460ff1660ff1681526020018d815260200160008f81548110151561112957fe5b90600052602060002090600502016003018054600181600116156101000203166002900480601f0160208091040260200160405190810160405280929190818152602001828054600181600116156101000203166002900480156111ce5780601f106111a3576101008083540402835291602001916111ce565b820191906000526020600020905b8154815290600101906020018083116111b157829003601f168201915b505050505081526020018f81526020018a60ff1681526020018981526020018881526020018c60ff168152509091909150600082015181600001908051906020019061121b929190612011565b5060208201518160010160006101000a81548160ff021916908360ff16021790555060408201518160010160016101000a81548160ff021916908360ff160217905550606082015181600201908051906020019061127a929190612011565b506080820151816003019080519060200190611297929190612011565b5060a08201518160040190805190602001906112b4929190612011565b5060c08201518160050160006101000a81548160ff021916908360ff16021790555060e08201518160060190805190602001906112f292919061216b565b5061010082015181600701908051906020019061131092919061216b565b506101208201518160080160006101000a81548160ff021916908360ff16021790555050500391507f13534ab88abaf224da4728540b25ae28bafb73bf1486e8ca885b3c869738465c8a60008b81548110151561136957fe5b90600052602060002090600502016003018460008d81548110151561138a57fe5b906000526020600020906005020160010160009054906101000a900460ff1660008e8154811015156113b857fe5b906000526020600020906005020160010160019054906101000a900460ff168d8d6040518080602001806020018881526020018760ff1660ff1681526020018660ff1660ff168152602001806020018560ff1660ff16815260200184810384528b818151815260200191508051906020019080838360005b8381101561144b578082015181840152602081019050611430565b50505050905090810190601f1680156114785780820380516001836020036101000a031916815260200191505b5084810383528a8181546001816001161561010002031660029004815260200191508054600181600116156101000203166002900480156114fa5780601f106114cf576101008083540402835291602001916114fa565b820191906000526020600020905b8154815290600101906020018083116114dd57829003601f168201915b5050848103825286818151815260200191508051906020019080838360005b83811015611534578082015181840152602081019050611519565b50505050905090810190601f1680156115615780820380516001836020036101000a031916815260200191505b509a505050505050505050505060405180910390a1600090505b8660ff168163ffffffff1610156116285760018281548110151561159b57fe5b906000526020600020906009020160060180548060010182816115be91906121cb565b916000526020600020900160006040805190810160405280600181526020017f240000000000000000000000000000000000000000000000000000000000000081525090919091509080519060200190611619929190612091565b5050808060010191505061157b565b50505050505050505050565b60008060008054905011151561164957600080fd5b600090505b6000805490508110156118a2577f665ee6b7ac93e2c6a3d81ceb999e1cd3aaec0f5757768def4bfa9d5c119a6c5a8160008381548110151561168c57fe5b906000526020600020906005020160010160009054906101000a900460ff166000848154811015156116ba57fe5b906000526020600020906005020160010160019054906101000a900460ff166000858154811015156116e857fe5b906000526020600020906005020160030160008681548110151561170857fe5b906000526020600020906005020160020160008781548110151561172857fe5b906000526020600020906005020160040160009054906101000a900460ff16604051808781526020018660ff1660ff1681526020018560ff1660ff16815260200180602001806020018460ff1660ff1681526020018381038352868181546001816001161561010002031660029004815260200191508054600181600116156101000203166002900480156117fe5780601f106117d3576101008083540402835291602001916117fe565b820191906000526020600020905b8154815290600101906020018083116117e157829003601f168201915b50508381038252858181546001816001161561010002031660029004815260200191508054600181600116156101000203166002900480156118815780601f1061185657610100808354040283529160200191611881565b820191906000526020600020905b81548152906001019060200180831161186457829003601f168201915b50509850505050505050505060405180910390a1808060010191505061164e565b50565b6118ad612111565b60006118b7612111565b60006001858154811015156118c857fe5b90600052602060002090600902016000018054600181600116156101000203166002900480601f01602080910402602001604051908101604052809291908181526020018280546001816001161561010002031660029004801561196d5780601f106119425761010080835404028352916020019161196d565b820191906000526020600020905b81548152906001019060200180831161195057829003601f168201915b5050505050935060019250600090505b60018581548110151561198c57fe5b9060005260206000209060090201600601805490508163ffffffff161015611ba1576001858154811015156119bd57fe5b90600052602060002090600902016006018163ffffffff168154811015156119e157fe5b90600052602060002090018054600181600116156101000203166002900480601f016020809104026020016040519081016040528092919081815260200182805460018160011615610100020316600290048015611a805780601f10611a5557610100808354040283529160200191611a80565b820191906000526020600020905b815481529060010190602001808311611a6357829003601f168201915b50505050509150838163ffffffff16815181101515611a9b57fe5b9060200101517f010000000000000000000000000000000000000000000000000000000000000090047f0100000000000000000000000000000000000000000000000000000000000000027effffffffffffffffffffffffffffffffffffffffffffffffffffffffffffff1916826000815181101515611b1757fe5b9060200101517f010000000000000000000000000000000000000000000000000000000000000090047f0100000000000000000000000000000000000000000000000000000000000000027effffffffffffffffffffffffffffffffffffffffffffffffffffffffffffff1916141515611b945760009250611ba1565b808060010191505061197d565b600115158315151415611c87577fb609981dd10c4309ee2f55e2fd9b631438fb9d9de43270f098b64571e58352db600186815481101515611bde57fe5b90600052602060002090600902016004016040518080602001828103825283818154600181600116156101000203166002900481526020019150805460018160011615610100020316600290048015611c785780601f10611c4d57610100808354040283529160200191611c78565b820191906000526020600020905b815481529060010190602001808311611c5b57829003601f168201915b50509250505060405180910390a15b600015158315151415611dd757600185815481101515611ca357fe5b906000526020600020906009020160010160019054906101000a900460ff1660ff16600186815481101515611cd457fe5b906000526020600020906009020160050160009054906101000a900460ff1660ff16101515611dd6577fb609981dd10c4309ee2f55e2fd9b631438fb9d9de43270f098b64571e58352db600186815481101515611d2d57fe5b90600052602060002090600902016003016040518080602001828103825283818154600181600116156101000203166002900481526020019150805460018160011615610100020316600290048015611dc75780601f10611d9c57610100808354040283529160200191611dc7565b820191906000526020600020905b815481529060010190602001808311611daa57829003601f168201915b50509250505060405180910390a15b5b5050505050565b600182815481101515611ded57fe5b906000526020600020906009020160050160009054906101000a900460ff1660ff16600183815481101515611e1e57fe5b906000526020600020906009020160010160019054906101000a900460ff1660ff161115611f02577f8696d55ed69c77973e49639ae68e35aa5413a6f73d521601bfb9a1bf27215da5816000806040518080602001841515151581526020018363ffffffff168152602001828103825285818151815260200191508051906020019080838360005b83811015611ec1578082015181840152602081019050611ea6565b50505050905090810190601f168015611eee5780820380516001836020036101000a031916815260200191505b5094505050505060405180910390a1611fdb565b7fb609981dd10c4309ee2f55e2fd9b631438fb9d9de43270f098b64571e58352db600183815481101515611f3257fe5b90600052602060002090600902016003016040518080602001828103825283818154600181600116156101000203166002900481526020019150805460018160011615610100020316600290048015611fcc5780601f10611fa157610100808354040283529160200191611fcc565b820191906000526020600020905b815481529060010190602001808311611faf57829003601f168201915b50509250505060405180910390a15b5050565b81548183558181151161200c5760050281600502836000526020600020918201910161200b91906121f7565b5b505050565b828054600181600116156101000203166002900490600052602060002090601f016020900481019282601f1061205257805160ff1916838001178555612080565b82800160010185558215612080579182015b8281111561207f578251825591602001919060010190612064565b5b50905061208d9190612282565b5090565b828054600181600116156101000203166002900490600052602060002090601f016020900481019282601f106120d257805160ff1916838001178555612100565b82800160010185558215612100579182015b828111156120ff5782518255916020019190600101906120e4565b5b50905061210d9190612282565b5090565b602060405190810160405280600081525090565b602060405190810160405280600081525090565b8154818355818115116121665760090281600902836000526020600020918201910161216591906122a7565b5b505050565b8280548282559060005260206000209081019282156121ba579160200282015b828111156121b95782518290805190602001906121a9929190612011565b509160200191906001019061218b565b5b5090506121c79190612376565b5090565b8154818355818115116121f2578183600052602060002091820191016121f19190612376565b5b505050565b61227f91905b8082111561227b576000808201600061221691906123a2565b6001820160006101000a81549060ff02191690556001820160016101000a81549060ff021916905560028201600061224e91906123a2565b60038201600061225e91906123a2565b6004820160006101000a81549060ff0219169055506005016121fd565b5090565b90565b6122a491905b808211156122a0576000816000905550600101612288565b5090565b90565b61237391905b8082111561236f57600080820160006122c691906123a2565b6001820160006101000a81549060ff02191690556001820160016101000a81549060ff02191690556002820160006122fe91906123a2565b60038201600061230e91906123a2565b60048201600061231e91906123a2565b6005820160006101000a81549060ff021916905560068201600061234291906123ea565b60078201600061235291906123ea565b6008820160006101000a81549060ff0219169055506009016122ad565b5090565b90565b61239f91905b8082111561239b576000818161239291906123a2565b5060010161237c565b5090565b90565b50805460018160011615610100020316600290046000825580601f106123c857506123e7565b601f0160209004906000526020600020908101906123e69190612282565b5b50565b50805460008255906000526020600020908101906124089190612376565b505600a165627a7a72305820cd1848a8754b1cec0ed89f4fa6f39aa808e13ea5133a4648111ac001556f9b080029",
  "source": "pragma solidity ^0.4.19;\n\ncontract Hangman {\n\n  event NewGame(uint gameId, uint8 wager, uint8 tries, string userName, string userWord, uint8 wordLength);\n  event PendingGame(uint gameId, uint8 wager, uint8 tries, string userName, string userWord, uint8 wordLength);\n  event GameStarted(string challenger, string hangman, uint gameId, uint8 wager, uint8 maxTries, string uniqGameString, uint8 wordLength);\n  event SolutionGuess(string guess, bool hit, uint32 index);\n  event GameWinner(string winner);\n\n  struct Game {\n    string word;\n    uint8 wager;\n    uint8 tries;\n    string userWord;\n    string userName;\n    uint8 wordLength;\n  }\n\n  struct ActiveGame {\n    string word;\n    uint8 wager;\n    uint8 maxTries;\n    string uniqGameString;\n    string hangman;\n    string challenger;\n    uint8 tries;\n    string[] hits;\n    string[] misses;\n    uint8 wordLength;\n  }\n\n  Game[] public games;\n  ActiveGame[] public activeGames;\n  mapping(uint => string) public idToWord;\n\n  function createGame(string _word, uint8 _wager, uint8 _tries, string _userWord, string _userName, uint8 _wordLength) public {\n    uint id = games.push(Game(_word, _wager, _tries, _userWord, _userName, _wordLength)) - 1;\n    idToWord[id] = _word;\n    NewGame(id, _wager, _tries, _userName, _userWord, _wordLength);\n  }\n\n  function getPendingGames() public {\n    require(games.length > 0);\n    for(uint i = 0; i < games.length; i++) {\n      PendingGame(i, games[i].wager, games[i].tries, games[i].userName, games[i].userWord, games[i].wordLength);\n    }\n  }\n\n  function commenceLiveGame(string challenger, uint gameId, string uniqGameString, uint8 wordLength) public {\n    string memory gameWord = games[gameId].word;\n    uint8 tries = 0;\n    string[] memory hits;\n    string[] memory misses;\n    /* uint memory hitsLength = hits.length; */\n    uint id = activeGames.push(ActiveGame(gameWord, games[gameId].wager, games[gameId].tries, uniqGameString, games[gameId].userName, challenger, tries, hits, misses, wordLength)) - 1;\n    GameStarted(challenger, games[gameId].userName, id, games[gameId].wager, games[gameId].tries, uniqGameString, wordLength);\n    for (uint32 i = 0; i < wordLength; i++) {\n      activeGames[id].hits.push('$');\n    }\n  }\n\n  function checkSolved(uint gameId) private {\n    string memory gameWord = activeGames[gameId].word;\n    bool isSolution = true;\n    string memory letter;\n    for (uint32 i = 0; i < activeGames[gameId].hits.length; i++) {\n      letter = activeGames[gameId].hits[i];\n      if (bytes(letter)[0] != bytes(gameWord)[i]) {\n        isSolution = false;\n        break;\n      }\n    }\n    if (isSolution == true) {\n      GameWinner(activeGames[gameId].challenger);\n    }\n    if (isSolution == false) {\n      if (activeGames[gameId].tries >= activeGames[gameId].maxTries) {\n        GameWinner(activeGames[gameId].hangman);\n      }\n    }\n  }\n\n  function checkHanged(uint gameId, string guess) private {\n    if (activeGames[gameId].maxTries > activeGames[gameId].tries) {\n      SolutionGuess(guess, false, 0);\n    } else {\n      GameWinner(activeGames[gameId].hangman);\n    }\n  }\n\n  function checkGuess(string guess, uint gameId) public {\n    activeGames[gameId].tries++;\n    bool isHit = false;\n    string memory gameWord = activeGames[gameId].word;\n    for (uint32 i = 0; i < bytes(gameWord).length; i++) {\n      if (bytes(gameWord)[i] == bytes(guess)[0]) {\n        isHit = true;\n        activeGames[gameId].hits[i] = guess;\n        SolutionGuess(guess, true, i);\n      }\n    }\n    if (isHit == true) {\n      checkSolved(gameId);\n    }\n    if (isHit == false) {\n      checkHanged(gameId, guess);\n    }\n  }\n }\n",
  "sourcePath": "/Users/tysondaugherty/Desktop/funApps/ether/etherHang/contracts/Hangman.sol",
  "compiler": {
    "name": "solc",
    "version": "0.4.19+commit.c4cbbb05.Emscripten.clang"
  },
  "schemaVersion": "1.0.1",
  "updatedAt": "2018-02-28T17:44:21.841Z"
}