{
  "contractName": "Hangman",
  "abi": [
    {
      "constant": true,
      "inputs": [
        {
          "name": "",
          "type": "uint256"
        }
      ],
      "name": "games",
      "outputs": [
        {
          "name": "word",
          "type": "string"
        },
        {
          "name": "wager",
          "type": "uint256"
        },
        {
          "name": "tries",
          "type": "uint8"
        },
        {
          "name": "userWord",
          "type": "string"
        },
        {
          "name": "userName",
          "type": "string"
        },
        {
          "name": "wordLength",
          "type": "uint8"
        }
      ],
      "payable": false,
      "stateMutability": "view",
      "type": "function"
    },
    {
      "constant": true,
      "inputs": [
        {
          "name": "",
          "type": "uint256"
        }
      ],
      "name": "activeGames",
      "outputs": [
        {
          "name": "word",
          "type": "string"
        },
        {
          "name": "wager",
          "type": "uint256"
        },
        {
          "name": "maxTries",
          "type": "uint8"
        },
        {
          "name": "uniqGameString",
          "type": "string"
        },
        {
          "name": "hangman",
          "type": "string"
        },
        {
          "name": "challenger",
          "type": "string"
        },
        {
          "name": "tries",
          "type": "uint8"
        },
        {
          "name": "wordLength",
          "type": "uint8"
        }
      ],
      "payable": false,
      "stateMutability": "view",
      "type": "function"
    },
    {
      "constant": true,
      "inputs": [
        {
          "name": "",
          "type": "address"
        }
      ],
      "name": "activeGamesMap",
      "outputs": [
        {
          "name": "",
          "type": "uint256"
        }
      ],
      "payable": false,
      "stateMutability": "view",
      "type": "function"
    },
    {
      "constant": true,
      "inputs": [
        {
          "name": "",
          "type": "uint256"
        }
      ],
      "name": "idToWord",
      "outputs": [
        {
          "name": "",
          "type": "string"
        }
      ],
      "payable": false,
      "stateMutability": "view",
      "type": "function"
    },
    {
      "constant": false,
      "inputs": [],
      "name": "getActiveGame",
      "outputs": [],
      "payable": false,
      "stateMutability": "nonpayable",
      "type": "function"
    },
    {
      "constant": false,
      "inputs": [
        {
          "name": "guess",
          "type": "string"
        },
        {
          "name": "gameId",
          "type": "uint256"
        }
      ],
      "name": "checkGuess",
      "outputs": [],
      "payable": false,
      "stateMutability": "nonpayable",
      "type": "function"
    },
    {
      "constant": false,
      "inputs": [
        {
          "name": "challenger",
          "type": "string"
        },
        {
          "name": "gameId",
          "type": "uint256"
        },
        {
          "name": "uniqGameString",
          "type": "string"
        },
        {
          "name": "wordLength",
          "type": "uint8"
        }
      ],
      "name": "commenceLiveGame",
      "outputs": [],
      "payable": false,
      "stateMutability": "nonpayable",
      "type": "function"
    },
    {
      "payable": true,
      "stateMutability": "payable",
      "type": "fallback"
    },
    {
      "anonymous": false,
      "inputs": [
        {
          "indexed": false,
          "name": "contractAddress",
          "type": "address"
        },
        {
          "indexed": false,
          "name": "wager",
          "type": "uint256"
        },
        {
          "indexed": false,
          "name": "success",
          "type": "bool"
        }
      ],
      "name": "FundTransfer",
      "type": "event"
    },
    {
      "anonymous": false,
      "inputs": [
        {
          "indexed": false,
          "name": "challenger",
          "type": "string"
        },
        {
          "indexed": false,
          "name": "hangman",
          "type": "string"
        },
        {
          "indexed": false,
          "name": "wager",
          "type": "uint256"
        },
        {
          "indexed": false,
          "name": "maxTries",
          "type": "uint8"
        },
        {
          "indexed": false,
          "name": "uniqGameString",
          "type": "string"
        },
        {
          "indexed": false,
          "name": "wordLength",
          "type": "uint8"
        },
        {
          "indexed": false,
          "name": "tries",
          "type": "uint8"
        },
        {
          "indexed": false,
          "name": "gameId",
          "type": "uint256"
        }
      ],
      "name": "ActiveGameDetails",
      "type": "event"
    },
    {
      "anonymous": false,
      "inputs": [
        {
          "indexed": false,
          "name": "letter",
          "type": "string"
        },
        {
          "indexed": false,
          "name": "index",
          "type": "uint32"
        }
      ],
      "name": "SolutionCheck",
      "type": "event"
    },
    {
      "anonymous": false,
      "inputs": [
        {
          "indexed": false,
          "name": "letter",
          "type": "string"
        },
        {
          "indexed": false,
          "name": "index",
          "type": "uint32"
        }
      ],
      "name": "MissesCheck",
      "type": "event"
    },
    {
      "anonymous": false,
      "inputs": [
        {
          "indexed": false,
          "name": "challenger",
          "type": "string"
        },
        {
          "indexed": false,
          "name": "hangman",
          "type": "string"
        },
        {
          "indexed": false,
          "name": "gameId",
          "type": "uint256"
        },
        {
          "indexed": false,
          "name": "wager",
          "type": "uint256"
        },
        {
          "indexed": false,
          "name": "maxTries",
          "type": "uint8"
        },
        {
          "indexed": false,
          "name": "uniqGameString",
          "type": "string"
        },
        {
          "indexed": false,
          "name": "wordLength",
          "type": "uint8"
        }
      ],
      "name": "GameStarted",
      "type": "event"
    },
    {
      "anonymous": false,
      "inputs": [
        {
          "indexed": false,
          "name": "guess",
          "type": "string"
        },
        {
          "indexed": false,
          "name": "hit",
          "type": "bool"
        },
        {
          "indexed": false,
          "name": "index",
          "type": "uint32"
        },
        {
          "indexed": false,
          "name": "tries",
          "type": "uint8"
        }
      ],
      "name": "SolutionGuess",
      "type": "event"
    },
    {
      "anonymous": false,
      "inputs": [
        {
          "indexed": false,
          "name": "winner",
          "type": "string"
        },
        {
          "indexed": false,
          "name": "word",
          "type": "string"
        },
        {
          "indexed": false,
          "name": "loser",
          "type": "string"
        }
      ],
      "name": "GameWinner",
      "type": "event"
    },
    {
      "anonymous": false,
      "inputs": [
        {
          "indexed": false,
          "name": "gameId",
          "type": "uint256"
        },
        {
          "indexed": false,
          "name": "wager",
          "type": "uint256"
        },
        {
          "indexed": false,
          "name": "tries",
          "type": "uint8"
        },
        {
          "indexed": false,
          "name": "userName",
          "type": "string"
        },
        {
          "indexed": false,
          "name": "userWord",
          "type": "string"
        },
        {
          "indexed": false,
          "name": "wordLength",
          "type": "uint8"
        }
      ],
      "name": "NewGame",
      "type": "event"
    },
    {
      "anonymous": false,
      "inputs": [
        {
          "indexed": false,
          "name": "gameId",
          "type": "uint256"
        },
        {
          "indexed": false,
          "name": "wager",
          "type": "uint256"
        },
        {
          "indexed": false,
          "name": "tries",
          "type": "uint8"
        },
        {
          "indexed": false,
          "name": "userName",
          "type": "string"
        },
        {
          "indexed": false,
          "name": "userWord",
          "type": "string"
        },
        {
          "indexed": false,
          "name": "wordLength",
          "type": "uint8"
        }
      ],
      "name": "PendingGames",
      "type": "event"
    },
    {
      "anonymous": false,
      "inputs": [
        {
          "indexed": false,
          "name": "userWord",
          "type": "string"
        }
      ],
      "name": "RemovePendingGame",
      "type": "event"
    },
    {
      "constant": false,
      "inputs": [
        {
          "name": "_word",
          "type": "string"
        },
        {
          "name": "_wager",
          "type": "uint256"
        },
        {
          "name": "_tries",
          "type": "uint8"
        },
        {
          "name": "_userWord",
          "type": "string"
        },
        {
          "name": "_userName",
          "type": "string"
        },
        {
          "name": "_wordLength",
          "type": "uint8"
        }
      ],
      "name": "createGame",
      "outputs": [],
      "payable": true,
      "stateMutability": "payable",
      "type": "function"
    },
    {
      "constant": false,
      "inputs": [],
      "name": "getPendingGames",
      "outputs": [],
      "payable": false,
      "stateMutability": "nonpayable",
      "type": "function"
    }
  ],
  "bytecode": "0x606060405260008060006101000a81548163ffffffff021916908363ffffffff160217905550341561003057600080fd5b613cc08061003f6000396000f300606060405260043610610099576000357c0100000000000000000000000000000000000000000000000000000000900463ffffffff16806303ba9f251461009b578063117a5b901461019457806313e4c714146103805780632ec1c017146106025780634d83d55a1461064f578063957b5fb4146106eb578063d77eef1b14610700578063e6b2bc1414610766578063ff6f4bc11461081b575b005b610192600480803590602001908201803590602001908080601f0160208091040260200160405190810160405280939291908181526020018383808284378201915050505050509190803590602001909190803560ff1690602001909190803590602001908201803590602001908080601f0160208091040260200160405190810160405280939291908181526020018383808284378201915050505050509190803590602001908201803590602001908080601f0160208091040260200160405190810160405280939291908181526020018383808284378201915050505050509190803560ff16906020019091905050610830565b005b341561019f57600080fd5b6101b560048080359060200190919050506108fe565b60405180806020018781526020018660ff1660ff16815260200180602001806020018560ff1660ff16815260200184810384528a8181546001816001161561010002031660029004815260200191508054600181600116156101000203166002900480156102645780601f1061023957610100808354040283529160200191610264565b820191906000526020600020905b81548152906001019060200180831161024757829003601f168201915b50508481038352878181546001816001161561010002031660029004815260200191508054600181600116156101000203166002900480156102e75780601f106102bc576101008083540402835291602001916102e7565b820191906000526020600020905b8154815290600101906020018083116102ca57829003601f168201915b505084810382528681815460018160011615610100020316600290048152602001915080546001816001161561010002031660029004801561036a5780601f1061033f5761010080835404028352916020019161036a565b820191906000526020600020905b81548152906001019060200180831161034d57829003601f168201915b5050995050505050505050505060405180910390f35b341561038b57600080fd5b6103a16004808035906020019091905050610960565b60405180806020018981526020018860ff1660ff1681526020018060200180602001806020018760ff1660ff1681526020018660ff1660ff16815260200185810385528d8181546001816001161561010002031660029004815260200191508054600181600116156101000203166002900480156104605780601f1061043557610100808354040283529160200191610460565b820191906000526020600020905b81548152906001019060200180831161044357829003601f168201915b505085810384528a8181546001816001161561010002031660029004815260200191508054600181600116156101000203166002900480156104e35780601f106104b8576101008083540402835291602001916104e3565b820191906000526020600020905b8154815290600101906020018083116104c657829003601f168201915b50508581038352898181546001816001161561010002031660029004815260200191508054600181600116156101000203166002900480156105665780601f1061053b57610100808354040283529160200191610566565b820191906000526020600020905b81548152906001019060200180831161054957829003601f168201915b50508581038252888181546001816001161561010002031660029004815260200191508054600181600116156101000203166002900480156105e95780601f106105be576101008083540402835291602001916105e9565b820191906000526020600020905b8154815290600101906020018083116105cc57829003601f168201915b50509c5050505050505050505050505060405180910390f35b341561060d57600080fd5b610639600480803573ffffffffffffffffffffffffffffffffffffffff169060200190919050506109da565b6040518082815260200191505060405180910390f35b341561065a57600080fd5b61067060048080359060200190919050506109f2565b6040518080602001828103825283818151815260200191508051906020019080838360005b838110156106b0578082015181840152602081019050610695565b50505050905090810190601f1680156106dd5780820380516001836020036101000a031916815260200191505b509250505060405180910390f35b34156106f657600080fd5b6106fe610aa2565b005b341561070b57600080fd5b610764600480803590602001908201803590602001908080601f01602080910402602001604051908101604052809392919081815260200183838082843782019150505050505091908035906020019091905050610f86565b005b341561077157600080fd5b610819600480803590602001908201803590602001908080601f0160208091040260200160405190810160405280939291908181526020018383808284378201915050505050509190803590602001909190803590602001908201803590602001908080601f0160208091040260200160405190810160405280939291908181526020018383808284378201915050505050509190803560ff16906020019091905050611370565b005b341561082657600080fd5b61082e61193f565b005b3073ffffffffffffffffffffffffffffffffffffffff166108fc349081150290604051600060405180830381858888f193505050501561087d57610878868686868686611bd7565b6108f6565b7fe842aea7a5f1b01049d752008c53c52890b1a6daf660cf39e8eec506112bbdf630346000604051808473ffffffffffffffffffffffffffffffffffffffff1673ffffffffffffffffffffffffffffffffffffffff16815260200183815260200182151515158152602001935050505060405180910390a15b505050505050565b60018181548110151561090d57fe5b906000526020600020906006020160009150905080600001908060010154908060020160009054906101000a900460ff1690806003019080600401908060050160009054906101000a900460ff16905086565b60038181548110151561096f57fe5b90600052602060002090600a020160009150905080600001908060010154908060020160009054906101000a900460ff16908060030190806004019080600501908060060160009054906101000a900460ff16908060090160009054906101000a900460ff16905088565b60046020528060005260406000206000915090505481565b60026020528060005260406000206000915090508054600181600116156101000203166002900480601f016020809104026020016040519081016040528092919081815260200182805460018160011615610100020316600290048015610a9a5780601f10610a6f57610100808354040283529160200191610a9a565b820191906000526020600020905b815481529060010190602001808311610a7d57829003601f168201915b505050505081565b6000610aad33612017565b90507fdcc734248b9e9bcfcbd1187acf9d439e66a0c2b499a0f417d9826384973aad0a6003600460003373ffffffffffffffffffffffffffffffffffffffff1673ffffffffffffffffffffffffffffffffffffffff16815260200190815260200160002054815481101515610b1e57fe5b90600052602060002090600a02016005016003600460003373ffffffffffffffffffffffffffffffffffffffff1673ffffffffffffffffffffffffffffffffffffffff16815260200190815260200160002054815481101515610b7d57fe5b90600052602060002090600a02016004016003600460003373ffffffffffffffffffffffffffffffffffffffff1673ffffffffffffffffffffffffffffffffffffffff16815260200190815260200160002054815481101515610bdc57fe5b90600052602060002090600a0201600101546003600460003373ffffffffffffffffffffffffffffffffffffffff1673ffffffffffffffffffffffffffffffffffffffff16815260200190815260200160002054815481101515610c3c57fe5b90600052602060002090600a020160020160009054906101000a900460ff166003600460003373ffffffffffffffffffffffffffffffffffffffff1673ffffffffffffffffffffffffffffffffffffffff16815260200190815260200160002054815481101515610ca957fe5b90600052602060002090600a02016003016003600460003373ffffffffffffffffffffffffffffffffffffffff1673ffffffffffffffffffffffffffffffffffffffff16815260200190815260200160002054815481101515610d0857fe5b90600052602060002090600a020160090160009054906101000a900460ff166003600460003373ffffffffffffffffffffffffffffffffffffffff1673ffffffffffffffffffffffffffffffffffffffff16815260200190815260200160002054815481101515610d7557fe5b90600052602060002090600a020160060160009054906101000a900460ff16886040518080602001806020018981526020018860ff1660ff168152602001806020018760ff1660ff1681526020018660ff1660ff16815260200185815260200184810384528c818154600181600116156101000203166002900481526020019150805460018160011615610100020316600290048015610e565780601f10610e2b57610100808354040283529160200191610e56565b820191906000526020600020905b815481529060010190602001808311610e3957829003601f168201915b505084810383528b818154600181600116156101000203166002900481526020019150805460018160011615610100020316600290048015610ed95780601f10610eae57610100808354040283529160200191610ed9565b820191906000526020600020905b815481529060010190602001808311610ebc57829003601f168201915b5050848103825288818154600181600116156101000203166002900481526020019150805460018160011615610100020316600290048015610f5c5780601f10610f3157610100808354040283529160200191610f5c565b820191906000526020600020905b815481529060010190602001808311610f3f57829003601f168201915b50509b50505050505050505050505060405180910390a1610f7b612060565b610f836123f8565b50565b6000610f90613880565b6000600384815481101515610fa157fe5b90600052602060002090600a0201600601600081819054906101000a900460ff168092919060010191906101000a81548160ff021916908360ff1602179055505060009250600384815481101515610ff557fe5b90600052602060002090600a02016000018054600181600116156101000203166002900480601f01602080910402602001604051908101604052809291908181526020018280546001816001161561010002031660029004801561109a5780601f1061106f5761010080835404028352916020019161109a565b820191906000526020600020905b81548152906001019060200180831161107d57829003601f168201915b505050505091506001855111156110ba576110b585856125c7565b611369565b60018551141561136857600090505b81518163ffffffff161015611338578460008151811015156110e757fe5b9060200101517f010000000000000000000000000000000000000000000000000000000000000090047f0100000000000000000000000000000000000000000000000000000000000000027effffffffffffffffffffffffffffffffffffffffffffffffffffffffffffff1916828263ffffffff1681518110151561116857fe5b9060200101517f010000000000000000000000000000000000000000000000000000000000000090047f0100000000000000000000000000000000000000000000000000000000000000027effffffffffffffffffffffffffffffffffffffffffffffffffffffffffffff1916141561132b5760019250846003858154811015156111ef57fe5b90600052602060002090600a02016007018263ffffffff1681548110151561121357fe5b90600052602060002090019080519060200190611231929190613894565b507f0174af177ef003e33d855a98d075068cfba2f53c781348a9c6e4bb185a6245ee8560018360038881548110151561126657fe5b90600052602060002090600a020160060160009054906101000a900460ff166040518080602001851515151581526020018463ffffffff1663ffffffff1681526020018360ff1660ff168152602001828103825286818151815260200191508051906020019080838360005b838110156112ed5780820151818401526020810190506112d2565b50505050905090810190601f16801561131a5780820380516001836020036101000a031916815260200191505b509550505050505060405180910390a15b80806001019150506110c9565b60011515831515141561134f5761134e84612a27565b5b600015158315151415611367576113668486613204565b5b5b5b5050505050565b611378613880565b6000611382613914565b61138a613914565b600060018881548110151561139b57fe5b90600052602060002090600602016000018054600181600116156101000203166002900480601f0160208091040260200160405190810160405280929190818152602001828054600181600116156101000203166002900480156114405780601f1061141557610100808354040283529160200191611440565b820191906000526020600020905b81548152906001019060200180831161142357829003601f168201915b50505050509450600093506001600380548060010182816114619190613928565b91600052602060002090600a02016000610140604051908101604052808a815260200160018e81548110151561149357fe5b906000526020600020906006020160010154815260200160018e8154811015156114b957fe5b906000526020600020906006020160020160009054906101000a900460ff1660ff1681526020018c815260200160018e8154811015156114f557fe5b90600052602060002090600602016004018054600181600116156101000203166002900480601f01602080910402602001604051908101604052809291908181526020018280546001816001161561010002031660029004801561159a5780601f1061156f5761010080835404028352916020019161159a565b820191906000526020600020905b81548152906001019060200180831161157d57829003601f168201915b505050505081526020018e81526020018960ff1681526020018881526020018781526020018b60ff16815250909190915060008201518160000190805190602001906115e792919061395a565b506020820151816001015560408201518160020160006101000a81548160ff021916908360ff160217905550606082015181600301908051906020019061162f92919061395a565b50608082015181600401908051906020019061164c92919061395a565b5060a082015181600501908051906020019061166992919061395a565b5060c08201518160060160006101000a81548160ff021916908360ff16021790555060e08201518160070190805190602001906116a79291906139da565b506101008201518160080190805190602001906116c59291906139da565b506101208201518160090160006101000a81548160ff021916908360ff16021790555050500390507f746ffb8547cf17810666c7e53b35fce56fdadb9c4b4d5882ce3746334fdfe6528960018a81548110151561171e57fe5b90600052602060002090600602016004018360018c81548110151561173f57fe5b90600052602060002090600602016001015460018d81548110151561176057fe5b906000526020600020906006020160020160009054906101000a900460ff168c8c6040518080602001806020018881526020018781526020018660ff1660ff168152602001806020018560ff1660ff16815260200184810384528b818151815260200191508051906020019080838360005b838110156117ed5780820151818401526020810190506117d2565b50505050905090810190601f16801561181a5780820380516001836020036101000a031916815260200191505b5084810383528a81815460018160011615610100020316600290048152602001915080546001816001161561010002031660029004801561189c5780601f106118715761010080835404028352916020019161189c565b820191906000526020600020905b81548152906001019060200180831161187f57829003601f168201915b5050848103825286818151815260200191508051906020019080838360005b838110156118d65780820151818401526020810190506118bb565b50505050905090810190601f1680156119035780820380516001836020036101000a031916815260200191505b509a505050505050505050505060405180910390a161192286826135ec565b61192b816136a4565b611934886136eb565b505050505050505050565b60008060018054905011151561195457600080fd5b600090505b600180549050811015611bd457600060018281548110151561197757fe5b906000526020600020906006020160050160009054906101000a900460ff1660ff161115611bc7577f9cbf83e013851580a003e19a3d4865911117cc61084c3de99cc6cca3c30badc2816001838154811015156119d057fe5b9060005260206000209060060201600101546001848154811015156119f157fe5b906000526020600020906006020160020160009054906101000a900460ff16600185815481101515611a1f57fe5b9060005260206000209060060201600401600186815481101515611a3f57fe5b9060005260206000209060060201600301600187815481101515611a5f57fe5b906000526020600020906006020160050160009054906101000a900460ff16604051808781526020018681526020018560ff1660ff16815260200180602001806020018460ff1660ff168152602001838103835286818154600181600116156101000203166002900481526020019150805460018160011615610100020316600290048015611b2f5780601f10611b0457610100808354040283529160200191611b2f565b820191906000526020600020905b815481529060010190602001808311611b1257829003601f168201915b5050838103825285818154600181600116156101000203166002900481526020019150805460018160011615610100020316600290048015611bb25780601f10611b8757610100808354040283529160200191611bb2565b820191906000526020600020905b815481529060010190602001808311611b9557829003601f168201915b50509850505050505050505060405180910390a15b8080600101915050611959565b50565b60008060016000809054906101000a900463ffffffff1663ffffffff161015611d05576001808054806001018281611c0f9190613a3a565b9160005260206000209060060201600060c0604051908101604052808d81526020018c81526020018b60ff1681526020018a81526020018981526020018860ff1681525090919091506000820151816000019080519060200190611c7492919061395a565b506020820151816001015560408201518160020160006101000a81548160ff021916908360ff1602179055506060820151816003019080519060200190611cbc92919061395a565b506080820151816004019080519060200190611cd992919061395a565b5060a08201518160050160006101000a81548160ff021916908360ff1602179055505050039150611eb0565b600090505b6001805490508163ffffffff161015611eaf57600060018263ffffffff16815481101515611d3457fe5b906000526020600020906006020160050160009054906101000a900460ff1660ff161415611ea25760c0604051908101604052808981526020018881526020018760ff1681526020018681526020018581526020018460ff1681525060018263ffffffff16815481101515611da557fe5b90600052602060002090600602016000820151816000019080519060200190611dcf92919061395a565b506020820151816001015560408201518160020160006101000a81548160ff021916908360ff1602179055506060820151816003019080519060200190611e1792919061395a565b506080820151816004019080519060200190611e3492919061395a565b5060a08201518160050160006101000a81548160ff021916908360ff1602179055509050508063ffffffff16915060008081819054906101000a900463ffffffff16809291906001900391906101000a81548163ffffffff021916908363ffffffff16021790555050611eaf565b8080600101915050611d0a565b5b87600260008481526020019081526020016000209080519060200190611ed7929190613894565b507f8c9e64e9e1f765e64747f8c270dd5afeb69e372f71575657d5d1b260ee9ccf51828888878988604051808781526020018681526020018560ff1660ff16815260200180602001806020018460ff1660ff168152602001838103835286818151815260200191508051906020019080838360005b83811015611f67578082015181840152602081019050611f4c565b50505050905090810190601f168015611f945780820380516001836020036101000a031916815260200191505b50838103825285818151815260200191508051906020019080838360005b83811015611fcd578082015181840152602081019050611fb2565b50505050905090810190601f168015611ffa5780820380516001836020036101000a031916815260200191505b509850505050505050505060405180910390a15050505050505050565b6000600460008373ffffffffffffffffffffffffffffffffffffffff1673ffffffffffffffffffffffffffffffffffffffff168152602001908152602001600020549050919050565b612068613880565b60006040805190810160405280600181526020017f24000000000000000000000000000000000000000000000000000000000000008152509150600090505b6003600460003373ffffffffffffffffffffffffffffffffffffffff1673ffffffffffffffffffffffffffffffffffffffff168152602001908152602001600020548154811015156120f557fe5b90600052602060002090600a0201600701805490508163ffffffff1610156123f45781600081518110151561212657fe5b9060200101517f010000000000000000000000000000000000000000000000000000000000000090047f0100000000000000000000000000000000000000000000000000000000000000027effffffffffffffffffffffffffffffffffffffffffffffffffffffffffffff19166003600460003373ffffffffffffffffffffffffffffffffffffffff1673ffffffffffffffffffffffffffffffffffffffff168152602001908152602001600020548154811015156121e157fe5b90600052602060002090600a02016007018263ffffffff1681548110151561220557fe5b90600052602060002090016000815460018160011615610100020316600290048110151561222f57fe5b81546001161561224e5790600052602060002090602091828204019190065b9054901a7f0100000000000000000000000000000000000000000000000000000000000000027effffffffffffffffffffffffffffffffffffffffffffffffffffffffffffff19161415156123e7577f79cf4eb0d6305e4d55a4c2df65998d7b62c2a406f83d5f6e14d131db42bb70ab6003600460003373ffffffffffffffffffffffffffffffffffffffff1673ffffffffffffffffffffffffffffffffffffffff1681526020019081526020016000205481548110151561230c57fe5b90600052602060002090600a02016007018263ffffffff1681548110151561233057fe5b90600052602060002090018260405180806020018363ffffffff1663ffffffff1681526020018281038252848181546001816001161561010002031660029004815260200191508054600181600116156101000203166002900480156123d75780601f106123ac576101008083540402835291602001916123d7565b820191906000526020600020905b8154815290600101906020018083116123ba57829003601f168201915b5050935050505060405180910390a15b80806001019150506120a7565b5050565b60008090505b6003600460003373ffffffffffffffffffffffffffffffffffffffff1673ffffffffffffffffffffffffffffffffffffffff1681526020019081526020016000205481548110151561244c57fe5b90600052602060002090600a0201600801805490508163ffffffff1610156125c4577fd230b39ddf0abb4c478d27f0f161bdd2f200ace6304f4a87d588c44a3fa35e8c6003600460003373ffffffffffffffffffffffffffffffffffffffff1673ffffffffffffffffffffffffffffffffffffffff168152602001908152602001600020548154811015156124dd57fe5b90600052602060002090600a02016008018263ffffffff1681548110151561250157fe5b90600052602060002090018260405180806020018363ffffffff1663ffffffff1681526020018281038252848181546001816001161561010002031660029004815260200191508054600181600116156101000203166002900480156125a85780601f1061257d576101008083540402835291602001916125a8565b820191906000526020600020905b81548152906001019060200180831161258b57829003601f168201915b5050935050505060405180910390a180806001019150506123fe565b50565b6125cf613880565b6000806003848154811015156125e157fe5b90600052602060002090600a02016000018054600181600116156101000203166002900480601f0160208091040260200160405190810160405280929190818152602001828054600181600116156101000203166002900480156126865780601f1061265b57610100808354040283529160200191612686565b820191906000526020600020905b81548152906001019060200180831161266957829003601f168201915b5050505050925060019150845183511415612a1557600090505b82518163ffffffff1610156127d857848163ffffffff168151811015156126c357fe5b9060200101517f010000000000000000000000000000000000000000000000000000000000000090047f0100000000000000000000000000000000000000000000000000000000000000027effffffffffffffffffffffffffffffffffffffffffffffffffffffffffffff1916838263ffffffff1681518110151561274457fe5b9060200101517f010000000000000000000000000000000000000000000000000000000000000090047f0100000000000000000000000000000000000000000000000000000000000000027effffffffffffffffffffffffffffffffffffffffffffffffffffffffffffff19161415156127cb57600091506127c68486613204565b6127d8565b80806001019150506126a0565b600115158215151415612a10577fffedf7f8820dde2d4b397a1fc7d384e98b9e4a78a9da7bd4352fe2340d0bf65b60038581548110151561281557fe5b90600052602060002090600a020160050160038681548110151561283557fe5b90600052602060002090600a020160000160038781548110151561285557fe5b90600052602060002090600a0201600401604051808060200180602001806020018481038452878181546001816001161561010002031660029004815260200191508054600181600116156101000203166002900480156128f75780601f106128cc576101008083540402835291602001916128f7565b820191906000526020600020905b8154815290600101906020018083116128da57829003601f168201915b505084810383528681815460018160011615610100020316600290048152602001915080546001816001161561010002031660029004801561297a5780601f1061294f5761010080835404028352916020019161297a565b820191906000526020600020905b81548152906001019060200180831161295d57829003601f168201915b50508481038252858181546001816001161561010002031660029004815260200191508054600181600116156101000203166002900480156129fd5780601f106129d2576101008083540402835291602001916129fd565b820191906000526020600020905b8154815290600101906020018083116129e057829003601f168201915b5050965050505050505060405180910390a15b612a20565b612a1f8486613204565b5b5050505050565b612a2f613880565b6000612a39613880565b6000600385815481101515612a4a57fe5b90600052602060002090600a02016000018054600181600116156101000203166002900480601f016020809104026020016040519081016040528092919081815260200182805460018160011615610100020316600290048015612aef5780601f10612ac457610100808354040283529160200191612aef565b820191906000526020600020905b815481529060010190602001808311612ad257829003601f168201915b5050505050935060019250600090505b600385815481101515612b0e57fe5b90600052602060002090600a0201600701805490508163ffffffff161015612d2357600385815481101515612b3f57fe5b90600052602060002090600a02016007018163ffffffff16815481101515612b6357fe5b90600052602060002090018054600181600116156101000203166002900480601f016020809104026020016040519081016040528092919081815260200182805460018160011615610100020316600290048015612c025780601f10612bd757610100808354040283529160200191612c02565b820191906000526020600020905b815481529060010190602001808311612be557829003601f168201915b50505050509150838163ffffffff16815181101515612c1d57fe5b9060200101517f010000000000000000000000000000000000000000000000000000000000000090047f0100000000000000000000000000000000000000000000000000000000000000027effffffffffffffffffffffffffffffffffffffffffffffffffffffffffffff1916826000815181101515612c9957fe5b9060200101517f010000000000000000000000000000000000000000000000000000000000000090047f0100000000000000000000000000000000000000000000000000000000000000027effffffffffffffffffffffffffffffffffffffffffffffffffffffffffffff1916141515612d165760009250612d23565b8080600101915050612aff565b600115158315151415612f5b577fffedf7f8820dde2d4b397a1fc7d384e98b9e4a78a9da7bd4352fe2340d0bf65b600386815481101515612d6057fe5b90600052602060002090600a0201600501600387815481101515612d8057fe5b90600052602060002090600a0201600001600388815481101515612da057fe5b90600052602060002090600a020160040160405180806020018060200180602001848103845287818154600181600116156101000203166002900481526020019150805460018160011615610100020316600290048015612e425780601f10612e1757610100808354040283529160200191612e42565b820191906000526020600020905b815481529060010190602001808311612e2557829003601f168201915b5050848103835286818154600181600116156101000203166002900481526020019150805460018160011615610100020316600290048015612ec55780601f10612e9a57610100808354040283529160200191612ec5565b820191906000526020600020905b815481529060010190602001808311612ea857829003601f168201915b5050848103825285818154600181600116156101000203166002900481526020019150805460018160011615610100020316600290048015612f485780601f10612f1d57610100808354040283529160200191612f48565b820191906000526020600020905b815481529060010190602001808311612f2b57829003601f168201915b5050965050505050505060405180910390a15b6000151583151514156131fd57600385815481101515612f7757fe5b90600052602060002090600a020160020160009054906101000a900460ff1660ff16600386815481101515612fa857fe5b90600052602060002090600a020160060160009054906101000a900460ff1660ff161015156131fc577fffedf7f8820dde2d4b397a1fc7d384e98b9e4a78a9da7bd4352fe2340d0bf65b60038681548110151561300157fe5b90600052602060002090600a020160040160038781548110151561302157fe5b90600052602060002090600a020160000160038881548110151561304157fe5b90600052602060002090600a0201600501604051808060200180602001806020018481038452878181546001816001161561010002031660029004815260200191508054600181600116156101000203166002900480156130e35780601f106130b8576101008083540402835291602001916130e3565b820191906000526020600020905b8154815290600101906020018083116130c657829003601f168201915b50508481038352868181546001816001161561010002031660029004815260200191508054600181600116156101000203166002900480156131665780601f1061313b57610100808354040283529160200191613166565b820191906000526020600020905b81548152906001019060200180831161314957829003601f168201915b50508481038252858181546001816001161561010002031660029004815260200191508054600181600116156101000203166002900480156131e95780601f106131be576101008083540402835291602001916131e9565b820191906000526020600020905b8154815290600101906020018083116131cc57829003601f168201915b5050965050505050505060405180910390a15b5b5050505050565b60038281548110151561321357fe5b90600052602060002090600a020160060160009054906101000a900460ff1660ff1660038381548110151561324457fe5b90600052602060002090600a020160020160009054906101000a900460ff1660ff1611156133bd577f0174af177ef003e33d855a98d075068cfba2f53c781348a9c6e4bb185a6245ee816000806003868154811015156132a057fe5b90600052602060002090600a020160060160009054906101000a900460ff166040518080602001851515151581526020018463ffffffff1681526020018360ff1660ff168152602001828103825286818151815260200191508051906020019080838360005b83811015613321578082015181840152602081019050613306565b50505050905090810190601f16801561334e5780820380516001836020036101000a031916815260200191505b509550505050505060405180910390a160038281548110151561336d57fe5b90600052602060002090600a020160080180548060010182816133909190613a6c565b9160005260206000209001600083909190915090805190602001906133b6929190613894565b50506135e8565b7fffedf7f8820dde2d4b397a1fc7d384e98b9e4a78a9da7bd4352fe2340d0bf65b6003838154811015156133ed57fe5b90600052602060002090600a020160040160038481548110151561340d57fe5b90600052602060002090600a020160000160038581548110151561342d57fe5b90600052602060002090600a0201600501604051808060200180602001806020018481038452878181546001816001161561010002031660029004815260200191508054600181600116156101000203166002900480156134cf5780601f106134a4576101008083540402835291602001916134cf565b820191906000526020600020905b8154815290600101906020018083116134b257829003601f168201915b50508481038352868181546001816001161561010002031660029004815260200191508054600181600116156101000203166002900480156135525780601f1061352757610100808354040283529160200191613552565b820191906000526020600020905b81548152906001019060200180831161353557829003601f168201915b50508481038252858181546001816001161561010002031660029004815260200191508054600181600116156101000203166002900480156135d55780601f106135aa576101008083540402835291602001916135d5565b820191906000526020600020905b8154815290600101906020018083116135b857829003601f168201915b5050965050505050505060405180910390a15b5050565b60008090505b8260ff168163ffffffff16101561369f5760038281548110151561361257fe5b90600052602060002090600a020160070180548060010182816136359190613a6c565b916000526020600020900160006040805190810160405280600181526020017f240000000000000000000000000000000000000000000000000000000000000081525090919091509080519060200190613690929190613894565b505080806001019150506135f2565b505050565b80600460003373ffffffffffffffffffffffffffffffffffffffff1673ffffffffffffffffffffffffffffffffffffffff1681526020019081526020016000208190555050565b7f3c292ea39929efc9883230ce64b1d2bc9218bb71cb8a754ff1cb2dae6aad084660018281548110151561371b57fe5b906000526020600020906006020160030160405180806020018281038252838181546001816001161561010002031660029004815260200191508054600181600116156101000203166002900480156137b55780601f1061378a576101008083540402835291602001916137b5565b820191906000526020600020905b81548152906001019060200180831161379857829003601f168201915b50509250505060405180910390a16001818154811015156137d257fe5b9060005260206000209060060201600080820160006137f19190613a98565b60018201600090556002820160006101000a81549060ff021916905560038201600061381d9190613a98565b60048201600061382d9190613a98565b6005820160006101000a81549060ff0219169055505060008081819054906101000a900463ffffffff168092919060010191906101000a81548163ffffffff021916908363ffffffff1602179055505050565b602060405190810160405280600081525090565b828054600181600116156101000203166002900490600052602060002090601f016020900481019282601f106138d557805160ff1916838001178555613903565b82800160010185558215613903579182015b828111156139025782518255916020019190600101906138e7565b5b5090506139109190613ae0565b5090565b602060405190810160405280600081525090565b81548183558181151161395557600a0281600a0283600052602060002091820191016139549190613b05565b5b505050565b828054600181600116156101000203166002900490600052602060002090601f016020900481019282601f1061399b57805160ff19168380011785556139c9565b828001600101855582156139c9579182015b828111156139c85782518255916020019190600101906139ad565b5b5090506139d69190613ae0565b5090565b828054828255906000526020600020908101928215613a29579160200282015b82811115613a28578251829080519060200190613a1892919061395a565b50916020019190600101906139fa565b5b509050613a369190613bc8565b5090565b815481835581811511613a6757600602816006028360005260206000209182019101613a669190613bf4565b5b505050565b815481835581811511613a9357818360005260206000209182019101613a929190613bc8565b5b505050565b50805460018160011615610100020316600290046000825580601f10613abe5750613add565b601f016020900490600052602060002090810190613adc9190613ae0565b5b50565b613b0291905b80821115613afe576000816000905550600101613ae6565b5090565b90565b613bc591905b80821115613bc15760008082016000613b249190613a98565b60018201600090556002820160006101000a81549060ff0219169055600382016000613b509190613a98565b600482016000613b609190613a98565b600582016000613b709190613a98565b6006820160006101000a81549060ff0219169055600782016000613b949190613c73565b600882016000613ba49190613c73565b6009820160006101000a81549060ff021916905550600a01613b0b565b5090565b90565b613bf191905b80821115613bed5760008181613be49190613a98565b50600101613bce565b5090565b90565b613c7091905b80821115613c6c5760008082016000613c139190613a98565b60018201600090556002820160006101000a81549060ff0219169055600382016000613c3f9190613a98565b600482016000613c4f9190613a98565b6005820160006101000a81549060ff021916905550600601613bfa565b5090565b90565b5080546000825590600052602060002090810190613c919190613bc8565b505600a165627a7a72305820d4c740dfce22f5c4da9198056260649806e115fa131cdd071bb11cf321e49a500029",
  "source": "pragma solidity ^0.4.19;\n\nimport './LiveGame.sol';\n\ncontract Hangman is LiveGame {\n\n  event FundTransfer(address contractAddress, uint wager, bool success);\n\n  function () payable public {\n    //FundTransfer(this, msg.value, true);\n  }\n\n  function createGame(string _word, uint _wager, uint8 _tries, string _userWord, string _userName, uint8 _wordLength) public payable {\n    if (this.send(msg.value)) {\n      reallyCreateGame(_word, _wager, _tries, _userWord, _userName, _wordLength);\n    } else {\n      FundTransfer(this, msg.value, false);\n    }\n  }\n\n  function getPendingGames() public {\n    require(games.length > 0);\n    for(uint i = 0; i < games.length; i++) {\n      if (games[i].wordLength > 0) {\n        PendingGames(i, games[i].wager, games[i].tries, games[i].userName, games[i].userWord, games[i].wordLength);\n      }\n    }\n  }\n }\n",
  "sourcePath": "/Users/tysondaugherty/Desktop/funApps/ether/etherHang/contracts/Hangman.sol",
  "compiler": {
    "name": "solc",
    "version": "0.4.19+commit.c4cbbb05.Emscripten.clang"
  },
  "schemaVersion": "1.0.1",
  "updatedAt": "2018-03-06T19:28:27.769Z"
}