{
  "contractName": "Hangman",
  "abi": [
    {
      "constant": true,
      "inputs": [
        {
          "name": "",
          "type": "uint256"
        }
      ],
      "name": "games",
      "outputs": [
        {
          "name": "word",
          "type": "string"
        },
        {
          "name": "wager",
          "type": "uint256"
        },
        {
          "name": "tries",
          "type": "uint8"
        },
        {
          "name": "userWord",
          "type": "string"
        },
        {
          "name": "userName",
          "type": "string"
        },
        {
          "name": "wordLength",
          "type": "uint8"
        }
      ],
      "payable": false,
      "stateMutability": "view",
      "type": "function"
    },
    {
      "constant": true,
      "inputs": [
        {
          "name": "",
          "type": "uint256"
        }
      ],
      "name": "activeGames",
      "outputs": [
        {
          "name": "word",
          "type": "string"
        },
        {
          "name": "wager",
          "type": "uint256"
        },
        {
          "name": "maxTries",
          "type": "uint8"
        },
        {
          "name": "uniqGameString",
          "type": "string"
        },
        {
          "name": "hangman",
          "type": "string"
        },
        {
          "name": "challenger",
          "type": "string"
        },
        {
          "name": "tries",
          "type": "uint8"
        },
        {
          "name": "wordLength",
          "type": "uint8"
        }
      ],
      "payable": false,
      "stateMutability": "view",
      "type": "function"
    },
    {
      "constant": true,
      "inputs": [
        {
          "name": "",
          "type": "address"
        }
      ],
      "name": "activeGamesMap",
      "outputs": [
        {
          "name": "",
          "type": "uint256"
        }
      ],
      "payable": false,
      "stateMutability": "view",
      "type": "function"
    },
    {
      "constant": true,
      "inputs": [
        {
          "name": "",
          "type": "uint256"
        }
      ],
      "name": "idToWord",
      "outputs": [
        {
          "name": "",
          "type": "string"
        }
      ],
      "payable": false,
      "stateMutability": "view",
      "type": "function"
    },
    {
      "constant": false,
      "inputs": [],
      "name": "getActiveGame",
      "outputs": [],
      "payable": false,
      "stateMutability": "nonpayable",
      "type": "function"
    },
    {
      "constant": false,
      "inputs": [
        {
          "name": "guess",
          "type": "string"
        },
        {
          "name": "gameId",
          "type": "uint256"
        }
      ],
      "name": "checkGuess",
      "outputs": [],
      "payable": false,
      "stateMutability": "nonpayable",
      "type": "function"
    },
    {
      "constant": false,
      "inputs": [
        {
          "name": "challenger",
          "type": "string"
        },
        {
          "name": "gameId",
          "type": "uint256"
        },
        {
          "name": "uniqGameString",
          "type": "string"
        },
        {
          "name": "wordLength",
          "type": "uint8"
        }
      ],
      "name": "commenceLiveGame",
      "outputs": [],
      "payable": false,
      "stateMutability": "nonpayable",
      "type": "function"
    },
    {
      "payable": true,
      "stateMutability": "payable",
      "type": "fallback"
    },
    {
      "anonymous": false,
      "inputs": [
        {
          "indexed": false,
          "name": "contractAddress",
          "type": "address"
        },
        {
          "indexed": false,
          "name": "wager",
          "type": "uint256"
        },
        {
          "indexed": false,
          "name": "success",
          "type": "bool"
        }
      ],
      "name": "FundTransfer",
      "type": "event"
    },
    {
      "anonymous": false,
      "inputs": [
        {
          "indexed": false,
          "name": "challenger",
          "type": "string"
        },
        {
          "indexed": false,
          "name": "hangman",
          "type": "string"
        },
        {
          "indexed": false,
          "name": "wager",
          "type": "uint256"
        },
        {
          "indexed": false,
          "name": "maxTries",
          "type": "uint8"
        },
        {
          "indexed": false,
          "name": "uniqGameString",
          "type": "string"
        },
        {
          "indexed": false,
          "name": "wordLength",
          "type": "uint8"
        },
        {
          "indexed": false,
          "name": "tries",
          "type": "uint8"
        },
        {
          "indexed": false,
          "name": "gameId",
          "type": "uint256"
        }
      ],
      "name": "ActiveGameDetails",
      "type": "event"
    },
    {
      "anonymous": false,
      "inputs": [
        {
          "indexed": false,
          "name": "letter",
          "type": "string"
        },
        {
          "indexed": false,
          "name": "index",
          "type": "uint32"
        }
      ],
      "name": "SolutionCheck",
      "type": "event"
    },
    {
      "anonymous": false,
      "inputs": [
        {
          "indexed": false,
          "name": "letter",
          "type": "string"
        },
        {
          "indexed": false,
          "name": "index",
          "type": "uint32"
        }
      ],
      "name": "MissesCheck",
      "type": "event"
    },
    {
      "anonymous": false,
      "inputs": [
        {
          "indexed": false,
          "name": "challenger",
          "type": "string"
        },
        {
          "indexed": false,
          "name": "hangman",
          "type": "string"
        },
        {
          "indexed": false,
          "name": "gameId",
          "type": "uint256"
        },
        {
          "indexed": false,
          "name": "wager",
          "type": "uint256"
        },
        {
          "indexed": false,
          "name": "maxTries",
          "type": "uint8"
        },
        {
          "indexed": false,
          "name": "uniqGameString",
          "type": "string"
        },
        {
          "indexed": false,
          "name": "wordLength",
          "type": "uint8"
        }
      ],
      "name": "GameStarted",
      "type": "event"
    },
    {
      "anonymous": false,
      "inputs": [
        {
          "indexed": false,
          "name": "guess",
          "type": "string"
        },
        {
          "indexed": false,
          "name": "hit",
          "type": "bool"
        },
        {
          "indexed": false,
          "name": "index",
          "type": "uint32"
        }
      ],
      "name": "SolutionGuess",
      "type": "event"
    },
    {
      "anonymous": false,
      "inputs": [
        {
          "indexed": false,
          "name": "winner",
          "type": "string"
        },
        {
          "indexed": false,
          "name": "word",
          "type": "string"
        },
        {
          "indexed": false,
          "name": "loser",
          "type": "string"
        }
      ],
      "name": "GameWinner",
      "type": "event"
    },
    {
      "anonymous": false,
      "inputs": [
        {
          "indexed": false,
          "name": "gameId",
          "type": "uint256"
        },
        {
          "indexed": false,
          "name": "wager",
          "type": "uint256"
        },
        {
          "indexed": false,
          "name": "tries",
          "type": "uint8"
        },
        {
          "indexed": false,
          "name": "userName",
          "type": "string"
        },
        {
          "indexed": false,
          "name": "userWord",
          "type": "string"
        },
        {
          "indexed": false,
          "name": "wordLength",
          "type": "uint8"
        }
      ],
      "name": "NewGame",
      "type": "event"
    },
    {
      "anonymous": false,
      "inputs": [
        {
          "indexed": false,
          "name": "gameId",
          "type": "uint256"
        },
        {
          "indexed": false,
          "name": "wager",
          "type": "uint256"
        },
        {
          "indexed": false,
          "name": "tries",
          "type": "uint8"
        },
        {
          "indexed": false,
          "name": "userName",
          "type": "string"
        },
        {
          "indexed": false,
          "name": "userWord",
          "type": "string"
        },
        {
          "indexed": false,
          "name": "wordLength",
          "type": "uint8"
        }
      ],
      "name": "PendingGames",
      "type": "event"
    },
    {
      "anonymous": false,
      "inputs": [
        {
          "indexed": false,
          "name": "userWord",
          "type": "string"
        }
      ],
      "name": "RemovePendingGame",
      "type": "event"
    },
    {
      "constant": false,
      "inputs": [
        {
          "name": "_word",
          "type": "string"
        },
        {
          "name": "_wager",
          "type": "uint256"
        },
        {
          "name": "_tries",
          "type": "uint8"
        },
        {
          "name": "_userWord",
          "type": "string"
        },
        {
          "name": "_userName",
          "type": "string"
        },
        {
          "name": "_wordLength",
          "type": "uint8"
        }
      ],
      "name": "createGame",
      "outputs": [],
      "payable": true,
      "stateMutability": "payable",
      "type": "function"
    },
    {
      "constant": false,
      "inputs": [],
      "name": "getPendingGames",
      "outputs": [],
      "payable": false,
      "stateMutability": "nonpayable",
      "type": "function"
    }
  ],
  "bytecode": "0x606060405260008060006101000a81548163ffffffff021916908363ffffffff160217905550341561003057600080fd5b613c4a8061003f6000396000f300606060405260043610610099576000357c0100000000000000000000000000000000000000000000000000000000900463ffffffff16806303ba9f251461009b578063117a5b901461019457806313e4c714146103805780632ec1c017146106025780634d83d55a1461064f578063957b5fb4146106eb578063d77eef1b14610700578063e6b2bc1414610766578063ff6f4bc11461081b575b005b610192600480803590602001908201803590602001908080601f0160208091040260200160405190810160405280939291908181526020018383808284378201915050505050509190803590602001909190803560ff1690602001909190803590602001908201803590602001908080601f0160208091040260200160405190810160405280939291908181526020018383808284378201915050505050509190803590602001908201803590602001908080601f0160208091040260200160405190810160405280939291908181526020018383808284378201915050505050509190803560ff16906020019091905050610830565b005b341561019f57600080fd5b6101b560048080359060200190919050506108fe565b60405180806020018781526020018660ff1660ff16815260200180602001806020018560ff1660ff16815260200184810384528a8181546001816001161561010002031660029004815260200191508054600181600116156101000203166002900480156102645780601f1061023957610100808354040283529160200191610264565b820191906000526020600020905b81548152906001019060200180831161024757829003601f168201915b50508481038352878181546001816001161561010002031660029004815260200191508054600181600116156101000203166002900480156102e75780601f106102bc576101008083540402835291602001916102e7565b820191906000526020600020905b8154815290600101906020018083116102ca57829003601f168201915b505084810382528681815460018160011615610100020316600290048152602001915080546001816001161561010002031660029004801561036a5780601f1061033f5761010080835404028352916020019161036a565b820191906000526020600020905b81548152906001019060200180831161034d57829003601f168201915b5050995050505050505050505060405180910390f35b341561038b57600080fd5b6103a16004808035906020019091905050610960565b60405180806020018981526020018860ff1660ff1681526020018060200180602001806020018760ff1660ff1681526020018660ff1660ff16815260200185810385528d8181546001816001161561010002031660029004815260200191508054600181600116156101000203166002900480156104605780601f1061043557610100808354040283529160200191610460565b820191906000526020600020905b81548152906001019060200180831161044357829003601f168201915b505085810384528a8181546001816001161561010002031660029004815260200191508054600181600116156101000203166002900480156104e35780601f106104b8576101008083540402835291602001916104e3565b820191906000526020600020905b8154815290600101906020018083116104c657829003601f168201915b50508581038352898181546001816001161561010002031660029004815260200191508054600181600116156101000203166002900480156105665780601f1061053b57610100808354040283529160200191610566565b820191906000526020600020905b81548152906001019060200180831161054957829003601f168201915b50508581038252888181546001816001161561010002031660029004815260200191508054600181600116156101000203166002900480156105e95780601f106105be576101008083540402835291602001916105e9565b820191906000526020600020905b8154815290600101906020018083116105cc57829003601f168201915b50509c5050505050505050505050505060405180910390f35b341561060d57600080fd5b610639600480803573ffffffffffffffffffffffffffffffffffffffff169060200190919050506109da565b6040518082815260200191505060405180910390f35b341561065a57600080fd5b61067060048080359060200190919050506109f2565b6040518080602001828103825283818151815260200191508051906020019080838360005b838110156106b0578082015181840152602081019050610695565b50505050905090810190601f1680156106dd5780820380516001836020036101000a031916815260200191505b509250505060405180910390f35b34156106f657600080fd5b6106fe610aa2565b005b341561070b57600080fd5b610764600480803590602001908201803590602001908080601f01602080910402602001604051908101604052809392919081815260200183838082843782019150505050505091908035906020019091905050610f86565b005b341561077157600080fd5b610819600480803590602001908201803590602001908080601f0160208091040260200160405190810160405280939291908181526020018383808284378201915050505050509190803590602001909190803590602001908201803590602001908080601f0160208091040260200160405190810160405280939291908181526020018383808284378201915050505050509190803560ff16906020019091905050611335565b005b341561082657600080fd5b61082e611904565b005b3073ffffffffffffffffffffffffffffffffffffffff166108fc349081150290604051600060405180830381858888f193505050501561087d57610878868686868686611b9c565b6108f6565b7fe842aea7a5f1b01049d752008c53c52890b1a6daf660cf39e8eec506112bbdf630346000604051808473ffffffffffffffffffffffffffffffffffffffff1673ffffffffffffffffffffffffffffffffffffffff16815260200183815260200182151515158152602001935050505060405180910390a15b505050505050565b60018181548110151561090d57fe5b906000526020600020906006020160009150905080600001908060010154908060020160009054906101000a900460ff1690806003019080600401908060050160009054906101000a900460ff16905086565b60038181548110151561096f57fe5b90600052602060002090600a020160009150905080600001908060010154908060020160009054906101000a900460ff16908060030190806004019080600501908060060160009054906101000a900460ff16908060090160009054906101000a900460ff16905088565b60046020528060005260406000206000915090505481565b60026020528060005260406000206000915090508054600181600116156101000203166002900480601f016020809104026020016040519081016040528092919081815260200182805460018160011615610100020316600290048015610a9a5780601f10610a6f57610100808354040283529160200191610a9a565b820191906000526020600020905b815481529060010190602001808311610a7d57829003601f168201915b505050505081565b6000610aad33611fdc565b90507fdcc734248b9e9bcfcbd1187acf9d439e66a0c2b499a0f417d9826384973aad0a6003600460003373ffffffffffffffffffffffffffffffffffffffff1673ffffffffffffffffffffffffffffffffffffffff16815260200190815260200160002054815481101515610b1e57fe5b90600052602060002090600a02016005016003600460003373ffffffffffffffffffffffffffffffffffffffff1673ffffffffffffffffffffffffffffffffffffffff16815260200190815260200160002054815481101515610b7d57fe5b90600052602060002090600a02016004016003600460003373ffffffffffffffffffffffffffffffffffffffff1673ffffffffffffffffffffffffffffffffffffffff16815260200190815260200160002054815481101515610bdc57fe5b90600052602060002090600a0201600101546003600460003373ffffffffffffffffffffffffffffffffffffffff1673ffffffffffffffffffffffffffffffffffffffff16815260200190815260200160002054815481101515610c3c57fe5b90600052602060002090600a020160020160009054906101000a900460ff166003600460003373ffffffffffffffffffffffffffffffffffffffff1673ffffffffffffffffffffffffffffffffffffffff16815260200190815260200160002054815481101515610ca957fe5b90600052602060002090600a02016003016003600460003373ffffffffffffffffffffffffffffffffffffffff1673ffffffffffffffffffffffffffffffffffffffff16815260200190815260200160002054815481101515610d0857fe5b90600052602060002090600a020160090160009054906101000a900460ff166003600460003373ffffffffffffffffffffffffffffffffffffffff1673ffffffffffffffffffffffffffffffffffffffff16815260200190815260200160002054815481101515610d7557fe5b90600052602060002090600a020160060160009054906101000a900460ff16886040518080602001806020018981526020018860ff1660ff168152602001806020018760ff1660ff1681526020018660ff1660ff16815260200185815260200184810384528c818154600181600116156101000203166002900481526020019150805460018160011615610100020316600290048015610e565780601f10610e2b57610100808354040283529160200191610e56565b820191906000526020600020905b815481529060010190602001808311610e3957829003601f168201915b505084810383528b818154600181600116156101000203166002900481526020019150805460018160011615610100020316600290048015610ed95780601f10610eae57610100808354040283529160200191610ed9565b820191906000526020600020905b815481529060010190602001808311610ebc57829003601f168201915b5050848103825288818154600181600116156101000203166002900481526020019150805460018160011615610100020316600290048015610f5c5780601f10610f3157610100808354040283529160200191610f5c565b820191906000526020600020905b815481529060010190602001808311610f3f57829003601f168201915b50509b50505050505050505050505060405180910390a1610f7b612025565b610f836123bd565b50565b6000610f9061380a565b6000600384815481101515610fa157fe5b90600052602060002090600a0201600601600081819054906101000a900460ff168092919060010191906101000a81548160ff021916908360ff1602179055505060009250600384815481101515610ff557fe5b90600052602060002090600a02016000018054600181600116156101000203166002900480601f01602080910402602001604051908101604052809291908181526020018280546001816001161561010002031660029004801561109a5780601f1061106f5761010080835404028352916020019161109a565b820191906000526020600020905b81548152906001019060200180831161107d57829003601f168201915b505050505091506001855111156110ba576110b5858561258c565b61132e565b60018551141561132d57600090505b81518163ffffffff1610156112fd578460008151811015156110e757fe5b9060200101517f010000000000000000000000000000000000000000000000000000000000000090047f0100000000000000000000000000000000000000000000000000000000000000027effffffffffffffffffffffffffffffffffffffffffffffffffffffffffffff1916828263ffffffff1681518110151561116857fe5b9060200101517f010000000000000000000000000000000000000000000000000000000000000090047f0100000000000000000000000000000000000000000000000000000000000000027effffffffffffffffffffffffffffffffffffffffffffffffffffffffffffff191614156112f05760019250846003858154811015156111ef57fe5b90600052602060002090600a02016007018263ffffffff1681548110151561121357fe5b9060005260206000209001908051906020019061123192919061381e565b507f8696d55ed69c77973e49639ae68e35aa5413a6f73d521601bfb9a1bf27215da5856001836040518080602001841515151581526020018363ffffffff1663ffffffff168152602001828103825285818151815260200191508051906020019080838360005b838110156112b3578082015181840152602081019050611298565b50505050905090810190601f1680156112e05780820380516001836020036101000a031916815260200191505b5094505050505060405180910390a15b80806001019150506110c9565b60011515831515141561131457611313846129ec565b5b60001515831515141561132c5761132b84866131c9565b5b5b5b5050505050565b61133d61380a565b600061134761389e565b61134f61389e565b600060018881548110151561136057fe5b90600052602060002090600602016000018054600181600116156101000203166002900480601f0160208091040260200160405190810160405280929190818152602001828054600181600116156101000203166002900480156114055780601f106113da57610100808354040283529160200191611405565b820191906000526020600020905b8154815290600101906020018083116113e857829003601f168201915b505050505094506000935060016003805480600101828161142691906138b2565b91600052602060002090600a02016000610140604051908101604052808a815260200160018e81548110151561145857fe5b906000526020600020906006020160010154815260200160018e81548110151561147e57fe5b906000526020600020906006020160020160009054906101000a900460ff1660ff1681526020018c815260200160018e8154811015156114ba57fe5b90600052602060002090600602016004018054600181600116156101000203166002900480601f01602080910402602001604051908101604052809291908181526020018280546001816001161561010002031660029004801561155f5780601f106115345761010080835404028352916020019161155f565b820191906000526020600020905b81548152906001019060200180831161154257829003601f168201915b505050505081526020018e81526020018960ff1681526020018881526020018781526020018b60ff16815250909190915060008201518160000190805190602001906115ac9291906138e4565b506020820151816001015560408201518160020160006101000a81548160ff021916908360ff16021790555060608201518160030190805190602001906115f49291906138e4565b5060808201518160040190805190602001906116119291906138e4565b5060a082015181600501908051906020019061162e9291906138e4565b5060c08201518160060160006101000a81548160ff021916908360ff16021790555060e082015181600701908051906020019061166c929190613964565b5061010082015181600801908051906020019061168a929190613964565b506101208201518160090160006101000a81548160ff021916908360ff16021790555050500390507f746ffb8547cf17810666c7e53b35fce56fdadb9c4b4d5882ce3746334fdfe6528960018a8154811015156116e357fe5b90600052602060002090600602016004018360018c81548110151561170457fe5b90600052602060002090600602016001015460018d81548110151561172557fe5b906000526020600020906006020160020160009054906101000a900460ff168c8c6040518080602001806020018881526020018781526020018660ff1660ff168152602001806020018560ff1660ff16815260200184810384528b818151815260200191508051906020019080838360005b838110156117b2578082015181840152602081019050611797565b50505050905090810190601f1680156117df5780820380516001836020036101000a031916815260200191505b5084810383528a8181546001816001161561010002031660029004815260200191508054600181600116156101000203166002900480156118615780601f1061183657610100808354040283529160200191611861565b820191906000526020600020905b81548152906001019060200180831161184457829003601f168201915b5050848103825286818151815260200191508051906020019080838360005b8381101561189b578082015181840152602081019050611880565b50505050905090810190601f1680156118c85780820380516001836020036101000a031916815260200191505b509a505050505050505050505060405180910390a16118e78682613576565b6118f08161362e565b6118f988613675565b505050505050505050565b60008060018054905011151561191957600080fd5b600090505b600180549050811015611b9957600060018281548110151561193c57fe5b906000526020600020906006020160050160009054906101000a900460ff1660ff161115611b8c577f9cbf83e013851580a003e19a3d4865911117cc61084c3de99cc6cca3c30badc28160018381548110151561199557fe5b9060005260206000209060060201600101546001848154811015156119b657fe5b906000526020600020906006020160020160009054906101000a900460ff166001858154811015156119e457fe5b9060005260206000209060060201600401600186815481101515611a0457fe5b9060005260206000209060060201600301600187815481101515611a2457fe5b906000526020600020906006020160050160009054906101000a900460ff16604051808781526020018681526020018560ff1660ff16815260200180602001806020018460ff1660ff168152602001838103835286818154600181600116156101000203166002900481526020019150805460018160011615610100020316600290048015611af45780601f10611ac957610100808354040283529160200191611af4565b820191906000526020600020905b815481529060010190602001808311611ad757829003601f168201915b5050838103825285818154600181600116156101000203166002900481526020019150805460018160011615610100020316600290048015611b775780601f10611b4c57610100808354040283529160200191611b77565b820191906000526020600020905b815481529060010190602001808311611b5a57829003601f168201915b50509850505050505050505060405180910390a15b808060010191505061191e565b50565b60008060016000809054906101000a900463ffffffff1663ffffffff161015611cca576001808054806001018281611bd491906139c4565b9160005260206000209060060201600060c0604051908101604052808d81526020018c81526020018b60ff1681526020018a81526020018981526020018860ff1681525090919091506000820151816000019080519060200190611c399291906138e4565b506020820151816001015560408201518160020160006101000a81548160ff021916908360ff1602179055506060820151816003019080519060200190611c819291906138e4565b506080820151816004019080519060200190611c9e9291906138e4565b5060a08201518160050160006101000a81548160ff021916908360ff1602179055505050039150611e75565b600090505b6001805490508163ffffffff161015611e7457600060018263ffffffff16815481101515611cf957fe5b906000526020600020906006020160050160009054906101000a900460ff1660ff161415611e675760c0604051908101604052808981526020018881526020018760ff1681526020018681526020018581526020018460ff1681525060018263ffffffff16815481101515611d6a57fe5b90600052602060002090600602016000820151816000019080519060200190611d949291906138e4565b506020820151816001015560408201518160020160006101000a81548160ff021916908360ff1602179055506060820151816003019080519060200190611ddc9291906138e4565b506080820151816004019080519060200190611df99291906138e4565b5060a08201518160050160006101000a81548160ff021916908360ff1602179055509050508063ffffffff16915060008081819054906101000a900463ffffffff16809291906001900391906101000a81548163ffffffff021916908363ffffffff16021790555050611e74565b8080600101915050611ccf565b5b87600260008481526020019081526020016000209080519060200190611e9c92919061381e565b507f8c9e64e9e1f765e64747f8c270dd5afeb69e372f71575657d5d1b260ee9ccf51828888878988604051808781526020018681526020018560ff1660ff16815260200180602001806020018460ff1660ff168152602001838103835286818151815260200191508051906020019080838360005b83811015611f2c578082015181840152602081019050611f11565b50505050905090810190601f168015611f595780820380516001836020036101000a031916815260200191505b50838103825285818151815260200191508051906020019080838360005b83811015611f92578082015181840152602081019050611f77565b50505050905090810190601f168015611fbf5780820380516001836020036101000a031916815260200191505b509850505050505050505060405180910390a15050505050505050565b6000600460008373ffffffffffffffffffffffffffffffffffffffff1673ffffffffffffffffffffffffffffffffffffffff168152602001908152602001600020549050919050565b61202d61380a565b60006040805190810160405280600181526020017f24000000000000000000000000000000000000000000000000000000000000008152509150600090505b6003600460003373ffffffffffffffffffffffffffffffffffffffff1673ffffffffffffffffffffffffffffffffffffffff168152602001908152602001600020548154811015156120ba57fe5b90600052602060002090600a0201600701805490508163ffffffff1610156123b9578160008151811015156120eb57fe5b9060200101517f010000000000000000000000000000000000000000000000000000000000000090047f0100000000000000000000000000000000000000000000000000000000000000027effffffffffffffffffffffffffffffffffffffffffffffffffffffffffffff19166003600460003373ffffffffffffffffffffffffffffffffffffffff1673ffffffffffffffffffffffffffffffffffffffff168152602001908152602001600020548154811015156121a657fe5b90600052602060002090600a02016007018263ffffffff168154811015156121ca57fe5b9060005260206000209001600081546001816001161561010002031660029004811015156121f457fe5b8154600116156122135790600052602060002090602091828204019190065b9054901a7f0100000000000000000000000000000000000000000000000000000000000000027effffffffffffffffffffffffffffffffffffffffffffffffffffffffffffff19161415156123ac577f79cf4eb0d6305e4d55a4c2df65998d7b62c2a406f83d5f6e14d131db42bb70ab6003600460003373ffffffffffffffffffffffffffffffffffffffff1673ffffffffffffffffffffffffffffffffffffffff168152602001908152602001600020548154811015156122d157fe5b90600052602060002090600a02016007018263ffffffff168154811015156122f557fe5b90600052602060002090018260405180806020018363ffffffff1663ffffffff16815260200182810382528481815460018160011615610100020316600290048152602001915080546001816001161561010002031660029004801561239c5780601f106123715761010080835404028352916020019161239c565b820191906000526020600020905b81548152906001019060200180831161237f57829003601f168201915b5050935050505060405180910390a15b808060010191505061206c565b5050565b60008090505b6003600460003373ffffffffffffffffffffffffffffffffffffffff1673ffffffffffffffffffffffffffffffffffffffff1681526020019081526020016000205481548110151561241157fe5b90600052602060002090600a0201600801805490508163ffffffff161015612589577fd230b39ddf0abb4c478d27f0f161bdd2f200ace6304f4a87d588c44a3fa35e8c6003600460003373ffffffffffffffffffffffffffffffffffffffff1673ffffffffffffffffffffffffffffffffffffffff168152602001908152602001600020548154811015156124a257fe5b90600052602060002090600a02016008018263ffffffff168154811015156124c657fe5b90600052602060002090018260405180806020018363ffffffff1663ffffffff16815260200182810382528481815460018160011615610100020316600290048152602001915080546001816001161561010002031660029004801561256d5780601f106125425761010080835404028352916020019161256d565b820191906000526020600020905b81548152906001019060200180831161255057829003601f168201915b5050935050505060405180910390a180806001019150506123c3565b50565b61259461380a565b6000806003848154811015156125a657fe5b90600052602060002090600a02016000018054600181600116156101000203166002900480601f01602080910402602001604051908101604052809291908181526020018280546001816001161561010002031660029004801561264b5780601f106126205761010080835404028352916020019161264b565b820191906000526020600020905b81548152906001019060200180831161262e57829003601f168201915b50505050509250600191508451835114156129da57600090505b82518163ffffffff16101561279d57848163ffffffff1681518110151561268857fe5b9060200101517f010000000000000000000000000000000000000000000000000000000000000090047f0100000000000000000000000000000000000000000000000000000000000000027effffffffffffffffffffffffffffffffffffffffffffffffffffffffffffff1916838263ffffffff1681518110151561270957fe5b9060200101517f010000000000000000000000000000000000000000000000000000000000000090047f0100000000000000000000000000000000000000000000000000000000000000027effffffffffffffffffffffffffffffffffffffffffffffffffffffffffffff1916141515612790576000915061278b84866131c9565b61279d565b8080600101915050612665565b6001151582151514156129d5577fffedf7f8820dde2d4b397a1fc7d384e98b9e4a78a9da7bd4352fe2340d0bf65b6003858154811015156127da57fe5b90600052602060002090600a02016005016003868154811015156127fa57fe5b90600052602060002090600a020160000160038781548110151561281a57fe5b90600052602060002090600a0201600401604051808060200180602001806020018481038452878181546001816001161561010002031660029004815260200191508054600181600116156101000203166002900480156128bc5780601f10612891576101008083540402835291602001916128bc565b820191906000526020600020905b81548152906001019060200180831161289f57829003601f168201915b505084810383528681815460018160011615610100020316600290048152602001915080546001816001161561010002031660029004801561293f5780601f106129145761010080835404028352916020019161293f565b820191906000526020600020905b81548152906001019060200180831161292257829003601f168201915b50508481038252858181546001816001161561010002031660029004815260200191508054600181600116156101000203166002900480156129c25780601f10612997576101008083540402835291602001916129c2565b820191906000526020600020905b8154815290600101906020018083116129a557829003601f168201915b5050965050505050505060405180910390a15b6129e5565b6129e484866131c9565b5b5050505050565b6129f461380a565b60006129fe61380a565b6000600385815481101515612a0f57fe5b90600052602060002090600a02016000018054600181600116156101000203166002900480601f016020809104026020016040519081016040528092919081815260200182805460018160011615610100020316600290048015612ab45780601f10612a8957610100808354040283529160200191612ab4565b820191906000526020600020905b815481529060010190602001808311612a9757829003601f168201915b5050505050935060019250600090505b600385815481101515612ad357fe5b90600052602060002090600a0201600701805490508163ffffffff161015612ce857600385815481101515612b0457fe5b90600052602060002090600a02016007018163ffffffff16815481101515612b2857fe5b90600052602060002090018054600181600116156101000203166002900480601f016020809104026020016040519081016040528092919081815260200182805460018160011615610100020316600290048015612bc75780601f10612b9c57610100808354040283529160200191612bc7565b820191906000526020600020905b815481529060010190602001808311612baa57829003601f168201915b50505050509150838163ffffffff16815181101515612be257fe5b9060200101517f010000000000000000000000000000000000000000000000000000000000000090047f0100000000000000000000000000000000000000000000000000000000000000027effffffffffffffffffffffffffffffffffffffffffffffffffffffffffffff1916826000815181101515612c5e57fe5b9060200101517f010000000000000000000000000000000000000000000000000000000000000090047f0100000000000000000000000000000000000000000000000000000000000000027effffffffffffffffffffffffffffffffffffffffffffffffffffffffffffff1916141515612cdb5760009250612ce8565b8080600101915050612ac4565b600115158315151415612f20577fffedf7f8820dde2d4b397a1fc7d384e98b9e4a78a9da7bd4352fe2340d0bf65b600386815481101515612d2557fe5b90600052602060002090600a0201600501600387815481101515612d4557fe5b90600052602060002090600a0201600001600388815481101515612d6557fe5b90600052602060002090600a020160040160405180806020018060200180602001848103845287818154600181600116156101000203166002900481526020019150805460018160011615610100020316600290048015612e075780601f10612ddc57610100808354040283529160200191612e07565b820191906000526020600020905b815481529060010190602001808311612dea57829003601f168201915b5050848103835286818154600181600116156101000203166002900481526020019150805460018160011615610100020316600290048015612e8a5780601f10612e5f57610100808354040283529160200191612e8a565b820191906000526020600020905b815481529060010190602001808311612e6d57829003601f168201915b5050848103825285818154600181600116156101000203166002900481526020019150805460018160011615610100020316600290048015612f0d5780601f10612ee257610100808354040283529160200191612f0d565b820191906000526020600020905b815481529060010190602001808311612ef057829003601f168201915b5050965050505050505060405180910390a15b6000151583151514156131c257600385815481101515612f3c57fe5b90600052602060002090600a020160020160009054906101000a900460ff1660ff16600386815481101515612f6d57fe5b90600052602060002090600a020160060160009054906101000a900460ff1660ff161015156131c1577fffedf7f8820dde2d4b397a1fc7d384e98b9e4a78a9da7bd4352fe2340d0bf65b600386815481101515612fc657fe5b90600052602060002090600a0201600401600387815481101515612fe657fe5b90600052602060002090600a020160000160038881548110151561300657fe5b90600052602060002090600a0201600501604051808060200180602001806020018481038452878181546001816001161561010002031660029004815260200191508054600181600116156101000203166002900480156130a85780601f1061307d576101008083540402835291602001916130a8565b820191906000526020600020905b81548152906001019060200180831161308b57829003601f168201915b505084810383528681815460018160011615610100020316600290048152602001915080546001816001161561010002031660029004801561312b5780601f106131005761010080835404028352916020019161312b565b820191906000526020600020905b81548152906001019060200180831161310e57829003601f168201915b50508481038252858181546001816001161561010002031660029004815260200191508054600181600116156101000203166002900480156131ae5780601f10613183576101008083540402835291602001916131ae565b820191906000526020600020905b81548152906001019060200180831161319157829003601f168201915b5050965050505050505060405180910390a15b5b5050505050565b6003828154811015156131d857fe5b90600052602060002090600a020160060160009054906101000a900460ff1660ff1660038381548110151561320957fe5b90600052602060002090600a020160020160009054906101000a900460ff1660ff161115613347577f8696d55ed69c77973e49639ae68e35aa5413a6f73d521601bfb9a1bf27215da5816000806040518080602001841515151581526020018363ffffffff168152602001828103825285818151815260200191508051906020019080838360005b838110156132ac578082015181840152602081019050613291565b50505050905090810190601f1680156132d95780820380516001836020036101000a031916815260200191505b5094505050505060405180910390a16003828154811015156132f757fe5b90600052602060002090600a0201600801805480600101828161331a91906139f6565b91600052602060002090016000839091909150908051906020019061334092919061381e565b5050613572565b7fffedf7f8820dde2d4b397a1fc7d384e98b9e4a78a9da7bd4352fe2340d0bf65b60038381548110151561337757fe5b90600052602060002090600a020160040160038481548110151561339757fe5b90600052602060002090600a02016000016003858154811015156133b757fe5b90600052602060002090600a0201600501604051808060200180602001806020018481038452878181546001816001161561010002031660029004815260200191508054600181600116156101000203166002900480156134595780601f1061342e57610100808354040283529160200191613459565b820191906000526020600020905b81548152906001019060200180831161343c57829003601f168201915b50508481038352868181546001816001161561010002031660029004815260200191508054600181600116156101000203166002900480156134dc5780601f106134b1576101008083540402835291602001916134dc565b820191906000526020600020905b8154815290600101906020018083116134bf57829003601f168201915b505084810382528581815460018160011615610100020316600290048152602001915080546001816001161561010002031660029004801561355f5780601f106135345761010080835404028352916020019161355f565b820191906000526020600020905b81548152906001019060200180831161354257829003601f168201915b5050965050505050505060405180910390a15b5050565b60008090505b8260ff168163ffffffff1610156136295760038281548110151561359c57fe5b90600052602060002090600a020160070180548060010182816135bf91906139f6565b916000526020600020900160006040805190810160405280600181526020017f24000000000000000000000000000000000000000000000000000000000000008152509091909150908051906020019061361a92919061381e565b5050808060010191505061357c565b505050565b80600460003373ffffffffffffffffffffffffffffffffffffffff1673ffffffffffffffffffffffffffffffffffffffff1681526020019081526020016000208190555050565b7f3c292ea39929efc9883230ce64b1d2bc9218bb71cb8a754ff1cb2dae6aad08466001828154811015156136a557fe5b9060005260206000209060060201600301604051808060200182810382528381815460018160011615610100020316600290048152602001915080546001816001161561010002031660029004801561373f5780601f106137145761010080835404028352916020019161373f565b820191906000526020600020905b81548152906001019060200180831161372257829003601f168201915b50509250505060405180910390a160018181548110151561375c57fe5b90600052602060002090600602016000808201600061377b9190613a22565b60018201600090556002820160006101000a81549060ff02191690556003820160006137a79190613a22565b6004820160006137b79190613a22565b6005820160006101000a81549060ff0219169055505060008081819054906101000a900463ffffffff168092919060010191906101000a81548163ffffffff021916908363ffffffff1602179055505050565b602060405190810160405280600081525090565b828054600181600116156101000203166002900490600052602060002090601f016020900481019282601f1061385f57805160ff191683800117855561388d565b8280016001018555821561388d579182015b8281111561388c578251825591602001919060010190613871565b5b50905061389a9190613a6a565b5090565b602060405190810160405280600081525090565b8154818355818115116138df57600a0281600a0283600052602060002091820191016138de9190613a8f565b5b505050565b828054600181600116156101000203166002900490600052602060002090601f016020900481019282601f1061392557805160ff1916838001178555613953565b82800160010185558215613953579182015b82811115613952578251825591602001919060010190613937565b5b5090506139609190613a6a565b5090565b8280548282559060005260206000209081019282156139b3579160200282015b828111156139b25782518290805190602001906139a29291906138e4565b5091602001919060010190613984565b5b5090506139c09190613b52565b5090565b8154818355818115116139f1576006028160060283600052602060002091820191016139f09190613b7e565b5b505050565b815481835581811511613a1d57818360005260206000209182019101613a1c9190613b52565b5b505050565b50805460018160011615610100020316600290046000825580601f10613a485750613a67565b601f016020900490600052602060002090810190613a669190613a6a565b5b50565b613a8c91905b80821115613a88576000816000905550600101613a70565b5090565b90565b613b4f91905b80821115613b4b5760008082016000613aae9190613a22565b60018201600090556002820160006101000a81549060ff0219169055600382016000613ada9190613a22565b600482016000613aea9190613a22565b600582016000613afa9190613a22565b6006820160006101000a81549060ff0219169055600782016000613b1e9190613bfd565b600882016000613b2e9190613bfd565b6009820160006101000a81549060ff021916905550600a01613a95565b5090565b90565b613b7b91905b80821115613b775760008181613b6e9190613a22565b50600101613b58565b5090565b90565b613bfa91905b80821115613bf65760008082016000613b9d9190613a22565b60018201600090556002820160006101000a81549060ff0219169055600382016000613bc99190613a22565b600482016000613bd99190613a22565b6005820160006101000a81549060ff021916905550600601613b84565b5090565b90565b5080546000825590600052602060002090810190613c1b9190613b52565b505600a165627a7a72305820f9e7d0ed8612c5c658288d63216ab4569f7eecd0099ba3562b9c503aac3659650029",
  "source": "pragma solidity ^0.4.19;\n\nimport './LiveGame.sol';\n\ncontract Hangman is LiveGame {\n\n  event FundTransfer(address contractAddress, uint wager, bool success);\n\n  function () payable public {\n    //FundTransfer(this, msg.value, true);\n  }\n\n  function createGame(string _word, uint _wager, uint8 _tries, string _userWord, string _userName, uint8 _wordLength) public payable {\n    if (this.send(msg.value)) {\n      reallyCreateGame(_word, _wager, _tries, _userWord, _userName, _wordLength);\n    } else {\n      FundTransfer(this, msg.value, false);\n    }\n  }\n\n  function getPendingGames() public {\n    require(games.length > 0);\n    for(uint i = 0; i < games.length; i++) {\n      if (games[i].wordLength > 0) {\n        PendingGames(i, games[i].wager, games[i].tries, games[i].userName, games[i].userWord, games[i].wordLength);\n      }\n    }\n  }\n }\n",
  "sourcePath": "/Users/tysondaugherty/Desktop/funApps/ether/etherHang/contracts/Hangman.sol",
  "compiler": {
    "name": "solc",
    "version": "0.4.19+commit.c4cbbb05.Emscripten.clang"
  },
  "schemaVersion": "1.0.1",
  "updatedAt": "2018-03-06T18:18:48.094Z"
}