{
  "contractName": "LiveGame",
  "abi": [
    {
      "constant": true,
      "inputs": [
        {
          "name": "",
          "type": "uint256"
        }
      ],
      "name": "games",
      "outputs": [
        {
          "name": "word",
          "type": "string"
        },
        {
          "name": "wager",
          "type": "uint256"
        },
        {
          "name": "tries",
          "type": "uint8"
        },
        {
          "name": "userWord",
          "type": "string"
        },
        {
          "name": "userName",
          "type": "string"
        },
        {
          "name": "wordLength",
          "type": "uint8"
        }
      ],
      "payable": false,
      "stateMutability": "view",
      "type": "function"
    },
    {
      "constant": true,
      "inputs": [
        {
          "name": "",
          "type": "uint256"
        }
      ],
      "name": "activeGames",
      "outputs": [
        {
          "name": "word",
          "type": "string"
        },
        {
          "name": "wager",
          "type": "uint256"
        },
        {
          "name": "maxTries",
          "type": "uint8"
        },
        {
          "name": "uniqGameString",
          "type": "string"
        },
        {
          "name": "hangman",
          "type": "string"
        },
        {
          "name": "challenger",
          "type": "string"
        },
        {
          "name": "tries",
          "type": "uint8"
        },
        {
          "name": "wordLength",
          "type": "uint8"
        }
      ],
      "payable": false,
      "stateMutability": "view",
      "type": "function"
    },
    {
      "constant": true,
      "inputs": [
        {
          "name": "",
          "type": "address"
        }
      ],
      "name": "activeGamesMap",
      "outputs": [
        {
          "name": "",
          "type": "uint256"
        }
      ],
      "payable": false,
      "stateMutability": "view",
      "type": "function"
    },
    {
      "constant": true,
      "inputs": [
        {
          "name": "",
          "type": "uint256"
        }
      ],
      "name": "idToWord",
      "outputs": [
        {
          "name": "",
          "type": "string"
        }
      ],
      "payable": false,
      "stateMutability": "view",
      "type": "function"
    },
    {
      "anonymous": false,
      "inputs": [
        {
          "indexed": false,
          "name": "challenger",
          "type": "string"
        },
        {
          "indexed": false,
          "name": "hangman",
          "type": "string"
        },
        {
          "indexed": false,
          "name": "wager",
          "type": "uint256"
        },
        {
          "indexed": false,
          "name": "maxTries",
          "type": "uint8"
        },
        {
          "indexed": false,
          "name": "uniqGameString",
          "type": "string"
        },
        {
          "indexed": false,
          "name": "wordLength",
          "type": "uint8"
        },
        {
          "indexed": false,
          "name": "tries",
          "type": "uint8"
        },
        {
          "indexed": false,
          "name": "gameId",
          "type": "uint256"
        }
      ],
      "name": "ActiveGameDetails",
      "type": "event"
    },
    {
      "anonymous": false,
      "inputs": [
        {
          "indexed": false,
          "name": "letter",
          "type": "string"
        },
        {
          "indexed": false,
          "name": "index",
          "type": "uint32"
        }
      ],
      "name": "SolutionCheck",
      "type": "event"
    },
    {
      "anonymous": false,
      "inputs": [
        {
          "indexed": false,
          "name": "letter",
          "type": "string"
        },
        {
          "indexed": false,
          "name": "index",
          "type": "uint32"
        }
      ],
      "name": "MissesCheck",
      "type": "event"
    },
    {
      "anonymous": false,
      "inputs": [
        {
          "indexed": false,
          "name": "challenger",
          "type": "string"
        },
        {
          "indexed": false,
          "name": "hangman",
          "type": "string"
        },
        {
          "indexed": false,
          "name": "gameId",
          "type": "uint256"
        },
        {
          "indexed": false,
          "name": "wager",
          "type": "uint256"
        },
        {
          "indexed": false,
          "name": "maxTries",
          "type": "uint8"
        },
        {
          "indexed": false,
          "name": "uniqGameString",
          "type": "string"
        },
        {
          "indexed": false,
          "name": "wordLength",
          "type": "uint8"
        }
      ],
      "name": "GameStarted",
      "type": "event"
    },
    {
      "anonymous": false,
      "inputs": [
        {
          "indexed": false,
          "name": "guess",
          "type": "string"
        },
        {
          "indexed": false,
          "name": "hit",
          "type": "bool"
        },
        {
          "indexed": false,
          "name": "index",
          "type": "uint32"
        }
      ],
      "name": "SolutionGuess",
      "type": "event"
    },
    {
      "anonymous": false,
      "inputs": [
        {
          "indexed": false,
          "name": "winner",
          "type": "string"
        },
        {
          "indexed": false,
          "name": "word",
          "type": "string"
        },
        {
          "indexed": false,
          "name": "loser",
          "type": "string"
        }
      ],
      "name": "GameWinner",
      "type": "event"
    },
    {
      "anonymous": false,
      "inputs": [
        {
          "indexed": false,
          "name": "gameId",
          "type": "uint256"
        },
        {
          "indexed": false,
          "name": "wager",
          "type": "uint256"
        },
        {
          "indexed": false,
          "name": "tries",
          "type": "uint8"
        },
        {
          "indexed": false,
          "name": "userName",
          "type": "string"
        },
        {
          "indexed": false,
          "name": "userWord",
          "type": "string"
        },
        {
          "indexed": false,
          "name": "wordLength",
          "type": "uint8"
        }
      ],
      "name": "NewGame",
      "type": "event"
    },
    {
      "anonymous": false,
      "inputs": [
        {
          "indexed": false,
          "name": "gameId",
          "type": "uint256"
        },
        {
          "indexed": false,
          "name": "wager",
          "type": "uint256"
        },
        {
          "indexed": false,
          "name": "tries",
          "type": "uint8"
        },
        {
          "indexed": false,
          "name": "userName",
          "type": "string"
        },
        {
          "indexed": false,
          "name": "userWord",
          "type": "string"
        },
        {
          "indexed": false,
          "name": "wordLength",
          "type": "uint8"
        }
      ],
      "name": "PendingGames",
      "type": "event"
    },
    {
      "anonymous": false,
      "inputs": [
        {
          "indexed": false,
          "name": "userWord",
          "type": "string"
        }
      ],
      "name": "RemovePendingGame",
      "type": "event"
    },
    {
      "constant": false,
      "inputs": [
        {
          "name": "challenger",
          "type": "string"
        },
        {
          "name": "gameId",
          "type": "uint256"
        },
        {
          "name": "uniqGameString",
          "type": "string"
        },
        {
          "name": "wordLength",
          "type": "uint8"
        }
      ],
      "name": "commenceLiveGame",
      "outputs": [],
      "payable": false,
      "stateMutability": "nonpayable",
      "type": "function"
    },
    {
      "constant": false,
      "inputs": [],
      "name": "getActiveGame",
      "outputs": [],
      "payable": false,
      "stateMutability": "nonpayable",
      "type": "function"
    },
    {
      "constant": false,
      "inputs": [
        {
          "name": "guess",
          "type": "string"
        },
        {
          "name": "gameId",
          "type": "uint256"
        }
      ],
      "name": "checkGuess",
      "outputs": [],
      "payable": false,
      "stateMutability": "nonpayable",
      "type": "function"
    }
  ],
  "bytecode": "0x606060405260008060006101000a81548163ffffffff021916908363ffffffff160217905550341561003057600080fd5b6132d28061003f6000396000f300606060405260043610610083576000357c0100000000000000000000000000000000000000000000000000000000900463ffffffff168063117a5b901461008857806313e4c714146102745780632ec1c017146104f65780634d83d55a14610543578063957b5fb4146105df578063d77eef1b146105f4578063e6b2bc141461065a575b600080fd5b341561009357600080fd5b6100a9600480803590602001909190505061070f565b60405180806020018781526020018660ff1660ff16815260200180602001806020018560ff1660ff16815260200184810384528a8181546001816001161561010002031660029004815260200191508054600181600116156101000203166002900480156101585780601f1061012d57610100808354040283529160200191610158565b820191906000526020600020905b81548152906001019060200180831161013b57829003601f168201915b50508481038352878181546001816001161561010002031660029004815260200191508054600181600116156101000203166002900480156101db5780601f106101b0576101008083540402835291602001916101db565b820191906000526020600020905b8154815290600101906020018083116101be57829003601f168201915b505084810382528681815460018160011615610100020316600290048152602001915080546001816001161561010002031660029004801561025e5780601f106102335761010080835404028352916020019161025e565b820191906000526020600020905b81548152906001019060200180831161024157829003601f168201915b5050995050505050505050505060405180910390f35b341561027f57600080fd5b6102956004808035906020019091905050610771565b60405180806020018981526020018860ff1660ff1681526020018060200180602001806020018760ff1660ff1681526020018660ff1660ff16815260200185810385528d8181546001816001161561010002031660029004815260200191508054600181600116156101000203166002900480156103545780601f1061032957610100808354040283529160200191610354565b820191906000526020600020905b81548152906001019060200180831161033757829003601f168201915b505085810384528a8181546001816001161561010002031660029004815260200191508054600181600116156101000203166002900480156103d75780601f106103ac576101008083540402835291602001916103d7565b820191906000526020600020905b8154815290600101906020018083116103ba57829003601f168201915b505085810383528981815460018160011615610100020316600290048152602001915080546001816001161561010002031660029004801561045a5780601f1061042f5761010080835404028352916020019161045a565b820191906000526020600020905b81548152906001019060200180831161043d57829003601f168201915b50508581038252888181546001816001161561010002031660029004815260200191508054600181600116156101000203166002900480156104dd5780601f106104b2576101008083540402835291602001916104dd565b820191906000526020600020905b8154815290600101906020018083116104c057829003601f168201915b50509c5050505050505050505050505060405180910390f35b341561050157600080fd5b61052d600480803573ffffffffffffffffffffffffffffffffffffffff169060200190919050506107eb565b6040518082815260200191505060405180910390f35b341561054e57600080fd5b6105646004808035906020019091905050610803565b6040518080602001828103825283818151815260200191508051906020019080838360005b838110156105a4578082015181840152602081019050610589565b50505050905090810190601f1680156105d15780820380516001836020036101000a031916815260200191505b509250505060405180910390f35b34156105ea57600080fd5b6105f26108b3565b005b34156105ff57600080fd5b610658600480803590602001908201803590602001908080601f01602080910402602001604051908101604052809392919081815260200183838082843782019150505050505091908035906020019091905050610d97565b005b341561066557600080fd5b61070d600480803590602001908201803590602001908080601f0160208091040260200160405190810160405280939291908181526020018383808284378201915050505050509190803590602001909190803590602001908201803590602001908080601f0160208091040260200160405190810160405280939291908181526020018383808284378201915050505050509190803560ff16906020019091905050611146565b005b60018181548110151561071e57fe5b906000526020600020906006020160009150905080600001908060010154908060020160009054906101000a900460ff1690806003019080600401908060050160009054906101000a900460ff16905086565b60038181548110151561078057fe5b90600052602060002090600a020160009150905080600001908060010154908060020160009054906101000a900460ff16908060030190806004019080600501908060060160009054906101000a900460ff16908060090160009054906101000a900460ff16905088565b60046020528060005260406000206000915090505481565b60026020528060005260406000206000915090508054600181600116156101000203166002900480601f0160208091040260200160405190810160405280929190818152602001828054600181600116156101000203166002900480156108ab5780601f10610880576101008083540402835291602001916108ab565b820191906000526020600020905b81548152906001019060200180831161088e57829003601f168201915b505050505081565b60006108be33611715565b90507fdcc734248b9e9bcfcbd1187acf9d439e66a0c2b499a0f417d9826384973aad0a6003600460003373ffffffffffffffffffffffffffffffffffffffff1673ffffffffffffffffffffffffffffffffffffffff1681526020019081526020016000205481548110151561092f57fe5b90600052602060002090600a02016005016003600460003373ffffffffffffffffffffffffffffffffffffffff1673ffffffffffffffffffffffffffffffffffffffff1681526020019081526020016000205481548110151561098e57fe5b90600052602060002090600a02016004016003600460003373ffffffffffffffffffffffffffffffffffffffff1673ffffffffffffffffffffffffffffffffffffffff168152602001908152602001600020548154811015156109ed57fe5b90600052602060002090600a0201600101546003600460003373ffffffffffffffffffffffffffffffffffffffff1673ffffffffffffffffffffffffffffffffffffffff16815260200190815260200160002054815481101515610a4d57fe5b90600052602060002090600a020160020160009054906101000a900460ff166003600460003373ffffffffffffffffffffffffffffffffffffffff1673ffffffffffffffffffffffffffffffffffffffff16815260200190815260200160002054815481101515610aba57fe5b90600052602060002090600a02016003016003600460003373ffffffffffffffffffffffffffffffffffffffff1673ffffffffffffffffffffffffffffffffffffffff16815260200190815260200160002054815481101515610b1957fe5b90600052602060002090600a020160090160009054906101000a900460ff166003600460003373ffffffffffffffffffffffffffffffffffffffff1673ffffffffffffffffffffffffffffffffffffffff16815260200190815260200160002054815481101515610b8657fe5b90600052602060002090600a020160060160009054906101000a900460ff16886040518080602001806020018981526020018860ff1660ff168152602001806020018760ff1660ff1681526020018660ff1660ff16815260200185815260200184810384528c818154600181600116156101000203166002900481526020019150805460018160011615610100020316600290048015610c675780601f10610c3c57610100808354040283529160200191610c67565b820191906000526020600020905b815481529060010190602001808311610c4a57829003601f168201915b505084810383528b818154600181600116156101000203166002900481526020019150805460018160011615610100020316600290048015610cea5780601f10610cbf57610100808354040283529160200191610cea565b820191906000526020600020905b815481529060010190602001808311610ccd57829003601f168201915b5050848103825288818154600181600116156101000203166002900481526020019150805460018160011615610100020316600290048015610d6d5780601f10610d4257610100808354040283529160200191610d6d565b820191906000526020600020905b815481529060010190602001808311610d5057829003601f168201915b50509b50505050505050505050505060405180910390a1610d8c61175e565b610d94611af6565b50565b6000610da1612f43565b6000600384815481101515610db257fe5b90600052602060002090600a0201600601600081819054906101000a900460ff168092919060010191906101000a81548160ff021916908360ff1602179055505060009250600384815481101515610e0657fe5b90600052602060002090600a02016000018054600181600116156101000203166002900480601f016020809104026020016040519081016040528092919081815260200182805460018160011615610100020316600290048015610eab5780601f10610e8057610100808354040283529160200191610eab565b820191906000526020600020905b815481529060010190602001808311610e8e57829003601f168201915b50505050509150600185511115610ecb57610ec68585611cc5565b61113f565b60018551141561113e57600090505b81518163ffffffff16101561110e57846000815181101515610ef857fe5b9060200101517f010000000000000000000000000000000000000000000000000000000000000090047f0100000000000000000000000000000000000000000000000000000000000000027effffffffffffffffffffffffffffffffffffffffffffffffffffffffffffff1916828263ffffffff16815181101515610f7957fe5b9060200101517f010000000000000000000000000000000000000000000000000000000000000090047f0100000000000000000000000000000000000000000000000000000000000000027effffffffffffffffffffffffffffffffffffffffffffffffffffffffffffff1916141561110157600192508460038581548110151561100057fe5b90600052602060002090600a02016007018263ffffffff1681548110151561102457fe5b90600052602060002090019080519060200190611042929190612f57565b507f8696d55ed69c77973e49639ae68e35aa5413a6f73d521601bfb9a1bf27215da5856001836040518080602001841515151581526020018363ffffffff1663ffffffff168152602001828103825285818151815260200191508051906020019080838360005b838110156110c45780820151818401526020810190506110a9565b50505050905090810190601f1680156110f15780820380516001836020036101000a031916815260200191505b5094505050505060405180910390a15b8080600101915050610eda565b6001151583151514156111255761112484612125565b5b60001515831515141561113d5761113c8486612902565b5b5b5b5050505050565b61114e612f43565b6000611158612fd7565b611160612fd7565b600060018881548110151561117157fe5b90600052602060002090600602016000018054600181600116156101000203166002900480601f0160208091040260200160405190810160405280929190818152602001828054600181600116156101000203166002900480156112165780601f106111eb57610100808354040283529160200191611216565b820191906000526020600020905b8154815290600101906020018083116111f957829003601f168201915b50505050509450600093506001600380548060010182816112379190612feb565b91600052602060002090600a02016000610140604051908101604052808a815260200160018e81548110151561126957fe5b906000526020600020906006020160010154815260200160018e81548110151561128f57fe5b906000526020600020906006020160020160009054906101000a900460ff1660ff1681526020018c815260200160018e8154811015156112cb57fe5b90600052602060002090600602016004018054600181600116156101000203166002900480601f0160208091040260200160405190810160405280929190818152602001828054600181600116156101000203166002900480156113705780601f1061134557610100808354040283529160200191611370565b820191906000526020600020905b81548152906001019060200180831161135357829003601f168201915b505050505081526020018e81526020018960ff1681526020018881526020018781526020018b60ff16815250909190915060008201518160000190805190602001906113bd92919061301d565b506020820151816001015560408201518160020160006101000a81548160ff021916908360ff160217905550606082015181600301908051906020019061140592919061301d565b50608082015181600401908051906020019061142292919061301d565b5060a082015181600501908051906020019061143f92919061301d565b5060c08201518160060160006101000a81548160ff021916908360ff16021790555060e082015181600701908051906020019061147d92919061309d565b5061010082015181600801908051906020019061149b92919061309d565b506101208201518160090160006101000a81548160ff021916908360ff16021790555050500390507f746ffb8547cf17810666c7e53b35fce56fdadb9c4b4d5882ce3746334fdfe6528960018a8154811015156114f457fe5b90600052602060002090600602016004018360018c81548110151561151557fe5b90600052602060002090600602016001015460018d81548110151561153657fe5b906000526020600020906006020160020160009054906101000a900460ff168c8c6040518080602001806020018881526020018781526020018660ff1660ff168152602001806020018560ff1660ff16815260200184810384528b818151815260200191508051906020019080838360005b838110156115c35780820151818401526020810190506115a8565b50505050905090810190601f1680156115f05780820380516001836020036101000a031916815260200191505b5084810383528a8181546001816001161561010002031660029004815260200191508054600181600116156101000203166002900480156116725780601f1061164757610100808354040283529160200191611672565b820191906000526020600020905b81548152906001019060200180831161165557829003601f168201915b5050848103825286818151815260200191508051906020019080838360005b838110156116ac578082015181840152602081019050611691565b50505050905090810190601f1680156116d95780820380516001836020036101000a031916815260200191505b509a505050505050505050505060405180910390a16116f88682612caf565b61170181612d67565b61170a88612dae565b505050505050505050565b6000600460008373ffffffffffffffffffffffffffffffffffffffff1673ffffffffffffffffffffffffffffffffffffffff168152602001908152602001600020549050919050565b611766612f43565b60006040805190810160405280600181526020017f24000000000000000000000000000000000000000000000000000000000000008152509150600090505b6003600460003373ffffffffffffffffffffffffffffffffffffffff1673ffffffffffffffffffffffffffffffffffffffff168152602001908152602001600020548154811015156117f357fe5b90600052602060002090600a0201600701805490508163ffffffff161015611af25781600081518110151561182457fe5b9060200101517f010000000000000000000000000000000000000000000000000000000000000090047f0100000000000000000000000000000000000000000000000000000000000000027effffffffffffffffffffffffffffffffffffffffffffffffffffffffffffff19166003600460003373ffffffffffffffffffffffffffffffffffffffff1673ffffffffffffffffffffffffffffffffffffffff168152602001908152602001600020548154811015156118df57fe5b90600052602060002090600a02016007018263ffffffff1681548110151561190357fe5b90600052602060002090016000815460018160011615610100020316600290048110151561192d57fe5b81546001161561194c5790600052602060002090602091828204019190065b9054901a7f0100000000000000000000000000000000000000000000000000000000000000027effffffffffffffffffffffffffffffffffffffffffffffffffffffffffffff1916141515611ae5577f79cf4eb0d6305e4d55a4c2df65998d7b62c2a406f83d5f6e14d131db42bb70ab6003600460003373ffffffffffffffffffffffffffffffffffffffff1673ffffffffffffffffffffffffffffffffffffffff16815260200190815260200160002054815481101515611a0a57fe5b90600052602060002090600a02016007018263ffffffff16815481101515611a2e57fe5b90600052602060002090018260405180806020018363ffffffff1663ffffffff168152602001828103825284818154600181600116156101000203166002900481526020019150805460018160011615610100020316600290048015611ad55780601f10611aaa57610100808354040283529160200191611ad5565b820191906000526020600020905b815481529060010190602001808311611ab857829003601f168201915b5050935050505060405180910390a15b80806001019150506117a5565b5050565b60008090505b6003600460003373ffffffffffffffffffffffffffffffffffffffff1673ffffffffffffffffffffffffffffffffffffffff16815260200190815260200160002054815481101515611b4a57fe5b90600052602060002090600a0201600801805490508163ffffffff161015611cc2577fd230b39ddf0abb4c478d27f0f161bdd2f200ace6304f4a87d588c44a3fa35e8c6003600460003373ffffffffffffffffffffffffffffffffffffffff1673ffffffffffffffffffffffffffffffffffffffff16815260200190815260200160002054815481101515611bdb57fe5b90600052602060002090600a02016008018263ffffffff16815481101515611bff57fe5b90600052602060002090018260405180806020018363ffffffff1663ffffffff168152602001828103825284818154600181600116156101000203166002900481526020019150805460018160011615610100020316600290048015611ca65780601f10611c7b57610100808354040283529160200191611ca6565b820191906000526020600020905b815481529060010190602001808311611c8957829003601f168201915b5050935050505060405180910390a18080600101915050611afc565b50565b611ccd612f43565b600080600384815481101515611cdf57fe5b90600052602060002090600a02016000018054600181600116156101000203166002900480601f016020809104026020016040519081016040528092919081815260200182805460018160011615610100020316600290048015611d845780601f10611d5957610100808354040283529160200191611d84565b820191906000526020600020905b815481529060010190602001808311611d6757829003601f168201915b505050505092506001915084518351141561211357600090505b82518163ffffffff161015611ed657848163ffffffff16815181101515611dc157fe5b9060200101517f010000000000000000000000000000000000000000000000000000000000000090047f0100000000000000000000000000000000000000000000000000000000000000027effffffffffffffffffffffffffffffffffffffffffffffffffffffffffffff1916838263ffffffff16815181101515611e4257fe5b9060200101517f010000000000000000000000000000000000000000000000000000000000000090047f0100000000000000000000000000000000000000000000000000000000000000027effffffffffffffffffffffffffffffffffffffffffffffffffffffffffffff1916141515611ec95760009150611ec48486612902565b611ed6565b8080600101915050611d9e565b60011515821515141561210e577fffedf7f8820dde2d4b397a1fc7d384e98b9e4a78a9da7bd4352fe2340d0bf65b600385815481101515611f1357fe5b90600052602060002090600a0201600501600386815481101515611f3357fe5b90600052602060002090600a0201600001600387815481101515611f5357fe5b90600052602060002090600a020160040160405180806020018060200180602001848103845287818154600181600116156101000203166002900481526020019150805460018160011615610100020316600290048015611ff55780601f10611fca57610100808354040283529160200191611ff5565b820191906000526020600020905b815481529060010190602001808311611fd857829003601f168201915b50508481038352868181546001816001161561010002031660029004815260200191508054600181600116156101000203166002900480156120785780601f1061204d57610100808354040283529160200191612078565b820191906000526020600020905b81548152906001019060200180831161205b57829003601f168201915b50508481038252858181546001816001161561010002031660029004815260200191508054600181600116156101000203166002900480156120fb5780601f106120d0576101008083540402835291602001916120fb565b820191906000526020600020905b8154815290600101906020018083116120de57829003601f168201915b5050965050505050505060405180910390a15b61211e565b61211d8486612902565b5b5050505050565b61212d612f43565b6000612137612f43565b600060038581548110151561214857fe5b90600052602060002090600a02016000018054600181600116156101000203166002900480601f0160208091040260200160405190810160405280929190818152602001828054600181600116156101000203166002900480156121ed5780601f106121c2576101008083540402835291602001916121ed565b820191906000526020600020905b8154815290600101906020018083116121d057829003601f168201915b5050505050935060019250600090505b60038581548110151561220c57fe5b90600052602060002090600a0201600701805490508163ffffffff1610156124215760038581548110151561223d57fe5b90600052602060002090600a02016007018163ffffffff1681548110151561226157fe5b90600052602060002090018054600181600116156101000203166002900480601f0160208091040260200160405190810160405280929190818152602001828054600181600116156101000203166002900480156123005780601f106122d557610100808354040283529160200191612300565b820191906000526020600020905b8154815290600101906020018083116122e357829003601f168201915b50505050509150838163ffffffff1681518110151561231b57fe5b9060200101517f010000000000000000000000000000000000000000000000000000000000000090047f0100000000000000000000000000000000000000000000000000000000000000027effffffffffffffffffffffffffffffffffffffffffffffffffffffffffffff191682600081518110151561239757fe5b9060200101517f010000000000000000000000000000000000000000000000000000000000000090047f0100000000000000000000000000000000000000000000000000000000000000027effffffffffffffffffffffffffffffffffffffffffffffffffffffffffffff19161415156124145760009250612421565b80806001019150506121fd565b600115158315151415612659577fffedf7f8820dde2d4b397a1fc7d384e98b9e4a78a9da7bd4352fe2340d0bf65b60038681548110151561245e57fe5b90600052602060002090600a020160050160038781548110151561247e57fe5b90600052602060002090600a020160000160038881548110151561249e57fe5b90600052602060002090600a0201600401604051808060200180602001806020018481038452878181546001816001161561010002031660029004815260200191508054600181600116156101000203166002900480156125405780601f1061251557610100808354040283529160200191612540565b820191906000526020600020905b81548152906001019060200180831161252357829003601f168201915b50508481038352868181546001816001161561010002031660029004815260200191508054600181600116156101000203166002900480156125c35780601f10612598576101008083540402835291602001916125c3565b820191906000526020600020905b8154815290600101906020018083116125a657829003601f168201915b50508481038252858181546001816001161561010002031660029004815260200191508054600181600116156101000203166002900480156126465780601f1061261b57610100808354040283529160200191612646565b820191906000526020600020905b81548152906001019060200180831161262957829003601f168201915b5050965050505050505060405180910390a15b6000151583151514156128fb5760038581548110151561267557fe5b90600052602060002090600a020160020160009054906101000a900460ff1660ff166003868154811015156126a657fe5b90600052602060002090600a020160060160009054906101000a900460ff1660ff161015156128fa577fffedf7f8820dde2d4b397a1fc7d384e98b9e4a78a9da7bd4352fe2340d0bf65b6003868154811015156126ff57fe5b90600052602060002090600a020160040160038781548110151561271f57fe5b90600052602060002090600a020160000160038881548110151561273f57fe5b90600052602060002090600a0201600501604051808060200180602001806020018481038452878181546001816001161561010002031660029004815260200191508054600181600116156101000203166002900480156127e15780601f106127b6576101008083540402835291602001916127e1565b820191906000526020600020905b8154815290600101906020018083116127c457829003601f168201915b50508481038352868181546001816001161561010002031660029004815260200191508054600181600116156101000203166002900480156128645780601f1061283957610100808354040283529160200191612864565b820191906000526020600020905b81548152906001019060200180831161284757829003601f168201915b50508481038252858181546001816001161561010002031660029004815260200191508054600181600116156101000203166002900480156128e75780601f106128bc576101008083540402835291602001916128e7565b820191906000526020600020905b8154815290600101906020018083116128ca57829003601f168201915b5050965050505050505060405180910390a15b5b5050505050565b60038281548110151561291157fe5b90600052602060002090600a020160060160009054906101000a900460ff1660ff1660038381548110151561294257fe5b90600052602060002090600a020160020160009054906101000a900460ff1660ff161115612a80577f8696d55ed69c77973e49639ae68e35aa5413a6f73d521601bfb9a1bf27215da5816000806040518080602001841515151581526020018363ffffffff168152602001828103825285818151815260200191508051906020019080838360005b838110156129e55780820151818401526020810190506129ca565b50505050905090810190601f168015612a125780820380516001836020036101000a031916815260200191505b5094505050505060405180910390a1600382815481101515612a3057fe5b90600052602060002090600a02016008018054806001018281612a5391906130fd565b916000526020600020900160008390919091509080519060200190612a79929190612f57565b5050612cab565b7fffedf7f8820dde2d4b397a1fc7d384e98b9e4a78a9da7bd4352fe2340d0bf65b600383815481101515612ab057fe5b90600052602060002090600a0201600401600384815481101515612ad057fe5b90600052602060002090600a0201600001600385815481101515612af057fe5b90600052602060002090600a020160050160405180806020018060200180602001848103845287818154600181600116156101000203166002900481526020019150805460018160011615610100020316600290048015612b925780601f10612b6757610100808354040283529160200191612b92565b820191906000526020600020905b815481529060010190602001808311612b7557829003601f168201915b5050848103835286818154600181600116156101000203166002900481526020019150805460018160011615610100020316600290048015612c155780601f10612bea57610100808354040283529160200191612c15565b820191906000526020600020905b815481529060010190602001808311612bf857829003601f168201915b5050848103825285818154600181600116156101000203166002900481526020019150805460018160011615610100020316600290048015612c985780601f10612c6d57610100808354040283529160200191612c98565b820191906000526020600020905b815481529060010190602001808311612c7b57829003601f168201915b5050965050505050505060405180910390a15b5050565b60008090505b8260ff168163ffffffff161015612d6257600382815481101515612cd557fe5b90600052602060002090600a02016007018054806001018281612cf891906130fd565b916000526020600020900160006040805190810160405280600181526020017f240000000000000000000000000000000000000000000000000000000000000081525090919091509080519060200190612d53929190612f57565b50508080600101915050612cb5565b505050565b80600460003373ffffffffffffffffffffffffffffffffffffffff1673ffffffffffffffffffffffffffffffffffffffff1681526020019081526020016000208190555050565b7f3c292ea39929efc9883230ce64b1d2bc9218bb71cb8a754ff1cb2dae6aad0846600182815481101515612dde57fe5b90600052602060002090600602016003016040518080602001828103825283818154600181600116156101000203166002900481526020019150805460018160011615610100020316600290048015612e785780601f10612e4d57610100808354040283529160200191612e78565b820191906000526020600020905b815481529060010190602001808311612e5b57829003601f168201915b50509250505060405180910390a1600181815481101515612e9557fe5b906000526020600020906006020160008082016000612eb49190613129565b60018201600090556002820160006101000a81549060ff0219169055600382016000612ee09190613129565b600482016000612ef09190613129565b6005820160006101000a81549060ff0219169055505060008081819054906101000a900463ffffffff168092919060010191906101000a81548163ffffffff021916908363ffffffff1602179055505050565b602060405190810160405280600081525090565b828054600181600116156101000203166002900490600052602060002090601f016020900481019282601f10612f9857805160ff1916838001178555612fc6565b82800160010185558215612fc6579182015b82811115612fc5578251825591602001919060010190612faa565b5b509050612fd39190613171565b5090565b602060405190810160405280600081525090565b81548183558181151161301857600a0281600a0283600052602060002091820191016130179190613196565b5b505050565b828054600181600116156101000203166002900490600052602060002090601f016020900481019282601f1061305e57805160ff191683800117855561308c565b8280016001018555821561308c579182015b8281111561308b578251825591602001919060010190613070565b5b5090506130999190613171565b5090565b8280548282559060005260206000209081019282156130ec579160200282015b828111156130eb5782518290805190602001906130db92919061301d565b50916020019190600101906130bd565b5b5090506130f99190613259565b5090565b815481835581811511613124578183600052602060002091820191016131239190613259565b5b505050565b50805460018160011615610100020316600290046000825580601f1061314f575061316e565b601f01602090049060005260206000209081019061316d9190613171565b5b50565b61319391905b8082111561318f576000816000905550600101613177565b5090565b90565b61325691905b8082111561325257600080820160006131b59190613129565b60018201600090556002820160006101000a81549060ff02191690556003820160006131e19190613129565b6004820160006131f19190613129565b6005820160006132019190613129565b6006820160006101000a81549060ff02191690556007820160006132259190613285565b6008820160006132359190613285565b6009820160006101000a81549060ff021916905550600a0161319c565b5090565b90565b61328291905b8082111561327e57600081816132759190613129565b5060010161325f565b5090565b90565b50805460008255906000526020600020908101906132a39190613259565b505600a165627a7a72305820a3618e0dfd05a06c43f896c8cc09377c54841cdd7c6c4f41e45c282e4dd185640029",
  "source": "pragma solidity ^0.4.19;\n\nimport './PendingGame.sol';\n\ncontract LiveGame is PendingGame {\n\n  event ActiveGameDetails(string challenger, string hangman, uint wager, uint8 maxTries, string uniqGameString, uint8 wordLength, uint8 tries, uint gameId);\n  event SolutionCheck(string letter, uint32 index);\n  event MissesCheck(string letter, uint32 index);\n  event GameStarted(string challenger, string hangman, uint gameId, uint wager, uint8 maxTries, string uniqGameString, uint8 wordLength);\n  event SolutionGuess(string guess, bool hit, uint32 index);\n  event GameWinner(string winner, string word, string loser);\n\n  struct ActiveGame {\n    string word;\n    uint wager;\n    uint8 maxTries;\n    string uniqGameString;\n    string hangman;\n    string challenger;\n    uint8 tries;\n    string[] hits;\n    string[] misses;\n    uint8 wordLength;\n  }\n\n  ActiveGame[] public activeGames;\n  mapping(address => uint) public activeGamesMap;\n\n  function checkSendHits() private {\n    string memory holder = '$';\n    for (uint32 i = 0; i < activeGames[activeGamesMap[msg.sender]].hits.length; i++) {\n      if (bytes(activeGames[activeGamesMap[msg.sender]].hits[i])[0] != bytes(holder)[0]) {\n        SolutionCheck(activeGames[activeGamesMap[msg.sender]].hits[i], i);\n      }\n    }\n  }\n\n  function checkSendMisses() private {\n    for (uint32 i = 0; i < activeGames[activeGamesMap[msg.sender]].misses.length; i++) {\n      MissesCheck(activeGames[activeGamesMap[msg.sender]].misses[i], i);\n    }\n  }\n\n  function checkWordGuess(string guess, uint gameId) private {\n    string memory gameWord = activeGames[gameId].word;\n    bool isSolved = true;\n    if (bytes(gameWord).length == bytes(guess).length) {\n      for (uint32 i = 0; i < bytes(gameWord).length; i++) {\n        if (bytes(gameWord)[i] != bytes(guess)[i]) {\n          isSolved = false;\n          checkHanged(gameId, guess);\n          break;\n        }\n      }\n      if (isSolved == true) {\n        GameWinner(activeGames[gameId].challenger, activeGames[gameId].word, activeGames[gameId].hangman);\n      }\n    } else {\n      checkHanged(gameId, guess);\n    }\n  }\n\n  function commenceLiveGame(string challenger, uint gameId, string uniqGameString, uint8 wordLength) public {\n    string memory gameWord = games[gameId].word;\n    uint8 tries = 0;\n    string[] memory hits;\n    string[] memory misses;\n    uint id = activeGames.push(ActiveGame(gameWord, games[gameId].wager, games[gameId].tries, uniqGameString, games[gameId].userName, challenger, tries, hits, misses, wordLength)) - 1;\n    GameStarted(challenger, games[gameId].userName, id, games[gameId].wager, games[gameId].tries, uniqGameString, wordLength);\n    initSolutionArray(wordLength, id);\n    mapLiveGameToAddress(id);\n    removeGameFromPending(gameId);\n  }\n\n  function getActiveGame() public {\n    uint gameId = getMapIndex(msg.sender);\n    ActiveGameDetails(activeGames[activeGamesMap[msg.sender]].challenger,\n      activeGames[activeGamesMap[msg.sender]].hangman,\n      activeGames[activeGamesMap[msg.sender]].wager,\n      activeGames[activeGamesMap[msg.sender]].maxTries,\n      activeGames[activeGamesMap[msg.sender]].uniqGameString,\n      activeGames[activeGamesMap[msg.sender]].wordLength,\n      activeGames[activeGamesMap[msg.sender]].tries,\n      gameId\n    );\n    checkSendHits();\n    checkSendMisses();\n  }\n\n  function checkGuess(string guess, uint gameId) public {\n    activeGames[gameId].tries++;\n    bool isHit = false;\n    string memory gameWord = activeGames[gameId].word;\n    if (bytes(guess).length > 1) {\n      checkWordGuess(guess, gameId);\n    } else if (bytes(guess).length == 1) {\n      for (uint32 i = 0; i < bytes(gameWord).length; i++) {\n        if (bytes(gameWord)[i] == bytes(guess)[0]) {\n          isHit = true;\n          activeGames[gameId].hits[i] = guess;\n          SolutionGuess(guess, true, i);\n        }\n      }\n      if (isHit == true) {\n        checkSolved(gameId);\n      }\n      if (isHit == false) {\n        checkHanged(gameId, guess);\n      }\n    }\n  }\n\n  function checkHanged(uint gameId, string guess) private {\n    if (activeGames[gameId].maxTries > activeGames[gameId].tries) {\n      SolutionGuess(guess, false, 0);\n      activeGames[gameId].misses.push(guess);\n    } else {\n      GameWinner(activeGames[gameId].hangman, activeGames[gameId].word, activeGames[gameId].challenger);\n    }\n  }\n\n  function getMapIndex(address challenger) private view returns(uint) {\n    return activeGamesMap[challenger];\n  }\n\n  function initSolutionArray(uint8 wordLength, uint gameIndex) private {\n    for (uint32 i = 0; i < wordLength; i++) {\n      activeGames[gameIndex].hits.push('$');\n    }\n  }\n\n  function mapLiveGameToAddress(uint gameIndex) private {\n    activeGamesMap[msg.sender] = gameIndex;\n  }\n\n  function checkSolved(uint gameId) private {\n    string memory gameWord = activeGames[gameId].word;\n    bool isSolution = true;\n    string memory letter;\n    for (uint32 i = 0; i < activeGames[gameId].hits.length; i++) {\n      letter = activeGames[gameId].hits[i];\n      if (bytes(letter)[0] != bytes(gameWord)[i]) {\n        isSolution = false;\n        break;\n      }\n    }\n    if (isSolution == true) {\n      GameWinner(activeGames[gameId].challenger, activeGames[gameId].word, activeGames[gameId].hangman);\n    }\n    if (isSolution == false) {\n      if (activeGames[gameId].tries >= activeGames[gameId].maxTries) {\n        GameWinner(activeGames[gameId].hangman, activeGames[gameId].word, activeGames[gameId].challenger);\n      }\n    }\n  }\n}\n",
  "sourcePath": "/Users/tysondaugherty/Desktop/funApps/ether/etherHang/contracts/LiveGame.sol",
  "compiler": {
    "name": "solc",
    "version": "0.4.19+commit.c4cbbb05.Emscripten.clang"
  },
  "schemaVersion": "1.0.1",
  "updatedAt": "2018-03-06T18:18:48.099Z"
}