{
  "contractName": "LiveGame",
  "abi": [
    {
      "constant": true,
      "inputs": [
        {
          "name": "",
          "type": "uint256"
        }
      ],
      "name": "games",
      "outputs": [
        {
          "name": "word",
          "type": "string"
        },
        {
          "name": "wager",
          "type": "uint8"
        },
        {
          "name": "tries",
          "type": "uint8"
        },
        {
          "name": "userWord",
          "type": "string"
        },
        {
          "name": "userName",
          "type": "string"
        },
        {
          "name": "wordLength",
          "type": "uint8"
        }
      ],
      "payable": false,
      "stateMutability": "view",
      "type": "function"
    },
    {
      "constant": true,
      "inputs": [
        {
          "name": "",
          "type": "uint256"
        }
      ],
      "name": "idToWord",
      "outputs": [
        {
          "name": "",
          "type": "string"
        }
      ],
      "payable": false,
      "stateMutability": "view",
      "type": "function"
    },
    {
      "constant": false,
      "inputs": [
        {
          "name": "_word",
          "type": "string"
        },
        {
          "name": "_wager",
          "type": "uint8"
        },
        {
          "name": "_tries",
          "type": "uint8"
        },
        {
          "name": "_userWord",
          "type": "string"
        },
        {
          "name": "_userName",
          "type": "string"
        },
        {
          "name": "_wordLength",
          "type": "uint8"
        }
      ],
      "name": "createGame",
      "outputs": [],
      "payable": false,
      "stateMutability": "nonpayable",
      "type": "function"
    },
    {
      "constant": false,
      "inputs": [],
      "name": "getPendingGames",
      "outputs": [],
      "payable": false,
      "stateMutability": "nonpayable",
      "type": "function"
    },
    {
      "anonymous": false,
      "inputs": [
        {
          "indexed": false,
          "name": "challenger",
          "type": "string"
        },
        {
          "indexed": false,
          "name": "gameId",
          "type": "uint256"
        },
        {
          "indexed": false,
          "name": "word",
          "type": "string"
        }
      ],
      "name": "GameStarted",
      "type": "event"
    },
    {
      "anonymous": false,
      "inputs": [
        {
          "indexed": false,
          "name": "gameId",
          "type": "uint256"
        },
        {
          "indexed": false,
          "name": "wager",
          "type": "uint8"
        },
        {
          "indexed": false,
          "name": "tries",
          "type": "uint8"
        },
        {
          "indexed": false,
          "name": "userName",
          "type": "string"
        },
        {
          "indexed": false,
          "name": "userWord",
          "type": "string"
        },
        {
          "indexed": false,
          "name": "wordLength",
          "type": "uint8"
        }
      ],
      "name": "NewGame",
      "type": "event"
    },
    {
      "anonymous": false,
      "inputs": [
        {
          "indexed": false,
          "name": "gameId",
          "type": "uint256"
        },
        {
          "indexed": false,
          "name": "wager",
          "type": "uint8"
        },
        {
          "indexed": false,
          "name": "tries",
          "type": "uint8"
        },
        {
          "indexed": false,
          "name": "userName",
          "type": "string"
        },
        {
          "indexed": false,
          "name": "userWord",
          "type": "string"
        },
        {
          "indexed": false,
          "name": "wordLength",
          "type": "uint8"
        }
      ],
      "name": "PendingGame",
      "type": "event"
    },
    {
      "constant": false,
      "inputs": [
        {
          "name": "challenger",
          "type": "string"
        },
        {
          "name": "gameId",
          "type": "uint256"
        }
      ],
      "name": "startLiveGame",
      "outputs": [],
      "payable": false,
      "stateMutability": "nonpayable",
      "type": "function"
    }
  ],
  "bytecode": "0x6060604052341561000f57600080fd5b610ed78061001e6000396000f30060606040526004361061006d576000357c0100000000000000000000000000000000000000000000000000000000900463ffffffff168063117a5b90146100725780634d83d55a1461026457806364751e1014610300578063772c6f8714610407578063ff6f4bc11461046d575b600080fd5b341561007d57600080fd5b6100936004808035906020019091905050610482565b60405180806020018760ff1660ff1681526020018660ff1660ff16815260200180602001806020018560ff1660ff16815260200184810384528a8181546001816001161561010002031660029004815260200191508054600181600116156101000203166002900480156101485780601f1061011d57610100808354040283529160200191610148565b820191906000526020600020905b81548152906001019060200180831161012b57829003601f168201915b50508481038352878181546001816001161561010002031660029004815260200191508054600181600116156101000203166002900480156101cb5780601f106101a0576101008083540402835291602001916101cb565b820191906000526020600020905b8154815290600101906020018083116101ae57829003601f168201915b505084810382528681815460018160011615610100020316600290048152602001915080546001816001161561010002031660029004801561024e5780601f106102235761010080835404028352916020019161024e565b820191906000526020600020905b81548152906001019060200180831161023157829003601f168201915b5050995050505050505050505060405180910390f35b341561026f57600080fd5b61028560048080359060200190919050506104f1565b6040518080602001828103825283818151815260200191508051906020019080838360005b838110156102c55780820151818401526020810190506102aa565b50505050905090810190601f1680156102f25780820380516001836020036101000a031916815260200191505b509250505060405180910390f35b341561030b57600080fd5b610405600480803590602001908201803590602001908080601f0160208091040260200160405190810160405280939291908181526020018383808284378201915050505050509190803560ff1690602001909190803560ff1690602001909190803590602001908201803590602001908080601f0160208091040260200160405190810160405280939291908181526020018383808284378201915050505050509190803590602001908201803590602001908080601f0160208091040260200160405190810160405280939291908181526020018383808284378201915050505050509190803560ff169060200190919050506105a1565b005b341561041257600080fd5b61046b600480803590602001908201803590602001908080601f01602080910402602001604051908101604052809392919081815260200183838082843782019150505050505091908035906020019091905050610830565b005b341561047857600080fd5b6104806109fc565b005b60008181548110151561049157fe5b906000526020600020906005020160009150905080600001908060010160009054906101000a900460ff16908060010160019054906101000a900460ff1690806002019080600301908060040160009054906101000a900460ff16905086565b60016020528060005260406000206000915090508054600181600116156101000203166002900480601f0160208091040260200160405190810160405280929190818152602001828054600181600116156101000203166002900480156105995780601f1061056e57610100808354040283529160200191610599565b820191906000526020600020905b81548152906001019060200180831161057c57829003601f168201915b505050505081565b60006001600080548060010182816105b99190610c6d565b9160005260206000209060050201600060c0604051908101604052808c81526020018b60ff1681526020018a60ff1681526020018981526020018881526020018760ff1681525090919091506000820151816000019080519060200190610621929190610c9f565b5060208201518160010160006101000a81548160ff021916908360ff16021790555060408201518160010160016101000a81548160ff021916908360ff1602179055506060820151816002019080519060200190610680929190610c9f565b50608082015181600301908051906020019061069d929190610c9f565b5060a08201518160040160006101000a81548160ff021916908360ff1602179055505050039050866001600083815260200190815260200160002090805190602001906106eb929190610d1f565b507ffa90035500eba52653bd3e7f70d8dce39e97b59fc9918ab002887d494cd292de818787868887604051808781526020018660ff1660ff1681526020018560ff1660ff16815260200180602001806020018460ff1660ff168152602001838103835286818151815260200191508051906020019080838360005b83811015610781578082015181840152602081019050610766565b50505050905090810190601f1680156107ae5780820380516001836020036101000a031916815260200191505b50838103825285818151815260200191508051906020019080838360005b838110156107e75780820151818401526020810190506107cc565b50505050905090810190601f1680156108145780820380516001836020036101000a031916815260200191505b509850505050505050505060405180910390a150505050505050565b610838610d9f565b600160008381526020019081526020016000208054600181600116156101000203166002900480601f0160208091040260200160405190810160405280929190818152602001828054600181600116156101000203166002900480156108df5780601f106108b4576101008083540402835291602001916108df565b820191906000526020600020905b8154815290600101906020018083116108c257829003601f168201915b505050505090507f9c999deba072adf43da1b5324920f183263163ce77cd0f0c3be1fe8209281607838383604051808060200184815260200180602001838103835286818151815260200191508051906020019080838360005b83811015610954578082015181840152602081019050610939565b50505050905090810190601f1680156109815780820380516001836020036101000a031916815260200191505b50838103825284818151815260200191508051906020019080838360005b838110156109ba57808201518184015260208101905061099f565b50505050905090810190601f1680156109e75780820380516001836020036101000a031916815260200191505b509550505050505060405180910390a1505050565b600080600080549050111515610a1157600080fd5b600090505b600080549050811015610c6a577f665ee6b7ac93e2c6a3d81ceb999e1cd3aaec0f5757768def4bfa9d5c119a6c5a81600083815481101515610a5457fe5b906000526020600020906005020160010160009054906101000a900460ff16600084815481101515610a8257fe5b906000526020600020906005020160010160019054906101000a900460ff16600085815481101515610ab057fe5b9060005260206000209060050201600301600086815481101515610ad057fe5b9060005260206000209060050201600201600087815481101515610af057fe5b906000526020600020906005020160040160009054906101000a900460ff16604051808781526020018660ff1660ff1681526020018560ff1660ff16815260200180602001806020018460ff1660ff168152602001838103835286818154600181600116156101000203166002900481526020019150805460018160011615610100020316600290048015610bc65780601f10610b9b57610100808354040283529160200191610bc6565b820191906000526020600020905b815481529060010190602001808311610ba957829003601f168201915b5050838103825285818154600181600116156101000203166002900481526020019150805460018160011615610100020316600290048015610c495780601f10610c1e57610100808354040283529160200191610c49565b820191906000526020600020905b815481529060010190602001808311610c2c57829003601f168201915b50509850505050505050505060405180910390a18080600101915050610a16565b50565b815481835581811511610c9a57600502816005028360005260206000209182019101610c999190610db3565b5b505050565b828054600181600116156101000203166002900490600052602060002090601f016020900481019282601f10610ce057805160ff1916838001178555610d0e565b82800160010185558215610d0e579182015b82811115610d0d578251825591602001919060010190610cf2565b5b509050610d1b9190610e3e565b5090565b828054600181600116156101000203166002900490600052602060002090601f016020900481019282601f10610d6057805160ff1916838001178555610d8e565b82800160010185558215610d8e579182015b82811115610d8d578251825591602001919060010190610d72565b5b509050610d9b9190610e3e565b5090565b602060405190810160405280600081525090565b610e3b91905b80821115610e375760008082016000610dd29190610e63565b6001820160006101000a81549060ff02191690556001820160016101000a81549060ff0219169055600282016000610e0a9190610e63565b600382016000610e1a9190610e63565b6004820160006101000a81549060ff021916905550600501610db9565b5090565b90565b610e6091905b80821115610e5c576000816000905550600101610e44565b5090565b90565b50805460018160011615610100020316600290046000825580601f10610e895750610ea8565b601f016020900490600052602060002090810190610ea79190610e3e565b5b505600a165627a7a7230582050505bf67d4342f95fa1d6310359acca3b50c3047b2adfb3a9991518360461820029",
  "source": "pragma solidity ^0.4.19;\n\nimport './Hangman.sol';\n\ncontract LiveGame is Hangman {\n\n  //event GameStarted(string uniqGameString, string hangman, string challenger, uint8 maxTries, uint8 wager, string word);\n  event GameStarted(string challenger, uint gameId, string word);\n\n  struct ActiveGame {\n    string word;\n    uint8 wager;\n    uint8 maxTries;\n    uint id;\n    string uniqGameString;\n    string hangman;\n    string challenger;\n    uint8 tries;\n    string[] hits;\n    string[] misses;\n  }\n\n  mapping (uint => address) gameToChallenger;\n\n  function findPendingGame (string userWord) internal view returns(string) {\n    uint oldId = _generateRandomId(userWord);\n    string memory gameWord = games[oldId].word;\n    return gameWord;\n  }\n\n  function startLiveGame(string challenger, uint gameId) public {\n    string memory gameWord = idToWord[gameId];\n    GameStarted(challenger, gameId, gameWord);\n  }\n\n  /* function startLiveGame(uint8 wager, uint8 maxTries, string uniqGameString, string challenger, uint gameId, string hangman) public {\n    string memory word = games[gameId].word;\n    uint randId = _generateRandomId(uniqGameString);\n    uint8 tries = 0;\n    string[] memory hits;\n    string[] memory misses;\n    gameToChallenger[randId] = msg.sender;\n    activeGamesMap[randId] = ActiveGame(word, wager, maxTries, randId, uniqGameString, hangman, challenger, tries, hits, misses);\n    GameStarted(uniqGameString, hangman, challenger, maxTries, wager, word);\n    GameStarted(word);\n  } */\n\n  function _generateRandomId(string word) private pure returns (uint) {\n    uint rand = uint(keccak256(word));\n    return rand;\n  }\n}\n",
  "sourcePath": "/Users/tysondaugherty/Desktop/funApps/ether/etherHang/contracts/LiveGame.sol",
  "compiler": {
    "name": "solc",
    "version": "0.4.19+commit.c4cbbb05.Emscripten.clang"
  },
  "schemaVersion": "1.0.1",
  "updatedAt": "2018-02-24T00:06:12.562Z"
}