{
  "contractName": "LiveGame",
  "abi": [
    {
      "constant": true,
      "inputs": [
        {
          "name": "",
          "type": "uint256"
        }
      ],
      "name": "games",
      "outputs": [
        {
          "name": "word",
          "type": "string"
        },
        {
          "name": "wager",
          "type": "uint256"
        },
        {
          "name": "tries",
          "type": "uint8"
        },
        {
          "name": "userWord",
          "type": "string"
        },
        {
          "name": "userName",
          "type": "string"
        },
        {
          "name": "wordLength",
          "type": "uint8"
        }
      ],
      "payable": false,
      "stateMutability": "view",
      "type": "function"
    },
    {
      "constant": true,
      "inputs": [
        {
          "name": "",
          "type": "uint256"
        }
      ],
      "name": "activeGames",
      "outputs": [
        {
          "name": "word",
          "type": "string"
        },
        {
          "name": "wager",
          "type": "uint256"
        },
        {
          "name": "maxTries",
          "type": "uint8"
        },
        {
          "name": "uniqGameString",
          "type": "string"
        },
        {
          "name": "hangman",
          "type": "string"
        },
        {
          "name": "challenger",
          "type": "string"
        },
        {
          "name": "tries",
          "type": "uint8"
        },
        {
          "name": "wordLength",
          "type": "uint8"
        }
      ],
      "payable": false,
      "stateMutability": "view",
      "type": "function"
    },
    {
      "constant": true,
      "inputs": [
        {
          "name": "",
          "type": "address"
        }
      ],
      "name": "activeGamesMap",
      "outputs": [
        {
          "name": "",
          "type": "uint256"
        }
      ],
      "payable": false,
      "stateMutability": "view",
      "type": "function"
    },
    {
      "constant": true,
      "inputs": [
        {
          "name": "",
          "type": "uint256"
        }
      ],
      "name": "idToWord",
      "outputs": [
        {
          "name": "",
          "type": "string"
        }
      ],
      "payable": false,
      "stateMutability": "view",
      "type": "function"
    },
    {
      "anonymous": false,
      "inputs": [
        {
          "indexed": false,
          "name": "challenger",
          "type": "string"
        },
        {
          "indexed": false,
          "name": "hangman",
          "type": "string"
        },
        {
          "indexed": false,
          "name": "wager",
          "type": "uint256"
        },
        {
          "indexed": false,
          "name": "maxTries",
          "type": "uint8"
        },
        {
          "indexed": false,
          "name": "uniqGameString",
          "type": "string"
        },
        {
          "indexed": false,
          "name": "wordLength",
          "type": "uint8"
        },
        {
          "indexed": false,
          "name": "tries",
          "type": "uint8"
        },
        {
          "indexed": false,
          "name": "gameId",
          "type": "uint256"
        }
      ],
      "name": "ActiveGameDetails",
      "type": "event"
    },
    {
      "anonymous": false,
      "inputs": [
        {
          "indexed": false,
          "name": "letter",
          "type": "string"
        },
        {
          "indexed": false,
          "name": "index",
          "type": "uint32"
        }
      ],
      "name": "SolutionCheck",
      "type": "event"
    },
    {
      "anonymous": false,
      "inputs": [
        {
          "indexed": false,
          "name": "letter",
          "type": "string"
        },
        {
          "indexed": false,
          "name": "index",
          "type": "uint32"
        }
      ],
      "name": "MissesCheck",
      "type": "event"
    },
    {
      "anonymous": false,
      "inputs": [
        {
          "indexed": false,
          "name": "challenger",
          "type": "string"
        },
        {
          "indexed": false,
          "name": "hangman",
          "type": "string"
        },
        {
          "indexed": false,
          "name": "gameId",
          "type": "uint256"
        },
        {
          "indexed": false,
          "name": "wager",
          "type": "uint256"
        },
        {
          "indexed": false,
          "name": "maxTries",
          "type": "uint8"
        },
        {
          "indexed": false,
          "name": "uniqGameString",
          "type": "string"
        },
        {
          "indexed": false,
          "name": "wordLength",
          "type": "uint8"
        }
      ],
      "name": "GameStarted",
      "type": "event"
    },
    {
      "anonymous": false,
      "inputs": [
        {
          "indexed": false,
          "name": "guess",
          "type": "string"
        },
        {
          "indexed": false,
          "name": "hit",
          "type": "bool"
        },
        {
          "indexed": false,
          "name": "index",
          "type": "uint32"
        },
        {
          "indexed": false,
          "name": "tries",
          "type": "uint8"
        }
      ],
      "name": "SolutionGuess",
      "type": "event"
    },
    {
      "anonymous": false,
      "inputs": [
        {
          "indexed": false,
          "name": "winner",
          "type": "string"
        },
        {
          "indexed": false,
          "name": "word",
          "type": "string"
        },
        {
          "indexed": false,
          "name": "loser",
          "type": "string"
        }
      ],
      "name": "GameWinner",
      "type": "event"
    },
    {
      "anonymous": false,
      "inputs": [
        {
          "indexed": false,
          "name": "gameId",
          "type": "uint256"
        },
        {
          "indexed": false,
          "name": "wager",
          "type": "uint256"
        },
        {
          "indexed": false,
          "name": "tries",
          "type": "uint8"
        },
        {
          "indexed": false,
          "name": "userName",
          "type": "string"
        },
        {
          "indexed": false,
          "name": "userWord",
          "type": "string"
        },
        {
          "indexed": false,
          "name": "wordLength",
          "type": "uint8"
        }
      ],
      "name": "NewGame",
      "type": "event"
    },
    {
      "anonymous": false,
      "inputs": [
        {
          "indexed": false,
          "name": "gameId",
          "type": "uint256"
        },
        {
          "indexed": false,
          "name": "wager",
          "type": "uint256"
        },
        {
          "indexed": false,
          "name": "tries",
          "type": "uint8"
        },
        {
          "indexed": false,
          "name": "userName",
          "type": "string"
        },
        {
          "indexed": false,
          "name": "userWord",
          "type": "string"
        },
        {
          "indexed": false,
          "name": "wordLength",
          "type": "uint8"
        }
      ],
      "name": "PendingGames",
      "type": "event"
    },
    {
      "anonymous": false,
      "inputs": [
        {
          "indexed": false,
          "name": "userWord",
          "type": "string"
        }
      ],
      "name": "RemovePendingGame",
      "type": "event"
    },
    {
      "constant": false,
      "inputs": [
        {
          "name": "challenger",
          "type": "string"
        },
        {
          "name": "gameId",
          "type": "uint256"
        },
        {
          "name": "uniqGameString",
          "type": "string"
        },
        {
          "name": "wordLength",
          "type": "uint8"
        }
      ],
      "name": "commenceLiveGame",
      "outputs": [],
      "payable": false,
      "stateMutability": "nonpayable",
      "type": "function"
    },
    {
      "constant": false,
      "inputs": [],
      "name": "getActiveGame",
      "outputs": [],
      "payable": false,
      "stateMutability": "nonpayable",
      "type": "function"
    },
    {
      "constant": false,
      "inputs": [
        {
          "name": "guess",
          "type": "string"
        },
        {
          "name": "gameId",
          "type": "uint256"
        }
      ],
      "name": "checkGuess",
      "outputs": [],
      "payable": false,
      "stateMutability": "nonpayable",
      "type": "function"
    }
  ],
  "bytecode": "0x606060405260008060006101000a81548163ffffffff021916908363ffffffff160217905550341561003057600080fd5b6133488061003f6000396000f300606060405260043610610083576000357c0100000000000000000000000000000000000000000000000000000000900463ffffffff168063117a5b901461008857806313e4c714146102745780632ec1c017146104f65780634d83d55a14610543578063957b5fb4146105df578063d77eef1b146105f4578063e6b2bc141461065a575b600080fd5b341561009357600080fd5b6100a9600480803590602001909190505061070f565b60405180806020018781526020018660ff1660ff16815260200180602001806020018560ff1660ff16815260200184810384528a8181546001816001161561010002031660029004815260200191508054600181600116156101000203166002900480156101585780601f1061012d57610100808354040283529160200191610158565b820191906000526020600020905b81548152906001019060200180831161013b57829003601f168201915b50508481038352878181546001816001161561010002031660029004815260200191508054600181600116156101000203166002900480156101db5780601f106101b0576101008083540402835291602001916101db565b820191906000526020600020905b8154815290600101906020018083116101be57829003601f168201915b505084810382528681815460018160011615610100020316600290048152602001915080546001816001161561010002031660029004801561025e5780601f106102335761010080835404028352916020019161025e565b820191906000526020600020905b81548152906001019060200180831161024157829003601f168201915b5050995050505050505050505060405180910390f35b341561027f57600080fd5b6102956004808035906020019091905050610771565b60405180806020018981526020018860ff1660ff1681526020018060200180602001806020018760ff1660ff1681526020018660ff1660ff16815260200185810385528d8181546001816001161561010002031660029004815260200191508054600181600116156101000203166002900480156103545780601f1061032957610100808354040283529160200191610354565b820191906000526020600020905b81548152906001019060200180831161033757829003601f168201915b505085810384528a8181546001816001161561010002031660029004815260200191508054600181600116156101000203166002900480156103d75780601f106103ac576101008083540402835291602001916103d7565b820191906000526020600020905b8154815290600101906020018083116103ba57829003601f168201915b505085810383528981815460018160011615610100020316600290048152602001915080546001816001161561010002031660029004801561045a5780601f1061042f5761010080835404028352916020019161045a565b820191906000526020600020905b81548152906001019060200180831161043d57829003601f168201915b50508581038252888181546001816001161561010002031660029004815260200191508054600181600116156101000203166002900480156104dd5780601f106104b2576101008083540402835291602001916104dd565b820191906000526020600020905b8154815290600101906020018083116104c057829003601f168201915b50509c5050505050505050505050505060405180910390f35b341561050157600080fd5b61052d600480803573ffffffffffffffffffffffffffffffffffffffff169060200190919050506107eb565b6040518082815260200191505060405180910390f35b341561054e57600080fd5b6105646004808035906020019091905050610803565b6040518080602001828103825283818151815260200191508051906020019080838360005b838110156105a4578082015181840152602081019050610589565b50505050905090810190601f1680156105d15780820380516001836020036101000a031916815260200191505b509250505060405180910390f35b34156105ea57600080fd5b6105f26108b3565b005b34156105ff57600080fd5b610658600480803590602001908201803590602001908080601f01602080910402602001604051908101604052809392919081815260200183838082843782019150505050505091908035906020019091905050610d97565b005b341561066557600080fd5b61070d600480803590602001908201803590602001908080601f0160208091040260200160405190810160405280939291908181526020018383808284378201915050505050509190803590602001909190803590602001908201803590602001908080601f0160208091040260200160405190810160405280939291908181526020018383808284378201915050505050509190803560ff16906020019091905050611181565b005b60018181548110151561071e57fe5b906000526020600020906006020160009150905080600001908060010154908060020160009054906101000a900460ff1690806003019080600401908060050160009054906101000a900460ff16905086565b60038181548110151561078057fe5b90600052602060002090600a020160009150905080600001908060010154908060020160009054906101000a900460ff16908060030190806004019080600501908060060160009054906101000a900460ff16908060090160009054906101000a900460ff16905088565b60046020528060005260406000206000915090505481565b60026020528060005260406000206000915090508054600181600116156101000203166002900480601f0160208091040260200160405190810160405280929190818152602001828054600181600116156101000203166002900480156108ab5780601f10610880576101008083540402835291602001916108ab565b820191906000526020600020905b81548152906001019060200180831161088e57829003601f168201915b505050505081565b60006108be33611750565b90507fdcc734248b9e9bcfcbd1187acf9d439e66a0c2b499a0f417d9826384973aad0a6003600460003373ffffffffffffffffffffffffffffffffffffffff1673ffffffffffffffffffffffffffffffffffffffff1681526020019081526020016000205481548110151561092f57fe5b90600052602060002090600a02016005016003600460003373ffffffffffffffffffffffffffffffffffffffff1673ffffffffffffffffffffffffffffffffffffffff1681526020019081526020016000205481548110151561098e57fe5b90600052602060002090600a02016004016003600460003373ffffffffffffffffffffffffffffffffffffffff1673ffffffffffffffffffffffffffffffffffffffff168152602001908152602001600020548154811015156109ed57fe5b90600052602060002090600a0201600101546003600460003373ffffffffffffffffffffffffffffffffffffffff1673ffffffffffffffffffffffffffffffffffffffff16815260200190815260200160002054815481101515610a4d57fe5b90600052602060002090600a020160020160009054906101000a900460ff166003600460003373ffffffffffffffffffffffffffffffffffffffff1673ffffffffffffffffffffffffffffffffffffffff16815260200190815260200160002054815481101515610aba57fe5b90600052602060002090600a02016003016003600460003373ffffffffffffffffffffffffffffffffffffffff1673ffffffffffffffffffffffffffffffffffffffff16815260200190815260200160002054815481101515610b1957fe5b90600052602060002090600a020160090160009054906101000a900460ff166003600460003373ffffffffffffffffffffffffffffffffffffffff1673ffffffffffffffffffffffffffffffffffffffff16815260200190815260200160002054815481101515610b8657fe5b90600052602060002090600a020160060160009054906101000a900460ff16886040518080602001806020018981526020018860ff1660ff168152602001806020018760ff1660ff1681526020018660ff1660ff16815260200185815260200184810384528c818154600181600116156101000203166002900481526020019150805460018160011615610100020316600290048015610c675780601f10610c3c57610100808354040283529160200191610c67565b820191906000526020600020905b815481529060010190602001808311610c4a57829003601f168201915b505084810383528b818154600181600116156101000203166002900481526020019150805460018160011615610100020316600290048015610cea5780601f10610cbf57610100808354040283529160200191610cea565b820191906000526020600020905b815481529060010190602001808311610ccd57829003601f168201915b5050848103825288818154600181600116156101000203166002900481526020019150805460018160011615610100020316600290048015610d6d5780601f10610d4257610100808354040283529160200191610d6d565b820191906000526020600020905b815481529060010190602001808311610d5057829003601f168201915b50509b50505050505050505050505060405180910390a1610d8c611799565b610d94611b31565b50565b6000610da1612fb9565b6000600384815481101515610db257fe5b90600052602060002090600a0201600601600081819054906101000a900460ff168092919060010191906101000a81548160ff021916908360ff1602179055505060009250600384815481101515610e0657fe5b90600052602060002090600a02016000018054600181600116156101000203166002900480601f016020809104026020016040519081016040528092919081815260200182805460018160011615610100020316600290048015610eab5780601f10610e8057610100808354040283529160200191610eab565b820191906000526020600020905b815481529060010190602001808311610e8e57829003601f168201915b50505050509150600185511115610ecb57610ec68585611d00565b61117a565b60018551141561117957600090505b81518163ffffffff16101561114957846000815181101515610ef857fe5b9060200101517f010000000000000000000000000000000000000000000000000000000000000090047f0100000000000000000000000000000000000000000000000000000000000000027effffffffffffffffffffffffffffffffffffffffffffffffffffffffffffff1916828263ffffffff16815181101515610f7957fe5b9060200101517f010000000000000000000000000000000000000000000000000000000000000090047f0100000000000000000000000000000000000000000000000000000000000000027effffffffffffffffffffffffffffffffffffffffffffffffffffffffffffff1916141561113c57600192508460038581548110151561100057fe5b90600052602060002090600a02016007018263ffffffff1681548110151561102457fe5b90600052602060002090019080519060200190611042929190612fcd565b507f0174af177ef003e33d855a98d075068cfba2f53c781348a9c6e4bb185a6245ee8560018360038881548110151561107757fe5b90600052602060002090600a020160060160009054906101000a900460ff166040518080602001851515151581526020018463ffffffff1663ffffffff1681526020018360ff1660ff168152602001828103825286818151815260200191508051906020019080838360005b838110156110fe5780820151818401526020810190506110e3565b50505050905090810190601f16801561112b5780820380516001836020036101000a031916815260200191505b509550505050505060405180910390a15b8080600101915050610eda565b6001151583151514156111605761115f84612160565b5b60001515831515141561117857611177848661293d565b5b5b5b5050505050565b611189612fb9565b600061119361304d565b61119b61304d565b60006001888154811015156111ac57fe5b90600052602060002090600602016000018054600181600116156101000203166002900480601f0160208091040260200160405190810160405280929190818152602001828054600181600116156101000203166002900480156112515780601f1061122657610100808354040283529160200191611251565b820191906000526020600020905b81548152906001019060200180831161123457829003601f168201915b50505050509450600093506001600380548060010182816112729190613061565b91600052602060002090600a02016000610140604051908101604052808a815260200160018e8154811015156112a457fe5b906000526020600020906006020160010154815260200160018e8154811015156112ca57fe5b906000526020600020906006020160020160009054906101000a900460ff1660ff1681526020018c815260200160018e81548110151561130657fe5b90600052602060002090600602016004018054600181600116156101000203166002900480601f0160208091040260200160405190810160405280929190818152602001828054600181600116156101000203166002900480156113ab5780601f10611380576101008083540402835291602001916113ab565b820191906000526020600020905b81548152906001019060200180831161138e57829003601f168201915b505050505081526020018e81526020018960ff1681526020018881526020018781526020018b60ff16815250909190915060008201518160000190805190602001906113f8929190613093565b506020820151816001015560408201518160020160006101000a81548160ff021916908360ff1602179055506060820151816003019080519060200190611440929190613093565b50608082015181600401908051906020019061145d929190613093565b5060a082015181600501908051906020019061147a929190613093565b5060c08201518160060160006101000a81548160ff021916908360ff16021790555060e08201518160070190805190602001906114b8929190613113565b506101008201518160080190805190602001906114d6929190613113565b506101208201518160090160006101000a81548160ff021916908360ff16021790555050500390507f746ffb8547cf17810666c7e53b35fce56fdadb9c4b4d5882ce3746334fdfe6528960018a81548110151561152f57fe5b90600052602060002090600602016004018360018c81548110151561155057fe5b90600052602060002090600602016001015460018d81548110151561157157fe5b906000526020600020906006020160020160009054906101000a900460ff168c8c6040518080602001806020018881526020018781526020018660ff1660ff168152602001806020018560ff1660ff16815260200184810384528b818151815260200191508051906020019080838360005b838110156115fe5780820151818401526020810190506115e3565b50505050905090810190601f16801561162b5780820380516001836020036101000a031916815260200191505b5084810383528a8181546001816001161561010002031660029004815260200191508054600181600116156101000203166002900480156116ad5780601f10611682576101008083540402835291602001916116ad565b820191906000526020600020905b81548152906001019060200180831161169057829003601f168201915b5050848103825286818151815260200191508051906020019080838360005b838110156116e75780820151818401526020810190506116cc565b50505050905090810190601f1680156117145780820380516001836020036101000a031916815260200191505b509a505050505050505050505060405180910390a16117338682612d25565b61173c81612ddd565b61174588612e24565b505050505050505050565b6000600460008373ffffffffffffffffffffffffffffffffffffffff1673ffffffffffffffffffffffffffffffffffffffff168152602001908152602001600020549050919050565b6117a1612fb9565b60006040805190810160405280600181526020017f24000000000000000000000000000000000000000000000000000000000000008152509150600090505b6003600460003373ffffffffffffffffffffffffffffffffffffffff1673ffffffffffffffffffffffffffffffffffffffff1681526020019081526020016000205481548110151561182e57fe5b90600052602060002090600a0201600701805490508163ffffffff161015611b2d5781600081518110151561185f57fe5b9060200101517f010000000000000000000000000000000000000000000000000000000000000090047f0100000000000000000000000000000000000000000000000000000000000000027effffffffffffffffffffffffffffffffffffffffffffffffffffffffffffff19166003600460003373ffffffffffffffffffffffffffffffffffffffff1673ffffffffffffffffffffffffffffffffffffffff1681526020019081526020016000205481548110151561191a57fe5b90600052602060002090600a02016007018263ffffffff1681548110151561193e57fe5b90600052602060002090016000815460018160011615610100020316600290048110151561196857fe5b8154600116156119875790600052602060002090602091828204019190065b9054901a7f0100000000000000000000000000000000000000000000000000000000000000027effffffffffffffffffffffffffffffffffffffffffffffffffffffffffffff1916141515611b20577f79cf4eb0d6305e4d55a4c2df65998d7b62c2a406f83d5f6e14d131db42bb70ab6003600460003373ffffffffffffffffffffffffffffffffffffffff1673ffffffffffffffffffffffffffffffffffffffff16815260200190815260200160002054815481101515611a4557fe5b90600052602060002090600a02016007018263ffffffff16815481101515611a6957fe5b90600052602060002090018260405180806020018363ffffffff1663ffffffff168152602001828103825284818154600181600116156101000203166002900481526020019150805460018160011615610100020316600290048015611b105780601f10611ae557610100808354040283529160200191611b10565b820191906000526020600020905b815481529060010190602001808311611af357829003601f168201915b5050935050505060405180910390a15b80806001019150506117e0565b5050565b60008090505b6003600460003373ffffffffffffffffffffffffffffffffffffffff1673ffffffffffffffffffffffffffffffffffffffff16815260200190815260200160002054815481101515611b8557fe5b90600052602060002090600a0201600801805490508163ffffffff161015611cfd577fd230b39ddf0abb4c478d27f0f161bdd2f200ace6304f4a87d588c44a3fa35e8c6003600460003373ffffffffffffffffffffffffffffffffffffffff1673ffffffffffffffffffffffffffffffffffffffff16815260200190815260200160002054815481101515611c1657fe5b90600052602060002090600a02016008018263ffffffff16815481101515611c3a57fe5b90600052602060002090018260405180806020018363ffffffff1663ffffffff168152602001828103825284818154600181600116156101000203166002900481526020019150805460018160011615610100020316600290048015611ce15780601f10611cb657610100808354040283529160200191611ce1565b820191906000526020600020905b815481529060010190602001808311611cc457829003601f168201915b5050935050505060405180910390a18080600101915050611b37565b50565b611d08612fb9565b600080600384815481101515611d1a57fe5b90600052602060002090600a02016000018054600181600116156101000203166002900480601f016020809104026020016040519081016040528092919081815260200182805460018160011615610100020316600290048015611dbf5780601f10611d9457610100808354040283529160200191611dbf565b820191906000526020600020905b815481529060010190602001808311611da257829003601f168201915b505050505092506001915084518351141561214e57600090505b82518163ffffffff161015611f1157848163ffffffff16815181101515611dfc57fe5b9060200101517f010000000000000000000000000000000000000000000000000000000000000090047f0100000000000000000000000000000000000000000000000000000000000000027effffffffffffffffffffffffffffffffffffffffffffffffffffffffffffff1916838263ffffffff16815181101515611e7d57fe5b9060200101517f010000000000000000000000000000000000000000000000000000000000000090047f0100000000000000000000000000000000000000000000000000000000000000027effffffffffffffffffffffffffffffffffffffffffffffffffffffffffffff1916141515611f045760009150611eff848661293d565b611f11565b8080600101915050611dd9565b600115158215151415612149577fffedf7f8820dde2d4b397a1fc7d384e98b9e4a78a9da7bd4352fe2340d0bf65b600385815481101515611f4e57fe5b90600052602060002090600a0201600501600386815481101515611f6e57fe5b90600052602060002090600a0201600001600387815481101515611f8e57fe5b90600052602060002090600a0201600401604051808060200180602001806020018481038452878181546001816001161561010002031660029004815260200191508054600181600116156101000203166002900480156120305780601f1061200557610100808354040283529160200191612030565b820191906000526020600020905b81548152906001019060200180831161201357829003601f168201915b50508481038352868181546001816001161561010002031660029004815260200191508054600181600116156101000203166002900480156120b35780601f10612088576101008083540402835291602001916120b3565b820191906000526020600020905b81548152906001019060200180831161209657829003601f168201915b50508481038252858181546001816001161561010002031660029004815260200191508054600181600116156101000203166002900480156121365780601f1061210b57610100808354040283529160200191612136565b820191906000526020600020905b81548152906001019060200180831161211957829003601f168201915b5050965050505050505060405180910390a15b612159565b612158848661293d565b5b5050505050565b612168612fb9565b6000612172612fb9565b600060038581548110151561218357fe5b90600052602060002090600a02016000018054600181600116156101000203166002900480601f0160208091040260200160405190810160405280929190818152602001828054600181600116156101000203166002900480156122285780601f106121fd57610100808354040283529160200191612228565b820191906000526020600020905b81548152906001019060200180831161220b57829003601f168201915b5050505050935060019250600090505b60038581548110151561224757fe5b90600052602060002090600a0201600701805490508163ffffffff16101561245c5760038581548110151561227857fe5b90600052602060002090600a02016007018163ffffffff1681548110151561229c57fe5b90600052602060002090018054600181600116156101000203166002900480601f01602080910402602001604051908101604052809291908181526020018280546001816001161561010002031660029004801561233b5780601f106123105761010080835404028352916020019161233b565b820191906000526020600020905b81548152906001019060200180831161231e57829003601f168201915b50505050509150838163ffffffff1681518110151561235657fe5b9060200101517f010000000000000000000000000000000000000000000000000000000000000090047f0100000000000000000000000000000000000000000000000000000000000000027effffffffffffffffffffffffffffffffffffffffffffffffffffffffffffff19168260008151811015156123d257fe5b9060200101517f010000000000000000000000000000000000000000000000000000000000000090047f0100000000000000000000000000000000000000000000000000000000000000027effffffffffffffffffffffffffffffffffffffffffffffffffffffffffffff191614151561244f576000925061245c565b8080600101915050612238565b600115158315151415612694577fffedf7f8820dde2d4b397a1fc7d384e98b9e4a78a9da7bd4352fe2340d0bf65b60038681548110151561249957fe5b90600052602060002090600a02016005016003878154811015156124b957fe5b90600052602060002090600a02016000016003888154811015156124d957fe5b90600052602060002090600a02016004016040518080602001806020018060200184810384528781815460018160011615610100020316600290048152602001915080546001816001161561010002031660029004801561257b5780601f106125505761010080835404028352916020019161257b565b820191906000526020600020905b81548152906001019060200180831161255e57829003601f168201915b50508481038352868181546001816001161561010002031660029004815260200191508054600181600116156101000203166002900480156125fe5780601f106125d3576101008083540402835291602001916125fe565b820191906000526020600020905b8154815290600101906020018083116125e157829003601f168201915b50508481038252858181546001816001161561010002031660029004815260200191508054600181600116156101000203166002900480156126815780601f1061265657610100808354040283529160200191612681565b820191906000526020600020905b81548152906001019060200180831161266457829003601f168201915b5050965050505050505060405180910390a15b600015158315151415612936576003858154811015156126b057fe5b90600052602060002090600a020160020160009054906101000a900460ff1660ff166003868154811015156126e157fe5b90600052602060002090600a020160060160009054906101000a900460ff1660ff16101515612935577fffedf7f8820dde2d4b397a1fc7d384e98b9e4a78a9da7bd4352fe2340d0bf65b60038681548110151561273a57fe5b90600052602060002090600a020160040160038781548110151561275a57fe5b90600052602060002090600a020160000160038881548110151561277a57fe5b90600052602060002090600a02016005016040518080602001806020018060200184810384528781815460018160011615610100020316600290048152602001915080546001816001161561010002031660029004801561281c5780601f106127f15761010080835404028352916020019161281c565b820191906000526020600020905b8154815290600101906020018083116127ff57829003601f168201915b505084810383528681815460018160011615610100020316600290048152602001915080546001816001161561010002031660029004801561289f5780601f106128745761010080835404028352916020019161289f565b820191906000526020600020905b81548152906001019060200180831161288257829003601f168201915b50508481038252858181546001816001161561010002031660029004815260200191508054600181600116156101000203166002900480156129225780601f106128f757610100808354040283529160200191612922565b820191906000526020600020905b81548152906001019060200180831161290557829003601f168201915b5050965050505050505060405180910390a15b5b5050505050565b60038281548110151561294c57fe5b90600052602060002090600a020160060160009054906101000a900460ff1660ff1660038381548110151561297d57fe5b90600052602060002090600a020160020160009054906101000a900460ff1660ff161115612af6577f0174af177ef003e33d855a98d075068cfba2f53c781348a9c6e4bb185a6245ee816000806003868154811015156129d957fe5b90600052602060002090600a020160060160009054906101000a900460ff166040518080602001851515151581526020018463ffffffff1681526020018360ff1660ff168152602001828103825286818151815260200191508051906020019080838360005b83811015612a5a578082015181840152602081019050612a3f565b50505050905090810190601f168015612a875780820380516001836020036101000a031916815260200191505b509550505050505060405180910390a1600382815481101515612aa657fe5b90600052602060002090600a02016008018054806001018281612ac99190613173565b916000526020600020900160008390919091509080519060200190612aef929190612fcd565b5050612d21565b7fffedf7f8820dde2d4b397a1fc7d384e98b9e4a78a9da7bd4352fe2340d0bf65b600383815481101515612b2657fe5b90600052602060002090600a0201600401600384815481101515612b4657fe5b90600052602060002090600a0201600001600385815481101515612b6657fe5b90600052602060002090600a020160050160405180806020018060200180602001848103845287818154600181600116156101000203166002900481526020019150805460018160011615610100020316600290048015612c085780601f10612bdd57610100808354040283529160200191612c08565b820191906000526020600020905b815481529060010190602001808311612beb57829003601f168201915b5050848103835286818154600181600116156101000203166002900481526020019150805460018160011615610100020316600290048015612c8b5780601f10612c6057610100808354040283529160200191612c8b565b820191906000526020600020905b815481529060010190602001808311612c6e57829003601f168201915b5050848103825285818154600181600116156101000203166002900481526020019150805460018160011615610100020316600290048015612d0e5780601f10612ce357610100808354040283529160200191612d0e565b820191906000526020600020905b815481529060010190602001808311612cf157829003601f168201915b5050965050505050505060405180910390a15b5050565b60008090505b8260ff168163ffffffff161015612dd857600382815481101515612d4b57fe5b90600052602060002090600a02016007018054806001018281612d6e9190613173565b916000526020600020900160006040805190810160405280600181526020017f240000000000000000000000000000000000000000000000000000000000000081525090919091509080519060200190612dc9929190612fcd565b50508080600101915050612d2b565b505050565b80600460003373ffffffffffffffffffffffffffffffffffffffff1673ffffffffffffffffffffffffffffffffffffffff1681526020019081526020016000208190555050565b7f3c292ea39929efc9883230ce64b1d2bc9218bb71cb8a754ff1cb2dae6aad0846600182815481101515612e5457fe5b90600052602060002090600602016003016040518080602001828103825283818154600181600116156101000203166002900481526020019150805460018160011615610100020316600290048015612eee5780601f10612ec357610100808354040283529160200191612eee565b820191906000526020600020905b815481529060010190602001808311612ed157829003601f168201915b50509250505060405180910390a1600181815481101515612f0b57fe5b906000526020600020906006020160008082016000612f2a919061319f565b60018201600090556002820160006101000a81549060ff0219169055600382016000612f56919061319f565b600482016000612f66919061319f565b6005820160006101000a81549060ff0219169055505060008081819054906101000a900463ffffffff168092919060010191906101000a81548163ffffffff021916908363ffffffff1602179055505050565b602060405190810160405280600081525090565b828054600181600116156101000203166002900490600052602060002090601f016020900481019282601f1061300e57805160ff191683800117855561303c565b8280016001018555821561303c579182015b8281111561303b578251825591602001919060010190613020565b5b50905061304991906131e7565b5090565b602060405190810160405280600081525090565b81548183558181151161308e57600a0281600a02836000526020600020918201910161308d919061320c565b5b505050565b828054600181600116156101000203166002900490600052602060002090601f016020900481019282601f106130d457805160ff1916838001178555613102565b82800160010185558215613102579182015b828111156131015782518255916020019190600101906130e6565b5b50905061310f91906131e7565b5090565b828054828255906000526020600020908101928215613162579160200282015b82811115613161578251829080519060200190613151929190613093565b5091602001919060010190613133565b5b50905061316f91906132cf565b5090565b81548183558181151161319a5781836000526020600020918201910161319991906132cf565b5b505050565b50805460018160011615610100020316600290046000825580601f106131c557506131e4565b601f0160209004906000526020600020908101906131e391906131e7565b5b50565b61320991905b808211156132055760008160009055506001016131ed565b5090565b90565b6132cc91905b808211156132c8576000808201600061322b919061319f565b60018201600090556002820160006101000a81549060ff0219169055600382016000613257919061319f565b600482016000613267919061319f565b600582016000613277919061319f565b6006820160006101000a81549060ff021916905560078201600061329b91906132fb565b6008820160006132ab91906132fb565b6009820160006101000a81549060ff021916905550600a01613212565b5090565b90565b6132f891905b808211156132f457600081816132eb919061319f565b506001016132d5565b5090565b90565b508054600082559060005260206000209081019061331991906132cf565b505600a165627a7a72305820ff24bacece28d8e3644d66f1176d413b515c0835fee16e5b568e0d10b8d8f23c0029",
  "source": "pragma solidity ^0.4.19;\n\nimport './PendingGame.sol';\n\ncontract LiveGame is PendingGame {\n\n  event ActiveGameDetails(string challenger, string hangman, uint wager, uint8 maxTries, string uniqGameString, uint8 wordLength, uint8 tries, uint gameId);\n  event SolutionCheck(string letter, uint32 index);\n  event MissesCheck(string letter, uint32 index);\n  event GameStarted(string challenger, string hangman, uint gameId, uint wager, uint8 maxTries, string uniqGameString, uint8 wordLength);\n  event SolutionGuess(string guess, bool hit, uint32 index, uint8 tries);\n  event GameWinner(string winner, string word, string loser);\n  //event IncrementTries(uint8 tries);\n\n  struct ActiveGame {\n    string word;\n    uint wager;\n    uint8 maxTries;\n    string uniqGameString;\n    string hangman;\n    string challenger;\n    uint8 tries;\n    string[] hits;\n    string[] misses;\n    uint8 wordLength;\n  }\n\n  ActiveGame[] public activeGames;\n  mapping(address => uint) public activeGamesMap;\n\n  function checkSendHits() private {\n    string memory holder = '$';\n    for (uint32 i = 0; i < activeGames[activeGamesMap[msg.sender]].hits.length; i++) {\n      if (bytes(activeGames[activeGamesMap[msg.sender]].hits[i])[0] != bytes(holder)[0]) {\n        SolutionCheck(activeGames[activeGamesMap[msg.sender]].hits[i], i);\n      }\n    }\n  }\n\n  function checkSendMisses() private {\n    for (uint32 i = 0; i < activeGames[activeGamesMap[msg.sender]].misses.length; i++) {\n      MissesCheck(activeGames[activeGamesMap[msg.sender]].misses[i], i);\n    }\n  }\n\n  function checkWordGuess(string guess, uint gameId) private {\n    string memory gameWord = activeGames[gameId].word;\n    bool isSolved = true;\n    if (bytes(gameWord).length == bytes(guess).length) {\n      for (uint32 i = 0; i < bytes(gameWord).length; i++) {\n        if (bytes(gameWord)[i] != bytes(guess)[i]) {\n          isSolved = false;\n          checkHanged(gameId, guess);\n          break;\n        }\n      }\n      if (isSolved == true) {\n        GameWinner(activeGames[gameId].challenger, activeGames[gameId].word, activeGames[gameId].hangman);\n      }\n    } else {\n      checkHanged(gameId, guess);\n    }\n  }\n\n  function commenceLiveGame(string challenger, uint gameId, string uniqGameString, uint8 wordLength) public {\n    string memory gameWord = games[gameId].word;\n    uint8 tries = 0;\n    string[] memory hits;\n    string[] memory misses;\n    uint id = activeGames.push(ActiveGame(gameWord, games[gameId].wager, games[gameId].tries, uniqGameString, games[gameId].userName, challenger, tries, hits, misses, wordLength)) - 1;\n    GameStarted(challenger, games[gameId].userName, id, games[gameId].wager, games[gameId].tries, uniqGameString, wordLength);\n    initSolutionArray(wordLength, id);\n    mapLiveGameToAddress(id);\n    removeGameFromPending(gameId);\n  }\n\n  function getActiveGame() public {\n    uint gameId = getMapIndex(msg.sender);\n    ActiveGameDetails(activeGames[activeGamesMap[msg.sender]].challenger,\n      activeGames[activeGamesMap[msg.sender]].hangman,\n      activeGames[activeGamesMap[msg.sender]].wager,\n      activeGames[activeGamesMap[msg.sender]].maxTries,\n      activeGames[activeGamesMap[msg.sender]].uniqGameString,\n      activeGames[activeGamesMap[msg.sender]].wordLength,\n      activeGames[activeGamesMap[msg.sender]].tries,\n      gameId\n    );\n    checkSendHits();\n    checkSendMisses();\n  }\n\n  function checkGuess(string guess, uint gameId) public {\n    activeGames[gameId].tries++;\n    //IncrementTries(activeGames[gameId].tries);\n    bool isHit = false;\n    string memory gameWord = activeGames[gameId].word;\n    if (bytes(guess).length > 1) {\n      checkWordGuess(guess, gameId);\n    } else if (bytes(guess).length == 1) {\n      for (uint32 i = 0; i < bytes(gameWord).length; i++) {\n        if (bytes(gameWord)[i] == bytes(guess)[0]) {\n          isHit = true;\n          activeGames[gameId].hits[i] = guess;\n          SolutionGuess(guess, true, i, activeGames[gameId].tries);\n        }\n      }\n      if (isHit == true) {\n        checkSolved(gameId);\n      }\n      if (isHit == false) {\n        checkHanged(gameId, guess);\n      }\n    }\n  }\n\n  function checkHanged(uint gameId, string guess) private {\n    if (activeGames[gameId].maxTries > activeGames[gameId].tries) {\n      SolutionGuess(guess, false, 0, activeGames[gameId].tries);\n      activeGames[gameId].misses.push(guess);\n    } else {\n      GameWinner(activeGames[gameId].hangman, activeGames[gameId].word, activeGames[gameId].challenger);\n    }\n  }\n\n  function getMapIndex(address challenger) private view returns(uint) {\n    return activeGamesMap[challenger];\n  }\n\n  function initSolutionArray(uint8 wordLength, uint gameIndex) private {\n    for (uint32 i = 0; i < wordLength; i++) {\n      activeGames[gameIndex].hits.push('$');\n    }\n  }\n\n  function mapLiveGameToAddress(uint gameIndex) private {\n    activeGamesMap[msg.sender] = gameIndex;\n  }\n\n  function checkSolved(uint gameId) private {\n    string memory gameWord = activeGames[gameId].word;\n    bool isSolution = true;\n    string memory letter;\n    for (uint32 i = 0; i < activeGames[gameId].hits.length; i++) {\n      letter = activeGames[gameId].hits[i];\n      if (bytes(letter)[0] != bytes(gameWord)[i]) {\n        isSolution = false;\n        break;\n      }\n    }\n    if (isSolution == true) {\n      GameWinner(activeGames[gameId].challenger, activeGames[gameId].word, activeGames[gameId].hangman);\n    }\n    if (isSolution == false) {\n      if (activeGames[gameId].tries >= activeGames[gameId].maxTries) {\n        GameWinner(activeGames[gameId].hangman, activeGames[gameId].word, activeGames[gameId].challenger);\n      }\n    }\n  }\n}\n",
  "sourcePath": "/Users/tysondaugherty/Desktop/funApps/ether/etherHang/contracts/LiveGame.sol",
  "compiler": {
    "name": "solc",
    "version": "0.4.19+commit.c4cbbb05.Emscripten.clang"
  },
  "schemaVersion": "1.0.1",
  "updatedAt": "2018-03-06T19:28:27.774Z"
}