{
  "contractName": "LiveGame",
  "abi": [
    {
      "constant": true,
      "inputs": [
        {
          "name": "",
          "type": "uint256"
        }
      ],
      "name": "games",
      "outputs": [
        {
          "name": "word",
          "type": "string"
        },
        {
          "name": "wager",
          "type": "uint256"
        },
        {
          "name": "tries",
          "type": "uint8"
        },
        {
          "name": "userWord",
          "type": "string"
        },
        {
          "name": "userName",
          "type": "string"
        },
        {
          "name": "wordLength",
          "type": "uint8"
        },
        {
          "name": "hangmanAddress",
          "type": "address"
        }
      ],
      "payable": false,
      "stateMutability": "view",
      "type": "function"
    },
    {
      "constant": true,
      "inputs": [
        {
          "name": "",
          "type": "uint256"
        }
      ],
      "name": "activeGames",
      "outputs": [
        {
          "name": "word",
          "type": "string"
        },
        {
          "name": "wager",
          "type": "uint256"
        },
        {
          "name": "maxTries",
          "type": "uint8"
        },
        {
          "name": "uniqGameString",
          "type": "string"
        },
        {
          "name": "hangman",
          "type": "string"
        },
        {
          "name": "challenger",
          "type": "string"
        },
        {
          "name": "tries",
          "type": "uint8"
        },
        {
          "name": "wordLength",
          "type": "uint8"
        },
        {
          "name": "hangmanAddress",
          "type": "address"
        },
        {
          "name": "challengerAddress",
          "type": "address"
        }
      ],
      "payable": false,
      "stateMutability": "view",
      "type": "function"
    },
    {
      "constant": true,
      "inputs": [
        {
          "name": "",
          "type": "address"
        }
      ],
      "name": "activeGamesMap",
      "outputs": [
        {
          "name": "",
          "type": "uint256"
        }
      ],
      "payable": false,
      "stateMutability": "view",
      "type": "function"
    },
    {
      "constant": true,
      "inputs": [
        {
          "name": "",
          "type": "uint256"
        }
      ],
      "name": "idToWord",
      "outputs": [
        {
          "name": "",
          "type": "string"
        }
      ],
      "payable": false,
      "stateMutability": "view",
      "type": "function"
    },
    {
      "payable": true,
      "stateMutability": "payable",
      "type": "fallback"
    },
    {
      "anonymous": false,
      "inputs": [
        {
          "indexed": false,
          "name": "challenger",
          "type": "string"
        },
        {
          "indexed": false,
          "name": "hangman",
          "type": "string"
        },
        {
          "indexed": false,
          "name": "wager",
          "type": "uint256"
        },
        {
          "indexed": false,
          "name": "maxTries",
          "type": "uint8"
        },
        {
          "indexed": false,
          "name": "uniqGameString",
          "type": "string"
        },
        {
          "indexed": false,
          "name": "wordLength",
          "type": "uint8"
        },
        {
          "indexed": false,
          "name": "tries",
          "type": "uint8"
        },
        {
          "indexed": false,
          "name": "gameId",
          "type": "uint256"
        }
      ],
      "name": "ActiveGameDetails",
      "type": "event"
    },
    {
      "anonymous": false,
      "inputs": [
        {
          "indexed": false,
          "name": "letter",
          "type": "string"
        },
        {
          "indexed": false,
          "name": "index",
          "type": "uint32"
        }
      ],
      "name": "SolutionCheck",
      "type": "event"
    },
    {
      "anonymous": false,
      "inputs": [
        {
          "indexed": false,
          "name": "letter",
          "type": "string"
        },
        {
          "indexed": false,
          "name": "index",
          "type": "uint32"
        }
      ],
      "name": "MissesCheck",
      "type": "event"
    },
    {
      "anonymous": false,
      "inputs": [
        {
          "indexed": false,
          "name": "challenger",
          "type": "string"
        },
        {
          "indexed": false,
          "name": "hangman",
          "type": "string"
        },
        {
          "indexed": false,
          "name": "gameId",
          "type": "uint256"
        },
        {
          "indexed": false,
          "name": "wager",
          "type": "uint256"
        },
        {
          "indexed": false,
          "name": "maxTries",
          "type": "uint8"
        },
        {
          "indexed": false,
          "name": "uniqGameString",
          "type": "string"
        },
        {
          "indexed": false,
          "name": "wordLength",
          "type": "uint8"
        }
      ],
      "name": "GameStarted",
      "type": "event"
    },
    {
      "anonymous": false,
      "inputs": [
        {
          "indexed": false,
          "name": "guess",
          "type": "string"
        },
        {
          "indexed": false,
          "name": "hit",
          "type": "bool"
        },
        {
          "indexed": false,
          "name": "index",
          "type": "uint32"
        },
        {
          "indexed": false,
          "name": "tries",
          "type": "uint8"
        }
      ],
      "name": "SolutionGuess",
      "type": "event"
    },
    {
      "anonymous": false,
      "inputs": [
        {
          "indexed": false,
          "name": "winner",
          "type": "string"
        },
        {
          "indexed": false,
          "name": "word",
          "type": "string"
        },
        {
          "indexed": false,
          "name": "loser",
          "type": "string"
        }
      ],
      "name": "GameWinner",
      "type": "event"
    },
    {
      "anonymous": false,
      "inputs": [
        {
          "indexed": false,
          "name": "winner",
          "type": "string"
        },
        {
          "indexed": false,
          "name": "paid",
          "type": "bool"
        },
        {
          "indexed": false,
          "name": "payout",
          "type": "uint256"
        }
      ],
      "name": "WinnerPaid",
      "type": "event"
    },
    {
      "anonymous": false,
      "inputs": [
        {
          "indexed": false,
          "name": "contractAddress",
          "type": "address"
        },
        {
          "indexed": false,
          "name": "wager",
          "type": "uint256"
        },
        {
          "indexed": false,
          "name": "success",
          "type": "bool"
        }
      ],
      "name": "FundsTransfer",
      "type": "event"
    },
    {
      "anonymous": false,
      "inputs": [
        {
          "indexed": false,
          "name": "gameId",
          "type": "uint256"
        },
        {
          "indexed": false,
          "name": "wager",
          "type": "uint256"
        },
        {
          "indexed": false,
          "name": "tries",
          "type": "uint8"
        },
        {
          "indexed": false,
          "name": "userName",
          "type": "string"
        },
        {
          "indexed": false,
          "name": "userWord",
          "type": "string"
        },
        {
          "indexed": false,
          "name": "wordLength",
          "type": "uint8"
        }
      ],
      "name": "NewGame",
      "type": "event"
    },
    {
      "anonymous": false,
      "inputs": [
        {
          "indexed": false,
          "name": "gameId",
          "type": "uint256"
        },
        {
          "indexed": false,
          "name": "wager",
          "type": "uint256"
        },
        {
          "indexed": false,
          "name": "tries",
          "type": "uint8"
        },
        {
          "indexed": false,
          "name": "userName",
          "type": "string"
        },
        {
          "indexed": false,
          "name": "userWord",
          "type": "string"
        },
        {
          "indexed": false,
          "name": "wordLength",
          "type": "uint8"
        }
      ],
      "name": "PendingGames",
      "type": "event"
    },
    {
      "anonymous": false,
      "inputs": [
        {
          "indexed": false,
          "name": "userWord",
          "type": "string"
        }
      ],
      "name": "RemovePendingGame",
      "type": "event"
    },
    {
      "constant": false,
      "inputs": [
        {
          "name": "winnerAddress",
          "type": "address"
        },
        {
          "name": "challenger",
          "type": "string"
        },
        {
          "name": "payout",
          "type": "uint256"
        }
      ],
      "name": "payWinner",
      "outputs": [],
      "payable": true,
      "stateMutability": "payable",
      "type": "function"
    },
    {
      "constant": false,
      "inputs": [
        {
          "name": "challenger",
          "type": "string"
        },
        {
          "name": "gameId",
          "type": "uint256"
        },
        {
          "name": "uniqGameString",
          "type": "string"
        },
        {
          "name": "wordLength",
          "type": "uint8"
        }
      ],
      "name": "reallyCommenceLiveGame",
      "outputs": [],
      "payable": false,
      "stateMutability": "nonpayable",
      "type": "function"
    },
    {
      "constant": false,
      "inputs": [],
      "name": "getActiveGame",
      "outputs": [],
      "payable": false,
      "stateMutability": "nonpayable",
      "type": "function"
    },
    {
      "constant": false,
      "inputs": [
        {
          "name": "guess",
          "type": "string"
        },
        {
          "name": "gameId",
          "type": "uint256"
        }
      ],
      "name": "checkGuess",
      "outputs": [],
      "payable": false,
      "stateMutability": "nonpayable",
      "type": "function"
    }
  ],
  "bytecode": "0x606060405260008060006101000a81548163ffffffff021916908363ffffffff160217905550341561003057600080fd5b61391f8061003f6000396000f30060606040526004361061008e576000357c0100000000000000000000000000000000000000000000000000000000900463ffffffff168063117a5b901461009057806313e4c714146102af5780632ec1c017146105975780634d83d55a146105e457806371c0b53314610680578063957b5fb4146106fa578063d69d50441461070f578063d77eef1b146107c4575b005b341561009b57600080fd5b6100b1600480803590602001909190505061082a565b60405180806020018881526020018760ff1660ff16815260200180602001806020018660ff1660ff1681526020018573ffffffffffffffffffffffffffffffffffffffff1673ffffffffffffffffffffffffffffffffffffffff16815260200184810384528b8181546001816001161561010002031660029004815260200191508054600181600116156101000203166002900480156101925780601f1061016757610100808354040283529160200191610192565b820191906000526020600020905b81548152906001019060200180831161017557829003601f168201915b50508481038352888181546001816001161561010002031660029004815260200191508054600181600116156101000203166002900480156102155780601f106101ea57610100808354040283529160200191610215565b820191906000526020600020905b8154815290600101906020018083116101f857829003601f168201915b50508481038252878181546001816001161561010002031660029004815260200191508054600181600116156101000203166002900480156102985780601f1061026d57610100808354040283529160200191610298565b820191906000526020600020905b81548152906001019060200180831161027b57829003601f168201915b50509a505050505050505050505060405180910390f35b34156102ba57600080fd5b6102d060048080359060200190919050506108b2565b60405180806020018b81526020018a60ff1660ff1681526020018060200180602001806020018960ff1660ff1681526020018860ff1660ff1681526020018773ffffffffffffffffffffffffffffffffffffffff1673ffffffffffffffffffffffffffffffffffffffff1681526020018673ffffffffffffffffffffffffffffffffffffffff1673ffffffffffffffffffffffffffffffffffffffff16815260200185810385528f8181546001816001161561010002031660029004815260200191508054600181600116156101000203166002900480156103f35780601f106103c8576101008083540402835291602001916103f3565b820191906000526020600020905b8154815290600101906020018083116103d657829003601f168201915b505085810384528c8181546001816001161561010002031660029004815260200191508054600181600116156101000203166002900480156104765780601f1061044b57610100808354040283529160200191610476565b820191906000526020600020905b81548152906001019060200180831161045957829003601f168201915b505085810383528b8181546001816001161561010002031660029004815260200191508054600181600116156101000203166002900480156104f95780601f106104ce576101008083540402835291602001916104f9565b820191906000526020600020905b8154815290600101906020018083116104dc57829003601f168201915b505085810382528a81815460018160011615610100020316600290048152602001915080546001816001161561010002031660029004801561057c5780601f106105515761010080835404028352916020019161057c565b820191906000526020600020905b81548152906001019060200180831161055f57829003601f168201915b50509e50505050505050505050505050505060405180910390f35b34156105a257600080fd5b6105ce600480803573ffffffffffffffffffffffffffffffffffffffff16906020019091905050610978565b6040518082815260200191505060405180910390f35b34156105ef57600080fd5b6106056004808035906020019091905050610990565b6040518080602001828103825283818151815260200191508051906020019080838360005b8381101561064557808201518184015260208101905061062a565b50505050905090810190601f1680156106725780820380516001836020036101000a031916815260200191505b509250505060405180910390f35b6106f8600480803573ffffffffffffffffffffffffffffffffffffffff1690602001909190803590602001908201803590602001908080601f01602080910402602001604051908101604052809392919081815260200183838082843782019150505050505091908035906020019091905050610a40565b005b341561070557600080fd5b61070d610bae565b005b341561071a57600080fd5b6107c2600480803590602001908201803590602001908080601f0160208091040260200160405190810160405280939291908181526020018383808284378201915050505050509190803590602001909190803590602001908201803590602001908080601f0160208091040260200160405190810160405280939291908181526020018383808284378201915050505050509190803560ff16906020019091905050611092565b005b34156107cf57600080fd5b610828600480803590602001908201803590602001908080601f01602080910402602001604051908101604052809392919081815260200183838082843782019150505050505091908035906020019091905050611769565b005b60018181548110151561083957fe5b906000526020600020906006020160009150905080600001908060010154908060020160009054906101000a900460ff1690806003019080600401908060050160009054906101000a900460ff16908060050160019054906101000a900473ffffffffffffffffffffffffffffffffffffffff16905087565b6003818154811015156108c157fe5b90600052602060002090600b020160009150905080600001908060010154908060020160009054906101000a900460ff16908060030190806004019080600501908060060160009054906101000a900460ff16908060090160009054906101000a900460ff16908060090160019054906101000a900473ffffffffffffffffffffffffffffffffffffffff169080600a0160009054906101000a900473ffffffffffffffffffffffffffffffffffffffff1690508a565b60046020528060005260406000206000915090505481565b60026020528060005260406000206000915090508054600181600116156101000203166002900480601f016020809104026020016040519081016040528092919081815260200182805460018160011615610100020316600290048015610a385780601f10610a0d57610100808354040283529160200191610a38565b820191906000526020600020905b815481529060010190602001808311610a1b57829003601f168201915b505050505081565b8273ffffffffffffffffffffffffffffffffffffffff166108fc829081150290604051600060405180830381858888f1935050505015610b30577fd2155776beca0cf500265d023e4dbdcbdfbc261d7816a37e0ff286a91b399c4d82600183604051808060200184151515158152602001838152602001828103825285818151815260200191508051906020019080838360005b83811015610aef578082015181840152602081019050610ad4565b50505050905090810190601f168015610b1c5780820380516001836020036101000a031916815260200191505b5094505050505060405180910390a1610ba9565b7f482885da707789d232c780ec53cafca403da1301d08c9ae6f64bd0225b4bab7330346000604051808473ffffffffffffffffffffffffffffffffffffffff1673ffffffffffffffffffffffffffffffffffffffff16815260200183815260200182151515158152602001935050505060405180910390a15b505050565b6000610bb933611b53565b90507fdcc734248b9e9bcfcbd1187acf9d439e66a0c2b499a0f417d9826384973aad0a6003600460003373ffffffffffffffffffffffffffffffffffffffff1673ffffffffffffffffffffffffffffffffffffffff16815260200190815260200160002054815481101515610c2a57fe5b90600052602060002090600b02016005016003600460003373ffffffffffffffffffffffffffffffffffffffff1673ffffffffffffffffffffffffffffffffffffffff16815260200190815260200160002054815481101515610c8957fe5b90600052602060002090600b02016004016003600460003373ffffffffffffffffffffffffffffffffffffffff1673ffffffffffffffffffffffffffffffffffffffff16815260200190815260200160002054815481101515610ce857fe5b90600052602060002090600b0201600101546003600460003373ffffffffffffffffffffffffffffffffffffffff1673ffffffffffffffffffffffffffffffffffffffff16815260200190815260200160002054815481101515610d4857fe5b90600052602060002090600b020160020160009054906101000a900460ff166003600460003373ffffffffffffffffffffffffffffffffffffffff1673ffffffffffffffffffffffffffffffffffffffff16815260200190815260200160002054815481101515610db557fe5b90600052602060002090600b02016003016003600460003373ffffffffffffffffffffffffffffffffffffffff1673ffffffffffffffffffffffffffffffffffffffff16815260200190815260200160002054815481101515610e1457fe5b90600052602060002090600b020160090160009054906101000a900460ff166003600460003373ffffffffffffffffffffffffffffffffffffffff1673ffffffffffffffffffffffffffffffffffffffff16815260200190815260200160002054815481101515610e8157fe5b90600052602060002090600b020160060160009054906101000a900460ff16886040518080602001806020018981526020018860ff1660ff168152602001806020018760ff1660ff1681526020018660ff1660ff16815260200185815260200184810384528c818154600181600116156101000203166002900481526020019150805460018160011615610100020316600290048015610f625780601f10610f3757610100808354040283529160200191610f62565b820191906000526020600020905b815481529060010190602001808311610f4557829003601f168201915b505084810383528b818154600181600116156101000203166002900481526020019150805460018160011615610100020316600290048015610fe55780601f10610fba57610100808354040283529160200191610fe5565b820191906000526020600020905b815481529060010190602001808311610fc857829003601f168201915b50508481038252888181546001816001161561010002031660029004815260200191508054600181600116156101000203166002900480156110685780601f1061103d57610100808354040283529160200191611068565b820191906000526020600020905b81548152906001019060200180831161104b57829003601f168201915b50509b50505050505050505050505060405180910390a1611087611b9c565b61108f611f34565b50565b61109a613542565b60006110a4613556565b6110ac613556565b60006001888154811015156110bd57fe5b90600052602060002090600602016000018054600181600116156101000203166002900480601f0160208091040260200160405190810160405280929190818152602001828054600181600116156101000203166002900480156111625780601f1061113757610100808354040283529160200191611162565b820191906000526020600020905b81548152906001019060200180831161114557829003601f168201915b5050505050945060009350600160038054806001018281611183919061356a565b91600052602060002090600b02016000610180604051908101604052808a815260200160018e8154811015156111b557fe5b906000526020600020906006020160010154815260200160018e8154811015156111db57fe5b906000526020600020906006020160020160009054906101000a900460ff1660ff1681526020018c815260200160018e81548110151561121757fe5b90600052602060002090600602016004018054600181600116156101000203166002900480601f0160208091040260200160405190810160405280929190818152602001828054600181600116156101000203166002900480156112bc5780601f10611291576101008083540402835291602001916112bc565b820191906000526020600020905b81548152906001019060200180831161129f57829003601f168201915b505050505081526020018e81526020018960ff1681526020018881526020018781526020018b60ff16815260200160018e8154811015156112f957fe5b906000526020600020906006020160050160019054906101000a900473ffffffffffffffffffffffffffffffffffffffff1673ffffffffffffffffffffffffffffffffffffffff1681526020013373ffffffffffffffffffffffffffffffffffffffff168152509091909150600082015181600001908051906020019061138192919061359c565b506020820151816001015560408201518160020160006101000a81548160ff021916908360ff16021790555060608201518160030190805190602001906113c992919061359c565b5060808201518160040190805190602001906113e692919061359c565b5060a082015181600501908051906020019061140392919061359c565b5060c08201518160060160006101000a81548160ff021916908360ff16021790555060e082015181600701908051906020019061144192919061361c565b5061010082015181600801908051906020019061145f92919061361c565b506101208201518160090160006101000a81548160ff021916908360ff1602179055506101408201518160090160016101000a81548173ffffffffffffffffffffffffffffffffffffffff021916908373ffffffffffffffffffffffffffffffffffffffff16021790555061016082015181600a0160006101000a81548173ffffffffffffffffffffffffffffffffffffffff021916908373ffffffffffffffffffffffffffffffffffffffff16021790555050500390507f746ffb8547cf17810666c7e53b35fce56fdadb9c4b4d5882ce3746334fdfe6528960018a81548110151561154857fe5b90600052602060002090600602016004018360018c81548110151561156957fe5b90600052602060002090600602016001015460018d81548110151561158a57fe5b906000526020600020906006020160020160009054906101000a900460ff168c8c6040518080602001806020018881526020018781526020018660ff1660ff168152602001806020018560ff1660ff16815260200184810384528b818151815260200191508051906020019080838360005b838110156116175780820151818401526020810190506115fc565b50505050905090810190601f1680156116445780820380516001836020036101000a031916815260200191505b5084810383528a8181546001816001161561010002031660029004815260200191508054600181600116156101000203166002900480156116c65780601f1061169b576101008083540402835291602001916116c6565b820191906000526020600020905b8154815290600101906020018083116116a957829003601f168201915b5050848103825286818151815260200191508051906020019080838360005b838110156117005780820151818401526020810190506116e5565b50505050905090810190601f16801561172d5780820380516001836020036101000a031916815260200191505b509a505050505050505050505060405180910390a161174c8682612103565b611755816121bb565b61175e88612202565b505050505050505050565b6000611773613542565b600060038481548110151561178457fe5b90600052602060002090600b0201600601600081819054906101000a900460ff168092919060010191906101000a81548160ff021916908360ff16021790555050600092506003848154811015156117d857fe5b90600052602060002090600b02016000018054600181600116156101000203166002900480601f01602080910402602001604051908101604052809291908181526020018280546001816001161561010002031660029004801561187d5780601f106118525761010080835404028352916020019161187d565b820191906000526020600020905b81548152906001019060200180831161186057829003601f168201915b5050505050915060018551111561189d5761189885856123be565b611b4c565b600185511415611b4b57600090505b81518163ffffffff161015611b1b578460008151811015156118ca57fe5b9060200101517f010000000000000000000000000000000000000000000000000000000000000090047f0100000000000000000000000000000000000000000000000000000000000000027effffffffffffffffffffffffffffffffffffffffffffffffffffffffffffff1916828263ffffffff1681518110151561194b57fe5b9060200101517f010000000000000000000000000000000000000000000000000000000000000090047f0100000000000000000000000000000000000000000000000000000000000000027effffffffffffffffffffffffffffffffffffffffffffffffffffffffffffff19161415611b0e5760019250846003858154811015156119d257fe5b90600052602060002090600b02016007018263ffffffff168154811015156119f657fe5b90600052602060002090019080519060200190611a1492919061367c565b507f0174af177ef003e33d855a98d075068cfba2f53c781348a9c6e4bb185a6245ee85600183600388815481101515611a4957fe5b90600052602060002090600b020160060160009054906101000a900460ff166040518080602001851515151581526020018463ffffffff1663ffffffff1681526020018360ff1660ff168152602001828103825286818151815260200191508051906020019080838360005b83811015611ad0578082015181840152602081019050611ab5565b50505050905090810190601f168015611afd5780820380516001836020036101000a031916815260200191505b509550505050505060405180910390a15b80806001019150506118ac565b600115158315151415611b3257611b318461297d565b5b600015158315151415611b4a57611b49848661315a565b5b5b5b5050505050565b6000600460008373ffffffffffffffffffffffffffffffffffffffff1673ffffffffffffffffffffffffffffffffffffffff168152602001908152602001600020549050919050565b611ba4613542565b60006040805190810160405280600181526020017f24000000000000000000000000000000000000000000000000000000000000008152509150600090505b6003600460003373ffffffffffffffffffffffffffffffffffffffff1673ffffffffffffffffffffffffffffffffffffffff16815260200190815260200160002054815481101515611c3157fe5b90600052602060002090600b0201600701805490508163ffffffff161015611f3057816000815181101515611c6257fe5b9060200101517f010000000000000000000000000000000000000000000000000000000000000090047f0100000000000000000000000000000000000000000000000000000000000000027effffffffffffffffffffffffffffffffffffffffffffffffffffffffffffff19166003600460003373ffffffffffffffffffffffffffffffffffffffff1673ffffffffffffffffffffffffffffffffffffffff16815260200190815260200160002054815481101515611d1d57fe5b90600052602060002090600b02016007018263ffffffff16815481101515611d4157fe5b906000526020600020900160008154600181600116156101000203166002900481101515611d6b57fe5b815460011615611d8a5790600052602060002090602091828204019190065b9054901a7f0100000000000000000000000000000000000000000000000000000000000000027effffffffffffffffffffffffffffffffffffffffffffffffffffffffffffff1916141515611f23577f79cf4eb0d6305e4d55a4c2df65998d7b62c2a406f83d5f6e14d131db42bb70ab6003600460003373ffffffffffffffffffffffffffffffffffffffff1673ffffffffffffffffffffffffffffffffffffffff16815260200190815260200160002054815481101515611e4857fe5b90600052602060002090600b02016007018263ffffffff16815481101515611e6c57fe5b90600052602060002090018260405180806020018363ffffffff1663ffffffff168152602001828103825284818154600181600116156101000203166002900481526020019150805460018160011615610100020316600290048015611f135780601f10611ee857610100808354040283529160200191611f13565b820191906000526020600020905b815481529060010190602001808311611ef657829003601f168201915b5050935050505060405180910390a15b8080600101915050611be3565b5050565b60008090505b6003600460003373ffffffffffffffffffffffffffffffffffffffff1673ffffffffffffffffffffffffffffffffffffffff16815260200190815260200160002054815481101515611f8857fe5b90600052602060002090600b0201600801805490508163ffffffff161015612100577fd230b39ddf0abb4c478d27f0f161bdd2f200ace6304f4a87d588c44a3fa35e8c6003600460003373ffffffffffffffffffffffffffffffffffffffff1673ffffffffffffffffffffffffffffffffffffffff1681526020019081526020016000205481548110151561201957fe5b90600052602060002090600b02016008018263ffffffff1681548110151561203d57fe5b90600052602060002090018260405180806020018363ffffffff1663ffffffff1681526020018281038252848181546001816001161561010002031660029004815260200191508054600181600116156101000203166002900480156120e45780601f106120b9576101008083540402835291602001916120e4565b820191906000526020600020905b8154815290600101906020018083116120c757829003601f168201915b5050935050505060405180910390a18080600101915050611f3a565b50565b60008090505b8260ff168163ffffffff1610156121b65760038281548110151561212957fe5b90600052602060002090600b0201600701805480600101828161214c91906136fc565b916000526020600020900160006040805190810160405280600181526020017f2400000000000000000000000000000000000000000000000000000000000000815250909190915090805190602001906121a792919061367c565b50508080600101915050612109565b505050565b80600460003373ffffffffffffffffffffffffffffffffffffffff1673ffffffffffffffffffffffffffffffffffffffff1681526020019081526020016000208190555050565b7f3c292ea39929efc9883230ce64b1d2bc9218bb71cb8a754ff1cb2dae6aad084660018281548110151561223257fe5b906000526020600020906006020160030160405180806020018281038252838181546001816001161561010002031660029004815260200191508054600181600116156101000203166002900480156122cc5780601f106122a1576101008083540402835291602001916122cc565b820191906000526020600020905b8154815290600101906020018083116122af57829003601f168201915b50509250505060405180910390a16001818154811015156122e957fe5b9060005260206000209060060201600080820160006123089190613728565b60018201600090556002820160006101000a81549060ff02191690556003820160006123349190613728565b6004820160006123449190613728565b6005820160006101000a81549060ff02191690556005820160016101000a81549073ffffffffffffffffffffffffffffffffffffffff0219169055505060008081819054906101000a900463ffffffff168092919060010191906101000a81548163ffffffff021916908363ffffffff1602179055505050565b6123c6613542565b6000806000806003868154811015156123db57fe5b90600052602060002090600b02016000018054600181600116156101000203166002900480601f0160208091040260200160405190810160405280929190818152602001828054600181600116156101000203166002900480156124805780601f1061245557610100808354040283529160200191612480565b820191906000526020600020905b81548152906001019060200180831161246357829003601f168201915b505050505094506001935086518551141561296957600092505b84518363ffffffff1610156125d257868363ffffffff168151811015156124bd57fe5b9060200101517f010000000000000000000000000000000000000000000000000000000000000090047f0100000000000000000000000000000000000000000000000000000000000000027effffffffffffffffffffffffffffffffffffffffffffffffffffffffffffff1916858463ffffffff1681518110151561253e57fe5b9060200101517f010000000000000000000000000000000000000000000000000000000000000090047f0100000000000000000000000000000000000000000000000000000000000000027effffffffffffffffffffffffffffffffffffffffffffffffffffffffffffff19161415156125c557600093506125c0868861315a565b6125d2565b828060010193505061249a565b600115158415151415612964576003868154811015156125ee57fe5b90600052602060002090600b02016001015460038781548110151561260f57fe5b90600052602060002090600b020160010154019150606160648381151561263257fe5b0402905061273960038781548110151561264857fe5b90600052602060002090600b0201600a0160009054906101000a900473ffffffffffffffffffffffffffffffffffffffff1660038881548110151561268957fe5b90600052602060002090600b02016005018054600181600116156101000203166002900480601f01602080910402602001604051908101604052809291908181526020018280546001816001161561010002031660029004801561272e5780601f106127035761010080835404028352916020019161272e565b820191906000526020600020905b81548152906001019060200180831161271157829003601f168201915b505050505083610a40565b7fffedf7f8820dde2d4b397a1fc7d384e98b9e4a78a9da7bd4352fe2340d0bf65b60038781548110151561276957fe5b90600052602060002090600b020160050160038881548110151561278957fe5b90600052602060002090600b02016000016003898154811015156127a957fe5b90600052602060002090600b02016004016040518080602001806020018060200184810384528781815460018160011615610100020316600290048152602001915080546001816001161561010002031660029004801561284b5780601f106128205761010080835404028352916020019161284b565b820191906000526020600020905b81548152906001019060200180831161282e57829003601f168201915b50508481038352868181546001816001161561010002031660029004815260200191508054600181600116156101000203166002900480156128ce5780601f106128a3576101008083540402835291602001916128ce565b820191906000526020600020905b8154815290600101906020018083116128b157829003601f168201915b50508481038252858181546001816001161561010002031660029004815260200191508054600181600116156101000203166002900480156129515780601f1061292657610100808354040283529160200191612951565b820191906000526020600020905b81548152906001019060200180831161293457829003601f168201915b5050965050505050505060405180910390a15b612974565b612973868861315a565b5b50505050505050565b612985613542565b600061298f613542565b60006003858154811015156129a057fe5b90600052602060002090600b02016000018054600181600116156101000203166002900480601f016020809104026020016040519081016040528092919081815260200182805460018160011615610100020316600290048015612a455780601f10612a1a57610100808354040283529160200191612a45565b820191906000526020600020905b815481529060010190602001808311612a2857829003601f168201915b5050505050935060019250600090505b600385815481101515612a6457fe5b90600052602060002090600b0201600701805490508163ffffffff161015612c7957600385815481101515612a9557fe5b90600052602060002090600b02016007018163ffffffff16815481101515612ab957fe5b90600052602060002090018054600181600116156101000203166002900480601f016020809104026020016040519081016040528092919081815260200182805460018160011615610100020316600290048015612b585780601f10612b2d57610100808354040283529160200191612b58565b820191906000526020600020905b815481529060010190602001808311612b3b57829003601f168201915b50505050509150838163ffffffff16815181101515612b7357fe5b9060200101517f010000000000000000000000000000000000000000000000000000000000000090047f0100000000000000000000000000000000000000000000000000000000000000027effffffffffffffffffffffffffffffffffffffffffffffffffffffffffffff1916826000815181101515612bef57fe5b9060200101517f010000000000000000000000000000000000000000000000000000000000000090047f0100000000000000000000000000000000000000000000000000000000000000027effffffffffffffffffffffffffffffffffffffffffffffffffffffffffffff1916141515612c6c5760009250612c79565b8080600101915050612a55565b600115158315151415612eb1577fffedf7f8820dde2d4b397a1fc7d384e98b9e4a78a9da7bd4352fe2340d0bf65b600386815481101515612cb657fe5b90600052602060002090600b0201600501600387815481101515612cd657fe5b90600052602060002090600b0201600001600388815481101515612cf657fe5b90600052602060002090600b020160040160405180806020018060200180602001848103845287818154600181600116156101000203166002900481526020019150805460018160011615610100020316600290048015612d985780601f10612d6d57610100808354040283529160200191612d98565b820191906000526020600020905b815481529060010190602001808311612d7b57829003601f168201915b5050848103835286818154600181600116156101000203166002900481526020019150805460018160011615610100020316600290048015612e1b5780601f10612df057610100808354040283529160200191612e1b565b820191906000526020600020905b815481529060010190602001808311612dfe57829003601f168201915b5050848103825285818154600181600116156101000203166002900481526020019150805460018160011615610100020316600290048015612e9e5780601f10612e7357610100808354040283529160200191612e9e565b820191906000526020600020905b815481529060010190602001808311612e8157829003601f168201915b5050965050505050505060405180910390a15b60001515831515141561315357600385815481101515612ecd57fe5b90600052602060002090600b020160020160009054906101000a900460ff1660ff16600386815481101515612efe57fe5b90600052602060002090600b020160060160009054906101000a900460ff1660ff16101515613152577fffedf7f8820dde2d4b397a1fc7d384e98b9e4a78a9da7bd4352fe2340d0bf65b600386815481101515612f5757fe5b90600052602060002090600b0201600401600387815481101515612f7757fe5b90600052602060002090600b0201600001600388815481101515612f9757fe5b90600052602060002090600b0201600501604051808060200180602001806020018481038452878181546001816001161561010002031660029004815260200191508054600181600116156101000203166002900480156130395780601f1061300e57610100808354040283529160200191613039565b820191906000526020600020905b81548152906001019060200180831161301c57829003601f168201915b50508481038352868181546001816001161561010002031660029004815260200191508054600181600116156101000203166002900480156130bc5780601f10613091576101008083540402835291602001916130bc565b820191906000526020600020905b81548152906001019060200180831161309f57829003601f168201915b505084810382528581815460018160011615610100020316600290048152602001915080546001816001161561010002031660029004801561313f5780601f106131145761010080835404028352916020019161313f565b820191906000526020600020905b81548152906001019060200180831161312257829003601f168201915b5050965050505050505060405180910390a15b5b5050505050565b60038281548110151561316957fe5b90600052602060002090600b020160060160009054906101000a900460ff1660ff1660038381548110151561319a57fe5b90600052602060002090600b020160020160009054906101000a900460ff1660ff161115613313577f0174af177ef003e33d855a98d075068cfba2f53c781348a9c6e4bb185a6245ee816000806003868154811015156131f657fe5b90600052602060002090600b020160060160009054906101000a900460ff166040518080602001851515151581526020018463ffffffff1681526020018360ff1660ff168152602001828103825286818151815260200191508051906020019080838360005b8381101561327757808201518184015260208101905061325c565b50505050905090810190601f1680156132a45780820380516001836020036101000a031916815260200191505b509550505050505060405180910390a16003828154811015156132c357fe5b90600052602060002090600b020160080180548060010182816132e691906136fc565b91600052602060002090016000839091909150908051906020019061330c92919061367c565b505061353e565b7fffedf7f8820dde2d4b397a1fc7d384e98b9e4a78a9da7bd4352fe2340d0bf65b60038381548110151561334357fe5b90600052602060002090600b020160040160038481548110151561336357fe5b90600052602060002090600b020160000160038581548110151561338357fe5b90600052602060002090600b0201600501604051808060200180602001806020018481038452878181546001816001161561010002031660029004815260200191508054600181600116156101000203166002900480156134255780601f106133fa57610100808354040283529160200191613425565b820191906000526020600020905b81548152906001019060200180831161340857829003601f168201915b50508481038352868181546001816001161561010002031660029004815260200191508054600181600116156101000203166002900480156134a85780601f1061347d576101008083540402835291602001916134a8565b820191906000526020600020905b81548152906001019060200180831161348b57829003601f168201915b505084810382528581815460018160011615610100020316600290048152602001915080546001816001161561010002031660029004801561352b5780601f106135005761010080835404028352916020019161352b565b820191906000526020600020905b81548152906001019060200180831161350e57829003601f168201915b5050965050505050505060405180910390a15b5050565b602060405190810160405280600081525090565b602060405190810160405280600081525090565b81548183558181151161359757600b0281600b0283600052602060002091820191016135969190613770565b5b505050565b828054600181600116156101000203166002900490600052602060002090601f016020900481019282601f106135dd57805160ff191683800117855561360b565b8280016001018555821561360b579182015b8281111561360a5782518255916020019190600101906135ef565b5b5090506136189190613881565b5090565b82805482825590600052602060002090810192821561366b579160200282015b8281111561366a57825182908051906020019061365a92919061359c565b509160200191906001019061363c565b5b50905061367891906138a6565b5090565b828054600181600116156101000203166002900490600052602060002090601f016020900481019282601f106136bd57805160ff19168380011785556136eb565b828001600101855582156136eb579182015b828111156136ea5782518255916020019190600101906136cf565b5b5090506136f89190613881565b5090565b8154818355818115116137235781836000526020600020918201910161372291906138a6565b5b505050565b50805460018160011615610100020316600290046000825580601f1061374e575061376d565b601f01602090049060005260206000209081019061376c9190613881565b5b50565b61387e91905b8082111561387a576000808201600061378f9190613728565b60018201600090556002820160006101000a81549060ff02191690556003820160006137bb9190613728565b6004820160006137cb9190613728565b6005820160006137db9190613728565b6006820160006101000a81549060ff02191690556007820160006137ff91906138d2565b60088201600061380f91906138d2565b6009820160006101000a81549060ff02191690556009820160016101000a81549073ffffffffffffffffffffffffffffffffffffffff0219169055600a820160006101000a81549073ffffffffffffffffffffffffffffffffffffffff021916905550600b01613776565b5090565b90565b6138a391905b8082111561389f576000816000905550600101613887565b5090565b90565b6138cf91905b808211156138cb57600081816138c29190613728565b506001016138ac565b5090565b90565b50805460008255906000526020600020908101906138f091906138a6565b505600a165627a7a723058205f12005f68f71b52cb40b3f65f65322a96ac4e034f83579c4d77fcd4083c71130029",
  "source": "pragma solidity ^0.4.19;\n\nimport './PendingGame.sol';\n\ncontract LiveGame is PendingGame {\n\n  event ActiveGameDetails(string challenger, string hangman, uint wager, uint8 maxTries, string uniqGameString, uint8 wordLength, uint8 tries, uint gameId);\n  event SolutionCheck(string letter, uint32 index);\n  event MissesCheck(string letter, uint32 index);\n  event GameStarted(string challenger, string hangman, uint gameId, uint wager, uint8 maxTries, string uniqGameString, uint8 wordLength);\n  event SolutionGuess(string guess, bool hit, uint32 index, uint8 tries);\n  event GameWinner(string winner, string word, string loser);\n  event WinnerPaid(string winner, bool paid, uint payout);\n  event FundsTransfer(address contractAddress, uint wager, bool success);\n\n  struct ActiveGame {\n    string word;\n    uint wager;\n    uint8 maxTries;\n    string uniqGameString;\n    string hangman;\n    string challenger;\n    uint8 tries;\n    string[] hits;\n    string[] misses;\n    uint8 wordLength;\n    address hangmanAddress;\n    address challengerAddress;\n  }\n\n  ActiveGame[] public activeGames;\n  mapping(address => uint) public activeGamesMap;\n\n  function checkSendHits() private {\n    string memory holder = '$';\n    for (uint32 i = 0; i < activeGames[activeGamesMap[msg.sender]].hits.length; i++) {\n      if (bytes(activeGames[activeGamesMap[msg.sender]].hits[i])[0] != bytes(holder)[0]) {\n        SolutionCheck(activeGames[activeGamesMap[msg.sender]].hits[i], i);\n      }\n    }\n  }\n\n  function checkSendMisses() private {\n    for (uint32 i = 0; i < activeGames[activeGamesMap[msg.sender]].misses.length; i++) {\n      MissesCheck(activeGames[activeGamesMap[msg.sender]].misses[i], i);\n    }\n  }\n\n  function payWinner(address winnerAddress, string challenger, uint payout) public payable {\n    if (winnerAddress.send(payout)) {\n      WinnerPaid(challenger, true, payout);\n    } else {\n      FundsTransfer(this, msg.value, false);\n    }\n  }\n\n  function checkWordGuess(string guess, uint gameId) private {\n    string memory gameWord = activeGames[gameId].word;\n    bool isSolved = true;\n    if (bytes(gameWord).length == bytes(guess).length) {\n      for (uint32 i = 0; i < bytes(gameWord).length; i++) {\n        if (bytes(gameWord)[i] != bytes(guess)[i]) {\n          isSolved = false;\n          checkHanged(gameId, guess);\n          break;\n        }\n      }\n      if (isSolved == true) {\n        uint totalWager =  activeGames[gameId].wager + activeGames[gameId].wager;\n        uint payout = (totalWager/100) * 97;\n        payWinner(activeGames[gameId].challengerAddress, activeGames[gameId].challenger, payout);\n        GameWinner(activeGames[gameId].challenger, activeGames[gameId].word, activeGames[gameId].hangman);\n      }\n    } else {\n      checkHanged(gameId, guess);\n    }\n  }\n\n  function reallyCommenceLiveGame(string challenger, uint gameId, string uniqGameString, uint8 wordLength) public {\n    string memory gameWord = games[gameId].word;\n    uint8 tries = 0;\n    string[] memory hits;\n    string[] memory misses;\n    uint id = activeGames.push(ActiveGame(gameWord, games[gameId].wager, games[gameId].tries, uniqGameString, games[gameId].userName, challenger, tries, hits, misses, wordLength, games[gameId].hangmanAddress, msg.sender)) - 1;\n    GameStarted(challenger, games[gameId].userName, id, games[gameId].wager, games[gameId].tries, uniqGameString, wordLength);\n    initSolutionArray(wordLength, id);\n    mapLiveGameToAddress(id);\n    removeGameFromPending(gameId);\n  }\n\n  function getActiveGame() public {\n    uint gameId = getMapIndex(msg.sender);\n    ActiveGameDetails(activeGames[activeGamesMap[msg.sender]].challenger,\n      activeGames[activeGamesMap[msg.sender]].hangman,\n      activeGames[activeGamesMap[msg.sender]].wager,\n      activeGames[activeGamesMap[msg.sender]].maxTries,\n      activeGames[activeGamesMap[msg.sender]].uniqGameString,\n      activeGames[activeGamesMap[msg.sender]].wordLength,\n      activeGames[activeGamesMap[msg.sender]].tries,\n      gameId\n    );\n    checkSendHits();\n    checkSendMisses();\n  }\n\n  function checkGuess(string guess, uint gameId) public {\n    activeGames[gameId].tries++;\n    bool isHit = false;\n    string memory gameWord = activeGames[gameId].word;\n    if (bytes(guess).length > 1) {\n      checkWordGuess(guess, gameId);\n    } else if (bytes(guess).length == 1) {\n      for (uint32 i = 0; i < bytes(gameWord).length; i++) {\n        if (bytes(gameWord)[i] == bytes(guess)[0]) {\n          isHit = true;\n          activeGames[gameId].hits[i] = guess;\n          SolutionGuess(guess, true, i, activeGames[gameId].tries);\n        }\n      }\n      if (isHit == true) {\n        checkSolved(gameId);\n      }\n      if (isHit == false) {\n        checkHanged(gameId, guess);\n      }\n    }\n  }\n\n  function checkHanged(uint gameId, string guess) private {\n    if (activeGames[gameId].maxTries > activeGames[gameId].tries) {\n      SolutionGuess(guess, false, 0, activeGames[gameId].tries);\n      activeGames[gameId].misses.push(guess);\n    } else {\n      GameWinner(activeGames[gameId].hangman, activeGames[gameId].word, activeGames[gameId].challenger);\n    }\n  }\n\n  function getMapIndex(address challenger) private view returns(uint) {\n    return activeGamesMap[challenger];\n  }\n\n  function initSolutionArray(uint8 wordLength, uint gameIndex) private {\n    for (uint32 i = 0; i < wordLength; i++) {\n      activeGames[gameIndex].hits.push('$');\n    }\n  }\n\n  function mapLiveGameToAddress(uint gameIndex) private {\n    activeGamesMap[msg.sender] = gameIndex;\n  }\n\n  function checkSolved(uint gameId) private {\n    string memory gameWord = activeGames[gameId].word;\n    bool isSolution = true;\n    string memory letter;\n    for (uint32 i = 0; i < activeGames[gameId].hits.length; i++) {\n      letter = activeGames[gameId].hits[i];\n      if (bytes(letter)[0] != bytes(gameWord)[i]) {\n        isSolution = false;\n        break;\n      }\n    }\n    if (isSolution == true) {\n      GameWinner(activeGames[gameId].challenger, activeGames[gameId].word, activeGames[gameId].hangman);\n    }\n    if (isSolution == false) {\n      if (activeGames[gameId].tries >= activeGames[gameId].maxTries) {\n        GameWinner(activeGames[gameId].hangman, activeGames[gameId].word, activeGames[gameId].challenger);\n      }\n    }\n  }\n}\n",
  "sourcePath": "/Users/tysondaugherty/Desktop/funApps/ether/etherHang/contracts/LiveGame.sol",
  "compiler": {
    "name": "solc",
    "version": "0.4.19+commit.c4cbbb05.Emscripten.clang"
  },
  "schemaVersion": "1.0.1",
  "updatedAt": "2018-03-08T21:39:25.563Z"
}