{
  "contractName": "LiveGame",
  "abi": [
    {
      "anonymous": false,
      "inputs": [
        {
          "indexed": false,
          "name": "uniqGameString",
          "type": "string"
        }
      ],
      "name": "GameStarted",
      "type": "event"
    },
    {
      "constant": false,
      "inputs": [
        {
          "name": "word",
          "type": "string"
        },
        {
          "name": "wager",
          "type": "uint8"
        },
        {
          "name": "maxTries",
          "type": "uint8"
        },
        {
          "name": "uniqGameString",
          "type": "string"
        },
        {
          "name": "hangman",
          "type": "string"
        },
        {
          "name": "challenger",
          "type": "string"
        }
      ],
      "name": "startLiveGame",
      "outputs": [],
      "payable": false,
      "stateMutability": "nonpayable",
      "type": "function"
    }
  ],
  "bytecode": "0x6060604052341561000f57600080fd5b6105f28061001e6000396000f300606060405260043610610041576000357c0100000000000000000000000000000000000000000000000000000000900463ffffffff1680635dbb1c7f14610046575b600080fd5b341561005157600080fd5b610182600480803590602001908201803590602001908080601f0160208091040260200160405190810160405280939291908181526020018383808284378201915050505050509190803560ff1690602001909190803560ff1690602001909190803590602001908201803590602001908080601f0160208091040260200160405190810160405280939291908181526020018383808284378201915050505050509190803590602001908201803590602001908080601f0160208091040260200160405190810160405280939291908181526020018383808284378201915050505050509190803590602001908201803590602001908080601f01602080910402602001604051908101604052809392919081815260200183838082843782019150505050505091905050610184565b005b600061018e610439565b610197856103c4565b9150336001600084815260200190815260200160002060006101000a81548173ffffffffffffffffffffffffffffffffffffffff021916908373ffffffffffffffffffffffffffffffffffffffff160217905550610100604051908101604052808981526020018860ff1681526020018760ff16815260200183815260200186815260200185815260200184815260200182815250600080848152602001908152602001600020600082015181600001908051906020019061025a92919061044d565b5060208201518160010160006101000a81548160ff021916908360ff16021790555060408201518160010160016101000a81548160ff021916908360ff1602179055506060820151816002015560808201518160030190805190602001906102c392919061044d565b5060a08201518160040190805190602001906102e092919061044d565b5060c08201518160050190805190602001906102fd92919061044d565b5060e082015181600601908051906020019061031a9291906104cd565b509050507f4c49022e3faa3d594bcd4c0a41d358281ad8bb232d3d0cdb1add1e71a9daf266856040518080602001828103825283818151815260200191508051906020019080838360005b83811015610380578082015181840152602081019050610365565b50505050905090810190601f1680156103ad5780820380516001836020036101000a031916815260200191505b509250505060405180910390a15050505050505050565b600080826040518082805190602001908083835b6020831015156103fd57805182526020820191506020810190506020830392506103d8565b6001836020036101000a038019825116818451168082178552505050505050905001915050604051809103902060019004905080915050919050565b602060405190810160405280600081525090565b828054600181600116156101000203166002900490600052602060002090601f016020900481019282601f1061048e57805160ff19168380011785556104bc565b828001600101855582156104bc579182015b828111156104bb5782518255916020019190600101906104a0565b5b5090506104c9919061052d565b5090565b82805482825590600052602060002090810192821561051c579160200282015b8281111561051b57825182908051906020019061050b92919061044d565b50916020019190600101906104ed565b5b5090506105299190610552565b5090565b61054f91905b8082111561054b576000816000905550600101610533565b5090565b90565b61057b91905b80821115610577576000818161056e919061057e565b50600101610558565b5090565b90565b50805460018160011615610100020316600290046000825580601f106105a457506105c3565b601f0160209004906000526020600020908101906105c2919061052d565b5b505600a165627a7a7230582003f73e3a202fc0617f7bbb79bf0cc19e38d1866a331d45f3b1b72ef0e5a086db0029",
  "source": "pragma solidity ^0.4.19;\n\ncontract LiveGame {\n\n  event GameStarted(string uniqGameString);\n\n  struct ActiveGame {\n    string word;\n    uint8 wager;\n    uint8 maxTries;\n    uint id;\n    string uniqGameString;\n    string hangman;\n    string challenger;\n    string[] guesses;\n  }\n\n  mapping (uint => ActiveGame) activeGamesMap;\n  mapping (uint => address) gameToChallenger;\n\n  function startLiveGame(string word, uint8 wager, uint8 maxTries, string uniqGameString, string hangman, string challenger) public {\n    uint randId = _generateRandomId(uniqGameString);\n    string[] memory guesses;\n    gameToChallenger[randId] = msg.sender;\n    activeGamesMap[randId] = ActiveGame(word, wager, maxTries, randId, uniqGameString, hangman, challenger, guesses);\n    GameStarted(uniqGameString);\n  }\n\n  function _generateRandomId(string word) private pure returns (uint) {\n    uint rand = uint(keccak256(word));\n    return rand;\n  }\n}\n",
  "sourcePath": "/Users/tysondaugherty/Desktop/funApps/ether/etherHang/contracts/LiveGame.sol",
  "compiler": {
    "name": "solc",
    "version": "0.4.19+commit.c4cbbb05.Emscripten.clang"
  },
  "schemaVersion": "1.0.1",
  "updatedAt": "2018-02-23T03:05:05.534Z"
}