{
  "contractName": "PendingGame",
  "abi": [
    {
      "constant": true,
      "inputs": [
        {
          "name": "",
          "type": "uint256"
        }
      ],
      "name": "games",
      "outputs": [
        {
          "name": "word",
          "type": "string"
        },
        {
          "name": "wager",
          "type": "uint256"
        },
        {
          "name": "tries",
          "type": "uint8"
        },
        {
          "name": "userWord",
          "type": "string"
        },
        {
          "name": "userName",
          "type": "string"
        },
        {
          "name": "wordLength",
          "type": "uint8"
        },
        {
          "name": "hangmanAddress",
          "type": "address"
        }
      ],
      "payable": false,
      "stateMutability": "view",
      "type": "function"
    },
    {
      "constant": true,
      "inputs": [
        {
          "name": "",
          "type": "uint256"
        }
      ],
      "name": "idToWord",
      "outputs": [
        {
          "name": "",
          "type": "string"
        }
      ],
      "payable": false,
      "stateMutability": "view",
      "type": "function"
    },
    {
      "payable": true,
      "stateMutability": "payable",
      "type": "fallback"
    },
    {
      "anonymous": false,
      "inputs": [
        {
          "indexed": false,
          "name": "gameId",
          "type": "uint256"
        },
        {
          "indexed": false,
          "name": "wager",
          "type": "uint256"
        },
        {
          "indexed": false,
          "name": "tries",
          "type": "uint8"
        },
        {
          "indexed": false,
          "name": "userName",
          "type": "string"
        },
        {
          "indexed": false,
          "name": "userWord",
          "type": "string"
        },
        {
          "indexed": false,
          "name": "wordLength",
          "type": "uint8"
        }
      ],
      "name": "NewGame",
      "type": "event"
    },
    {
      "anonymous": false,
      "inputs": [
        {
          "indexed": false,
          "name": "gameId",
          "type": "uint256"
        },
        {
          "indexed": false,
          "name": "wager",
          "type": "uint256"
        },
        {
          "indexed": false,
          "name": "tries",
          "type": "uint8"
        },
        {
          "indexed": false,
          "name": "userName",
          "type": "string"
        },
        {
          "indexed": false,
          "name": "userWord",
          "type": "string"
        },
        {
          "indexed": false,
          "name": "wordLength",
          "type": "uint8"
        }
      ],
      "name": "PendingGames",
      "type": "event"
    },
    {
      "anonymous": false,
      "inputs": [
        {
          "indexed": false,
          "name": "userWord",
          "type": "string"
        }
      ],
      "name": "RemovePendingGame",
      "type": "event"
    }
  ],
  "bytecode": "0x606060405260008060006101000a81548163ffffffff021916908363ffffffff160217905550341561003057600080fd5b61046d8061003f6000396000f30060606040526004361061004c576000357c0100000000000000000000000000000000000000000000000000000000900463ffffffff168063117a5b901461004e5780634d83d55a1461026d575b005b341561005957600080fd5b61006f6004808035906020019091905050610309565b60405180806020018881526020018760ff1660ff16815260200180602001806020018660ff1660ff1681526020018573ffffffffffffffffffffffffffffffffffffffff1673ffffffffffffffffffffffffffffffffffffffff16815260200184810384528b8181546001816001161561010002031660029004815260200191508054600181600116156101000203166002900480156101505780601f1061012557610100808354040283529160200191610150565b820191906000526020600020905b81548152906001019060200180831161013357829003601f168201915b50508481038352888181546001816001161561010002031660029004815260200191508054600181600116156101000203166002900480156101d35780601f106101a8576101008083540402835291602001916101d3565b820191906000526020600020905b8154815290600101906020018083116101b657829003601f168201915b50508481038252878181546001816001161561010002031660029004815260200191508054600181600116156101000203166002900480156102565780601f1061022b57610100808354040283529160200191610256565b820191906000526020600020905b81548152906001019060200180831161023957829003601f168201915b50509a505050505050505050505060405180910390f35b341561027857600080fd5b61028e6004808035906020019091905050610391565b6040518080602001828103825283818151815260200191508051906020019080838360005b838110156102ce5780820151818401526020810190506102b3565b50505050905090810190601f1680156102fb5780820380516001836020036101000a031916815260200191505b509250505060405180910390f35b60018181548110151561031857fe5b906000526020600020906006020160009150905080600001908060010154908060020160009054906101000a900460ff1690806003019080600401908060050160009054906101000a900460ff16908060050160019054906101000a900473ffffffffffffffffffffffffffffffffffffffff16905087565b60026020528060005260406000206000915090508054600181600116156101000203166002900480601f0160208091040260200160405190810160405280929190818152602001828054600181600116156101000203166002900480156104395780601f1061040e57610100808354040283529160200191610439565b820191906000526020600020905b81548152906001019060200180831161041c57829003601f168201915b5050505050815600a165627a7a72305820111091f8347185d81ab1bfc9cac16b1af42476a3e755bea9dc44a2b5625aacdf0029",
  "source": "pragma solidity ^0.4.19;\n\ncontract PendingGame {\n\n  event NewGame(uint gameId, uint wager, uint8 tries, string userName, string userWord, uint8 wordLength);\n  event PendingGames(uint gameId, uint wager, uint8 tries, string userName, string userWord, uint8 wordLength);\n  event RemovePendingGame(string userWord);\n\n  uint32 gamesArrayGaps = 0;\n\n  struct Game {\n    string word;\n    uint wager;\n    uint8 tries;\n    string userWord;\n    string userName;\n    uint8 wordLength;\n    address hangmanAddress;\n  }\n\n  Game[] public games;\n  mapping(uint => string) public idToWord;\n\n  function () payable public {\n    //FundTransfer(this, msg.value, true);\n  }\n\n  function reallyCreateGame(string _word, uint _wager, uint8 _tries, string _userWord, string _userName, uint8 _wordLength) internal {\n    uint id;\n    if (gamesArrayGaps < 1) {\n      id = games.push(Game(_word, _wager, _tries, _userWord, _userName, _wordLength, msg.sender)) - 1;\n    } else {\n      for (uint32 i = 0; i < games.length; i++) {\n        if (games[i].wordLength == 0) {\n          games[i] = Game(_word, _wager, _tries, _userWord, _userName, _wordLength, msg.sender);\n          id = i;\n          gamesArrayGaps--;\n          break;\n        }\n      }\n    }\n    idToWord[id] = _word;\n    NewGame(id, _wager, _tries, _userName, _userWord, _wordLength);\n  }\n\n  function removeGameFromPending(uint gameId) internal {\n    RemovePendingGame(games[gameId].userWord);\n    delete games[gameId];\n    gamesArrayGaps++;\n  }\n}\n",
  "sourcePath": "/Users/tysondaugherty/Desktop/funApps/ether/etherHang/contracts/PendingGame.sol",
  "compiler": {
    "name": "solc",
    "version": "0.4.19+commit.c4cbbb05.Emscripten.clang"
  },
  "schemaVersion": "1.0.1",
  "updatedAt": "2018-03-06T20:50:10.850Z"
}